{
  "contractName": "DWITokensale",
  "abi": [
    {
      "inputs": [
        {
          "internalType": "address",
          "name": "_token",
          "type": "address"
        }
      ],
      "stateMutability": "nonpayable",
      "type": "constructor"
    },
    {
      "anonymous": false,
      "inputs": [
        {
          "indexed": true,
          "internalType": "address",
          "name": "claimer",
          "type": "address"
        },
        {
          "indexed": false,
          "internalType": "uint256",
          "name": "amount",
          "type": "uint256"
        }
      ],
      "name": "TokensClaimed",
      "type": "event"
    },
    {
      "anonymous": false,
      "inputs": [
        {
          "indexed": true,
          "internalType": "address",
          "name": "buyer",
          "type": "address"
        },
        {
          "indexed": false,
          "internalType": "uint256",
          "name": "amount",
          "type": "uint256"
        }
      ],
      "name": "TokensPurchased",
      "type": "event"
    },
    {
      "inputs": [],
      "name": "owner",
      "outputs": [
        {
          "internalType": "address",
          "name": "",
          "type": "address"
        }
      ],
      "stateMutability": "view",
      "type": "function",
      "constant": true
    },
    {
      "inputs": [],
      "name": "saleEnded",
      "outputs": [
        {
          "internalType": "bool",
          "name": "",
          "type": "bool"
        }
      ],
      "stateMutability": "view",
      "type": "function",
      "constant": true
    },
    {
      "inputs": [
        {
          "internalType": "uint256",
          "name": "tokens",
          "type": "uint256"
        }
      ],
      "name": "buy",
      "outputs": [],
      "stateMutability": "payable",
      "type": "function",
      "payable": true
    },
    {
      "inputs": [],
      "name": "claimTokens",
      "outputs": [],
      "stateMutability": "nonpayable",
      "type": "function"
    },
    {
      "inputs": [
        {
          "internalType": "address",
          "name": "account",
          "type": "address"
        }
      ],
      "name": "balanceOf",
      "outputs": [
        {
          "internalType": "uint256",
          "name": "",
          "type": "uint256"
        }
      ],
      "stateMutability": "view",
      "type": "function",
      "constant": true
    },
    {
      "inputs": [],
      "name": "endSale",
      "outputs": [],
      "stateMutability": "nonpayable",
      "type": "function"
    },
    {
      "inputs": [],
      "name": "_tokens",
      "outputs": [
        {
          "internalType": "uint256",
          "name": "",
          "type": "uint256"
        }
      ],
      "stateMutability": "view",
      "type": "function",
      "constant": true
    },
    {
      "inputs": [],
      "name": "tokensSold",
      "outputs": [
        {
          "internalType": "uint256",
          "name": "",
          "type": "uint256"
        }
      ],
      "stateMutability": "view",
      "type": "function",
      "constant": true
    },
    {
      "inputs": [],
      "name": "totalTokens",
      "outputs": [
        {
          "internalType": "uint256",
          "name": "",
          "type": "uint256"
        }
      ],
      "stateMutability": "view",
      "type": "function",
      "constant": true
    },
    {
      "inputs": [],
      "name": "currentPhase",
      "outputs": [
        {
          "components": [
            {
              "internalType": "uint256",
              "name": "total",
              "type": "uint256"
            },
            {
              "internalType": "uint256",
              "name": "price",
              "type": "uint256"
            },
            {
              "internalType": "uint256",
              "name": "phase",
              "type": "uint256"
            }
          ],
          "internalType": "struct DWITokensale.Phase",
          "name": "",
          "type": "tuple"
        }
      ],
      "stateMutability": "view",
      "type": "function",
      "constant": true
    },
    {
      "inputs": [
        {
          "internalType": "uint256",
          "name": "phaseId",
          "type": "uint256"
        }
      ],
      "name": "phase",
      "outputs": [
        {
          "components": [
            {
              "internalType": "uint256",
              "name": "total",
              "type": "uint256"
            },
            {
              "internalType": "uint256",
              "name": "price",
              "type": "uint256"
            },
            {
              "internalType": "uint256",
              "name": "phase",
              "type": "uint256"
            }
          ],
          "internalType": "struct DWITokensale.Phase",
          "name": "",
          "type": "tuple"
        }
      ],
      "stateMutability": "view",
      "type": "function",
      "constant": true
    },
    {
      "inputs": [],
      "name": "_tokenPrice",
      "outputs": [
        {
          "internalType": "uint256",
          "name": "",
          "type": "uint256"
        }
      ],
      "stateMutability": "view",
      "type": "function",
      "constant": true
    }
  ],
  "bytecode": "0x60806040526000600460006101000a81548173ffffffffffffffffffffffffffffffffffffffff021916908373ffffffffffffffffffffffffffffffffffffffff1602179055503480156200005357600080fd5b5060405162001b7438038062001b74833981810160405281019062000079919062000242565b336000806101000a81548173ffffffffffffffffffffffffffffffffffffffff021916908373ffffffffffffffffffffffffffffffffffffffff16021790555080600560006101000a81548173ffffffffffffffffffffffffffffffffffffffff021916908373ffffffffffffffffffffffffffffffffffffffff1602179055506509184e72a000600181905550600060068190555060006002819055506000600760006101000a81548160ff0219169083151502179055506000600190505b600a8111620001d05760086040518060600160405280620f4240815260200160015484620001689190620002ad565b815260200183815250908060018154018082558091505060019003906000526020600020906003020160009091909190915060008201518160000155602082015181600101556040820151816002015550508080620001c790620002f8565b91505062000139565b505062000345565b600080fd5b600073ffffffffffffffffffffffffffffffffffffffff82169050919050565b60006200020a82620001dd565b9050919050565b6200021c81620001fd565b81146200022857600080fd5b50565b6000815190506200023c8162000211565b92915050565b6000602082840312156200025b576200025a620001d8565b5b60006200026b848285016200022b565b91505092915050565b6000819050919050565b7f4e487b7100000000000000000000000000000000000000000000000000000000600052601160045260246000fd5b6000620002ba8262000274565b9150620002c78362000274565b9250828202620002d78162000274565b91508282048414831517620002f157620002f06200027e565b5b5092915050565b6000620003058262000274565b91507fffffffffffffffffffffffffffffffffffffffffffffffffffffffffffffffff82036200033a57620003396200027e565b5b600182019050919050565b61181f80620003556000396000f3fe6080604052600436106100a75760003560e01c806370a082311161006457806370a08231146101985780637e1c0c09146101d55780638970d84c146102005780638da5cb5b1461022b5780639b8906ae14610256578063d96a094a14610281576100a7565b8063055ad42e146100ac578063135f8aa7146100d7578063380d831b146101145780633b971f9f1461012b57806348c54b9d14610156578063518ab2a81461016d575b600080fd5b3480156100b857600080fd5b506100c161029d565b6040516100ce9190610ed2565b60405180910390f35b3480156100e357600080fd5b506100fe60048036038101906100f99190610f1e565b6102b5565b60405161010b9190610ed2565b60405180910390f35b34801561012057600080fd5b5061012961030f565b005b34801561013757600080fd5b506101406105b9565b60405161014d9190610f5a565b60405180910390f35b34801561016257600080fd5b5061016b6105c3565b005b34801561017957600080fd5b506101826107d8565b60405161018f9190610f5a565b60405180910390f35b3480156101a457600080fd5b506101bf60048036038101906101ba9190610fd3565b6107e2565b6040516101cc9190610f5a565b60405180910390f35b3480156101e157600080fd5b506101ea61082b565b6040516101f79190610f5a565b60405180910390f35b34801561020c57600080fd5b506102156108cd565b6040516102229190610f5a565b60405180910390f35b34801561023757600080fd5b5061024061097a565b60405161024d919061100f565b60405180910390f35b34801561026257600080fd5b5061026b61099e565b6040516102789190611045565b60405180910390f35b61029b60048036038101906102969190610f1e565b6109b1565b005b6102a5610e56565b6102b06006546102b5565b905090565b6102bd610e56565b600882815481106102d1576102d0611060565b5b906000526020600020906003020160405180606001604052908160008201548152602001600182015481526020016002820154815250509050919050565b60008054906101000a900473ffffffffffffffffffffffffffffffffffffffff1673ffffffffffffffffffffffffffffffffffffffff163373ffffffffffffffffffffffffffffffffffffffff161461039d576040517f08c379a0000000000000000000000000000000000000000000000000000000008152600401610394906110ec565b60405180910390fd5b600760009054906101000a900460ff166103ec576040517f08c379a00000000000000000000000000000000000000000000000000000000081526004016103e390611158565b60405180910390fd5b600560009054906101000a900473ffffffffffffffffffffffffffffffffffffffff1673ffffffffffffffffffffffffffffffffffffffff1663a9059cbb60008054906101000a900473ffffffffffffffffffffffffffffffffffffffff16600560009054906101000a900473ffffffffffffffffffffffffffffffffffffffff1673ffffffffffffffffffffffffffffffffffffffff166370a08231306040518263ffffffff1660e01b81526004016104a6919061100f565b602060405180830381865afa1580156104c3573d6000803e3d6000fd5b505050506040513d601f19601f820116820180604052508101906104e7919061118d565b6040518363ffffffff1660e01b81526004016105049291906111ba565b6020604051808303816000875af1158015610523573d6000803e3d6000fd5b505050506040513d601f19601f82011682018060405250810190610547919061120f565b61055057600080fd5b60008054906101000a900473ffffffffffffffffffffffffffffffffffffffff1673ffffffffffffffffffffffffffffffffffffffff166108fc479081150290604051600060405180830381858888f193505050501580156105b6573d6000803e3d6000fd5b50565b6000600154905090565b600760009054906101000a900460ff16610612576040517f08c379a000000000000000000000000000000000000000000000000000000000815260040161060990611158565b60405180910390fd5b6000600960003373ffffffffffffffffffffffffffffffffffffffff1673ffffffffffffffffffffffffffffffffffffffff16815260200190815260200160002054905060008111610699576040517f08c379a000000000000000000000000000000000000000000000000000000000815260040161069090611288565b60405180910390fd5b6000600960003373ffffffffffffffffffffffffffffffffffffffff1673ffffffffffffffffffffffffffffffffffffffff16815260200190815260200160002081905550600560009054906101000a900473ffffffffffffffffffffffffffffffffffffffff1673ffffffffffffffffffffffffffffffffffffffff1663a9059cbb33836040518363ffffffff1660e01b815260040161073b9291906111ba565b6020604051808303816000875af115801561075a573d6000803e3d6000fd5b505050506040513d601f19601f8201168201806040525081019061077e919061120f565b61078757600080fd5b3373ffffffffffffffffffffffffffffffffffffffff167f896e034966eaaf1adc54acc0f257056febbd300c9e47182cf761982cf1f5e430826040516107cd9190610f5a565b60405180910390a250565b6000600254905090565b6000600960008373ffffffffffffffffffffffffffffffffffffffff1673ffffffffffffffffffffffffffffffffffffffff168152602001908152602001600020549050919050565b60006108c8600560009054906101000a900473ffffffffffffffffffffffffffffffffffffffff1673ffffffffffffffffffffffffffffffffffffffff166318160ddd6040518163ffffffff1660e01b8152600401602060405180830381865afa15801561089d573d6000803e3d6000fd5b505050506040513d601f19601f820116820180604052508101906108c1919061118d565b6012610e34565b905090565b6000610975600560009054906101000a900473ffffffffffffffffffffffffffffffffffffffff1673ffffffffffffffffffffffffffffffffffffffff166370a08231336040518263ffffffff1660e01b815260040161092d919061100f565b602060405180830381865afa15801561094a573d6000803e3d6000fd5b505050506040513d601f19601f8201168201806040525081019061096e919061118d565b6012610e34565b905090565b60008054906101000a900473ffffffffffffffffffffffffffffffffffffffff1681565b600760009054906101000a900460ff1681565b600760009054906101000a900460ff1615610a01576040517f08c379a00000000000000000000000000000000000000000000000000000000081526004016109f8906112f4565b60405180910390fd5b80610a0d6006546102b5565b6020015134610a1c9190611372565b14610a5c576040517f08c379a0000000000000000000000000000000000000000000000000000000008152600401610a53906113ef565b60405180910390fd5b80610a686006546102b5565b600001511015610aad576040517f08c379a0000000000000000000000000000000000000000000000000000000008152600401610aa490611481565b60405180910390fd5b6000610aba6006546102b5565b6020015182610ac991906114a1565b905080341015610b0e576040517f08c379a0000000000000000000000000000000000000000000000000000000008152600401610b059061152f565b60405180910390fd5b81600560009054906101000a900473ffffffffffffffffffffffffffffffffffffffff1673ffffffffffffffffffffffffffffffffffffffff166370a08231306040518263ffffffff1660e01b8152600401610b6a919061100f565b602060405180830381865afa158015610b87573d6000803e3d6000fd5b505050506040513d601f19601f82011682018060405250810190610bab919061118d565b1015610bec576040517f08c379a0000000000000000000000000000000000000000000000000000000008152600401610be39061159b565b60405180910390fd5b600560009054906101000a900473ffffffffffffffffffffffffffffffffffffffff1673ffffffffffffffffffffffffffffffffffffffff1663a9059cbb33846040518363ffffffff1660e01b8152600401610c499291906111ba565b6020604051808303816000875af1158015610c68573d6000803e3d6000fd5b505050506040513d601f19601f82011682018060405250810190610c8c919061120f565b610c9557600080fd5b8160026000828254610ca791906115bb565b9250508190555081600860065481548110610cc557610cc4611060565b5b90600052602060002090600302016000016000828254610ce591906115ef565b9250508190555081600960003373ffffffffffffffffffffffffffffffffffffffff1673ffffffffffffffffffffffffffffffffffffffff1681526020019081526020016000206000828254610d3b91906115bb565b925050819055506000600860065481548110610d5a57610d59611060565b5b90600052602060002090600302016000015403610db45760066000815480929190610d8490611623565b919050555060088054905060065403610db3576001600760006101000a81548160ff0219169083151502179055505b5b600860065481548110610dca57610dc9611060565b5b9060005260206000209060030201600101546001819055503373ffffffffffffffffffffffffffffffffffffffff167f8f28852646c20cc973d3a8218f7eefed58c25c909f78f0265af4818c3d4dc27183604051610e289190610f5a565b60405180910390a25050565b600081600a610e43919061179e565b83610e4e9190611372565b905092915050565b60405180606001604052806000815260200160008152602001600081525090565b6000819050919050565b610e8a81610e77565b82525050565b606082016000820151610ea66000850182610e81565b506020820151610eb96020850182610e81565b506040820151610ecc6040850182610e81565b50505050565b6000606082019050610ee76000830184610e90565b92915050565b600080fd5b610efb81610e77565b8114610f0657600080fd5b50565b600081359050610f1881610ef2565b92915050565b600060208284031215610f3457610f33610eed565b5b6000610f4284828501610f09565b91505092915050565b610f5481610e77565b82525050565b6000602082019050610f6f6000830184610f4b565b92915050565b600073ffffffffffffffffffffffffffffffffffffffff82169050919050565b6000610fa082610f75565b9050919050565b610fb081610f95565b8114610fbb57600080fd5b50565b600081359050610fcd81610fa7565b92915050565b600060208284031215610fe957610fe8610eed565b5b6000610ff784828501610fbe565b91505092915050565b61100981610f95565b82525050565b60006020820190506110246000830184611000565b92915050565b60008115159050919050565b61103f8161102a565b82525050565b600060208201905061105a6000830184611036565b92915050565b7f4e487b7100000000000000000000000000000000000000000000000000000000600052603260045260246000fd5b600082825260208201905092915050565b7f4f6e6c79206f776e65722063616e20656e642073616c65000000000000000000600082015250565b60006110d660178361108f565b91506110e1826110a0565b602082019050919050565b60006020820190508181036000830152611105816110c9565b9050919050565b7f53616c6520686173206e6f7420656e6465642079657400000000000000000000600082015250565b600061114260168361108f565b915061114d8261110c565b602082019050919050565b6000602082019050818103600083015261117181611135565b9050919050565b60008151905061118781610ef2565b92915050565b6000602082840312156111a3576111a2610eed565b5b60006111b184828501611178565b91505092915050565b60006040820190506111cf6000830185611000565b6111dc6020830184610f4b565b9392505050565b6111ec8161102a565b81146111f757600080fd5b50565b600081519050611209816111e3565b92915050565b60006020828403121561122557611224610eed565b5b6000611233848285016111fa565b91505092915050565b7f4e6f20746f6b656e7320746f20636c61696d0000000000000000000000000000600082015250565b600061127260128361108f565b915061127d8261123c565b602082019050919050565b600060208201905081810360008301526112a181611265565b9050919050565b7f53616c652068617320656e646564000000000000000000000000000000000000600082015250565b60006112de600e8361108f565b91506112e9826112a8565b602082019050919050565b6000602082019050818103600083015261130d816112d1565b9050919050565b7f4e487b7100000000000000000000000000000000000000000000000000000000600052601260045260246000fd5b7f4e487b7100000000000000000000000000000000000000000000000000000000600052601160045260246000fd5b600061137d82610e77565b915061138883610e77565b92508261139857611397611314565b5b828204905092915050565b7f445649546f6b656e73616c653a204e6f7420656e6f7567682045544800000000600082015250565b60006113d9601c8361108f565b91506113e4826113a3565b602082019050919050565b60006020820190508181036000830152611408816113cc565b9050919050565b7f4e6f7420656e6f75676820746f6b656e7320617661696c61626c6520696e207460008201527f6869732070686173650000000000000000000000000000000000000000000000602082015250565b600061146b60298361108f565b91506114768261140f565b604082019050919050565b6000602082019050818103600083015261149a8161145e565b9050919050565b60006114ac82610e77565b91506114b783610e77565b92508282026114c581610e77565b915082820484148315176114dc576114db611343565b5b5092915050565b7f496e73756666696369656e74204554482073656e740000000000000000000000600082015250565b600061151960158361108f565b9150611524826114e3565b602082019050919050565b600060208201905081810360008301526115488161150c565b9050919050565b7f536f6c64206f7574000000000000000000000000000000000000000000000000600082015250565b600061158560088361108f565b91506115908261154f565b602082019050919050565b600060208201905081810360008301526115b481611578565b9050919050565b60006115c682610e77565b91506115d183610e77565b92508282019050808211156115e9576115e8611343565b5b92915050565b60006115fa82610e77565b915061160583610e77565b925082820390508181111561161d5761161c611343565b5b92915050565b600061162e82610e77565b91507fffffffffffffffffffffffffffffffffffffffffffffffffffffffffffffffff82036116605761165f611343565b5b600182019050919050565b60008160011c9050919050565b6000808291508390505b60018511156116c25780860481111561169e5761169d611343565b5b60018516156116ad5780820291505b80810290506116bb8561166b565b9450611682565b94509492505050565b6000826116db5760019050611797565b816116e95760009050611797565b81600181146116ff576002811461170957611738565b6001915050611797565b60ff84111561171b5761171a611343565b5b8360020a91508482111561173257611731611343565b5b50611797565b5060208310610133831016604e8410600b841016171561176d5782820a90508381111561176857611767611343565b5b611797565b61177a8484846001611678565b9250905081840481111561179157611790611343565b5b81810290505b9392505050565b60006117a982610e77565b91506117b483610e77565b92506117e17fffffffffffffffffffffffffffffffffffffffffffffffffffffffffffffffff84846116cb565b90509291505056fea2646970667358221220754e2913a716a42a9ee88ce3af9e8cc13e30abbb6c242c5d981f136303032a6864736f6c63430008130033",
  "immutableReferences": {},
  "source": "// SPDX-License-Identifier: MIT\r\npragma solidity ^0.8.19;\r\n\r\nimport \"@openzeppelin/contracts/token/ERC20/IERC20.sol\";\r\n\r\ncontract DWITokensale {\r\n    address public owner;\r\n    uint private buyPrice;\r\n    uint private sold;\r\n    uint private toSold;\r\n    address private noOne = address(0);\r\n    IERC20 private token;\r\n    uint private currentPhaseIndex;\r\n    bool public saleEnded;\r\n\r\n    struct Phase {\r\n        uint total;\r\n        uint price;\r\n        uint phase;\r\n    }\r\n\r\n    Phase[] private phases;\r\n    mapping(address => uint) private purchasedTokens;\r\n\r\n    event TokensPurchased(address indexed buyer, uint amount);\r\n    event TokensClaimed(address indexed claimer, uint amount);\r\n\r\n    constructor(address _token) {\r\n        owner = msg.sender;\r\n        token = IERC20(_token);\r\n        buyPrice = 0.000010 * 10**18;\r\n        currentPhaseIndex = 0;\r\n        sold = 0;\r\n        saleEnded = false;\r\n\r\n        for (uint i = 1; i <= 10; i++) {\r\n            phases.push(Phase(1000000, i * buyPrice, i));\r\n        }\r\n    }\r\n\r\n    function buy(uint tokens) public payable {\r\n        require(!saleEnded, \"Sale has ended\");\r\n        require(msg.value / phase(currentPhaseIndex).price == tokens, \"DVITokensale: Not enough ETH\");\r\n        require(phase(currentPhaseIndex).total >= tokens, \"Not enough tokens available in this phase\");\r\n\r\n        uint cost = tokens * phase(currentPhaseIndex).price;\r\n        require(msg.value >= cost, \"Insufficient ETH sent\");\r\n\r\n        require(token.balanceOf(address(this)) >= tokens, \"Sold out\");\r\n        require(token.transfer(msg.sender, tokens));\r\n\r\n        sold += tokens;\r\n        phases[currentPhaseIndex].total -= tokens;\r\n        purchasedTokens[msg.sender] += tokens;\r\n\r\n        if (phases[currentPhaseIndex].total == 0) {\r\n            currentPhaseIndex++;\r\n            if (currentPhaseIndex == phases.length) {\r\n                saleEnded = true;\r\n            }\r\n        }\r\n        buyPrice = phases[currentPhaseIndex].price;\r\n\r\n        emit TokensPurchased(msg.sender, tokens);\r\n    }\r\n\r\n    function claimTokens() public {\r\n        require(saleEnded, \"Sale has not ended yet\");\r\n        uint tokensToClaim = purchasedTokens[msg.sender];\r\n        require(tokensToClaim > 0, \"No tokens to claim\");\r\n\r\n        purchasedTokens[msg.sender] = 0;\r\n        require(token.transfer(msg.sender, tokensToClaim));\r\n\r\n        emit TokensClaimed(msg.sender, tokensToClaim);\r\n    }\r\n\r\n    function balanceOf(address account) public view returns (uint) {\r\n        return purchasedTokens[account];\r\n    }\r\n\r\n    function endSale() public {\r\n        require(msg.sender == owner, \"Only owner can end sale\");\r\n        require(saleEnded, \"Sale has not ended yet\");\r\n\r\n        require(token.transfer(owner, token.balanceOf(address(this))));\r\n        payable(owner).transfer(address(this).balance);\r\n    }\r\n\r\n    function _unAmount(uint _amountDeci, uint decimals) private pure returns(uint){\r\n        return _amountDeci / (10**decimals);\r\n    }\r\n\r\n    function _tokens() public view returns (uint) {\r\n        return _unAmount(token.balanceOf(msg.sender), 18);\r\n    }\r\n\r\n\r\n\r\n    function tokensSold() public view returns (uint) {\r\n        return sold;\r\n    }\r\n\r\n    function totalTokens() public view returns (uint) {\r\n        return _unAmount(token.totalSupply(), 18);\r\n    }\r\n\r\n    function currentPhase() public view returns (Phase memory) {\r\n        return phase(currentPhaseIndex);\r\n    }\r\n\r\n    function phase(uint phaseId) public view returns (Phase memory) {\r\n        return phases[phaseId];\r\n    }\r\n\r\n    function _tokenPrice() public view returns (uint) {\r\n        return buyPrice;\r\n    }\r\n\r\n    modifier onlyOwner() {\r\n        require(msg.sender == owner, \"Only owner allowed\");\r\n        _;\r\n    }\r\n}\r\n",
  "sourcePath": "C:\\Users\\User\\Desktop\\solidity\\contracts\\DWITokensale.sol",
  "compiler": {
    "name": "solc",
    "version": "0.8.19+commit.7dd6d404.Emscripten.clang"
  },
  "schemaVersion": "3.4.16",
  "updatedAt": "2024-01-31T11:25:37.949Z",
  "networkType": "ethereum",
  "devdoc": {
    "kind": "dev",
    "methods": {},
    "version": 1
  },
  "userdoc": {
    "kind": "user",
    "methods": {},
    "version": 1
  }
}