{
  "contractName": "Prueba2",
  "abi": [
    {
      "inputs": [
        {
          "internalType": "address",
          "name": "_token",
          "type": "address"
        },
        {
          "internalType": "address",
          "name": "_paymentToken",
          "type": "address"
        }
      ],
      "stateMutability": "nonpayable",
      "type": "constructor"
    },
    {
      "anonymous": false,
      "inputs": [
        {
          "indexed": true,
          "internalType": "address",
          "name": "user",
          "type": "address"
        },
        {
          "indexed": true,
          "internalType": "address",
          "name": "token",
          "type": "address"
        }
      ],
      "name": "SpendingLimitRevoked",
      "type": "event"
    },
    {
      "anonymous": false,
      "inputs": [
        {
          "indexed": true,
          "internalType": "address",
          "name": "user",
          "type": "address"
        },
        {
          "indexed": true,
          "internalType": "address",
          "name": "token",
          "type": "address"
        },
        {
          "indexed": false,
          "internalType": "uint256",
          "name": "limit",
          "type": "uint256"
        }
      ],
      "name": "SpendingLimitSet",
      "type": "event"
    },
    {
      "anonymous": false,
      "inputs": [
        {
          "indexed": true,
          "internalType": "address",
          "name": "claimer",
          "type": "address"
        },
        {
          "indexed": false,
          "internalType": "uint256",
          "name": "amount",
          "type": "uint256"
        }
      ],
      "name": "TokensClaimed",
      "type": "event"
    },
    {
      "anonymous": false,
      "inputs": [
        {
          "indexed": true,
          "internalType": "address",
          "name": "buyer",
          "type": "address"
        },
        {
          "indexed": false,
          "internalType": "uint256",
          "name": "amount",
          "type": "uint256"
        }
      ],
      "name": "TokensPurchased",
      "type": "event"
    },
    {
      "inputs": [],
      "name": "owner",
      "outputs": [
        {
          "internalType": "address",
          "name": "",
          "type": "address"
        }
      ],
      "stateMutability": "view",
      "type": "function",
      "constant": true
    },
    {
      "inputs": [],
      "name": "saleEnded",
      "outputs": [
        {
          "internalType": "bool",
          "name": "",
          "type": "bool"
        }
      ],
      "stateMutability": "view",
      "type": "function",
      "constant": true
    },
    {
      "inputs": [
        {
          "internalType": "address",
          "name": "",
          "type": "address"
        },
        {
          "internalType": "address",
          "name": "",
          "type": "address"
        }
      ],
      "name": "spendingLimits",
      "outputs": [
        {
          "internalType": "uint256",
          "name": "",
          "type": "uint256"
        }
      ],
      "stateMutability": "view",
      "type": "function",
      "constant": true
    },
    {
      "inputs": [
        {
          "internalType": "address",
          "name": "_token",
          "type": "address"
        },
        {
          "internalType": "uint256",
          "name": "_limit",
          "type": "uint256"
        }
      ],
      "name": "setSpendingLimit",
      "outputs": [],
      "stateMutability": "nonpayable",
      "type": "function"
    },
    {
      "inputs": [
        {
          "internalType": "address",
          "name": "_token",
          "type": "address"
        }
      ],
      "name": "revokeSpendingLimit",
      "outputs": [],
      "stateMutability": "nonpayable",
      "type": "function"
    },
    {
      "inputs": [
        {
          "internalType": "uint256",
          "name": "tokens",
          "type": "uint256"
        }
      ],
      "name": "buy",
      "outputs": [],
      "stateMutability": "payable",
      "type": "function",
      "payable": true
    },
    {
      "inputs": [],
      "name": "claimTokens",
      "outputs": [],
      "stateMutability": "nonpayable",
      "type": "function"
    },
    {
      "inputs": [
        {
          "internalType": "address",
          "name": "account",
          "type": "address"
        }
      ],
      "name": "balanceOf",
      "outputs": [
        {
          "internalType": "uint256",
          "name": "",
          "type": "uint256"
        }
      ],
      "stateMutability": "view",
      "type": "function",
      "constant": true
    },
    {
      "inputs": [],
      "name": "endSale",
      "outputs": [],
      "stateMutability": "nonpayable",
      "type": "function"
    },
    {
      "inputs": [],
      "name": "_tokens",
      "outputs": [
        {
          "internalType": "uint256",
          "name": "",
          "type": "uint256"
        }
      ],
      "stateMutability": "view",
      "type": "function",
      "constant": true
    },
    {
      "inputs": [],
      "name": "tokensSold",
      "outputs": [
        {
          "internalType": "uint256",
          "name": "",
          "type": "uint256"
        }
      ],
      "stateMutability": "view",
      "type": "function",
      "constant": true
    },
    {
      "inputs": [],
      "name": "totalTokens",
      "outputs": [
        {
          "internalType": "uint256",
          "name": "",
          "type": "uint256"
        }
      ],
      "stateMutability": "view",
      "type": "function",
      "constant": true
    },
    {
      "inputs": [],
      "name": "currentPhase",
      "outputs": [
        {
          "components": [
            {
              "internalType": "uint256",
              "name": "total",
              "type": "uint256"
            },
            {
              "internalType": "uint256",
              "name": "price",
              "type": "uint256"
            },
            {
              "internalType": "uint256",
              "name": "phase",
              "type": "uint256"
            }
          ],
          "internalType": "struct Prueba2.Phase",
          "name": "",
          "type": "tuple"
        }
      ],
      "stateMutability": "view",
      "type": "function",
      "constant": true
    },
    {
      "inputs": [
        {
          "internalType": "uint256",
          "name": "phaseId",
          "type": "uint256"
        }
      ],
      "name": "phase",
      "outputs": [
        {
          "components": [
            {
              "internalType": "uint256",
              "name": "total",
              "type": "uint256"
            },
            {
              "internalType": "uint256",
              "name": "price",
              "type": "uint256"
            },
            {
              "internalType": "uint256",
              "name": "phase",
              "type": "uint256"
            }
          ],
          "internalType": "struct Prueba2.Phase",
          "name": "",
          "type": "tuple"
        }
      ],
      "stateMutability": "view",
      "type": "function",
      "constant": true
    },
    {
      "inputs": [],
      "name": "_tokenPrice",
      "outputs": [
        {
          "internalType": "uint256",
          "name": "",
          "type": "uint256"
        }
      ],
      "stateMutability": "view",
      "type": "function",
      "constant": true
    }
  ],
  "bytecode": "0x60806040526000600460006101000a81548173ffffffffffffffffffffffffffffffffffffffff021916908373ffffffffffffffffffffffffffffffffffffffff1602179055503480156200005357600080fd5b506040516200203838038062002038833981810160405281019062000079919062000284565b336000806101000a81548173ffffffffffffffffffffffffffffffffffffffff021916908373ffffffffffffffffffffffffffffffffffffffff16021790555081600560006101000a81548173ffffffffffffffffffffffffffffffffffffffff021916908373ffffffffffffffffffffffffffffffffffffffff16021790555080600660006101000a81548173ffffffffffffffffffffffffffffffffffffffff021916908373ffffffffffffffffffffffffffffffffffffffff1602179055506509184e72a000600181905550600060078190555060006002819055506000600860006101000a81548160ff0219169083151502179055506000600190505b600a81116200021157600a6040518060600160405280620f4240815260200160015484620001a9919062000304565b81526020018381525090806001815401808255809150506001900390600052602060002090600302016000909190919091506000820151816000015560208201518160010155604082015181600201555050808062000208906200034f565b9150506200017a565b5050506200039c565b600080fd5b600073ffffffffffffffffffffffffffffffffffffffff82169050919050565b60006200024c826200021f565b9050919050565b6200025e816200023f565b81146200026a57600080fd5b50565b6000815190506200027e8162000253565b92915050565b600080604083850312156200029e576200029d6200021a565b5b6000620002ae858286016200026d565b9250506020620002c1858286016200026d565b9150509250929050565b6000819050919050565b7f4e487b7100000000000000000000000000000000000000000000000000000000600052601160045260246000fd5b60006200031182620002cb565b91506200031e83620002cb565b92508282026200032e81620002cb565b91508282048414831517620003485762000347620002d5565b5b5092915050565b60006200035c82620002cb565b91507fffffffffffffffffffffffffffffffffffffffffffffffffffffffffffffffff8203620003915762000390620002d5565b5b600182019050919050565b611c8c80620003ac6000396000f3fe6080604052600436106100e85760003560e01c806370a082311161008a5780639b8906ae116100595780639b8906ae146102d4578063b44d6eb8146102ff578063c9a815bd14610328578063d96a094a14610351576100e8565b806370a08231146102165780637e1c0c09146102535780638970d84c1461027e5780638da5cb5b146102a9576100e8565b80633b971f9f116100c65780633b971f9f1461016c57806340cc860b1461019757806348c54b9d146101d4578063518ab2a8146101eb576100e8565b8063055ad42e146100ed578063135f8aa714610118578063380d831b14610155575b600080fd5b3480156100f957600080fd5b5061010261036d565b60405161010f9190611253565b60405180910390f35b34801561012457600080fd5b5061013f600480360381019061013a919061129f565b610385565b60405161014c9190611253565b60405180910390f35b34801561016157600080fd5b5061016a6103df565b005b34801561017857600080fd5b506101816106a5565b60405161018e91906112db565b60405180910390f35b3480156101a357600080fd5b506101be60048036038101906101b99190611354565b6106af565b6040516101cb91906112db565b60405180910390f35b3480156101e057600080fd5b506101e96106d4565b005b3480156101f757600080fd5b506102006108e9565b60405161020d91906112db565b60405180910390f35b34801561022257600080fd5b5061023d60048036038101906102389190611394565b6108f3565b60405161024a91906112db565b60405180910390f35b34801561025f57600080fd5b5061026861093c565b60405161027591906112db565b60405180910390f35b34801561028a57600080fd5b506102936109de565b6040516102a091906112db565b60405180910390f35b3480156102b557600080fd5b506102be610a8b565b6040516102cb91906113d0565b60405180910390f35b3480156102e057600080fd5b506102e9610aaf565b6040516102f69190611406565b60405180910390f35b34801561030b57600080fd5b5061032660048036038101906103219190611394565b610ac2565b005b34801561033457600080fd5b5061034f600480360381019061034a9190611421565b610c2f565b005b61036b6004803603810190610366919061129f565b610da9565b005b6103756111d7565b610380600754610385565b905090565b61038d6111d7565b600a82815481106103a1576103a0611461565b5b906000526020600020906003020160405180606001604052908160008201548152602001600182015481526020016002820154815250509050919050565b60008054906101000a900473ffffffffffffffffffffffffffffffffffffffff1673ffffffffffffffffffffffffffffffffffffffff163373ffffffffffffffffffffffffffffffffffffffff161461046d576040517f08c379a0000000000000000000000000000000000000000000000000000000008152600401610464906114ed565b60405180910390fd5b600860009054906101000a900460ff16156104bd576040517f08c379a00000000000000000000000000000000000000000000000000000000081526004016104b490611559565b60405180910390fd5b600560009054906101000a900473ffffffffffffffffffffffffffffffffffffffff1673ffffffffffffffffffffffffffffffffffffffff1663a9059cbb60008054906101000a900473ffffffffffffffffffffffffffffffffffffffff16600560009054906101000a900473ffffffffffffffffffffffffffffffffffffffff1673ffffffffffffffffffffffffffffffffffffffff166370a08231306040518263ffffffff1660e01b815260040161057791906113d0565b602060405180830381865afa158015610594573d6000803e3d6000fd5b505050506040513d601f19601f820116820180604052508101906105b8919061158e565b6040518363ffffffff1660e01b81526004016105d59291906115bb565b6020604051808303816000875af11580156105f4573d6000803e3d6000fd5b505050506040513d601f19601f820116820180604052508101906106189190611610565b61062157600080fd5b60008054906101000a900473ffffffffffffffffffffffffffffffffffffffff1673ffffffffffffffffffffffffffffffffffffffff166108fc479081150290604051600060405180830381858888f19350505050158015610687573d6000803e3d6000fd5b506001600860006101000a81548160ff021916908315150217905550565b6000600154905090565b6009602052816000526040600020602052806000526040600020600091509150505481565b600860009054906101000a900460ff16610723576040517f08c379a000000000000000000000000000000000000000000000000000000000815260040161071a90611689565b60405180910390fd5b6000600b60003373ffffffffffffffffffffffffffffffffffffffff1673ffffffffffffffffffffffffffffffffffffffff168152602001908152602001600020549050600081116107aa576040517f08c379a00000000000000000000000000000000000000000000000000000000081526004016107a1906116f5565b60405180910390fd5b6000600b60003373ffffffffffffffffffffffffffffffffffffffff1673ffffffffffffffffffffffffffffffffffffffff16815260200190815260200160002081905550600560009054906101000a900473ffffffffffffffffffffffffffffffffffffffff1673ffffffffffffffffffffffffffffffffffffffff1663a9059cbb33836040518363ffffffff1660e01b815260040161084c9291906115bb565b6020604051808303816000875af115801561086b573d6000803e3d6000fd5b505050506040513d601f19601f8201168201806040525081019061088f9190611610565b61089857600080fd5b3373ffffffffffffffffffffffffffffffffffffffff167f896e034966eaaf1adc54acc0f257056febbd300c9e47182cf761982cf1f5e430826040516108de91906112db565b60405180910390a250565b6000600254905090565b6000600b60008373ffffffffffffffffffffffffffffffffffffffff1673ffffffffffffffffffffffffffffffffffffffff168152602001908152602001600020549050919050565b60006109d9600560009054906101000a900473ffffffffffffffffffffffffffffffffffffffff1673ffffffffffffffffffffffffffffffffffffffff166318160ddd6040518163ffffffff1660e01b8152600401602060405180830381865afa1580156109ae573d6000803e3d6000fd5b505050506040513d601f19601f820116820180604052508101906109d2919061158e565b60126111b5565b905090565b6000610a86600560009054906101000a900473ffffffffffffffffffffffffffffffffffffffff1673ffffffffffffffffffffffffffffffffffffffff166370a08231336040518263ffffffff1660e01b8152600401610a3e91906113d0565b602060405180830381865afa158015610a5b573d6000803e3d6000fd5b505050506040513d601f19601f82011682018060405250810190610a7f919061158e565b60126111b5565b905090565b60008054906101000a900473ffffffffffffffffffffffffffffffffffffffff1681565b600860009054906101000a900460ff1681565b600660009054906101000a900473ffffffffffffffffffffffffffffffffffffffff1673ffffffffffffffffffffffffffffffffffffffff168173ffffffffffffffffffffffffffffffffffffffff1614610b52576040517f08c379a0000000000000000000000000000000000000000000000000000000008152600401610b4990611761565b60405180910390fd5b600960003373ffffffffffffffffffffffffffffffffffffffff1673ffffffffffffffffffffffffffffffffffffffff16815260200190815260200160002060008273ffffffffffffffffffffffffffffffffffffffff1673ffffffffffffffffffffffffffffffffffffffff168152602001908152602001600020600090558073ffffffffffffffffffffffffffffffffffffffff163373ffffffffffffffffffffffffffffffffffffffff167ffa3c09b8ff40a6a068422fa454d336b2b8028e3075ea98cf35021a721db5bb4460405160405180910390a350565b600660009054906101000a900473ffffffffffffffffffffffffffffffffffffffff1673ffffffffffffffffffffffffffffffffffffffff168273ffffffffffffffffffffffffffffffffffffffff1614610cbf576040517f08c379a0000000000000000000000000000000000000000000000000000000008152600401610cb690611761565b60405180910390fd5b80600960003373ffffffffffffffffffffffffffffffffffffffff1673ffffffffffffffffffffffffffffffffffffffff16815260200190815260200160002060008473ffffffffffffffffffffffffffffffffffffffff1673ffffffffffffffffffffffffffffffffffffffff168152602001908152602001600020819055508173ffffffffffffffffffffffffffffffffffffffff163373ffffffffffffffffffffffffffffffffffffffff167f26c909f28e96733d1fb0c53c8de0daaea88a232b2d341143ec4842ce885fe12383604051610d9d91906112db565b60405180910390a35050565b600860009054906101000a900460ff1615610df9576040517f08c379a0000000000000000000000000000000000000000000000000000000008152600401610df0906117cd565b60405180910390fd5b80610e05600754610385565b6020015134610e14919061184b565b14610e54576040517f08c379a0000000000000000000000000000000000000000000000000000000008152600401610e4b906118c8565b60405180910390fd5b80610e60600754610385565b600001511015610ea5576040517f08c379a0000000000000000000000000000000000000000000000000000000008152600401610e9c9061195a565b60405180910390fd5b6000610eb2600754610385565b6020015182610ec1919061197a565b905080341015610f06576040517f08c379a0000000000000000000000000000000000000000000000000000000008152600401610efd90611a08565b60405180910390fd5b600560009054906101000a900473ffffffffffffffffffffffffffffffffffffffff1673ffffffffffffffffffffffffffffffffffffffff1663a9059cbb33846040518363ffffffff1660e01b8152600401610f639291906115bb565b6020604051808303816000875af1158015610f82573d6000803e3d6000fd5b505050506040513d601f19601f82011682018060405250810190610fa69190611610565b610faf57600080fd5b60008054906101000a900473ffffffffffffffffffffffffffffffffffffffff1673ffffffffffffffffffffffffffffffffffffffff166108fc349081150290604051600060405180830381858888f19350505050158015611015573d6000803e3d6000fd5b5081600260008282546110289190611a28565b9250508190555081600a6007548154811061104657611045611461565b5b906000526020600020906003020160000160008282546110669190611a5c565b9250508190555081600b60003373ffffffffffffffffffffffffffffffffffffffff1673ffffffffffffffffffffffffffffffffffffffff16815260200190815260200160002060008282546110bc9190611a28565b925050819055506000600a600754815481106110db576110da611461565b5b90600052602060002090600302016000015403611135576007600081548092919061110590611a90565b9190505550600a8054905060075403611134576001600860006101000a81548160ff0219169083151502179055505b5b600a6007548154811061114b5761114a611461565b5b9060005260206000209060030201600101546001819055503373ffffffffffffffffffffffffffffffffffffffff167f8f28852646c20cc973d3a8218f7eefed58c25c909f78f0265af4818c3d4dc271836040516111a991906112db565b60405180910390a25050565b600081600a6111c49190611c0b565b836111cf919061184b565b905092915050565b60405180606001604052806000815260200160008152602001600081525090565b6000819050919050565b61120b816111f8565b82525050565b6060820160008201516112276000850182611202565b50602082015161123a6020850182611202565b50604082015161124d6040850182611202565b50505050565b60006060820190506112686000830184611211565b92915050565b600080fd5b61127c816111f8565b811461128757600080fd5b50565b60008135905061129981611273565b92915050565b6000602082840312156112b5576112b461126e565b5b60006112c38482850161128a565b91505092915050565b6112d5816111f8565b82525050565b60006020820190506112f060008301846112cc565b92915050565b600073ffffffffffffffffffffffffffffffffffffffff82169050919050565b6000611321826112f6565b9050919050565b61133181611316565b811461133c57600080fd5b50565b60008135905061134e81611328565b92915050565b6000806040838503121561136b5761136a61126e565b5b60006113798582860161133f565b925050602061138a8582860161133f565b9150509250929050565b6000602082840312156113aa576113a961126e565b5b60006113b88482850161133f565b91505092915050565b6113ca81611316565b82525050565b60006020820190506113e560008301846113c1565b92915050565b60008115159050919050565b611400816113eb565b82525050565b600060208201905061141b60008301846113f7565b92915050565b600080604083850312156114385761143761126e565b5b60006114468582860161133f565b92505060206114578582860161128a565b9150509250929050565b7f4e487b7100000000000000000000000000000000000000000000000000000000600052603260045260246000fd5b600082825260208201905092915050565b7f4f6e6c79206f776e657220616c6c6f7765640000000000000000000000000000600082015250565b60006114d7601283611490565b91506114e2826114a1565b602082019050919050565b60006020820190508181036000830152611506816114ca565b9050919050565b7f53616c652068617320616c726561647920656e64656400000000000000000000600082015250565b6000611543601683611490565b915061154e8261150d565b602082019050919050565b6000602082019050818103600083015261157281611536565b9050919050565b60008151905061158881611273565b92915050565b6000602082840312156115a4576115a361126e565b5b60006115b284828501611579565b91505092915050565b60006040820190506115d060008301856113c1565b6115dd60208301846112cc565b9392505050565b6115ed816113eb565b81146115f857600080fd5b50565b60008151905061160a816115e4565b92915050565b6000602082840312156116265761162561126e565b5b6000611634848285016115fb565b91505092915050565b7f53616c6520686173206e6f7420656e6465642079657400000000000000000000600082015250565b6000611673601683611490565b915061167e8261163d565b602082019050919050565b600060208201905081810360008301526116a281611666565b9050919050565b7f4e6f20746f6b656e7320746f20636c61696d0000000000000000000000000000600082015250565b60006116df601283611490565b91506116ea826116a9565b602082019050919050565b6000602082019050818103600083015261170e816116d2565b9050919050565b7f496e76616c696420746f6b656e00000000000000000000000000000000000000600082015250565b600061174b600d83611490565b915061175682611715565b602082019050919050565b6000602082019050818103600083015261177a8161173e565b9050919050565b7f53616c652068617320656e646564000000000000000000000000000000000000600082015250565b60006117b7600e83611490565b91506117c282611781565b602082019050919050565b600060208201905081810360008301526117e6816117aa565b9050919050565b7f4e487b7100000000000000000000000000000000000000000000000000000000600052601260045260246000fd5b7f4e487b7100000000000000000000000000000000000000000000000000000000600052601160045260246000fd5b6000611856826111f8565b9150611861836111f8565b925082611871576118706117ed565b5b828204905092915050565b7f445649546f6b656e73616c653a204e6f7420656e6f7567682045544800000000600082015250565b60006118b2601c83611490565b91506118bd8261187c565b602082019050919050565b600060208201905081810360008301526118e1816118a5565b9050919050565b7f4e6f7420656e6f75676820746f6b656e7320617661696c61626c6520696e207460008201527f6869732070686173650000000000000000000000000000000000000000000000602082015250565b6000611944602983611490565b915061194f826118e8565b604082019050919050565b6000602082019050818103600083015261197381611937565b9050919050565b6000611985826111f8565b9150611990836111f8565b925082820261199e816111f8565b915082820484148315176119b5576119b461181c565b5b5092915050565b7f496e73756666696369656e74204554482073656e740000000000000000000000600082015250565b60006119f2601583611490565b91506119fd826119bc565b602082019050919050565b60006020820190508181036000830152611a21816119e5565b9050919050565b6000611a33826111f8565b9150611a3e836111f8565b9250828201905080821115611a5657611a5561181c565b5b92915050565b6000611a67826111f8565b9150611a72836111f8565b9250828203905081811115611a8a57611a8961181c565b5b92915050565b6000611a9b826111f8565b91507fffffffffffffffffffffffffffffffffffffffffffffffffffffffffffffffff8203611acd57611acc61181c565b5b600182019050919050565b60008160011c9050919050565b6000808291508390505b6001851115611b2f57808604811115611b0b57611b0a61181c565b5b6001851615611b1a5780820291505b8081029050611b2885611ad8565b9450611aef565b94509492505050565b600082611b485760019050611c04565b81611b565760009050611c04565b8160018114611b6c5760028114611b7657611ba5565b6001915050611c04565b60ff841115611b8857611b8761181c565b5b8360020a915084821115611b9f57611b9e61181c565b5b50611c04565b5060208310610133831016604e8410600b8410161715611bda5782820a905083811115611bd557611bd461181c565b5b611c04565b611be78484846001611ae5565b92509050818404811115611bfe57611bfd61181c565b5b81810290505b9392505050565b6000611c16826111f8565b9150611c21836111f8565b9250611c4e7fffffffffffffffffffffffffffffffffffffffffffffffffffffffffffffffff8484611b38565b90509291505056fea2646970667358221220cb3d0d8653b0b46799f4738fae66ba31bcc846d7e593351630f6c570fd9b9f4b64736f6c63430008130033",
  "immutableReferences": {},
  "source": "// SPDX-License-Identifier: MIT\r\npragma solidity ^0.8.19;\r\n\r\nimport \"@openzeppelin/contracts/token/ERC20/IERC20.sol\";\r\n\r\ncontract Prueba2 {\r\n    address public owner;\r\n    uint private buyPrice;\r\n    uint private sold;\r\n    uint private toSold;\r\n    address private noOne = address(0);\r\n    IERC20 private token;\r\n    IERC20 private paymentToken;\r\n    uint private currentPhaseIndex;\r\n    bool public saleEnded;\r\n    mapping(address => mapping(address => uint)) public spendingLimits; // Nuevo: lmites de gasto por usuario y token\r\n\r\n    struct Phase {\r\n        uint total;\r\n        uint price;\r\n        uint phase;\r\n    }\r\n\r\n    Phase[] private phases;\r\n    mapping(address => uint) private purchasedTokens;\r\n\r\n    event TokensPurchased(address indexed buyer, uint amount);\r\n    event TokensClaimed(address indexed claimer, uint amount);\r\n    event SpendingLimitSet(address indexed user, address indexed token, uint limit); // Nuevo: evento para notificar la configuracin del lmite de gasto\r\n    event SpendingLimitRevoked(address indexed user, address indexed token); // Nuevo: evento para notificar la revocacin del lmite de gasto\r\n\r\n\r\n    constructor(address _token, address _paymentToken) {\r\n        owner = msg.sender;\r\n        token = IERC20(_token);\r\n        paymentToken = IERC20(_paymentToken);\r\n        buyPrice = 0.000010 * 10**18;\r\n        currentPhaseIndex = 0;\r\n        sold = 0;\r\n        saleEnded = false;\r\n\r\n        for (uint i = 1; i <= 10; i++) {\r\n            phases.push(Phase(1000000, i * buyPrice, i));\r\n        }\r\n    }\r\n\r\n    function setSpendingLimit(address _token, uint _limit) public {\r\n        require(_token == address(paymentToken), \"Invalid token\");\r\n        spendingLimits[msg.sender][_token] = _limit;\r\n        emit SpendingLimitSet(msg.sender, _token, _limit); // Nuevo: emitir evento al establecer el lmite de gasto\r\n    }\r\n\r\n    function revokeSpendingLimit(address _token) public {\r\n        require(_token == address(paymentToken), \"Invalid token\");\r\n        delete spendingLimits[msg.sender][_token];\r\n        emit SpendingLimitRevoked(msg.sender, _token); // Nuevo: emitir evento al revocar el lmite de gasto\r\n    }\r\n\r\n    function buy(uint tokens) public payable {\r\n    require(!saleEnded, \"Sale has ended\");\r\n    require(msg.value / phase(currentPhaseIndex).price == tokens, \"DVITokensale: Not enough ETH\");\r\n    require(phase(currentPhaseIndex).total >= tokens, \"Not enough tokens available in this phase\");\r\n\r\n    uint cost = tokens * phase(currentPhaseIndex).price;\r\n    require(msg.value >= cost, \"Insufficient ETH sent\");\r\n\r\n    require(token.transfer(msg.sender, tokens));\r\n\r\n    payable(owner).transfer(msg.value);\r\n\r\n    sold += tokens;\r\n    phases[currentPhaseIndex].total -= tokens;\r\n    purchasedTokens[msg.sender] += tokens;\r\n\r\n    if (phases[currentPhaseIndex].total == 0) {\r\n        currentPhaseIndex++;\r\n        if (currentPhaseIndex == phases.length) {\r\n            saleEnded = true;\r\n        }\r\n    }\r\n    buyPrice = phases[currentPhaseIndex].price;\r\n\r\n    emit TokensPurchased(msg.sender, tokens);\r\n}\r\n\r\n    function claimTokens() public {\r\n        require(saleEnded, \"Sale has not ended yet\");\r\n        uint tokensToClaim = purchasedTokens[msg.sender];\r\n        require(tokensToClaim > 0, \"No tokens to claim\");\r\n\r\n        purchasedTokens[msg.sender] = 0;\r\n        require(token.transfer(msg.sender, tokensToClaim));\r\n\r\n        emit TokensClaimed(msg.sender, tokensToClaim);\r\n    }\r\n\r\n    function balanceOf(address account) public view returns (uint) {\r\n        return purchasedTokens[account];\r\n    }\r\n\r\n    function endSale() public onlyOwner {\r\n    require(!saleEnded, \"Sale has already ended\");\r\n\r\n    require(token.transfer(owner, token.balanceOf(address(this))));\r\n\r\n    payable(owner).transfer(address(this).balance);\r\n\r\n    saleEnded = true;\r\n}\r\n\r\n    function _unAmount(uint _amountDeci, uint decimals) private pure returns(uint){\r\n        return _amountDeci / (10**decimals);\r\n    }\r\n\r\n    function _tokens() public view returns (uint) {\r\n        return _unAmount(token.balanceOf(msg.sender), 18);\r\n    }\r\n\r\n\r\n\r\n    function tokensSold() public view returns (uint) {\r\n        return sold;\r\n    }\r\n\r\n    function totalTokens() public view returns (uint) {\r\n        return _unAmount(token.totalSupply(), 18);\r\n    }\r\n\r\n    function currentPhase() public view returns (Phase memory) {\r\n        return phase(currentPhaseIndex);\r\n    }\r\n\r\n    function phase(uint phaseId) public view returns (Phase memory) {\r\n        return phases[phaseId];\r\n    }\r\n\r\n    function _tokenPrice() public view returns (uint) {\r\n        return buyPrice;\r\n    }\r\n\r\n    modifier onlyOwner() {\r\n        require(msg.sender == owner, \"Only owner allowed\");\r\n        _;\r\n    }\r\n}",
  "sourcePath": "C:\\Users\\User\\Desktop\\solidity\\contracts\\Prueba2.sol",
  "compiler": {
    "name": "solc",
    "version": "0.8.19+commit.7dd6d404.Emscripten.clang"
  },
  "schemaVersion": "3.4.16",
  "updatedAt": "2024-02-25T00:00:06.530Z",
  "networkType": "ethereum",
  "devdoc": {
    "kind": "dev",
    "methods": {},
    "version": 1
  },
  "userdoc": {
    "kind": "user",
    "methods": {},
    "version": 1
  }
}