{
  "contractName": "Prueba3",
  "abi": [
    {
      "inputs": [
        {
          "internalType": "address",
          "name": "_token",
          "type": "address"
        },
        {
          "internalType": "address",
          "name": "_paymentToken",
          "type": "address"
        }
      ],
      "stateMutability": "nonpayable",
      "type": "constructor"
    },
    {
      "anonymous": false,
      "inputs": [
        {
          "indexed": true,
          "internalType": "address",
          "name": "user",
          "type": "address"
        },
        {
          "indexed": true,
          "internalType": "address",
          "name": "token",
          "type": "address"
        }
      ],
      "name": "SpendingLimitRevoked",
      "type": "event"
    },
    {
      "anonymous": false,
      "inputs": [
        {
          "indexed": true,
          "internalType": "address",
          "name": "user",
          "type": "address"
        },
        {
          "indexed": true,
          "internalType": "address",
          "name": "token",
          "type": "address"
        },
        {
          "indexed": false,
          "internalType": "uint256",
          "name": "limit",
          "type": "uint256"
        }
      ],
      "name": "SpendingLimitSet",
      "type": "event"
    },
    {
      "anonymous": false,
      "inputs": [
        {
          "indexed": true,
          "internalType": "address",
          "name": "claimer",
          "type": "address"
        },
        {
          "indexed": false,
          "internalType": "uint256",
          "name": "amount",
          "type": "uint256"
        }
      ],
      "name": "TokensClaimed",
      "type": "event"
    },
    {
      "anonymous": false,
      "inputs": [
        {
          "indexed": true,
          "internalType": "address",
          "name": "buyer",
          "type": "address"
        },
        {
          "indexed": false,
          "internalType": "uint256",
          "name": "amount",
          "type": "uint256"
        }
      ],
      "name": "TokensPurchased",
      "type": "event"
    },
    {
      "inputs": [],
      "name": "owner",
      "outputs": [
        {
          "internalType": "address",
          "name": "",
          "type": "address"
        }
      ],
      "stateMutability": "view",
      "type": "function",
      "constant": true
    },
    {
      "inputs": [],
      "name": "saleEnded",
      "outputs": [
        {
          "internalType": "bool",
          "name": "",
          "type": "bool"
        }
      ],
      "stateMutability": "view",
      "type": "function",
      "constant": true
    },
    {
      "inputs": [
        {
          "internalType": "address",
          "name": "",
          "type": "address"
        },
        {
          "internalType": "address",
          "name": "",
          "type": "address"
        }
      ],
      "name": "spendingLimits",
      "outputs": [
        {
          "internalType": "uint256",
          "name": "",
          "type": "uint256"
        }
      ],
      "stateMutability": "view",
      "type": "function",
      "constant": true
    },
    {
      "inputs": [
        {
          "internalType": "address",
          "name": "_token",
          "type": "address"
        },
        {
          "internalType": "uint256",
          "name": "_limit",
          "type": "uint256"
        }
      ],
      "name": "setSpendingLimit",
      "outputs": [],
      "stateMutability": "nonpayable",
      "type": "function"
    },
    {
      "inputs": [
        {
          "internalType": "address",
          "name": "_token",
          "type": "address"
        }
      ],
      "name": "revokeSpendingLimit",
      "outputs": [],
      "stateMutability": "nonpayable",
      "type": "function"
    },
    {
      "inputs": [
        {
          "internalType": "address",
          "name": "_user",
          "type": "address"
        }
      ],
      "name": "getSpendingLimit",
      "outputs": [
        {
          "internalType": "uint256",
          "name": "",
          "type": "uint256"
        }
      ],
      "stateMutability": "view",
      "type": "function",
      "constant": true
    },
    {
      "inputs": [
        {
          "internalType": "uint256",
          "name": "tokens",
          "type": "uint256"
        }
      ],
      "name": "buy",
      "outputs": [],
      "stateMutability": "payable",
      "type": "function",
      "payable": true
    },
    {
      "inputs": [],
      "name": "claimTokens",
      "outputs": [],
      "stateMutability": "nonpayable",
      "type": "function"
    },
    {
      "inputs": [
        {
          "internalType": "address",
          "name": "account",
          "type": "address"
        }
      ],
      "name": "balanceOf",
      "outputs": [
        {
          "internalType": "uint256",
          "name": "",
          "type": "uint256"
        }
      ],
      "stateMutability": "view",
      "type": "function",
      "constant": true
    },
    {
      "inputs": [],
      "name": "endSale",
      "outputs": [],
      "stateMutability": "nonpayable",
      "type": "function"
    },
    {
      "inputs": [],
      "name": "_tokens",
      "outputs": [
        {
          "internalType": "uint256",
          "name": "",
          "type": "uint256"
        }
      ],
      "stateMutability": "view",
      "type": "function",
      "constant": true
    },
    {
      "inputs": [],
      "name": "tokensSold",
      "outputs": [
        {
          "internalType": "uint256",
          "name": "",
          "type": "uint256"
        }
      ],
      "stateMutability": "view",
      "type": "function",
      "constant": true
    },
    {
      "inputs": [],
      "name": "totalTokens",
      "outputs": [
        {
          "internalType": "uint256",
          "name": "",
          "type": "uint256"
        }
      ],
      "stateMutability": "view",
      "type": "function",
      "constant": true
    },
    {
      "inputs": [],
      "name": "currentPhase",
      "outputs": [
        {
          "components": [
            {
              "internalType": "uint256",
              "name": "total",
              "type": "uint256"
            },
            {
              "internalType": "uint256",
              "name": "price",
              "type": "uint256"
            },
            {
              "internalType": "uint256",
              "name": "phase",
              "type": "uint256"
            }
          ],
          "internalType": "struct Prueba3.Phase",
          "name": "",
          "type": "tuple"
        }
      ],
      "stateMutability": "view",
      "type": "function",
      "constant": true
    },
    {
      "inputs": [
        {
          "internalType": "uint256",
          "name": "phaseId",
          "type": "uint256"
        }
      ],
      "name": "phase",
      "outputs": [
        {
          "components": [
            {
              "internalType": "uint256",
              "name": "total",
              "type": "uint256"
            },
            {
              "internalType": "uint256",
              "name": "price",
              "type": "uint256"
            },
            {
              "internalType": "uint256",
              "name": "phase",
              "type": "uint256"
            }
          ],
          "internalType": "struct Prueba3.Phase",
          "name": "",
          "type": "tuple"
        }
      ],
      "stateMutability": "view",
      "type": "function",
      "constant": true
    },
    {
      "inputs": [],
      "name": "_tokenPrice",
      "outputs": [
        {
          "internalType": "uint256",
          "name": "",
          "type": "uint256"
        }
      ],
      "stateMutability": "view",
      "type": "function",
      "constant": true
    }
  ],
  "bytecode": "0x60806040526000600460006101000a81548173ffffffffffffffffffffffffffffffffffffffff021916908373ffffffffffffffffffffffffffffffffffffffff1602179055503480156200005357600080fd5b506040516200212838038062002128833981810160405281019062000079919062000284565b336000806101000a81548173ffffffffffffffffffffffffffffffffffffffff021916908373ffffffffffffffffffffffffffffffffffffffff16021790555081600560006101000a81548173ffffffffffffffffffffffffffffffffffffffff021916908373ffffffffffffffffffffffffffffffffffffffff16021790555080600660006101000a81548173ffffffffffffffffffffffffffffffffffffffff021916908373ffffffffffffffffffffffffffffffffffffffff1602179055506509184e72a000600181905550600060078190555060006002819055506000600860006101000a81548160ff0219169083151502179055506000600190505b600a81116200021157600a6040518060600160405280620f4240815260200160015484620001a9919062000304565b81526020018381525090806001815401808255809150506001900390600052602060002090600302016000909190919091506000820151816000015560208201518160010155604082015181600201555050808062000208906200034f565b9150506200017a565b5050506200039c565b600080fd5b600073ffffffffffffffffffffffffffffffffffffffff82169050919050565b60006200024c826200021f565b9050919050565b6200025e816200023f565b81146200026a57600080fd5b50565b6000815190506200027e8162000253565b92915050565b600080604083850312156200029e576200029d6200021a565b5b6000620002ae858286016200026d565b9250506020620002c1858286016200026d565b9150509250929050565b6000819050919050565b7f4e487b7100000000000000000000000000000000000000000000000000000000600052601160045260246000fd5b60006200031182620002cb565b91506200031e83620002cb565b92508282026200032e81620002cb565b91508282048414831517620003485762000347620002d5565b5b5092915050565b60006200035c82620002cb565b91507fffffffffffffffffffffffffffffffffffffffffffffffffffffffffffffffff8203620003915762000390620002d5565b5b600182019050919050565b611d7c80620003ac6000396000f3fe6080604052600436106100f35760003560e01c806370a082311161008a5780639b8906ae116100595780639b8906ae1461031c578063b44d6eb814610347578063c9a815bd14610370578063d96a094a14610399576100f3565b806370a082311461025e5780637e1c0c091461029b5780638970d84c146102c65780638da5cb5b146102f1576100f3565b806340cc860b116100c657806340cc860b146101a257806347a10748146101df57806348c54b9d1461021c578063518ab2a814610233576100f3565b8063055ad42e146100f8578063135f8aa714610123578063380d831b146101605780633b971f9f14610177575b600080fd5b34801561010457600080fd5b5061010d6103b5565b60405161011a9190611343565b60405180910390f35b34801561012f57600080fd5b5061014a6004803603810190610145919061138f565b6103cd565b6040516101579190611343565b60405180910390f35b34801561016c57600080fd5b50610175610427565b005b34801561018357600080fd5b5061018c6106ed565b60405161019991906113cb565b60405180910390f35b3480156101ae57600080fd5b506101c960048036038101906101c49190611444565b6106f7565b6040516101d691906113cb565b60405180910390f35b3480156101eb57600080fd5b5061020660048036038101906102019190611484565b61071c565b60405161021391906113cb565b60405180910390f35b34801561022857600080fd5b506102316107c4565b005b34801561023f57600080fd5b506102486109d9565b60405161025591906113cb565b60405180910390f35b34801561026a57600080fd5b5061028560048036038101906102809190611484565b6109e3565b60405161029291906113cb565b60405180910390f35b3480156102a757600080fd5b506102b0610a2c565b6040516102bd91906113cb565b60405180910390f35b3480156102d257600080fd5b506102db610ace565b6040516102e891906113cb565b60405180910390f35b3480156102fd57600080fd5b50610306610b7b565b60405161031391906114c0565b60405180910390f35b34801561032857600080fd5b50610331610b9f565b60405161033e91906114f6565b60405180910390f35b34801561035357600080fd5b5061036e60048036038101906103699190611484565b610bb2565b005b34801561037c57600080fd5b5061039760048036038101906103929190611511565b610d1f565b005b6103b360048036038101906103ae919061138f565b610e99565b005b6103bd6112c7565b6103c86007546103cd565b905090565b6103d56112c7565b600a82815481106103e9576103e8611551565b5b906000526020600020906003020160405180606001604052908160008201548152602001600182015481526020016002820154815250509050919050565b60008054906101000a900473ffffffffffffffffffffffffffffffffffffffff1673ffffffffffffffffffffffffffffffffffffffff163373ffffffffffffffffffffffffffffffffffffffff16146104b5576040517f08c379a00000000000000000000000000000000000000000000000000000000081526004016104ac906115dd565b60405180910390fd5b600860009054906101000a900460ff1615610505576040517f08c379a00000000000000000000000000000000000000000000000000000000081526004016104fc90611649565b60405180910390fd5b600560009054906101000a900473ffffffffffffffffffffffffffffffffffffffff1673ffffffffffffffffffffffffffffffffffffffff1663a9059cbb60008054906101000a900473ffffffffffffffffffffffffffffffffffffffff16600560009054906101000a900473ffffffffffffffffffffffffffffffffffffffff1673ffffffffffffffffffffffffffffffffffffffff166370a08231306040518263ffffffff1660e01b81526004016105bf91906114c0565b602060405180830381865afa1580156105dc573d6000803e3d6000fd5b505050506040513d601f19601f82011682018060405250810190610600919061167e565b6040518363ffffffff1660e01b815260040161061d9291906116ab565b6020604051808303816000875af115801561063c573d6000803e3d6000fd5b505050506040513d601f19601f820116820180604052508101906106609190611700565b61066957600080fd5b60008054906101000a900473ffffffffffffffffffffffffffffffffffffffff1673ffffffffffffffffffffffffffffffffffffffff166108fc479081150290604051600060405180830381858888f193505050501580156106cf573d6000803e3d6000fd5b506001600860006101000a81548160ff021916908315150217905550565b6000600154905090565b6009602052816000526040600020602052806000526040600020600091509150505481565b6000600960008373ffffffffffffffffffffffffffffffffffffffff1673ffffffffffffffffffffffffffffffffffffffff1681526020019081526020016000206000600660009054906101000a900473ffffffffffffffffffffffffffffffffffffffff1673ffffffffffffffffffffffffffffffffffffffff1673ffffffffffffffffffffffffffffffffffffffff168152602001908152602001600020549050919050565b600860009054906101000a900460ff16610813576040517f08c379a000000000000000000000000000000000000000000000000000000000815260040161080a90611779565b60405180910390fd5b6000600b60003373ffffffffffffffffffffffffffffffffffffffff1673ffffffffffffffffffffffffffffffffffffffff1681526020019081526020016000205490506000811161089a576040517f08c379a0000000000000000000000000000000000000000000000000000000008152600401610891906117e5565b60405180910390fd5b6000600b60003373ffffffffffffffffffffffffffffffffffffffff1673ffffffffffffffffffffffffffffffffffffffff16815260200190815260200160002081905550600560009054906101000a900473ffffffffffffffffffffffffffffffffffffffff1673ffffffffffffffffffffffffffffffffffffffff1663a9059cbb33836040518363ffffffff1660e01b815260040161093c9291906116ab565b6020604051808303816000875af115801561095b573d6000803e3d6000fd5b505050506040513d601f19601f8201168201806040525081019061097f9190611700565b61098857600080fd5b3373ffffffffffffffffffffffffffffffffffffffff167f896e034966eaaf1adc54acc0f257056febbd300c9e47182cf761982cf1f5e430826040516109ce91906113cb565b60405180910390a250565b6000600254905090565b6000600b60008373ffffffffffffffffffffffffffffffffffffffff1673ffffffffffffffffffffffffffffffffffffffff168152602001908152602001600020549050919050565b6000610ac9600560009054906101000a900473ffffffffffffffffffffffffffffffffffffffff1673ffffffffffffffffffffffffffffffffffffffff166318160ddd6040518163ffffffff1660e01b8152600401602060405180830381865afa158015610a9e573d6000803e3d6000fd5b505050506040513d601f19601f82011682018060405250810190610ac2919061167e565b60126112a5565b905090565b6000610b76600560009054906101000a900473ffffffffffffffffffffffffffffffffffffffff1673ffffffffffffffffffffffffffffffffffffffff166370a08231336040518263ffffffff1660e01b8152600401610b2e91906114c0565b602060405180830381865afa158015610b4b573d6000803e3d6000fd5b505050506040513d601f19601f82011682018060405250810190610b6f919061167e565b60126112a5565b905090565b60008054906101000a900473ffffffffffffffffffffffffffffffffffffffff1681565b600860009054906101000a900460ff1681565b600660009054906101000a900473ffffffffffffffffffffffffffffffffffffffff1673ffffffffffffffffffffffffffffffffffffffff168173ffffffffffffffffffffffffffffffffffffffff1614610c42576040517f08c379a0000000000000000000000000000000000000000000000000000000008152600401610c3990611851565b60405180910390fd5b600960003373ffffffffffffffffffffffffffffffffffffffff1673ffffffffffffffffffffffffffffffffffffffff16815260200190815260200160002060008273ffffffffffffffffffffffffffffffffffffffff1673ffffffffffffffffffffffffffffffffffffffff168152602001908152602001600020600090558073ffffffffffffffffffffffffffffffffffffffff163373ffffffffffffffffffffffffffffffffffffffff167ffa3c09b8ff40a6a068422fa454d336b2b8028e3075ea98cf35021a721db5bb4460405160405180910390a350565b600660009054906101000a900473ffffffffffffffffffffffffffffffffffffffff1673ffffffffffffffffffffffffffffffffffffffff168273ffffffffffffffffffffffffffffffffffffffff1614610daf576040517f08c379a0000000000000000000000000000000000000000000000000000000008152600401610da690611851565b60405180910390fd5b80600960003373ffffffffffffffffffffffffffffffffffffffff1673ffffffffffffffffffffffffffffffffffffffff16815260200190815260200160002060008473ffffffffffffffffffffffffffffffffffffffff1673ffffffffffffffffffffffffffffffffffffffff168152602001908152602001600020819055508173ffffffffffffffffffffffffffffffffffffffff163373ffffffffffffffffffffffffffffffffffffffff167f26c909f28e96733d1fb0c53c8de0daaea88a232b2d341143ec4842ce885fe12383604051610e8d91906113cb565b60405180910390a35050565b600860009054906101000a900460ff1615610ee9576040517f08c379a0000000000000000000000000000000000000000000000000000000008152600401610ee0906118bd565b60405180910390fd5b80610ef56007546103cd565b6020015134610f04919061193b565b14610f44576040517f08c379a0000000000000000000000000000000000000000000000000000000008152600401610f3b906119b8565b60405180910390fd5b80610f506007546103cd565b600001511015610f95576040517f08c379a0000000000000000000000000000000000000000000000000000000008152600401610f8c90611a4a565b60405180910390fd5b6000610fa26007546103cd565b6020015182610fb19190611a6a565b905080341015610ff6576040517f08c379a0000000000000000000000000000000000000000000000000000000008152600401610fed90611af8565b60405180910390fd5b600560009054906101000a900473ffffffffffffffffffffffffffffffffffffffff1673ffffffffffffffffffffffffffffffffffffffff1663a9059cbb33846040518363ffffffff1660e01b81526004016110539291906116ab565b6020604051808303816000875af1158015611072573d6000803e3d6000fd5b505050506040513d601f19601f820116820180604052508101906110969190611700565b61109f57600080fd5b60008054906101000a900473ffffffffffffffffffffffffffffffffffffffff1673ffffffffffffffffffffffffffffffffffffffff166108fc349081150290604051600060405180830381858888f19350505050158015611105573d6000803e3d6000fd5b5081600260008282546111189190611b18565b9250508190555081600a6007548154811061113657611135611551565b5b906000526020600020906003020160000160008282546111569190611b4c565b9250508190555081600b60003373ffffffffffffffffffffffffffffffffffffffff1673ffffffffffffffffffffffffffffffffffffffff16815260200190815260200160002060008282546111ac9190611b18565b925050819055506000600a600754815481106111cb576111ca611551565b5b9060005260206000209060030201600001540361122557600760008154809291906111f590611b80565b9190505550600a8054905060075403611224576001600860006101000a81548160ff0219169083151502179055505b5b600a6007548154811061123b5761123a611551565b5b9060005260206000209060030201600101546001819055503373ffffffffffffffffffffffffffffffffffffffff167f8f28852646c20cc973d3a8218f7eefed58c25c909f78f0265af4818c3d4dc2718360405161129991906113cb565b60405180910390a25050565b600081600a6112b49190611cfb565b836112bf919061193b565b905092915050565b60405180606001604052806000815260200160008152602001600081525090565b6000819050919050565b6112fb816112e8565b82525050565b60608201600082015161131760008501826112f2565b50602082015161132a60208501826112f2565b50604082015161133d60408501826112f2565b50505050565b60006060820190506113586000830184611301565b92915050565b600080fd5b61136c816112e8565b811461137757600080fd5b50565b60008135905061138981611363565b92915050565b6000602082840312156113a5576113a461135e565b5b60006113b38482850161137a565b91505092915050565b6113c5816112e8565b82525050565b60006020820190506113e060008301846113bc565b92915050565b600073ffffffffffffffffffffffffffffffffffffffff82169050919050565b6000611411826113e6565b9050919050565b61142181611406565b811461142c57600080fd5b50565b60008135905061143e81611418565b92915050565b6000806040838503121561145b5761145a61135e565b5b60006114698582860161142f565b925050602061147a8582860161142f565b9150509250929050565b60006020828403121561149a5761149961135e565b5b60006114a88482850161142f565b91505092915050565b6114ba81611406565b82525050565b60006020820190506114d560008301846114b1565b92915050565b60008115159050919050565b6114f0816114db565b82525050565b600060208201905061150b60008301846114e7565b92915050565b600080604083850312156115285761152761135e565b5b60006115368582860161142f565b92505060206115478582860161137a565b9150509250929050565b7f4e487b7100000000000000000000000000000000000000000000000000000000600052603260045260246000fd5b600082825260208201905092915050565b7f4f6e6c79206f776e657220616c6c6f7765640000000000000000000000000000600082015250565b60006115c7601283611580565b91506115d282611591565b602082019050919050565b600060208201905081810360008301526115f6816115ba565b9050919050565b7f53616c652068617320616c726561647920656e64656400000000000000000000600082015250565b6000611633601683611580565b915061163e826115fd565b602082019050919050565b6000602082019050818103600083015261166281611626565b9050919050565b60008151905061167881611363565b92915050565b6000602082840312156116945761169361135e565b5b60006116a284828501611669565b91505092915050565b60006040820190506116c060008301856114b1565b6116cd60208301846113bc565b9392505050565b6116dd816114db565b81146116e857600080fd5b50565b6000815190506116fa816116d4565b92915050565b6000602082840312156117165761171561135e565b5b6000611724848285016116eb565b91505092915050565b7f53616c6520686173206e6f7420656e6465642079657400000000000000000000600082015250565b6000611763601683611580565b915061176e8261172d565b602082019050919050565b6000602082019050818103600083015261179281611756565b9050919050565b7f4e6f20746f6b656e7320746f20636c61696d0000000000000000000000000000600082015250565b60006117cf601283611580565b91506117da82611799565b602082019050919050565b600060208201905081810360008301526117fe816117c2565b9050919050565b7f496e76616c696420746f6b656e00000000000000000000000000000000000000600082015250565b600061183b600d83611580565b915061184682611805565b602082019050919050565b6000602082019050818103600083015261186a8161182e565b9050919050565b7f53616c652068617320656e646564000000000000000000000000000000000000600082015250565b60006118a7600e83611580565b91506118b282611871565b602082019050919050565b600060208201905081810360008301526118d68161189a565b9050919050565b7f4e487b7100000000000000000000000000000000000000000000000000000000600052601260045260246000fd5b7f4e487b7100000000000000000000000000000000000000000000000000000000600052601160045260246000fd5b6000611946826112e8565b9150611951836112e8565b925082611961576119606118dd565b5b828204905092915050565b7f445649546f6b656e73616c653a204e6f7420656e6f7567682045544800000000600082015250565b60006119a2601c83611580565b91506119ad8261196c565b602082019050919050565b600060208201905081810360008301526119d181611995565b9050919050565b7f4e6f7420656e6f75676820746f6b656e7320617661696c61626c6520696e207460008201527f6869732070686173650000000000000000000000000000000000000000000000602082015250565b6000611a34602983611580565b9150611a3f826119d8565b604082019050919050565b60006020820190508181036000830152611a6381611a27565b9050919050565b6000611a75826112e8565b9150611a80836112e8565b9250828202611a8e816112e8565b91508282048414831517611aa557611aa461190c565b5b5092915050565b7f496e73756666696369656e74204554482073656e740000000000000000000000600082015250565b6000611ae2601583611580565b9150611aed82611aac565b602082019050919050565b60006020820190508181036000830152611b1181611ad5565b9050919050565b6000611b23826112e8565b9150611b2e836112e8565b9250828201905080821115611b4657611b4561190c565b5b92915050565b6000611b57826112e8565b9150611b62836112e8565b9250828203905081811115611b7a57611b7961190c565b5b92915050565b6000611b8b826112e8565b91507fffffffffffffffffffffffffffffffffffffffffffffffffffffffffffffffff8203611bbd57611bbc61190c565b5b600182019050919050565b60008160011c9050919050565b6000808291508390505b6001851115611c1f57808604811115611bfb57611bfa61190c565b5b6001851615611c0a5780820291505b8081029050611c1885611bc8565b9450611bdf565b94509492505050565b600082611c385760019050611cf4565b81611c465760009050611cf4565b8160018114611c5c5760028114611c6657611c95565b6001915050611cf4565b60ff841115611c7857611c7761190c565b5b8360020a915084821115611c8f57611c8e61190c565b5b50611cf4565b5060208310610133831016604e8410600b8410161715611cca5782820a905083811115611cc557611cc461190c565b5b611cf4565b611cd78484846001611bd5565b92509050818404811115611cee57611ced61190c565b5b81810290505b9392505050565b6000611d06826112e8565b9150611d11836112e8565b9250611d3e7fffffffffffffffffffffffffffffffffffffffffffffffffffffffffffffffff8484611c28565b90509291505056fea2646970667358221220b2a3ca4d66692db4c38ef563135f4cac61f8bcb8d6e78164e35e66a8101285c164736f6c63430008130033",
  "immutableReferences": {},
  "source": "// SPDX-License-Identifier: MIT\r\npragma solidity ^0.8.19;\r\n\r\nimport \"@openzeppelin/contracts/token/ERC20/IERC20.sol\";\r\n\r\ncontract Prueba3 {\r\n    address public owner;\r\n    uint private buyPrice;\r\n    uint private sold;\r\n    uint private toSold;\r\n    address private noOne = address(0);\r\n    IERC20 private token;\r\n    IERC20 private paymentToken;\r\n    uint private currentPhaseIndex;\r\n    bool public saleEnded;\r\n    mapping(address => mapping(address => uint)) public spendingLimits; // Nuevo: lmites de gasto por usuario y token\r\n\r\n    struct Phase {\r\n        uint total;\r\n        uint price;\r\n        uint phase;\r\n    }\r\n\r\n    Phase[] private phases;\r\n    mapping(address => uint) private purchasedTokens;\r\n\r\n    event TokensPurchased(address indexed buyer, uint amount);\r\n    event TokensClaimed(address indexed claimer, uint amount);\r\n    event SpendingLimitSet(address indexed user, address indexed token, uint limit); // Nuevo: evento para notificar la configuracin del lmite de gasto\r\n    event SpendingLimitRevoked(address indexed user, address indexed token); // Nuevo: evento para notificar la revocacin del lmite de gasto\r\n\r\n\r\n    constructor(address _token, address _paymentToken) {\r\n        owner = msg.sender;\r\n        token = IERC20(_token);\r\n        paymentToken = IERC20(_paymentToken);\r\n        buyPrice = 0.000010 * 10**18;\r\n        currentPhaseIndex = 0;\r\n        sold = 0;\r\n        saleEnded = false;\r\n\r\n        for (uint i = 1; i <= 10; i++) {\r\n            phases.push(Phase(1000000, i * buyPrice, i));\r\n        }\r\n    }\r\n\r\n    function setSpendingLimit(address _token, uint _limit) public {\r\n        require(_token == address(paymentToken), \"Invalid token\");\r\n        spendingLimits[msg.sender][_token] = _limit;\r\n        emit SpendingLimitSet(msg.sender, _token, _limit); // Nuevo: emitir evento al establecer el lmite de gasto\r\n    }\r\n\r\n    function revokeSpendingLimit(address _token) public {\r\n        require(_token == address(paymentToken), \"Invalid token\");\r\n        delete spendingLimits[msg.sender][_token];\r\n        emit SpendingLimitRevoked(msg.sender, _token); // Nuevo: emitir evento al revocar el lmite de gasto\r\n    }\r\n\r\n    function getSpendingLimit(address _user) public view returns (uint) {\r\n        return spendingLimits[_user][address(paymentToken)];\r\n    }\r\n\r\n\r\n    function buy(uint tokens) public payable {\r\n    require(!saleEnded, \"Sale has ended\");\r\n    require(msg.value / phase(currentPhaseIndex).price == tokens, \"DVITokensale: Not enough ETH\");\r\n    require(phase(currentPhaseIndex).total >= tokens, \"Not enough tokens available in this phase\");\r\n\r\n    uint cost = tokens * phase(currentPhaseIndex).price;\r\n    require(msg.value >= cost, \"Insufficient ETH sent\");\r\n\r\n    require(token.transfer(msg.sender, tokens));\r\n\r\n    payable(owner).transfer(msg.value);\r\n\r\n    sold += tokens;\r\n    phases[currentPhaseIndex].total -= tokens;\r\n    purchasedTokens[msg.sender] += tokens;\r\n\r\n    if (phases[currentPhaseIndex].total == 0) {\r\n        currentPhaseIndex++;\r\n        if (currentPhaseIndex == phases.length) {\r\n            saleEnded = true;\r\n        }\r\n    }\r\n    buyPrice = phases[currentPhaseIndex].price;\r\n\r\n    emit TokensPurchased(msg.sender, tokens);\r\n}\r\n\r\n    function claimTokens() public {\r\n        require(saleEnded, \"Sale has not ended yet\");\r\n        uint tokensToClaim = purchasedTokens[msg.sender];\r\n        require(tokensToClaim > 0, \"No tokens to claim\");\r\n\r\n        purchasedTokens[msg.sender] = 0;\r\n        require(token.transfer(msg.sender, tokensToClaim));\r\n\r\n        emit TokensClaimed(msg.sender, tokensToClaim);\r\n    }\r\n\r\n    function balanceOf(address account) public view returns (uint) {\r\n        return purchasedTokens[account];\r\n    }\r\n\r\n    function endSale() public onlyOwner {\r\n    require(!saleEnded, \"Sale has already ended\");\r\n\r\n    require(token.transfer(owner, token.balanceOf(address(this))));\r\n\r\n    payable(owner).transfer(address(this).balance);\r\n\r\n    saleEnded = true;\r\n}\r\n\r\n    function _unAmount(uint _amountDeci, uint decimals) private pure returns(uint){\r\n        return _amountDeci / (10**decimals);\r\n    }\r\n\r\n    function _tokens() public view returns (uint) {\r\n        return _unAmount(token.balanceOf(msg.sender), 18);\r\n    }\r\n\r\n\r\n\r\n    function tokensSold() public view returns (uint) {\r\n        return sold;\r\n    }\r\n\r\n    function totalTokens() public view returns (uint) {\r\n        return _unAmount(token.totalSupply(), 18);\r\n    }\r\n\r\n    function currentPhase() public view returns (Phase memory) {\r\n        return phase(currentPhaseIndex);\r\n    }\r\n\r\n    function phase(uint phaseId) public view returns (Phase memory) {\r\n        return phases[phaseId];\r\n    }\r\n\r\n    function _tokenPrice() public view returns (uint) {\r\n        return buyPrice;\r\n    }\r\n\r\n    modifier onlyOwner() {\r\n        require(msg.sender == owner, \"Only owner allowed\");\r\n        _;\r\n    }\r\n}",
  "sourcePath": "C:\\Users\\User\\Desktop\\solidity\\contracts\\Prueba3.sol",
  "compiler": {
    "name": "solc",
    "version": "0.8.19+commit.7dd6d404.Emscripten.clang"
  },
  "schemaVersion": "3.4.16",
  "updatedAt": "2024-02-25T00:21:16.591Z",
  "networkType": "ethereum",
  "devdoc": {
    "kind": "dev",
    "methods": {},
    "version": 1
  },
  "userdoc": {
    "kind": "user",
    "methods": {},
    "version": 1
  }
}