{
  "contractName": "Prueba1",
  "abi": [
    {
      "inputs": [
        {
          "internalType": "address",
          "name": "_token",
          "type": "address"
        },
        {
          "internalType": "address",
          "name": "_usdt",
          "type": "address"
        }
      ],
      "stateMutability": "nonpayable",
      "type": "constructor"
    },
    {
      "anonymous": false,
      "inputs": [
        {
          "indexed": true,
          "internalType": "address",
          "name": "claimer",
          "type": "address"
        },
        {
          "indexed": false,
          "internalType": "uint256",
          "name": "amount",
          "type": "uint256"
        }
      ],
      "name": "TokensClaimed",
      "type": "event"
    },
    {
      "anonymous": false,
      "inputs": [
        {
          "indexed": true,
          "internalType": "address",
          "name": "buyer",
          "type": "address"
        },
        {
          "indexed": false,
          "internalType": "uint256",
          "name": "amount",
          "type": "uint256"
        }
      ],
      "name": "TokensPurchased",
      "type": "event"
    },
    {
      "inputs": [],
      "name": "owner",
      "outputs": [
        {
          "internalType": "address",
          "name": "",
          "type": "address"
        }
      ],
      "stateMutability": "view",
      "type": "function",
      "constant": true
    },
    {
      "inputs": [],
      "name": "saleEnded",
      "outputs": [
        {
          "internalType": "bool",
          "name": "",
          "type": "bool"
        }
      ],
      "stateMutability": "view",
      "type": "function",
      "constant": true
    },
    {
      "inputs": [
        {
          "internalType": "address",
          "name": "user",
          "type": "address"
        },
        {
          "internalType": "uint256",
          "name": "limit",
          "type": "uint256"
        }
      ],
      "name": "setSpendingLimitUSDT",
      "outputs": [],
      "stateMutability": "nonpayable",
      "type": "function"
    },
    {
      "inputs": [
        {
          "internalType": "uint256",
          "name": "amount",
          "type": "uint256"
        }
      ],
      "name": "approveUSDT",
      "outputs": [],
      "stateMutability": "nonpayable",
      "type": "function"
    },
    {
      "inputs": [
        {
          "internalType": "uint256",
          "name": "tokens",
          "type": "uint256"
        }
      ],
      "name": "buy",
      "outputs": [],
      "stateMutability": "nonpayable",
      "type": "function"
    },
    {
      "inputs": [],
      "name": "claimTokens",
      "outputs": [],
      "stateMutability": "nonpayable",
      "type": "function"
    },
    {
      "inputs": [
        {
          "internalType": "address",
          "name": "account",
          "type": "address"
        }
      ],
      "name": "balanceOf",
      "outputs": [
        {
          "internalType": "uint256",
          "name": "",
          "type": "uint256"
        }
      ],
      "stateMutability": "view",
      "type": "function",
      "constant": true
    },
    {
      "inputs": [],
      "name": "endSale",
      "outputs": [],
      "stateMutability": "nonpayable",
      "type": "function"
    },
    {
      "inputs": [],
      "name": "_tokens",
      "outputs": [
        {
          "internalType": "uint256",
          "name": "",
          "type": "uint256"
        }
      ],
      "stateMutability": "view",
      "type": "function",
      "constant": true
    },
    {
      "inputs": [],
      "name": "tokensSold",
      "outputs": [
        {
          "internalType": "uint256",
          "name": "",
          "type": "uint256"
        }
      ],
      "stateMutability": "view",
      "type": "function",
      "constant": true
    },
    {
      "inputs": [],
      "name": "totalTokens",
      "outputs": [
        {
          "internalType": "uint256",
          "name": "",
          "type": "uint256"
        }
      ],
      "stateMutability": "view",
      "type": "function",
      "constant": true
    },
    {
      "inputs": [],
      "name": "currentPhase",
      "outputs": [
        {
          "components": [
            {
              "internalType": "uint256",
              "name": "total",
              "type": "uint256"
            },
            {
              "internalType": "uint256",
              "name": "price",
              "type": "uint256"
            },
            {
              "internalType": "uint256",
              "name": "phase",
              "type": "uint256"
            }
          ],
          "internalType": "struct Prueba1.Phase",
          "name": "",
          "type": "tuple"
        }
      ],
      "stateMutability": "view",
      "type": "function",
      "constant": true
    },
    {
      "inputs": [
        {
          "internalType": "uint256",
          "name": "phaseId",
          "type": "uint256"
        }
      ],
      "name": "phase",
      "outputs": [
        {
          "components": [
            {
              "internalType": "uint256",
              "name": "total",
              "type": "uint256"
            },
            {
              "internalType": "uint256",
              "name": "price",
              "type": "uint256"
            },
            {
              "internalType": "uint256",
              "name": "phase",
              "type": "uint256"
            }
          ],
          "internalType": "struct Prueba1.Phase",
          "name": "",
          "type": "tuple"
        }
      ],
      "stateMutability": "view",
      "type": "function",
      "constant": true
    },
    {
      "inputs": [],
      "name": "_tokenPrice",
      "outputs": [
        {
          "internalType": "uint256",
          "name": "",
          "type": "uint256"
        }
      ],
      "stateMutability": "view",
      "type": "function",
      "constant": true
    }
  ],
  "bytecode": "0x60806040526000600460006101000a81548173ffffffffffffffffffffffffffffffffffffffff021916908373ffffffffffffffffffffffffffffffffffffffff1602179055503480156200005357600080fd5b5060405162001d5338038062001d53833981810160405281019062000079919062000286565b336000806101000a81548173ffffffffffffffffffffffffffffffffffffffff021916908373ffffffffffffffffffffffffffffffffffffffff16021790555081600560006101000a81548173ffffffffffffffffffffffffffffffffffffffff021916908373ffffffffffffffffffffffffffffffffffffffff16021790555080600660006101000a81548173ffffffffffffffffffffffffffffffffffffffff021916908373ffffffffffffffffffffffffffffffffffffffff16021790555067171ed22c53cd0000600181905550600060078190555060006002819055506000600860006101000a81548160ff0219169083151502179055506000600190505b600a811162000213576009604051806060016040528062231860815260200160015484620001ab919062000306565b8152602001838152509080600181540180825580915050600190039060005260206000209060030201600090919091909150600082015181600001556020820151816001015560408201518160020155505080806200020a9062000351565b9150506200017c565b5050506200039e565b600080fd5b600073ffffffffffffffffffffffffffffffffffffffff82169050919050565b60006200024e8262000221565b9050919050565b620002608162000241565b81146200026c57600080fd5b50565b600081519050620002808162000255565b92915050565b60008060408385031215620002a0576200029f6200021c565b5b6000620002b0858286016200026f565b9250506020620002c3858286016200026f565b9150509250929050565b6000819050919050565b7f4e487b7100000000000000000000000000000000000000000000000000000000600052601160045260246000fd5b60006200031382620002cd565b91506200032083620002cd565b92508282026200033081620002cd565b915082820484148315176200034a5762000349620002d7565b5b5092915050565b60006200035e82620002cd565b91507fffffffffffffffffffffffffffffffffffffffffffffffffffffffffffffffff8203620003935762000392620002d7565b5b600182019050919050565b6119a580620003ae6000396000f3fe608060405234801561001057600080fd5b50600436106100ea5760003560e01c806370a082311161008c5780638da5cb5b116100665780638da5cb5b146102155780639b8906ae14610233578063c006a52514610251578063d96a094a1461026d576100ea565b806370a08231146101a95780637e1c0c09146101d95780638970d84c146101f7576100ea565b8063380d831b116100c8578063380d831b146101595780633b971f9f1461016357806348c54b9d14610181578063518ab2a81461018b576100ea565b8063055ad42e146100ef578063135f8aa71461010d57806320cdb4271461013d575b600080fd5b6100f7610289565b6040516101049190610fe1565b60405180910390f35b6101276004803603810190610122919061102d565b6102a1565b6040516101349190610fe1565b60405180910390f35b6101576004803603810190610152919061102d565b6102fb565b005b6101616103dd565b005b61016b61063c565b6040516101789190611069565b60405180910390f35b610189610646565b005b61019361085b565b6040516101a09190611069565b60405180910390f35b6101c360048036038101906101be91906110e2565b610865565b6040516101d09190611069565b60405180910390f35b6101e16108ae565b6040516101ee9190611069565b60405180910390f35b6101ff610950565b60405161020c9190611069565b60405180910390f35b61021d6109fd565b60405161022a919061111e565b60405180910390f35b61023b610a21565b6040516102489190611154565b60405180910390f35b61026b6004803603810190610266919061116f565b610a34565b005b6102876004803603810190610282919061102d565b610b0a565b005b610291610f65565b61029c6007546102a1565b905090565b6102a9610f65565b600982815481106102bd576102bc6111af565b5b906000526020600020906003020160405180606001604052908160008201548152602001600182015481526020016002820154815250509050919050565b600660009054906101000a900473ffffffffffffffffffffffffffffffffffffffff1673ffffffffffffffffffffffffffffffffffffffff1663095ea7b330836040518363ffffffff1660e01b81526004016103589291906111de565b6020604051808303816000875af1158015610377573d6000803e3d6000fd5b505050506040513d601f19601f8201168201806040525081019061039b9190611233565b6103da576040517f08c379a00000000000000000000000000000000000000000000000000000000081526004016103d1906112bd565b60405180910390fd5b50565b60008054906101000a900473ffffffffffffffffffffffffffffffffffffffff1673ffffffffffffffffffffffffffffffffffffffff163373ffffffffffffffffffffffffffffffffffffffff161461046b576040517f08c379a000000000000000000000000000000000000000000000000000000000815260040161046290611329565b60405180910390fd5b600860009054906101000a900460ff16156104bb576040517f08c379a00000000000000000000000000000000000000000000000000000000081526004016104b290611395565b60405180910390fd5b600560009054906101000a900473ffffffffffffffffffffffffffffffffffffffff1673ffffffffffffffffffffffffffffffffffffffff1663a9059cbb60008054906101000a900473ffffffffffffffffffffffffffffffffffffffff16600560009054906101000a900473ffffffffffffffffffffffffffffffffffffffff1673ffffffffffffffffffffffffffffffffffffffff166370a08231306040518263ffffffff1660e01b8152600401610575919061111e565b602060405180830381865afa158015610592573d6000803e3d6000fd5b505050506040513d601f19601f820116820180604052508101906105b691906113ca565b6040518363ffffffff1660e01b81526004016105d39291906111de565b6020604051808303816000875af11580156105f2573d6000803e3d6000fd5b505050506040513d601f19601f820116820180604052508101906106169190611233565b61061f57600080fd5b6001600860006101000a81548160ff021916908315150217905550565b6000600154905090565b600860009054906101000a900460ff16610695576040517f08c379a000000000000000000000000000000000000000000000000000000000815260040161068c90611443565b60405180910390fd5b6000600a60003373ffffffffffffffffffffffffffffffffffffffff1673ffffffffffffffffffffffffffffffffffffffff1681526020019081526020016000205490506000811161071c576040517f08c379a0000000000000000000000000000000000000000000000000000000008152600401610713906114af565b60405180910390fd5b6000600a60003373ffffffffffffffffffffffffffffffffffffffff1673ffffffffffffffffffffffffffffffffffffffff16815260200190815260200160002081905550600560009054906101000a900473ffffffffffffffffffffffffffffffffffffffff1673ffffffffffffffffffffffffffffffffffffffff1663a9059cbb33836040518363ffffffff1660e01b81526004016107be9291906111de565b6020604051808303816000875af11580156107dd573d6000803e3d6000fd5b505050506040513d601f19601f820116820180604052508101906108019190611233565b61080a57600080fd5b3373ffffffffffffffffffffffffffffffffffffffff167f896e034966eaaf1adc54acc0f257056febbd300c9e47182cf761982cf1f5e430826040516108509190611069565b60405180910390a250565b6000600254905090565b6000600a60008373ffffffffffffffffffffffffffffffffffffffff1673ffffffffffffffffffffffffffffffffffffffff168152602001908152602001600020549050919050565b600061094b600560009054906101000a900473ffffffffffffffffffffffffffffffffffffffff1673ffffffffffffffffffffffffffffffffffffffff166318160ddd6040518163ffffffff1660e01b8152600401602060405180830381865afa158015610920573d6000803e3d6000fd5b505050506040513d601f19601f8201168201806040525081019061094491906113ca565b6012610f43565b905090565b60006109f8600560009054906101000a900473ffffffffffffffffffffffffffffffffffffffff1673ffffffffffffffffffffffffffffffffffffffff166370a08231336040518263ffffffff1660e01b81526004016109b0919061111e565b602060405180830381865afa1580156109cd573d6000803e3d6000fd5b505050506040513d601f19601f820116820180604052508101906109f191906113ca565b6012610f43565b905090565b60008054906101000a900473ffffffffffffffffffffffffffffffffffffffff1681565b600860009054906101000a900460ff1681565b60008054906101000a900473ffffffffffffffffffffffffffffffffffffffff1673ffffffffffffffffffffffffffffffffffffffff163373ffffffffffffffffffffffffffffffffffffffff1614610ac2576040517f08c379a0000000000000000000000000000000000000000000000000000000008152600401610ab990611329565b60405180910390fd5b80600b60008473ffffffffffffffffffffffffffffffffffffffff1673ffffffffffffffffffffffffffffffffffffffff168152602001908152602001600020819055505050565b600860009054906101000a900460ff1615610b5a576040517f08c379a0000000000000000000000000000000000000000000000000000000008152600401610b519061151b565b60405180910390fd5b60015481610b68919061156a565b600b60003373ffffffffffffffffffffffffffffffffffffffff1673ffffffffffffffffffffffffffffffffffffffff168152602001908152602001600020541015610be9576040517f08c379a0000000000000000000000000000000000000000000000000000000008152600401610be0906115f8565b60405180910390fd5b80610bf56007546102a1565b600001511015610c3a576040517f08c379a0000000000000000000000000000000000000000000000000000000008152600401610c319061168a565b60405180910390fd5b6000610c476007546102a1565b6020015182610c56919061156a565b9050600660009054906101000a900473ffffffffffffffffffffffffffffffffffffffff1673ffffffffffffffffffffffffffffffffffffffff166323b872dd3330846040518463ffffffff1660e01b8152600401610cb7939291906116aa565b6020604051808303816000875af1158015610cd6573d6000803e3d6000fd5b505050506040513d601f19601f82011682018060405250810190610cfa9190611233565b50600560009054906101000a900473ffffffffffffffffffffffffffffffffffffffff1673ffffffffffffffffffffffffffffffffffffffff1663a9059cbb33846040518363ffffffff1660e01b8152600401610d589291906111de565b6020604051808303816000875af1158015610d77573d6000803e3d6000fd5b505050506040513d601f19601f82011682018060405250810190610d9b9190611233565b610da457600080fd5b8160026000828254610db691906116e1565b9250508190555081600960075481548110610dd457610dd36111af565b5b90600052602060002090600302016000016000828254610df49190611715565b9250508190555081600a60003373ffffffffffffffffffffffffffffffffffffffff1673ffffffffffffffffffffffffffffffffffffffff1681526020019081526020016000206000828254610e4a91906116e1565b925050819055506000600960075481548110610e6957610e686111af565b5b90600052602060002090600302016000015403610ec35760076000815480929190610e9390611749565b919050555060098054905060075403610ec2576001600860006101000a81548160ff0219169083151502179055505b5b600960075481548110610ed957610ed86111af565b5b9060005260206000209060030201600101546001819055503373ffffffffffffffffffffffffffffffffffffffff167f8f28852646c20cc973d3a8218f7eefed58c25c909f78f0265af4818c3d4dc27183604051610f379190611069565b60405180910390a25050565b600081600a610f5291906118c4565b83610f5d919061193e565b905092915050565b60405180606001604052806000815260200160008152602001600081525090565b6000819050919050565b610f9981610f86565b82525050565b606082016000820151610fb56000850182610f90565b506020820151610fc86020850182610f90565b506040820151610fdb6040850182610f90565b50505050565b6000606082019050610ff66000830184610f9f565b92915050565b600080fd5b61100a81610f86565b811461101557600080fd5b50565b60008135905061102781611001565b92915050565b60006020828403121561104357611042610ffc565b5b600061105184828501611018565b91505092915050565b61106381610f86565b82525050565b600060208201905061107e600083018461105a565b92915050565b600073ffffffffffffffffffffffffffffffffffffffff82169050919050565b60006110af82611084565b9050919050565b6110bf816110a4565b81146110ca57600080fd5b50565b6000813590506110dc816110b6565b92915050565b6000602082840312156110f8576110f7610ffc565b5b6000611106848285016110cd565b91505092915050565b611118816110a4565b82525050565b6000602082019050611133600083018461110f565b92915050565b60008115159050919050565b61114e81611139565b82525050565b60006020820190506111696000830184611145565b92915050565b6000806040838503121561118657611185610ffc565b5b6000611194858286016110cd565b92505060206111a585828601611018565b9150509250929050565b7f4e487b7100000000000000000000000000000000000000000000000000000000600052603260045260246000fd5b60006040820190506111f3600083018561110f565b611200602083018461105a565b9392505050565b61121081611139565b811461121b57600080fd5b50565b60008151905061122d81611207565b92915050565b60006020828403121561124957611248610ffc565b5b60006112578482850161121e565b91505092915050565b600082825260208201905092915050565b7f5553445420617070726f76616c206661696c6564000000000000000000000000600082015250565b60006112a7601483611260565b91506112b282611271565b602082019050919050565b600060208201905081810360008301526112d68161129a565b9050919050565b7f4f6e6c79206f776e657220616c6c6f7765640000000000000000000000000000600082015250565b6000611313601283611260565b915061131e826112dd565b602082019050919050565b6000602082019050818103600083015261134281611306565b9050919050565b7f53616c652068617320616c726561647920656e64656400000000000000000000600082015250565b600061137f601683611260565b915061138a82611349565b602082019050919050565b600060208201905081810360008301526113ae81611372565b9050919050565b6000815190506113c481611001565b92915050565b6000602082840312156113e0576113df610ffc565b5b60006113ee848285016113b5565b91505092915050565b7f53616c6520686173206e6f7420656e6465642079657400000000000000000000600082015250565b600061142d601683611260565b9150611438826113f7565b602082019050919050565b6000602082019050818103600083015261145c81611420565b9050919050565b7f4e6f20746f6b656e7320746f20636c61696d0000000000000000000000000000600082015250565b6000611499601283611260565b91506114a482611463565b602082019050919050565b600060208201905081810360008301526114c88161148c565b9050919050565b7f53616c652068617320656e646564000000000000000000000000000000000000600082015250565b6000611505600e83611260565b9150611510826114cf565b602082019050919050565b60006020820190508181036000830152611534816114f8565b9050919050565b7f4e487b7100000000000000000000000000000000000000000000000000000000600052601160045260246000fd5b600061157582610f86565b915061158083610f86565b925082820261158e81610f86565b915082820484148315176115a5576115a461153b565b5b5092915050565b7f4578636565646564207370656e64696e67206c696d697420696e205553445400600082015250565b60006115e2601f83611260565b91506115ed826115ac565b602082019050919050565b60006020820190508181036000830152611611816115d5565b9050919050565b7f4e6f7420656e6f75676820746f6b656e7320617661696c61626c6520696e207460008201527f6869732070686173650000000000000000000000000000000000000000000000602082015250565b6000611674602983611260565b915061167f82611618565b604082019050919050565b600060208201905081810360008301526116a381611667565b9050919050565b60006060820190506116bf600083018661110f565b6116cc602083018561110f565b6116d9604083018461105a565b949350505050565b60006116ec82610f86565b91506116f783610f86565b925082820190508082111561170f5761170e61153b565b5b92915050565b600061172082610f86565b915061172b83610f86565b92508282039050818111156117435761174261153b565b5b92915050565b600061175482610f86565b91507fffffffffffffffffffffffffffffffffffffffffffffffffffffffffffffffff82036117865761178561153b565b5b600182019050919050565b60008160011c9050919050565b6000808291508390505b60018511156117e8578086048111156117c4576117c361153b565b5b60018516156117d35780820291505b80810290506117e185611791565b94506117a8565b94509492505050565b60008261180157600190506118bd565b8161180f57600090506118bd565b8160018114611825576002811461182f5761185e565b60019150506118bd565b60ff8411156118415761184061153b565b5b8360020a9150848211156118585761185761153b565b5b506118bd565b5060208310610133831016604e8410600b84101617156118935782820a90508381111561188e5761188d61153b565b5b6118bd565b6118a0848484600161179e565b925090508184048111156118b7576118b661153b565b5b81810290505b9392505050565b60006118cf82610f86565b91506118da83610f86565b92506119077fffffffffffffffffffffffffffffffffffffffffffffffffffffffffffffffff84846117f1565b905092915050565b7f4e487b7100000000000000000000000000000000000000000000000000000000600052601260045260246000fd5b600061194982610f86565b915061195483610f86565b9250826119645761196361190f565b5b82820490509291505056fea264697066735822122083c5dcffe00ac92c3205df7393bab2d037bd121a044690c5d8328c4edf49e3c364736f6c63430008130033",
  "immutableReferences": {},
  "source": "// SPDX-License-Identifier: MIT\r\npragma solidity ^0.8.19;\r\n\r\nimport \"@openzeppelin/contracts/token/ERC20/IERC20.sol\";\r\n\r\ncontract Prueba1 {\r\n    address public owner;\r\n    uint private buyPrice;\r\n    uint private sold;\r\n    uint private toSold;\r\n    address private noOne = address(0);\r\n    IERC20 private token;\r\n    IERC20 private usdt; // Contrato del token USDT\r\n    uint private currentPhaseIndex;\r\n    bool public saleEnded;\r\n\r\n    struct Phase {\r\n        uint total;\r\n        uint price;\r\n        uint phase;\r\n    }\r\n\r\n    Phase[] private phases;\r\n    mapping(address => uint) private purchasedTokens;\r\n    mapping(address => uint) private spendingLimitsUSDT; // Lmites de gasto en USDT por direccin\r\n\r\n    event TokensPurchased(address indexed buyer, uint amount);\r\n    event TokensClaimed(address indexed claimer, uint amount);\r\n\r\n    constructor(address _token, address _usdt) {\r\n        owner = msg.sender;\r\n        token = IERC20(_token);\r\n        usdt = IERC20(_usdt); // Inicializa el contrato del token USDT\r\n        buyPrice = 1.66600 * 10**18;\r\n        currentPhaseIndex = 0;\r\n        sold = 0;\r\n        saleEnded = false;\r\n\r\n        for (uint i = 1; i <= 10; i++) {\r\n            phases.push(Phase(2300000, i * buyPrice, i));\r\n        }\r\n    }\r\n\r\n    function setSpendingLimitUSDT(address user, uint limit) public onlyOwner {\r\n        spendingLimitsUSDT[user] = limit;\r\n    }\r\n\r\n    function approveUSDT(uint amount) public {\r\n        require(usdt.approve(address(this), amount), \"USDT approval failed\");\r\n    }\r\n\r\n    function buy(uint tokens) public {\r\n        require(!saleEnded, \"Sale has ended\");\r\n        require(spendingLimitsUSDT[msg.sender] >= tokens * buyPrice, \"Exceeded spending limit in USDT\");\r\n        require(phase(currentPhaseIndex).total >= tokens, \"Not enough tokens available in this phase\");\r\n\r\n        uint cost = tokens * phase(currentPhaseIndex).price;\r\n        IERC20(usdt).transferFrom(msg.sender, address(this), cost); // Transferir USDT al contrato\r\n\r\n        require(token.transfer(msg.sender, tokens));\r\n\r\n        sold += tokens;\r\n        phases[currentPhaseIndex].total -= tokens;\r\n        purchasedTokens[msg.sender] += tokens;\r\n\r\n        if (phases[currentPhaseIndex].total == 0) {\r\n            currentPhaseIndex++;\r\n            if (currentPhaseIndex == phases.length) {\r\n                saleEnded = true;\r\n            }\r\n        }\r\n        buyPrice = phases[currentPhaseIndex].price;\r\n\r\n        emit TokensPurchased(msg.sender, tokens);\r\n    }\r\n\r\n    function claimTokens() public {\r\n        require(saleEnded, \"Sale has not ended yet\");\r\n        uint tokensToClaim = purchasedTokens[msg.sender];\r\n        require(tokensToClaim > 0, \"No tokens to claim\");\r\n\r\n        purchasedTokens[msg.sender] = 0;\r\n        require(token.transfer(msg.sender, tokensToClaim));\r\n\r\n        emit TokensClaimed(msg.sender, tokensToClaim);\r\n    }\r\n\r\n    function balanceOf(address account) public view returns (uint) {\r\n        return purchasedTokens[account];\r\n    }\r\n\r\n    function endSale() public onlyOwner {\r\n        require(!saleEnded, \"Sale has already ended\");\r\n\r\n        require(token.transfer(owner, token.balanceOf(address(this))));\r\n\r\n        saleEnded = true;\r\n    }\r\n\r\n    function _unAmount(uint _amountDeci, uint decimals) private pure returns(uint){\r\n        return _amountDeci / (10**decimals);\r\n    }\r\n\r\n    function _tokens() public view returns (uint) {\r\n        return _unAmount(token.balanceOf(msg.sender), 18);\r\n    }\r\n\r\n    function tokensSold() public view returns (uint) {\r\n        return sold;\r\n    }\r\n\r\n    function totalTokens() public view returns (uint) {\r\n        return _unAmount(token.totalSupply(), 18);\r\n    }\r\n\r\n    function currentPhase() public view returns (Phase memory) {\r\n        return phase(currentPhaseIndex);\r\n    }\r\n\r\n    function phase(uint phaseId) public view returns (Phase memory) {\r\n        return phases[phaseId];\r\n    }\r\n\r\n    function _tokenPrice() public view returns (uint) {\r\n        return buyPrice;\r\n    }\r\n\r\n    modifier onlyOwner() {\r\n        require(msg.sender == owner, \"Only owner allowed\");\r\n        _;\r\n    }\r\n}\r\n",
  "sourcePath": "C:\\Users\\User\\Desktop\\solidity\\contracts\\Prueba1.sol",
  "compiler": {
    "name": "solc",
    "version": "0.8.19+commit.7dd6d404.Emscripten.clang"
  },
  "schemaVersion": "3.4.16",
  "updatedAt": "2024-02-24T21:08:38.969Z",
  "networkType": "ethereum",
  "devdoc": {
    "kind": "dev",
    "methods": {},
    "version": 1
  },
  "userdoc": {
    "kind": "user",
    "methods": {},
    "version": 1
  }
}