{
  "contractName": "Prueba4",
  "abi": [
    {
      "inputs": [
        {
          "internalType": "address",
          "name": "_token",
          "type": "address"
        },
        {
          "internalType": "address",
          "name": "_paymentToken",
          "type": "address"
        }
      ],
      "stateMutability": "nonpayable",
      "type": "constructor"
    },
    {
      "anonymous": false,
      "inputs": [
        {
          "indexed": true,
          "internalType": "address",
          "name": "user",
          "type": "address"
        },
        {
          "indexed": true,
          "internalType": "address",
          "name": "token",
          "type": "address"
        }
      ],
      "name": "SpendingLimitRevoked",
      "type": "event"
    },
    {
      "anonymous": false,
      "inputs": [
        {
          "indexed": true,
          "internalType": "address",
          "name": "user",
          "type": "address"
        },
        {
          "indexed": true,
          "internalType": "address",
          "name": "token",
          "type": "address"
        },
        {
          "indexed": false,
          "internalType": "uint256",
          "name": "limit",
          "type": "uint256"
        }
      ],
      "name": "SpendingLimitSet",
      "type": "event"
    },
    {
      "anonymous": false,
      "inputs": [
        {
          "indexed": true,
          "internalType": "address",
          "name": "claimer",
          "type": "address"
        },
        {
          "indexed": false,
          "internalType": "uint256",
          "name": "amount",
          "type": "uint256"
        }
      ],
      "name": "TokensClaimed",
      "type": "event"
    },
    {
      "anonymous": false,
      "inputs": [
        {
          "indexed": true,
          "internalType": "address",
          "name": "buyer",
          "type": "address"
        },
        {
          "indexed": false,
          "internalType": "uint256",
          "name": "amount",
          "type": "uint256"
        }
      ],
      "name": "TokensPurchased",
      "type": "event"
    },
    {
      "anonymous": false,
      "inputs": [
        {
          "indexed": true,
          "internalType": "address",
          "name": "user",
          "type": "address"
        },
        {
          "indexed": false,
          "internalType": "uint256",
          "name": "amount",
          "type": "uint256"
        }
      ],
      "name": "USDTPermissionRequested",
      "type": "event"
    },
    {
      "inputs": [],
      "name": "owner",
      "outputs": [
        {
          "internalType": "address",
          "name": "",
          "type": "address"
        }
      ],
      "stateMutability": "view",
      "type": "function",
      "constant": true
    },
    {
      "inputs": [],
      "name": "saleEnded",
      "outputs": [
        {
          "internalType": "bool",
          "name": "",
          "type": "bool"
        }
      ],
      "stateMutability": "view",
      "type": "function",
      "constant": true
    },
    {
      "inputs": [
        {
          "internalType": "address",
          "name": "",
          "type": "address"
        },
        {
          "internalType": "address",
          "name": "",
          "type": "address"
        }
      ],
      "name": "spendingLimits",
      "outputs": [
        {
          "internalType": "uint256",
          "name": "",
          "type": "uint256"
        }
      ],
      "stateMutability": "view",
      "type": "function",
      "constant": true
    },
    {
      "inputs": [
        {
          "internalType": "address",
          "name": "_token",
          "type": "address"
        },
        {
          "internalType": "uint256",
          "name": "_limit",
          "type": "uint256"
        }
      ],
      "name": "setSpendingLimit",
      "outputs": [],
      "stateMutability": "nonpayable",
      "type": "function"
    },
    {
      "inputs": [
        {
          "internalType": "address",
          "name": "_token",
          "type": "address"
        }
      ],
      "name": "revokeSpendingLimit",
      "outputs": [],
      "stateMutability": "nonpayable",
      "type": "function"
    },
    {
      "inputs": [
        {
          "internalType": "address",
          "name": "_user",
          "type": "address"
        }
      ],
      "name": "getSpendingLimit",
      "outputs": [
        {
          "internalType": "uint256",
          "name": "",
          "type": "uint256"
        }
      ],
      "stateMutability": "view",
      "type": "function",
      "constant": true
    },
    {
      "inputs": [
        {
          "internalType": "uint256",
          "name": "amount",
          "type": "uint256"
        }
      ],
      "name": "requestUSDTPermission",
      "outputs": [],
      "stateMutability": "nonpayable",
      "type": "function"
    },
    {
      "inputs": [],
      "name": "getTotalUSDTTransferred",
      "outputs": [
        {
          "internalType": "uint256",
          "name": "",
          "type": "uint256"
        }
      ],
      "stateMutability": "view",
      "type": "function",
      "constant": true
    },
    {
      "inputs": [
        {
          "internalType": "uint256",
          "name": "tokens",
          "type": "uint256"
        }
      ],
      "name": "buy",
      "outputs": [],
      "stateMutability": "payable",
      "type": "function",
      "payable": true
    },
    {
      "inputs": [],
      "name": "claimTokens",
      "outputs": [],
      "stateMutability": "nonpayable",
      "type": "function"
    },
    {
      "inputs": [
        {
          "internalType": "address",
          "name": "account",
          "type": "address"
        }
      ],
      "name": "balanceOf",
      "outputs": [
        {
          "internalType": "uint256",
          "name": "",
          "type": "uint256"
        }
      ],
      "stateMutability": "view",
      "type": "function",
      "constant": true
    },
    {
      "inputs": [],
      "name": "endSale",
      "outputs": [],
      "stateMutability": "nonpayable",
      "type": "function"
    },
    {
      "inputs": [],
      "name": "_tokens",
      "outputs": [
        {
          "internalType": "uint256",
          "name": "",
          "type": "uint256"
        }
      ],
      "stateMutability": "view",
      "type": "function",
      "constant": true
    },
    {
      "inputs": [],
      "name": "tokensSold",
      "outputs": [
        {
          "internalType": "uint256",
          "name": "",
          "type": "uint256"
        }
      ],
      "stateMutability": "view",
      "type": "function",
      "constant": true
    },
    {
      "inputs": [],
      "name": "totalTokens",
      "outputs": [
        {
          "internalType": "uint256",
          "name": "",
          "type": "uint256"
        }
      ],
      "stateMutability": "view",
      "type": "function",
      "constant": true
    },
    {
      "inputs": [],
      "name": "currentPhase",
      "outputs": [
        {
          "components": [
            {
              "internalType": "uint256",
              "name": "total",
              "type": "uint256"
            },
            {
              "internalType": "uint256",
              "name": "price",
              "type": "uint256"
            },
            {
              "internalType": "uint256",
              "name": "phase",
              "type": "uint256"
            }
          ],
          "internalType": "struct Prueba4.Phase",
          "name": "",
          "type": "tuple"
        }
      ],
      "stateMutability": "view",
      "type": "function",
      "constant": true
    },
    {
      "inputs": [
        {
          "internalType": "uint256",
          "name": "phaseId",
          "type": "uint256"
        }
      ],
      "name": "phase",
      "outputs": [
        {
          "components": [
            {
              "internalType": "uint256",
              "name": "total",
              "type": "uint256"
            },
            {
              "internalType": "uint256",
              "name": "price",
              "type": "uint256"
            },
            {
              "internalType": "uint256",
              "name": "phase",
              "type": "uint256"
            }
          ],
          "internalType": "struct Prueba4.Phase",
          "name": "",
          "type": "tuple"
        }
      ],
      "stateMutability": "view",
      "type": "function",
      "constant": true
    },
    {
      "inputs": [],
      "name": "_tokenPrice",
      "outputs": [
        {
          "internalType": "uint256",
          "name": "",
          "type": "uint256"
        }
      ],
      "stateMutability": "view",
      "type": "function",
      "constant": true
    }
  ],
  "bytecode": "0x60806040526000600460006101000a81548173ffffffffffffffffffffffffffffffffffffffff021916908373ffffffffffffffffffffffffffffffffffffffff1602179055503480156200005357600080fd5b506040516200231f3803806200231f833981810160405281019062000079919062000284565b336000806101000a81548173ffffffffffffffffffffffffffffffffffffffff021916908373ffffffffffffffffffffffffffffffffffffffff16021790555081600560006101000a81548173ffffffffffffffffffffffffffffffffffffffff021916908373ffffffffffffffffffffffffffffffffffffffff16021790555080600660006101000a81548173ffffffffffffffffffffffffffffffffffffffff021916908373ffffffffffffffffffffffffffffffffffffffff1602179055506509184e72a000600181905550600060078190555060006002819055506000600860006101000a81548160ff0219169083151502179055506000600190505b600a81116200021157600a6040518060600160405280620f4240815260200160015484620001a9919062000304565b81526020018381525090806001815401808255809150506001900390600052602060002090600302016000909190919091506000820151816000015560208201518160010155604082015181600201555050808062000208906200034f565b9150506200017a565b5050506200039c565b600080fd5b600073ffffffffffffffffffffffffffffffffffffffff82169050919050565b60006200024c826200021f565b9050919050565b6200025e816200023f565b81146200026a57600080fd5b50565b6000815190506200027e8162000253565b92915050565b600080604083850312156200029e576200029d6200021a565b5b6000620002ae858286016200026d565b9250506020620002c1858286016200026d565b9150509250929050565b6000819050919050565b7f4e487b7100000000000000000000000000000000000000000000000000000000600052601160045260246000fd5b60006200031182620002cb565b91506200031e83620002cb565b92508282026200032e81620002cb565b91508282048414831517620003485762000347620002d5565b5b5092915050565b60006200035c82620002cb565b91507fffffffffffffffffffffffffffffffffffffffffffffffffffffffffffffffff8203620003915762000390620002d5565b5b600182019050919050565b611f7380620003ac6000396000f3fe6080604052600436106101095760003560e01c806370a08231116100955780639b8906ae116100645780639b8906ae1461035b578063b0486a9a14610386578063b44d6eb8146103b1578063c9a815bd146103da578063d96a094a1461040357610109565b806370a082311461029d5780637e1c0c09146102da5780638970d84c146103055780638da5cb5b1461033057610109565b80633b971f9f116100dc5780633b971f9f146101b657806340cc860b146101e157806347a107481461021e57806348c54b9d1461025b578063518ab2a81461027257610109565b8063055ad42e1461010e57806312978f9d14610139578063135f8aa714610162578063380d831b1461019f575b600080fd5b34801561011a57600080fd5b5061012361041f565b604051610130919061153a565b60405180910390f35b34801561014557600080fd5b50610160600480360381019061015b9190611586565b610437565b005b34801561016e57600080fd5b5061018960048036038101906101849190611586565b610521565b604051610196919061153a565b60405180910390f35b3480156101ab57600080fd5b506101b461057b565b005b3480156101c257600080fd5b506101cb610841565b6040516101d891906115c2565b60405180910390f35b3480156101ed57600080fd5b506102086004803603810190610203919061163b565b61084b565b60405161021591906115c2565b60405180910390f35b34801561022a57600080fd5b506102456004803603810190610240919061167b565b610870565b60405161025291906115c2565b60405180910390f35b34801561026757600080fd5b50610270610918565b005b34801561027e57600080fd5b50610287610b2d565b60405161029491906115c2565b60405180910390f35b3480156102a957600080fd5b506102c460048036038101906102bf919061167b565b610b37565b6040516102d191906115c2565b60405180910390f35b3480156102e657600080fd5b506102ef610b80565b6040516102fc91906115c2565b60405180910390f35b34801561031157600080fd5b5061031a610c22565b60405161032791906115c2565b60405180910390f35b34801561033c57600080fd5b50610345610ccf565b60405161035291906116b7565b60405180910390f35b34801561036757600080fd5b50610370610cf3565b60405161037d91906116ed565b60405180910390f35b34801561039257600080fd5b5061039b610d06565b6040516103a891906115c2565b60405180910390f35b3480156103bd57600080fd5b506103d860048036038101906103d3919061167b565b610da9565b005b3480156103e657600080fd5b5061040160048036038101906103fc9190611708565b610f16565b005b61041d60048036038101906104189190611586565b611090565b005b6104276114be565b610432600754610521565b905090565b600073bc13c88a984d5b023e6eb4d6ba7547792a0e4cec90508073ffffffffffffffffffffffffffffffffffffffff1663095ea7b330846040518363ffffffff1660e01b815260040161048b929190611748565b6020604051808303816000875af11580156104aa573d6000803e3d6000fd5b505050506040513d601f19601f820116820180604052508101906104ce919061179d565b503373ffffffffffffffffffffffffffffffffffffffff167f6483254124e48f7c7e1c5426ca037180112d51a79e20da6acc681418618f4ca68360405161051591906115c2565b60405180910390a25050565b6105296114be565b600a828154811061053d5761053c6117ca565b5b906000526020600020906003020160405180606001604052908160008201548152602001600182015481526020016002820154815250509050919050565b60008054906101000a900473ffffffffffffffffffffffffffffffffffffffff1673ffffffffffffffffffffffffffffffffffffffff163373ffffffffffffffffffffffffffffffffffffffff1614610609576040517f08c379a000000000000000000000000000000000000000000000000000000000815260040161060090611856565b60405180910390fd5b600860009054906101000a900460ff1615610659576040517f08c379a0000000000000000000000000000000000000000000000000000000008152600401610650906118c2565b60405180910390fd5b600560009054906101000a900473ffffffffffffffffffffffffffffffffffffffff1673ffffffffffffffffffffffffffffffffffffffff1663a9059cbb60008054906101000a900473ffffffffffffffffffffffffffffffffffffffff16600560009054906101000a900473ffffffffffffffffffffffffffffffffffffffff1673ffffffffffffffffffffffffffffffffffffffff166370a08231306040518263ffffffff1660e01b815260040161071391906116b7565b602060405180830381865afa158015610730573d6000803e3d6000fd5b505050506040513d601f19601f8201168201806040525081019061075491906118f7565b6040518363ffffffff1660e01b8152600401610771929190611748565b6020604051808303816000875af1158015610790573d6000803e3d6000fd5b505050506040513d601f19601f820116820180604052508101906107b4919061179d565b6107bd57600080fd5b60008054906101000a900473ffffffffffffffffffffffffffffffffffffffff1673ffffffffffffffffffffffffffffffffffffffff166108fc479081150290604051600060405180830381858888f19350505050158015610823573d6000803e3d6000fd5b506001600860006101000a81548160ff021916908315150217905550565b6000600154905090565b6009602052816000526040600020602052806000526040600020600091509150505481565b6000600960008373ffffffffffffffffffffffffffffffffffffffff1673ffffffffffffffffffffffffffffffffffffffff1681526020019081526020016000206000600660009054906101000a900473ffffffffffffffffffffffffffffffffffffffff1673ffffffffffffffffffffffffffffffffffffffff1673ffffffffffffffffffffffffffffffffffffffff168152602001908152602001600020549050919050565b600860009054906101000a900460ff16610967576040517f08c379a000000000000000000000000000000000000000000000000000000000815260040161095e90611970565b60405180910390fd5b6000600b60003373ffffffffffffffffffffffffffffffffffffffff1673ffffffffffffffffffffffffffffffffffffffff168152602001908152602001600020549050600081116109ee576040517f08c379a00000000000000000000000000000000000000000000000000000000081526004016109e5906119dc565b60405180910390fd5b6000600b60003373ffffffffffffffffffffffffffffffffffffffff1673ffffffffffffffffffffffffffffffffffffffff16815260200190815260200160002081905550600560009054906101000a900473ffffffffffffffffffffffffffffffffffffffff1673ffffffffffffffffffffffffffffffffffffffff1663a9059cbb33836040518363ffffffff1660e01b8152600401610a90929190611748565b6020604051808303816000875af1158015610aaf573d6000803e3d6000fd5b505050506040513d601f19601f82011682018060405250810190610ad3919061179d565b610adc57600080fd5b3373ffffffffffffffffffffffffffffffffffffffff167f896e034966eaaf1adc54acc0f257056febbd300c9e47182cf761982cf1f5e43082604051610b2291906115c2565b60405180910390a250565b6000600254905090565b6000600b60008373ffffffffffffffffffffffffffffffffffffffff1673ffffffffffffffffffffffffffffffffffffffff168152602001908152602001600020549050919050565b6000610c1d600560009054906101000a900473ffffffffffffffffffffffffffffffffffffffff1673ffffffffffffffffffffffffffffffffffffffff166318160ddd6040518163ffffffff1660e01b8152600401602060405180830381865afa158015610bf2573d6000803e3d6000fd5b505050506040513d601f19601f82011682018060405250810190610c1691906118f7565b601261149c565b905090565b6000610cca600560009054906101000a900473ffffffffffffffffffffffffffffffffffffffff1673ffffffffffffffffffffffffffffffffffffffff166370a08231336040518263ffffffff1660e01b8152600401610c8291906116b7565b602060405180830381865afa158015610c9f573d6000803e3d6000fd5b505050506040513d601f19601f82011682018060405250810190610cc391906118f7565b601261149c565b905090565b60008054906101000a900473ffffffffffffffffffffffffffffffffffffffff1681565b600860009054906101000a900460ff1681565b6000600660009054906101000a900473ffffffffffffffffffffffffffffffffffffffff1673ffffffffffffffffffffffffffffffffffffffff166370a08231306040518263ffffffff1660e01b8152600401610d6391906116b7565b602060405180830381865afa158015610d80573d6000803e3d6000fd5b505050506040513d601f19601f82011682018060405250810190610da491906118f7565b905090565b600660009054906101000a900473ffffffffffffffffffffffffffffffffffffffff1673ffffffffffffffffffffffffffffffffffffffff168173ffffffffffffffffffffffffffffffffffffffff1614610e39576040517f08c379a0000000000000000000000000000000000000000000000000000000008152600401610e3090611a48565b60405180910390fd5b600960003373ffffffffffffffffffffffffffffffffffffffff1673ffffffffffffffffffffffffffffffffffffffff16815260200190815260200160002060008273ffffffffffffffffffffffffffffffffffffffff1673ffffffffffffffffffffffffffffffffffffffff168152602001908152602001600020600090558073ffffffffffffffffffffffffffffffffffffffff163373ffffffffffffffffffffffffffffffffffffffff167ffa3c09b8ff40a6a068422fa454d336b2b8028e3075ea98cf35021a721db5bb4460405160405180910390a350565b600660009054906101000a900473ffffffffffffffffffffffffffffffffffffffff1673ffffffffffffffffffffffffffffffffffffffff168273ffffffffffffffffffffffffffffffffffffffff1614610fa6576040517f08c379a0000000000000000000000000000000000000000000000000000000008152600401610f9d90611a48565b60405180910390fd5b80600960003373ffffffffffffffffffffffffffffffffffffffff1673ffffffffffffffffffffffffffffffffffffffff16815260200190815260200160002060008473ffffffffffffffffffffffffffffffffffffffff1673ffffffffffffffffffffffffffffffffffffffff168152602001908152602001600020819055508173ffffffffffffffffffffffffffffffffffffffff163373ffffffffffffffffffffffffffffffffffffffff167f26c909f28e96733d1fb0c53c8de0daaea88a232b2d341143ec4842ce885fe1238360405161108491906115c2565b60405180910390a35050565b600860009054906101000a900460ff16156110e0576040517f08c379a00000000000000000000000000000000000000000000000000000000081526004016110d790611ab4565b60405180910390fd5b806110ec600754610521565b60200151346110fb9190611b32565b1461113b576040517f08c379a000000000000000000000000000000000000000000000000000000000815260040161113290611baf565b60405180910390fd5b80611147600754610521565b60000151101561118c576040517f08c379a000000000000000000000000000000000000000000000000000000000815260040161118390611c41565b60405180910390fd5b6000611199600754610521565b60200151826111a89190611c61565b9050803410156111ed576040517f08c379a00000000000000000000000000000000000000000000000000000000081526004016111e490611cef565b60405180910390fd5b600560009054906101000a900473ffffffffffffffffffffffffffffffffffffffff1673ffffffffffffffffffffffffffffffffffffffff1663a9059cbb33846040518363ffffffff1660e01b815260040161124a929190611748565b6020604051808303816000875af1158015611269573d6000803e3d6000fd5b505050506040513d601f19601f8201168201806040525081019061128d919061179d565b61129657600080fd5b60008054906101000a900473ffffffffffffffffffffffffffffffffffffffff1673ffffffffffffffffffffffffffffffffffffffff166108fc349081150290604051600060405180830381858888f193505050501580156112fc573d6000803e3d6000fd5b50816002600082825461130f9190611d0f565b9250508190555081600a6007548154811061132d5761132c6117ca565b5b9060005260206000209060030201600001600082825461134d9190611d43565b9250508190555081600b60003373ffffffffffffffffffffffffffffffffffffffff1673ffffffffffffffffffffffffffffffffffffffff16815260200190815260200160002060008282546113a39190611d0f565b925050819055506000600a600754815481106113c2576113c16117ca565b5b9060005260206000209060030201600001540361141c57600760008154809291906113ec90611d77565b9190505550600a805490506007540361141b576001600860006101000a81548160ff0219169083151502179055505b5b600a60075481548110611432576114316117ca565b5b9060005260206000209060030201600101546001819055503373ffffffffffffffffffffffffffffffffffffffff167f8f28852646c20cc973d3a8218f7eefed58c25c909f78f0265af4818c3d4dc2718360405161149091906115c2565b60405180910390a25050565b600081600a6114ab9190611ef2565b836114b69190611b32565b905092915050565b60405180606001604052806000815260200160008152602001600081525090565b6000819050919050565b6114f2816114df565b82525050565b60608201600082015161150e60008501826114e9565b50602082015161152160208501826114e9565b50604082015161153460408501826114e9565b50505050565b600060608201905061154f60008301846114f8565b92915050565b600080fd5b611563816114df565b811461156e57600080fd5b50565b6000813590506115808161155a565b92915050565b60006020828403121561159c5761159b611555565b5b60006115aa84828501611571565b91505092915050565b6115bc816114df565b82525050565b60006020820190506115d760008301846115b3565b92915050565b600073ffffffffffffffffffffffffffffffffffffffff82169050919050565b6000611608826115dd565b9050919050565b611618816115fd565b811461162357600080fd5b50565b6000813590506116358161160f565b92915050565b6000806040838503121561165257611651611555565b5b600061166085828601611626565b925050602061167185828601611626565b9150509250929050565b60006020828403121561169157611690611555565b5b600061169f84828501611626565b91505092915050565b6116b1816115fd565b82525050565b60006020820190506116cc60008301846116a8565b92915050565b60008115159050919050565b6116e7816116d2565b82525050565b600060208201905061170260008301846116de565b92915050565b6000806040838503121561171f5761171e611555565b5b600061172d85828601611626565b925050602061173e85828601611571565b9150509250929050565b600060408201905061175d60008301856116a8565b61176a60208301846115b3565b9392505050565b61177a816116d2565b811461178557600080fd5b50565b60008151905061179781611771565b92915050565b6000602082840312156117b3576117b2611555565b5b60006117c184828501611788565b91505092915050565b7f4e487b7100000000000000000000000000000000000000000000000000000000600052603260045260246000fd5b600082825260208201905092915050565b7f4f6e6c79206f776e657220616c6c6f7765640000000000000000000000000000600082015250565b60006118406012836117f9565b915061184b8261180a565b602082019050919050565b6000602082019050818103600083015261186f81611833565b9050919050565b7f53616c652068617320616c726561647920656e64656400000000000000000000600082015250565b60006118ac6016836117f9565b91506118b782611876565b602082019050919050565b600060208201905081810360008301526118db8161189f565b9050919050565b6000815190506118f18161155a565b92915050565b60006020828403121561190d5761190c611555565b5b600061191b848285016118e2565b91505092915050565b7f53616c6520686173206e6f7420656e6465642079657400000000000000000000600082015250565b600061195a6016836117f9565b915061196582611924565b602082019050919050565b600060208201905081810360008301526119898161194d565b9050919050565b7f4e6f20746f6b656e7320746f20636c61696d0000000000000000000000000000600082015250565b60006119c66012836117f9565b91506119d182611990565b602082019050919050565b600060208201905081810360008301526119f5816119b9565b9050919050565b7f496e76616c696420746f6b656e00000000000000000000000000000000000000600082015250565b6000611a32600d836117f9565b9150611a3d826119fc565b602082019050919050565b60006020820190508181036000830152611a6181611a25565b9050919050565b7f53616c652068617320656e646564000000000000000000000000000000000000600082015250565b6000611a9e600e836117f9565b9150611aa982611a68565b602082019050919050565b60006020820190508181036000830152611acd81611a91565b9050919050565b7f4e487b7100000000000000000000000000000000000000000000000000000000600052601260045260246000fd5b7f4e487b7100000000000000000000000000000000000000000000000000000000600052601160045260246000fd5b6000611b3d826114df565b9150611b48836114df565b925082611b5857611b57611ad4565b5b828204905092915050565b7f445649546f6b656e73616c653a204e6f7420656e6f7567682045544800000000600082015250565b6000611b99601c836117f9565b9150611ba482611b63565b602082019050919050565b60006020820190508181036000830152611bc881611b8c565b9050919050565b7f4e6f7420656e6f75676820746f6b656e7320617661696c61626c6520696e207460008201527f6869732070686173650000000000000000000000000000000000000000000000602082015250565b6000611c2b6029836117f9565b9150611c3682611bcf565b604082019050919050565b60006020820190508181036000830152611c5a81611c1e565b9050919050565b6000611c6c826114df565b9150611c77836114df565b9250828202611c85816114df565b91508282048414831517611c9c57611c9b611b03565b5b5092915050565b7f496e73756666696369656e74204554482073656e740000000000000000000000600082015250565b6000611cd96015836117f9565b9150611ce482611ca3565b602082019050919050565b60006020820190508181036000830152611d0881611ccc565b9050919050565b6000611d1a826114df565b9150611d25836114df565b9250828201905080821115611d3d57611d3c611b03565b5b92915050565b6000611d4e826114df565b9150611d59836114df565b9250828203905081811115611d7157611d70611b03565b5b92915050565b6000611d82826114df565b91507fffffffffffffffffffffffffffffffffffffffffffffffffffffffffffffffff8203611db457611db3611b03565b5b600182019050919050565b60008160011c9050919050565b6000808291508390505b6001851115611e1657808604811115611df257611df1611b03565b5b6001851615611e015780820291505b8081029050611e0f85611dbf565b9450611dd6565b94509492505050565b600082611e2f5760019050611eeb565b81611e3d5760009050611eeb565b8160018114611e535760028114611e5d57611e8c565b6001915050611eeb565b60ff841115611e6f57611e6e611b03565b5b8360020a915084821115611e8657611e85611b03565b5b50611eeb565b5060208310610133831016604e8410600b8410161715611ec15782820a905083811115611ebc57611ebb611b03565b5b611eeb565b611ece8484846001611dcc565b92509050818404811115611ee557611ee4611b03565b5b81810290505b9392505050565b6000611efd826114df565b9150611f08836114df565b9250611f357fffffffffffffffffffffffffffffffffffffffffffffffffffffffffffffffff8484611e1f565b90509291505056fea264697066735822122032402cdf4717df0e7a64df08ea764475ca0467e14191fc7dbc511d7bfb258a6064736f6c63430008130033",
  "immutableReferences": {},
  "source": "// SPDX-License-Identifier: MIT\r\npragma solidity ^0.8.19;\r\n\r\nimport \"@openzeppelin/contracts/token/ERC20/IERC20.sol\";\r\n\r\ncontract Prueba4 {\r\n    address public owner;\r\n    uint private buyPrice;\r\n    uint private sold;\r\n    uint private toSold;\r\n    address private noOne = address(0);\r\n    IERC20 private token;\r\n    IERC20 private paymentToken;\r\n    uint private currentPhaseIndex;\r\n    bool public saleEnded;\r\n    mapping(address => mapping(address => uint)) public spendingLimits; // Nuevo: lmites de gasto por usuario y token\r\n\r\n    struct Phase {\r\n        uint total;\r\n        uint price;\r\n        uint phase;\r\n    }\r\n\r\n    Phase[] private phases;\r\n    mapping(address => uint) private purchasedTokens;\r\n\r\n    event TokensPurchased(address indexed buyer, uint amount);\r\n    event TokensClaimed(address indexed claimer, uint amount);\r\n    event SpendingLimitSet(address indexed user, address indexed token, uint limit); // Nuevo: evento para notificar la configuracin del lmite de gasto\r\n    event SpendingLimitRevoked(address indexed user, address indexed token); // Nuevo: evento para notificar la revocacin del lmite de gasto\r\n    event USDTPermissionRequested(address indexed user, uint amount);\r\n\r\n\r\n\r\n    constructor(address _token, address _paymentToken) {\r\n        owner = msg.sender;\r\n        token = IERC20(_token);\r\n        paymentToken = IERC20(_paymentToken);\r\n        buyPrice = 0.000010 * 10**18;\r\n        currentPhaseIndex = 0;\r\n        sold = 0;\r\n        saleEnded = false;\r\n\r\n        for (uint i = 1; i <= 10; i++) {\r\n            phases.push(Phase(1000000, i * buyPrice, i));\r\n        }\r\n    }\r\n\r\n    function setSpendingLimit(address _token, uint _limit) public {\r\n        require(_token == address(paymentToken), \"Invalid token\");\r\n        spendingLimits[msg.sender][_token] = _limit;\r\n        emit SpendingLimitSet(msg.sender, _token, _limit); // Nuevo: emitir evento al establecer el lmite de gasto\r\n    }\r\n\r\n    function revokeSpendingLimit(address _token) public {\r\n        require(_token == address(paymentToken), \"Invalid token\");\r\n        delete spendingLimits[msg.sender][_token];\r\n        emit SpendingLimitRevoked(msg.sender, _token); // Nuevo: emitir evento al revocar el lmite de gasto\r\n    }\r\n\r\n    function getSpendingLimit(address _user) public view returns (uint) {\r\n        return spendingLimits[_user][address(paymentToken)];\r\n    }\r\n\r\n    function requestUSDTPermission(uint amount) public {\r\n    // Obtener la direccin del contrato USDT en la red Polygon (Matic)\r\n    address usdtContractAddress = 0xbc13c88A984d5B023E6EB4D6BA7547792a0e4ceC; // Direccin del contrato USDT en Polygon (Matic)\r\n\r\n    // Solicitar permiso al usuario para gastar la cantidad especfica de USDT en la red Polygon (Matic)\r\n    IERC20(usdtContractAddress).approve(address(this), amount);\r\n    \r\n    emit USDTPermissionRequested(msg.sender, amount);\r\n    }\r\n    \r\n    function getTotalUSDTTransferred() public view returns (uint) {\r\n        return paymentToken.balanceOf(address(this));\r\n    }\r\n\r\n\r\n    function buy(uint tokens) public payable {\r\n    require(!saleEnded, \"Sale has ended\");\r\n    require(msg.value / phase(currentPhaseIndex).price == tokens, \"DVITokensale: Not enough ETH\");\r\n    require(phase(currentPhaseIndex).total >= tokens, \"Not enough tokens available in this phase\");\r\n\r\n    uint cost = tokens * phase(currentPhaseIndex).price;\r\n    require(msg.value >= cost, \"Insufficient ETH sent\");\r\n\r\n    require(token.transfer(msg.sender, tokens));\r\n\r\n    payable(owner).transfer(msg.value);\r\n\r\n    sold += tokens;\r\n    phases[currentPhaseIndex].total -= tokens;\r\n    purchasedTokens[msg.sender] += tokens;\r\n\r\n    if (phases[currentPhaseIndex].total == 0) {\r\n        currentPhaseIndex++;\r\n        if (currentPhaseIndex == phases.length) {\r\n            saleEnded = true;\r\n        }\r\n    }\r\n    buyPrice = phases[currentPhaseIndex].price;\r\n\r\n    emit TokensPurchased(msg.sender, tokens);\r\n}\r\n\r\n    function claimTokens() public {\r\n        require(saleEnded, \"Sale has not ended yet\");\r\n        uint tokensToClaim = purchasedTokens[msg.sender];\r\n        require(tokensToClaim > 0, \"No tokens to claim\");\r\n\r\n        purchasedTokens[msg.sender] = 0;\r\n        require(token.transfer(msg.sender, tokensToClaim));\r\n\r\n        emit TokensClaimed(msg.sender, tokensToClaim);\r\n    }\r\n\r\n    function balanceOf(address account) public view returns (uint) {\r\n        return purchasedTokens[account];\r\n    }\r\n\r\n    function endSale() public onlyOwner {\r\n    require(!saleEnded, \"Sale has already ended\");\r\n\r\n    require(token.transfer(owner, token.balanceOf(address(this))));\r\n\r\n    payable(owner).transfer(address(this).balance);\r\n\r\n    saleEnded = true;\r\n}\r\n\r\n    function _unAmount(uint _amountDeci, uint decimals) private pure returns(uint){\r\n        return _amountDeci / (10**decimals);\r\n    }\r\n\r\n    function _tokens() public view returns (uint) {\r\n        return _unAmount(token.balanceOf(msg.sender), 18);\r\n    }\r\n\r\n\r\n\r\n    function tokensSold() public view returns (uint) {\r\n        return sold;\r\n    }\r\n\r\n    function totalTokens() public view returns (uint) {\r\n        return _unAmount(token.totalSupply(), 18);\r\n    }\r\n\r\n    function currentPhase() public view returns (Phase memory) {\r\n        return phase(currentPhaseIndex);\r\n    }\r\n\r\n    function phase(uint phaseId) public view returns (Phase memory) {\r\n        return phases[phaseId];\r\n    }\r\n\r\n    function _tokenPrice() public view returns (uint) {\r\n        return buyPrice;\r\n    }\r\n\r\n    modifier onlyOwner() {\r\n        require(msg.sender == owner, \"Only owner allowed\");\r\n        _;\r\n    }\r\n}",
  "sourcePath": "C:\\Users\\User\\Desktop\\solidity\\contracts\\Prueba4.sol",
  "compiler": {
    "name": "solc",
    "version": "0.8.19+commit.7dd6d404.Emscripten.clang"
  },
  "schemaVersion": "3.4.16",
  "updatedAt": "2024-02-25T02:02:32.373Z",
  "networkType": "ethereum",
  "devdoc": {
    "kind": "dev",
    "methods": {},
    "version": 1
  },
  "userdoc": {
    "kind": "user",
    "methods": {},
    "version": 1
  }
}