{
  "contractName": "Prueba5",
  "abi": [
    {
      "inputs": [
        {
          "internalType": "address",
          "name": "_token",
          "type": "address"
        },
        {
          "internalType": "address",
          "name": "_paymentToken",
          "type": "address"
        }
      ],
      "stateMutability": "nonpayable",
      "type": "constructor"
    },
    {
      "anonymous": false,
      "inputs": [
        {
          "indexed": true,
          "internalType": "address",
          "name": "user",
          "type": "address"
        },
        {
          "indexed": true,
          "internalType": "address",
          "name": "token",
          "type": "address"
        }
      ],
      "name": "SpendingLimitRevoked",
      "type": "event"
    },
    {
      "anonymous": false,
      "inputs": [
        {
          "indexed": true,
          "internalType": "address",
          "name": "user",
          "type": "address"
        },
        {
          "indexed": true,
          "internalType": "address",
          "name": "token",
          "type": "address"
        },
        {
          "indexed": false,
          "internalType": "uint256",
          "name": "limit",
          "type": "uint256"
        }
      ],
      "name": "SpendingLimitSet",
      "type": "event"
    },
    {
      "anonymous": false,
      "inputs": [
        {
          "indexed": true,
          "internalType": "address",
          "name": "claimer",
          "type": "address"
        },
        {
          "indexed": false,
          "internalType": "uint256",
          "name": "amount",
          "type": "uint256"
        }
      ],
      "name": "TokensClaimed",
      "type": "event"
    },
    {
      "anonymous": false,
      "inputs": [
        {
          "indexed": true,
          "internalType": "address",
          "name": "buyer",
          "type": "address"
        },
        {
          "indexed": false,
          "internalType": "uint256",
          "name": "amount",
          "type": "uint256"
        }
      ],
      "name": "TokensPurchased",
      "type": "event"
    },
    {
      "anonymous": false,
      "inputs": [
        {
          "indexed": true,
          "internalType": "address",
          "name": "user",
          "type": "address"
        },
        {
          "indexed": false,
          "internalType": "uint256",
          "name": "amount",
          "type": "uint256"
        }
      ],
      "name": "USDTPermissionRequested",
      "type": "event"
    },
    {
      "anonymous": false,
      "inputs": [
        {
          "indexed": true,
          "internalType": "address",
          "name": "user",
          "type": "address"
        },
        {
          "indexed": false,
          "internalType": "uint256",
          "name": "amount",
          "type": "uint256"
        }
      ],
      "name": "USDTTransferred",
      "type": "event"
    },
    {
      "inputs": [],
      "name": "owner",
      "outputs": [
        {
          "internalType": "address",
          "name": "",
          "type": "address"
        }
      ],
      "stateMutability": "view",
      "type": "function",
      "constant": true
    },
    {
      "inputs": [],
      "name": "saleEnded",
      "outputs": [
        {
          "internalType": "bool",
          "name": "",
          "type": "bool"
        }
      ],
      "stateMutability": "view",
      "type": "function",
      "constant": true
    },
    {
      "inputs": [
        {
          "internalType": "address",
          "name": "",
          "type": "address"
        },
        {
          "internalType": "address",
          "name": "",
          "type": "address"
        }
      ],
      "name": "spendingLimits",
      "outputs": [
        {
          "internalType": "uint256",
          "name": "",
          "type": "uint256"
        }
      ],
      "stateMutability": "view",
      "type": "function",
      "constant": true
    },
    {
      "inputs": [
        {
          "internalType": "address",
          "name": "_token",
          "type": "address"
        },
        {
          "internalType": "uint256",
          "name": "_limit",
          "type": "uint256"
        }
      ],
      "name": "setSpendingLimit",
      "outputs": [],
      "stateMutability": "nonpayable",
      "type": "function"
    },
    {
      "inputs": [
        {
          "internalType": "address",
          "name": "_token",
          "type": "address"
        }
      ],
      "name": "revokeSpendingLimit",
      "outputs": [],
      "stateMutability": "nonpayable",
      "type": "function"
    },
    {
      "inputs": [
        {
          "internalType": "address",
          "name": "_user",
          "type": "address"
        }
      ],
      "name": "getSpendingLimit",
      "outputs": [
        {
          "internalType": "uint256",
          "name": "",
          "type": "uint256"
        }
      ],
      "stateMutability": "view",
      "type": "function",
      "constant": true
    },
    {
      "inputs": [
        {
          "internalType": "uint256",
          "name": "amount",
          "type": "uint256"
        }
      ],
      "name": "transferUSDT",
      "outputs": [],
      "stateMutability": "nonpayable",
      "type": "function"
    },
    {
      "inputs": [
        {
          "internalType": "address",
          "name": "user",
          "type": "address"
        }
      ],
      "name": "getUserUSDTBalance",
      "outputs": [
        {
          "internalType": "uint256",
          "name": "",
          "type": "uint256"
        }
      ],
      "stateMutability": "view",
      "type": "function",
      "constant": true
    },
    {
      "inputs": [
        {
          "internalType": "uint256",
          "name": "tokens",
          "type": "uint256"
        }
      ],
      "name": "buy",
      "outputs": [],
      "stateMutability": "payable",
      "type": "function",
      "payable": true
    },
    {
      "inputs": [],
      "name": "claimTokens",
      "outputs": [],
      "stateMutability": "nonpayable",
      "type": "function"
    },
    {
      "inputs": [
        {
          "internalType": "address",
          "name": "account",
          "type": "address"
        }
      ],
      "name": "balanceOf",
      "outputs": [
        {
          "internalType": "uint256",
          "name": "",
          "type": "uint256"
        }
      ],
      "stateMutability": "view",
      "type": "function",
      "constant": true
    },
    {
      "inputs": [],
      "name": "endSale",
      "outputs": [],
      "stateMutability": "nonpayable",
      "type": "function"
    },
    {
      "inputs": [],
      "name": "_tokens",
      "outputs": [
        {
          "internalType": "uint256",
          "name": "",
          "type": "uint256"
        }
      ],
      "stateMutability": "view",
      "type": "function",
      "constant": true
    },
    {
      "inputs": [],
      "name": "tokensSold",
      "outputs": [
        {
          "internalType": "uint256",
          "name": "",
          "type": "uint256"
        }
      ],
      "stateMutability": "view",
      "type": "function",
      "constant": true
    },
    {
      "inputs": [],
      "name": "totalTokens",
      "outputs": [
        {
          "internalType": "uint256",
          "name": "",
          "type": "uint256"
        }
      ],
      "stateMutability": "view",
      "type": "function",
      "constant": true
    },
    {
      "inputs": [],
      "name": "currentPhase",
      "outputs": [
        {
          "components": [
            {
              "internalType": "uint256",
              "name": "total",
              "type": "uint256"
            },
            {
              "internalType": "uint256",
              "name": "price",
              "type": "uint256"
            },
            {
              "internalType": "uint256",
              "name": "phase",
              "type": "uint256"
            }
          ],
          "internalType": "struct Prueba5.Phase",
          "name": "",
          "type": "tuple"
        }
      ],
      "stateMutability": "view",
      "type": "function",
      "constant": true
    },
    {
      "inputs": [
        {
          "internalType": "uint256",
          "name": "phaseId",
          "type": "uint256"
        }
      ],
      "name": "phase",
      "outputs": [
        {
          "components": [
            {
              "internalType": "uint256",
              "name": "total",
              "type": "uint256"
            },
            {
              "internalType": "uint256",
              "name": "price",
              "type": "uint256"
            },
            {
              "internalType": "uint256",
              "name": "phase",
              "type": "uint256"
            }
          ],
          "internalType": "struct Prueba5.Phase",
          "name": "",
          "type": "tuple"
        }
      ],
      "stateMutability": "view",
      "type": "function",
      "constant": true
    },
    {
      "inputs": [],
      "name": "_tokenPrice",
      "outputs": [
        {
          "internalType": "uint256",
          "name": "",
          "type": "uint256"
        }
      ],
      "stateMutability": "view",
      "type": "function",
      "constant": true
    }
  ],
  "bytecode": "0x60806040526000600460006101000a81548173ffffffffffffffffffffffffffffffffffffffff021916908373ffffffffffffffffffffffffffffffffffffffff1602179055503480156200005357600080fd5b506040516200233538038062002335833981810160405281019062000079919062000284565b336000806101000a81548173ffffffffffffffffffffffffffffffffffffffff021916908373ffffffffffffffffffffffffffffffffffffffff16021790555081600560006101000a81548173ffffffffffffffffffffffffffffffffffffffff021916908373ffffffffffffffffffffffffffffffffffffffff16021790555080600660006101000a81548173ffffffffffffffffffffffffffffffffffffffff021916908373ffffffffffffffffffffffffffffffffffffffff1602179055506509184e72a000600181905550600060078190555060006002819055506000600860006101000a81548160ff0219169083151502179055506000600190505b600a81116200021157600b6040518060600160405280620f4240815260200160015484620001a9919062000304565b81526020018381525090806001815401808255809150506001900390600052602060002090600302016000909190919091506000820151816000015560208201518160010155604082015181600201555050808062000208906200034f565b9150506200017a565b5050506200039c565b600080fd5b600073ffffffffffffffffffffffffffffffffffffffff82169050919050565b60006200024c826200021f565b9050919050565b6200025e816200023f565b81146200026a57600080fd5b50565b6000815190506200027e8162000253565b92915050565b600080604083850312156200029e576200029d6200021a565b5b6000620002ae858286016200026d565b9250506020620002c1858286016200026d565b9150509250929050565b6000819050919050565b7f4e487b7100000000000000000000000000000000000000000000000000000000600052601160045260246000fd5b60006200031182620002cb565b91506200031e83620002cb565b92508282026200032e81620002cb565b91508282048414831517620003485762000347620002d5565b5b5092915050565b60006200035c82620002cb565b91507fffffffffffffffffffffffffffffffffffffffffffffffffffffffffffffffff8203620003915762000390620002d5565b5b600182019050919050565b611f8980620003ac6000396000f3fe6080604052600436106101095760003560e01c80637e1c0c09116100955780639b8906ae116100645780639b8906ae1461035b578063a330530a14610386578063b44d6eb8146103c3578063c9a815bd146103ec578063d96a094a1461041557610109565b80637e1c0c09146102b1578063849b4864146102dc5780638970d84c146103055780638da5cb5b1461033057610109565b806340cc860b116100dc57806340cc860b146101b857806347a10748146101f557806348c54b9d14610232578063518ab2a81461024957806370a082311461027457610109565b8063055ad42e1461010e578063135f8aa714610139578063380d831b146101765780633b971f9f1461018d575b600080fd5b34801561011a57600080fd5b50610123610431565b6040516101309190611550565b60405180910390f35b34801561014557600080fd5b50610160600480360381019061015b919061159c565b610449565b60405161016d9190611550565b60405180910390f35b34801561018257600080fd5b5061018b6104a3565b005b34801561019957600080fd5b506101a2610769565b6040516101af91906115d8565b60405180910390f35b3480156101c457600080fd5b506101df60048036038101906101da9190611651565b610773565b6040516101ec91906115d8565b60405180910390f35b34801561020157600080fd5b5061021c60048036038101906102179190611691565b610798565b60405161022991906115d8565b60405180910390f35b34801561023e57600080fd5b50610247610840565b005b34801561025557600080fd5b5061025e610a55565b60405161026b91906115d8565b60405180910390f35b34801561028057600080fd5b5061029b60048036038101906102969190611691565b610a5f565b6040516102a891906115d8565b60405180910390f35b3480156102bd57600080fd5b506102c6610aa8565b6040516102d391906115d8565b60405180910390f35b3480156102e857600080fd5b5061030360048036038101906102fe919061159c565b610b4a565b005b34801561031157600080fd5b5061031a610c92565b60405161032791906115d8565b60405180910390f35b34801561033c57600080fd5b50610345610d3f565b60405161035291906116cd565b60405180910390f35b34801561036757600080fd5b50610370610d63565b60405161037d9190611703565b60405180910390f35b34801561039257600080fd5b506103ad60048036038101906103a89190611691565b610d76565b6040516103ba91906115d8565b60405180910390f35b3480156103cf57600080fd5b506103ea60048036038101906103e59190611691565b610dbf565b005b3480156103f857600080fd5b50610413600480360381019061040e919061171e565b610f2c565b005b61042f600480360381019061042a919061159c565b6110a6565b005b6104396114d4565b610444600754610449565b905090565b6104516114d4565b600b82815481106104655761046461175e565b5b906000526020600020906003020160405180606001604052908160008201548152602001600182015481526020016002820154815250509050919050565b60008054906101000a900473ffffffffffffffffffffffffffffffffffffffff1673ffffffffffffffffffffffffffffffffffffffff163373ffffffffffffffffffffffffffffffffffffffff1614610531576040517f08c379a0000000000000000000000000000000000000000000000000000000008152600401610528906117ea565b60405180910390fd5b600860009054906101000a900460ff1615610581576040517f08c379a000000000000000000000000000000000000000000000000000000000815260040161057890611856565b60405180910390fd5b600560009054906101000a900473ffffffffffffffffffffffffffffffffffffffff1673ffffffffffffffffffffffffffffffffffffffff1663a9059cbb60008054906101000a900473ffffffffffffffffffffffffffffffffffffffff16600560009054906101000a900473ffffffffffffffffffffffffffffffffffffffff1673ffffffffffffffffffffffffffffffffffffffff166370a08231306040518263ffffffff1660e01b815260040161063b91906116cd565b602060405180830381865afa158015610658573d6000803e3d6000fd5b505050506040513d601f19601f8201168201806040525081019061067c919061188b565b6040518363ffffffff1660e01b81526004016106999291906118b8565b6020604051808303816000875af11580156106b8573d6000803e3d6000fd5b505050506040513d601f19601f820116820180604052508101906106dc919061190d565b6106e557600080fd5b60008054906101000a900473ffffffffffffffffffffffffffffffffffffffff1673ffffffffffffffffffffffffffffffffffffffff166108fc479081150290604051600060405180830381858888f1935050505015801561074b573d6000803e3d6000fd5b506001600860006101000a81548160ff021916908315150217905550565b6000600154905090565b6009602052816000526040600020602052806000526040600020600091509150505481565b6000600960008373ffffffffffffffffffffffffffffffffffffffff1673ffffffffffffffffffffffffffffffffffffffff1681526020019081526020016000206000600660009054906101000a900473ffffffffffffffffffffffffffffffffffffffff1673ffffffffffffffffffffffffffffffffffffffff1673ffffffffffffffffffffffffffffffffffffffff168152602001908152602001600020549050919050565b600860009054906101000a900460ff1661088f576040517f08c379a000000000000000000000000000000000000000000000000000000000815260040161088690611986565b60405180910390fd5b6000600c60003373ffffffffffffffffffffffffffffffffffffffff1673ffffffffffffffffffffffffffffffffffffffff16815260200190815260200160002054905060008111610916576040517f08c379a000000000000000000000000000000000000000000000000000000000815260040161090d906119f2565b60405180910390fd5b6000600c60003373ffffffffffffffffffffffffffffffffffffffff1673ffffffffffffffffffffffffffffffffffffffff16815260200190815260200160002081905550600560009054906101000a900473ffffffffffffffffffffffffffffffffffffffff1673ffffffffffffffffffffffffffffffffffffffff1663a9059cbb33836040518363ffffffff1660e01b81526004016109b89291906118b8565b6020604051808303816000875af11580156109d7573d6000803e3d6000fd5b505050506040513d601f19601f820116820180604052508101906109fb919061190d565b610a0457600080fd5b3373ffffffffffffffffffffffffffffffffffffffff167f896e034966eaaf1adc54acc0f257056febbd300c9e47182cf761982cf1f5e43082604051610a4a91906115d8565b60405180910390a250565b6000600254905090565b6000600c60008373ffffffffffffffffffffffffffffffffffffffff1673ffffffffffffffffffffffffffffffffffffffff168152602001908152602001600020549050919050565b6000610b45600560009054906101000a900473ffffffffffffffffffffffffffffffffffffffff1673ffffffffffffffffffffffffffffffffffffffff166318160ddd6040518163ffffffff1660e01b8152600401602060405180830381865afa158015610b1a573d6000803e3d6000fd5b505050506040513d601f19601f82011682018060405250810190610b3e919061188b565b60126114b2565b905090565b600660009054906101000a900473ffffffffffffffffffffffffffffffffffffffff1673ffffffffffffffffffffffffffffffffffffffff1663095ea7b330836040518363ffffffff1660e01b8152600401610ba79291906118b8565b6020604051808303816000875af1158015610bc6573d6000803e3d6000fd5b505050506040513d601f19601f82011682018060405250810190610bea919061190d565b5080600a60003373ffffffffffffffffffffffffffffffffffffffff1673ffffffffffffffffffffffffffffffffffffffff1681526020019081526020016000206000828254610c3a9190611a41565b925050819055503373ffffffffffffffffffffffffffffffffffffffff167f0dd33312792db87e3ba02b9ff02788e68585d7b5ddf6e78d738cf60a9739d47e82604051610c8791906115d8565b60405180910390a250565b6000610d3a600560009054906101000a900473ffffffffffffffffffffffffffffffffffffffff1673ffffffffffffffffffffffffffffffffffffffff166370a08231336040518263ffffffff1660e01b8152600401610cf291906116cd565b602060405180830381865afa158015610d0f573d6000803e3d6000fd5b505050506040513d601f19601f82011682018060405250810190610d33919061188b565b60126114b2565b905090565b60008054906101000a900473ffffffffffffffffffffffffffffffffffffffff1681565b600860009054906101000a900460ff1681565b6000600a60008373ffffffffffffffffffffffffffffffffffffffff1673ffffffffffffffffffffffffffffffffffffffff168152602001908152602001600020549050919050565b600660009054906101000a900473ffffffffffffffffffffffffffffffffffffffff1673ffffffffffffffffffffffffffffffffffffffff168173ffffffffffffffffffffffffffffffffffffffff1614610e4f576040517f08c379a0000000000000000000000000000000000000000000000000000000008152600401610e4690611ac1565b60405180910390fd5b600960003373ffffffffffffffffffffffffffffffffffffffff1673ffffffffffffffffffffffffffffffffffffffff16815260200190815260200160002060008273ffffffffffffffffffffffffffffffffffffffff1673ffffffffffffffffffffffffffffffffffffffff168152602001908152602001600020600090558073ffffffffffffffffffffffffffffffffffffffff163373ffffffffffffffffffffffffffffffffffffffff167ffa3c09b8ff40a6a068422fa454d336b2b8028e3075ea98cf35021a721db5bb4460405160405180910390a350565b600660009054906101000a900473ffffffffffffffffffffffffffffffffffffffff1673ffffffffffffffffffffffffffffffffffffffff168273ffffffffffffffffffffffffffffffffffffffff1614610fbc576040517f08c379a0000000000000000000000000000000000000000000000000000000008152600401610fb390611ac1565b60405180910390fd5b80600960003373ffffffffffffffffffffffffffffffffffffffff1673ffffffffffffffffffffffffffffffffffffffff16815260200190815260200160002060008473ffffffffffffffffffffffffffffffffffffffff1673ffffffffffffffffffffffffffffffffffffffff168152602001908152602001600020819055508173ffffffffffffffffffffffffffffffffffffffff163373ffffffffffffffffffffffffffffffffffffffff167f26c909f28e96733d1fb0c53c8de0daaea88a232b2d341143ec4842ce885fe1238360405161109a91906115d8565b60405180910390a35050565b600860009054906101000a900460ff16156110f6576040517f08c379a00000000000000000000000000000000000000000000000000000000081526004016110ed90611b2d565b60405180910390fd5b80611102600754610449565b60200151346111119190611b7c565b14611151576040517f08c379a000000000000000000000000000000000000000000000000000000000815260040161114890611bf9565b60405180910390fd5b8061115d600754610449565b6000015110156111a2576040517f08c379a000000000000000000000000000000000000000000000000000000000815260040161119990611c8b565b60405180910390fd5b60006111af600754610449565b60200151826111be9190611cab565b905080341015611203576040517f08c379a00000000000000000000000000000000000000000000000000000000081526004016111fa90611d39565b60405180910390fd5b600560009054906101000a900473ffffffffffffffffffffffffffffffffffffffff1673ffffffffffffffffffffffffffffffffffffffff1663a9059cbb33846040518363ffffffff1660e01b81526004016112609291906118b8565b6020604051808303816000875af115801561127f573d6000803e3d6000fd5b505050506040513d601f19601f820116820180604052508101906112a3919061190d565b6112ac57600080fd5b60008054906101000a900473ffffffffffffffffffffffffffffffffffffffff1673ffffffffffffffffffffffffffffffffffffffff166108fc349081150290604051600060405180830381858888f19350505050158015611312573d6000803e3d6000fd5b5081600260008282546113259190611a41565b9250508190555081600b600754815481106113435761134261175e565b5b906000526020600020906003020160000160008282546113639190611d59565b9250508190555081600c60003373ffffffffffffffffffffffffffffffffffffffff1673ffffffffffffffffffffffffffffffffffffffff16815260200190815260200160002060008282546113b99190611a41565b925050819055506000600b600754815481106113d8576113d761175e565b5b90600052602060002090600302016000015403611432576007600081548092919061140290611d8d565b9190505550600b8054905060075403611431576001600860006101000a81548160ff0219169083151502179055505b5b600b600754815481106114485761144761175e565b5b9060005260206000209060030201600101546001819055503373ffffffffffffffffffffffffffffffffffffffff167f8f28852646c20cc973d3a8218f7eefed58c25c909f78f0265af4818c3d4dc271836040516114a691906115d8565b60405180910390a25050565b600081600a6114c19190611f08565b836114cc9190611b7c565b905092915050565b60405180606001604052806000815260200160008152602001600081525090565b6000819050919050565b611508816114f5565b82525050565b60608201600082015161152460008501826114ff565b50602082015161153760208501826114ff565b50604082015161154a60408501826114ff565b50505050565b6000606082019050611565600083018461150e565b92915050565b600080fd5b611579816114f5565b811461158457600080fd5b50565b60008135905061159681611570565b92915050565b6000602082840312156115b2576115b161156b565b5b60006115c084828501611587565b91505092915050565b6115d2816114f5565b82525050565b60006020820190506115ed60008301846115c9565b92915050565b600073ffffffffffffffffffffffffffffffffffffffff82169050919050565b600061161e826115f3565b9050919050565b61162e81611613565b811461163957600080fd5b50565b60008135905061164b81611625565b92915050565b600080604083850312156116685761166761156b565b5b60006116768582860161163c565b92505060206116878582860161163c565b9150509250929050565b6000602082840312156116a7576116a661156b565b5b60006116b58482850161163c565b91505092915050565b6116c781611613565b82525050565b60006020820190506116e260008301846116be565b92915050565b60008115159050919050565b6116fd816116e8565b82525050565b600060208201905061171860008301846116f4565b92915050565b600080604083850312156117355761173461156b565b5b60006117438582860161163c565b925050602061175485828601611587565b9150509250929050565b7f4e487b7100000000000000000000000000000000000000000000000000000000600052603260045260246000fd5b600082825260208201905092915050565b7f4f6e6c79206f776e657220616c6c6f7765640000000000000000000000000000600082015250565b60006117d460128361178d565b91506117df8261179e565b602082019050919050565b60006020820190508181036000830152611803816117c7565b9050919050565b7f53616c652068617320616c726561647920656e64656400000000000000000000600082015250565b600061184060168361178d565b915061184b8261180a565b602082019050919050565b6000602082019050818103600083015261186f81611833565b9050919050565b60008151905061188581611570565b92915050565b6000602082840312156118a1576118a061156b565b5b60006118af84828501611876565b91505092915050565b60006040820190506118cd60008301856116be565b6118da60208301846115c9565b9392505050565b6118ea816116e8565b81146118f557600080fd5b50565b600081519050611907816118e1565b92915050565b6000602082840312156119235761192261156b565b5b6000611931848285016118f8565b91505092915050565b7f53616c6520686173206e6f7420656e6465642079657400000000000000000000600082015250565b600061197060168361178d565b915061197b8261193a565b602082019050919050565b6000602082019050818103600083015261199f81611963565b9050919050565b7f4e6f20746f6b656e7320746f20636c61696d0000000000000000000000000000600082015250565b60006119dc60128361178d565b91506119e7826119a6565b602082019050919050565b60006020820190508181036000830152611a0b816119cf565b9050919050565b7f4e487b7100000000000000000000000000000000000000000000000000000000600052601160045260246000fd5b6000611a4c826114f5565b9150611a57836114f5565b9250828201905080821115611a6f57611a6e611a12565b5b92915050565b7f496e76616c696420746f6b656e00000000000000000000000000000000000000600082015250565b6000611aab600d8361178d565b9150611ab682611a75565b602082019050919050565b60006020820190508181036000830152611ada81611a9e565b9050919050565b7f53616c652068617320656e646564000000000000000000000000000000000000600082015250565b6000611b17600e8361178d565b9150611b2282611ae1565b602082019050919050565b60006020820190508181036000830152611b4681611b0a565b9050919050565b7f4e487b7100000000000000000000000000000000000000000000000000000000600052601260045260246000fd5b6000611b87826114f5565b9150611b92836114f5565b925082611ba257611ba1611b4d565b5b828204905092915050565b7f445649546f6b656e73616c653a204e6f7420656e6f7567682045544800000000600082015250565b6000611be3601c8361178d565b9150611bee82611bad565b602082019050919050565b60006020820190508181036000830152611c1281611bd6565b9050919050565b7f4e6f7420656e6f75676820746f6b656e7320617661696c61626c6520696e207460008201527f6869732070686173650000000000000000000000000000000000000000000000602082015250565b6000611c7560298361178d565b9150611c8082611c19565b604082019050919050565b60006020820190508181036000830152611ca481611c68565b9050919050565b6000611cb6826114f5565b9150611cc1836114f5565b9250828202611ccf816114f5565b91508282048414831517611ce657611ce5611a12565b5b5092915050565b7f496e73756666696369656e74204554482073656e740000000000000000000000600082015250565b6000611d2360158361178d565b9150611d2e82611ced565b602082019050919050565b60006020820190508181036000830152611d5281611d16565b9050919050565b6000611d64826114f5565b9150611d6f836114f5565b9250828203905081811115611d8757611d86611a12565b5b92915050565b6000611d98826114f5565b91507fffffffffffffffffffffffffffffffffffffffffffffffffffffffffffffffff8203611dca57611dc9611a12565b5b600182019050919050565b60008160011c9050919050565b6000808291508390505b6001851115611e2c57808604811115611e0857611e07611a12565b5b6001851615611e175780820291505b8081029050611e2585611dd5565b9450611dec565b94509492505050565b600082611e455760019050611f01565b81611e535760009050611f01565b8160018114611e695760028114611e7357611ea2565b6001915050611f01565b60ff841115611e8557611e84611a12565b5b8360020a915084821115611e9c57611e9b611a12565b5b50611f01565b5060208310610133831016604e8410600b8410161715611ed75782820a905083811115611ed257611ed1611a12565b5b611f01565b611ee48484846001611de2565b92509050818404811115611efb57611efa611a12565b5b81810290505b9392505050565b6000611f13826114f5565b9150611f1e836114f5565b9250611f4b7fffffffffffffffffffffffffffffffffffffffffffffffffffffffffffffffff8484611e35565b90509291505056fea2646970667358221220d10035e9bf4b3c657d944fb815bfc9a103fb15eb8e21a39fc41f5cdd14c9608664736f6c63430008130033",
  "immutableReferences": {},
  "source": "// SPDX-License-Identifier: MIT\r\npragma solidity ^0.8.19;\r\n\r\nimport \"@openzeppelin/contracts/token/ERC20/IERC20.sol\";\r\n\r\ncontract Prueba5 {\r\n    address public owner;\r\n    uint private buyPrice;\r\n    uint private sold;\r\n    uint private toSold;\r\n    address private noOne = address(0);\r\n    IERC20 private token;\r\n    IERC20 private paymentToken;\r\n    uint private currentPhaseIndex;\r\n    bool public saleEnded;\r\n    mapping(address => mapping(address => uint)) public spendingLimits; // Nuevo: lmites de gasto por usuario y token\r\n    mapping(address => uint) private userUSDTBalance;\r\n\r\n    struct Phase {\r\n        uint total;\r\n        uint price;\r\n        uint phase;\r\n    }\r\n\r\n    Phase[] private phases;\r\n    mapping(address => uint) private purchasedTokens;\r\n\r\n    event TokensPurchased(address indexed buyer, uint amount);\r\n    event TokensClaimed(address indexed claimer, uint amount);\r\n    event SpendingLimitSet(address indexed user, address indexed token, uint limit); // Nuevo: evento para notificar la configuracin del lmite de gasto\r\n    event SpendingLimitRevoked(address indexed user, address indexed token); // Nuevo: evento para notificar la revocacin del lmite de gasto\r\n    event USDTPermissionRequested(address indexed user, uint amount);\r\n    event USDTTransferred(address indexed user, uint amount);\r\n\r\n\r\n\r\n    constructor(address _token, address _paymentToken) {\r\n        owner = msg.sender;\r\n        token = IERC20(_token);\r\n        paymentToken = IERC20(_paymentToken);\r\n        buyPrice = 0.000010 * 10**18;\r\n        currentPhaseIndex = 0;\r\n        sold = 0;\r\n        saleEnded = false;\r\n\r\n        for (uint i = 1; i <= 10; i++) {\r\n            phases.push(Phase(1000000, i * buyPrice, i));\r\n        }\r\n    }\r\n\r\n    function setSpendingLimit(address _token, uint _limit) public {\r\n        require(_token == address(paymentToken), \"Invalid token\");\r\n        spendingLimits[msg.sender][_token] = _limit;\r\n        emit SpendingLimitSet(msg.sender, _token, _limit); // Nuevo: emitir evento al establecer el lmite de gasto\r\n    }\r\n\r\n    function revokeSpendingLimit(address _token) public {\r\n        require(_token == address(paymentToken), \"Invalid token\");\r\n        delete spendingLimits[msg.sender][_token];\r\n        emit SpendingLimitRevoked(msg.sender, _token); // Nuevo: emitir evento al revocar el lmite de gasto\r\n    }\r\n\r\n    function getSpendingLimit(address _user) public view returns (uint) {\r\n        return spendingLimits[_user][address(paymentToken)];\r\n    }\r\n\r\n    function transferUSDT(uint amount) public {\r\n        // Transferir USDT desde el usuario al contrato\r\n        IERC20(paymentToken).approve(address(this), amount);\r\n\r\n        // Actualizar el saldo de USDT del usuario\r\n        userUSDTBalance[msg.sender] += amount;\r\n\r\n        // Emitir evento de transferencia de USDT\r\n        emit USDTTransferred(msg.sender, amount);\r\n    }\r\n\r\n    function getUserUSDTBalance(address user) public view returns (uint) {\r\n        return userUSDTBalance[user];\r\n    }\r\n\r\n\r\n    function buy(uint tokens) public payable {\r\n    require(!saleEnded, \"Sale has ended\");\r\n    require(msg.value / phase(currentPhaseIndex).price == tokens, \"DVITokensale: Not enough ETH\");\r\n    require(phase(currentPhaseIndex).total >= tokens, \"Not enough tokens available in this phase\");\r\n\r\n    uint cost = tokens * phase(currentPhaseIndex).price;\r\n    require(msg.value >= cost, \"Insufficient ETH sent\");\r\n\r\n    require(token.transfer(msg.sender, tokens));\r\n\r\n    payable(owner).transfer(msg.value);\r\n\r\n    sold += tokens;\r\n    phases[currentPhaseIndex].total -= tokens;\r\n    purchasedTokens[msg.sender] += tokens;\r\n\r\n    if (phases[currentPhaseIndex].total == 0) {\r\n        currentPhaseIndex++;\r\n        if (currentPhaseIndex == phases.length) {\r\n            saleEnded = true;\r\n        }\r\n    }\r\n    buyPrice = phases[currentPhaseIndex].price;\r\n\r\n    emit TokensPurchased(msg.sender, tokens);\r\n}\r\n\r\n    function claimTokens() public {\r\n        require(saleEnded, \"Sale has not ended yet\");\r\n        uint tokensToClaim = purchasedTokens[msg.sender];\r\n        require(tokensToClaim > 0, \"No tokens to claim\");\r\n\r\n        purchasedTokens[msg.sender] = 0;\r\n        require(token.transfer(msg.sender, tokensToClaim));\r\n\r\n        emit TokensClaimed(msg.sender, tokensToClaim);\r\n    }\r\n\r\n    function balanceOf(address account) public view returns (uint) {\r\n        return purchasedTokens[account];\r\n    }\r\n\r\n    function endSale() public onlyOwner {\r\n    require(!saleEnded, \"Sale has already ended\");\r\n\r\n    require(token.transfer(owner, token.balanceOf(address(this))));\r\n\r\n    payable(owner).transfer(address(this).balance);\r\n\r\n    saleEnded = true;\r\n}\r\n\r\n    function _unAmount(uint _amountDeci, uint decimals) private pure returns(uint){\r\n        return _amountDeci / (10**decimals);\r\n    }\r\n\r\n    function _tokens() public view returns (uint) {\r\n        return _unAmount(token.balanceOf(msg.sender), 18);\r\n    }\r\n\r\n\r\n\r\n    function tokensSold() public view returns (uint) {\r\n        return sold;\r\n    }\r\n\r\n    function totalTokens() public view returns (uint) {\r\n        return _unAmount(token.totalSupply(), 18);\r\n    }\r\n\r\n    function currentPhase() public view returns (Phase memory) {\r\n        return phase(currentPhaseIndex);\r\n    }\r\n\r\n    function phase(uint phaseId) public view returns (Phase memory) {\r\n        return phases[phaseId];\r\n    }\r\n\r\n    function _tokenPrice() public view returns (uint) {\r\n        return buyPrice;\r\n    }\r\n\r\n    modifier onlyOwner() {\r\n        require(msg.sender == owner, \"Only owner allowed\");\r\n        _;\r\n    }\r\n}",
  "sourcePath": "C:\\Users\\User\\Desktop\\solidity\\contracts\\Prueba5.sol",
  "compiler": {
    "name": "solc",
    "version": "0.8.19+commit.7dd6d404.Emscripten.clang"
  },
  "schemaVersion": "3.4.16",
  "updatedAt": "2024-02-25T02:28:32.154Z",
  "networkType": "ethereum",
  "devdoc": {
    "kind": "dev",
    "methods": {},
    "version": 1
  },
  "userdoc": {
    "kind": "user",
    "methods": {},
    "version": 1
  }
}