{
  "contractName": "Prueba9",
  "abi": [
    {
      "inputs": [
        {
          "internalType": "address",
          "name": "_token",
          "type": "address"
        },
        {
          "internalType": "address",
          "name": "_paymentToken",
          "type": "address"
        }
      ],
      "stateMutability": "nonpayable",
      "type": "constructor"
    },
    {
      "anonymous": false,
      "inputs": [
        {
          "indexed": true,
          "internalType": "address",
          "name": "claimer",
          "type": "address"
        },
        {
          "indexed": false,
          "internalType": "uint256",
          "name": "amount",
          "type": "uint256"
        }
      ],
      "name": "TokensClaimed",
      "type": "event"
    },
    {
      "anonymous": false,
      "inputs": [
        {
          "indexed": true,
          "internalType": "address",
          "name": "buyer",
          "type": "address"
        },
        {
          "indexed": false,
          "internalType": "uint256",
          "name": "amount",
          "type": "uint256"
        }
      ],
      "name": "TokensPurchased",
      "type": "event"
    },
    {
      "inputs": [],
      "name": "owner",
      "outputs": [
        {
          "internalType": "address",
          "name": "",
          "type": "address"
        }
      ],
      "stateMutability": "view",
      "type": "function",
      "constant": true
    },
    {
      "inputs": [],
      "name": "saleEnded",
      "outputs": [
        {
          "internalType": "bool",
          "name": "",
          "type": "bool"
        }
      ],
      "stateMutability": "view",
      "type": "function",
      "constant": true
    },
    {
      "inputs": [
        {
          "internalType": "address",
          "name": "",
          "type": "address"
        },
        {
          "internalType": "address",
          "name": "",
          "type": "address"
        }
      ],
      "name": "spendingLimits",
      "outputs": [
        {
          "internalType": "uint256",
          "name": "",
          "type": "uint256"
        }
      ],
      "stateMutability": "view",
      "type": "function",
      "constant": true
    },
    {
      "inputs": [
        {
          "internalType": "address",
          "name": "user",
          "type": "address"
        }
      ],
      "name": "approvedUSDT",
      "outputs": [
        {
          "internalType": "uint256",
          "name": "",
          "type": "uint256"
        }
      ],
      "stateMutability": "view",
      "type": "function",
      "constant": true
    },
    {
      "inputs": [
        {
          "internalType": "uint256",
          "name": "tokens",
          "type": "uint256"
        }
      ],
      "name": "buy",
      "outputs": [],
      "stateMutability": "nonpayable",
      "type": "function"
    },
    {
      "inputs": [],
      "name": "claimTokens",
      "outputs": [],
      "stateMutability": "nonpayable",
      "type": "function"
    },
    {
      "inputs": [
        {
          "internalType": "address",
          "name": "account",
          "type": "address"
        }
      ],
      "name": "balanceOf",
      "outputs": [
        {
          "internalType": "uint256",
          "name": "",
          "type": "uint256"
        }
      ],
      "stateMutability": "view",
      "type": "function",
      "constant": true
    },
    {
      "inputs": [],
      "name": "endSale",
      "outputs": [],
      "stateMutability": "nonpayable",
      "type": "function"
    },
    {
      "inputs": [],
      "name": "_tokens",
      "outputs": [
        {
          "internalType": "uint256",
          "name": "",
          "type": "uint256"
        }
      ],
      "stateMutability": "view",
      "type": "function",
      "constant": true
    },
    {
      "inputs": [],
      "name": "tokensSold",
      "outputs": [
        {
          "internalType": "uint256",
          "name": "",
          "type": "uint256"
        }
      ],
      "stateMutability": "view",
      "type": "function",
      "constant": true
    },
    {
      "inputs": [],
      "name": "totalTokens",
      "outputs": [
        {
          "internalType": "uint256",
          "name": "",
          "type": "uint256"
        }
      ],
      "stateMutability": "view",
      "type": "function",
      "constant": true
    },
    {
      "inputs": [],
      "name": "currentPhase",
      "outputs": [
        {
          "internalType": "uint256",
          "name": "",
          "type": "uint256"
        },
        {
          "internalType": "uint256",
          "name": "",
          "type": "uint256"
        },
        {
          "internalType": "uint256",
          "name": "",
          "type": "uint256"
        },
        {
          "internalType": "uint256",
          "name": "",
          "type": "uint256"
        }
      ],
      "stateMutability": "view",
      "type": "function",
      "constant": true
    },
    {
      "inputs": [
        {
          "internalType": "uint256",
          "name": "phaseId",
          "type": "uint256"
        }
      ],
      "name": "phase",
      "outputs": [
        {
          "components": [
            {
              "internalType": "uint256",
              "name": "total",
              "type": "uint256"
            },
            {
              "internalType": "uint256",
              "name": "price",
              "type": "uint256"
            },
            {
              "internalType": "uint256",
              "name": "phase",
              "type": "uint256"
            }
          ],
          "internalType": "struct Prueba9.Phase",
          "name": "",
          "type": "tuple"
        }
      ],
      "stateMutability": "view",
      "type": "function",
      "constant": true
    },
    {
      "inputs": [],
      "name": "_tokenPrice",
      "outputs": [
        {
          "internalType": "uint256",
          "name": "",
          "type": "uint256"
        }
      ],
      "stateMutability": "view",
      "type": "function",
      "constant": true
    }
  ],
  "bytecode": "0x60806040526000600560006101000a81548173ffffffffffffffffffffffffffffffffffffffff021916908373ffffffffffffffffffffffffffffffffffffffff1602179055503480156200005357600080fd5b5060405162002047380380620020478339818101604052810190620000799190620002dd565b336000806101000a81548173ffffffffffffffffffffffffffffffffffffffff021916908373ffffffffffffffffffffffffffffffffffffffff16021790555081600660006101000a81548173ffffffffffffffffffffffffffffffffffffffff021916908373ffffffffffffffffffffffffffffffffffffffff16021790555080600760006101000a81548173ffffffffffffffffffffffffffffffffffffffff021916908373ffffffffffffffffffffffffffffffffffffffff160217905550600060088190555060006002819055506000600960006101000a81548160ff02191690831515021790555060006721077563e56e0000905060005b600381101562000269576000808214620001a457600182146200019b5760006200019e565b60145b620001a7565b601e5b60ff16905060006064826064620001bf91906200035d565b85620001cc919062000398565b620001d8919062000412565b9050600c6040518060600160405280620f424081526020018381526020016001866200020591906200044a565b8152509080600181540180825580915050600190039060005260206000209060030201600090919091909150600082015181600001556020820151816001015560408201518160020155505050508080620002609062000485565b91505062000176565b50505050620004d2565b600080fd5b600073ffffffffffffffffffffffffffffffffffffffff82169050919050565b6000620002a58262000278565b9050919050565b620002b78162000298565b8114620002c357600080fd5b50565b600081519050620002d781620002ac565b92915050565b60008060408385031215620002f757620002f662000273565b5b60006200030785828601620002c6565b92505060206200031a85828601620002c6565b9150509250929050565b6000819050919050565b7f4e487b7100000000000000000000000000000000000000000000000000000000600052601160045260246000fd5b60006200036a8262000324565b9150620003778362000324565b92508282039050818111156200039257620003916200032e565b5b92915050565b6000620003a58262000324565b9150620003b28362000324565b9250828202620003c28162000324565b91508282048414831517620003dc57620003db6200032e565b5b5092915050565b7f4e487b7100000000000000000000000000000000000000000000000000000000600052601260045260246000fd5b60006200041f8262000324565b91506200042c8362000324565b9250826200043f576200043e620003e3565b5b828204905092915050565b6000620004578262000324565b9150620004648362000324565b92508282019050808211156200047f576200047e6200032e565b5b92915050565b6000620004928262000324565b91507fffffffffffffffffffffffffffffffffffffffffffffffffffffffffffffffff8203620004c757620004c66200032e565b5b600182019050919050565b611b6580620004e26000396000f3fe608060405234801561001057600080fd5b50600436106100ea5760003560e01c806370a082311161008c5780638da5cb5b116100665780638da5cb5b1461022c5780639b8906ae1461024a578063c413c63914610268578063d96a094a14610298576100ea565b806370a08231146101c05780637e1c0c09146101f05780638970d84c1461020e576100ea565b80633b971f9f116100c85780633b971f9f1461014a57806340cc860b1461016857806348c54b9d14610198578063518ab2a8146101a2576100ea565b8063055ad42e146100ef578063135f8aa714610110578063380d831b14610140575b600080fd5b6100f76102b4565b6040516101079493929190611085565b60405180910390f35b61012a600480360381019061012591906110fb565b610332565b6040516101379190611179565b60405180910390f35b61014861038c565b005b610152610652565b60405161015f9190611194565b60405180910390f35b610182600480360381019061017d919061120d565b61065c565b60405161018f9190611194565b60405180910390f35b6101a0610681565b005b6101aa610896565b6040516101b79190611194565b60405180910390f35b6101da60048036038101906101d5919061124d565b6108a0565b6040516101e79190611194565b60405180910390f35b6101f86108e9565b6040516102059190611194565b60405180910390f35b61021661098b565b6040516102239190611194565b60405180910390f35b610234610a38565b6040516102419190611289565b60405180910390f35b610252610a5c565b60405161025f91906112bf565b60405180910390f35b610282600480360381019061027d919061124d565b610a6f565b60405161028f9190611194565b60405180910390f35b6102b260048036038101906102ad91906110fb565b610b38565b005b6000806000806000600c600854815481106102d2576102d16112da565b5b90600052602060002090600302016040518060600160405290816000820154815260200160018201548152602001600282015481525050905060006002549050816040015182600001518360200151839550955095509550505090919293565b61033a61104b565b600c828154811061034e5761034d6112da565b5b906000526020600020906003020160405180606001604052908160008201548152602001600182015481526020016002820154815250509050919050565b60008054906101000a900473ffffffffffffffffffffffffffffffffffffffff1673ffffffffffffffffffffffffffffffffffffffff163373ffffffffffffffffffffffffffffffffffffffff161461041a576040517f08c379a000000000000000000000000000000000000000000000000000000000815260040161041190611366565b60405180910390fd5b600960009054906101000a900460ff161561046a576040517f08c379a0000000000000000000000000000000000000000000000000000000008152600401610461906113d2565b60405180910390fd5b600660009054906101000a900473ffffffffffffffffffffffffffffffffffffffff1673ffffffffffffffffffffffffffffffffffffffff1663a9059cbb60008054906101000a900473ffffffffffffffffffffffffffffffffffffffff16600660009054906101000a900473ffffffffffffffffffffffffffffffffffffffff1673ffffffffffffffffffffffffffffffffffffffff166370a08231306040518263ffffffff1660e01b81526004016105249190611289565b602060405180830381865afa158015610541573d6000803e3d6000fd5b505050506040513d601f19601f820116820180604052508101906105659190611407565b6040518363ffffffff1660e01b8152600401610582929190611434565b6020604051808303816000875af11580156105a1573d6000803e3d6000fd5b505050506040513d601f19601f820116820180604052508101906105c59190611489565b6105ce57600080fd5b60008054906101000a900473ffffffffffffffffffffffffffffffffffffffff1673ffffffffffffffffffffffffffffffffffffffff166108fc479081150290604051600060405180830381858888f19350505050158015610634573d6000803e3d6000fd5b506001600960006101000a81548160ff021916908315150217905550565b6000600154905090565b600a602052816000526040600020602052806000526040600020600091509150505481565b600960009054906101000a900460ff166106d0576040517f08c379a00000000000000000000000000000000000000000000000000000000081526004016106c790611502565b60405180910390fd5b6000600d60003373ffffffffffffffffffffffffffffffffffffffff1673ffffffffffffffffffffffffffffffffffffffff16815260200190815260200160002054905060008111610757576040517f08c379a000000000000000000000000000000000000000000000000000000000815260040161074e9061156e565b60405180910390fd5b6000600d60003373ffffffffffffffffffffffffffffffffffffffff1673ffffffffffffffffffffffffffffffffffffffff16815260200190815260200160002081905550600660009054906101000a900473ffffffffffffffffffffffffffffffffffffffff1673ffffffffffffffffffffffffffffffffffffffff1663a9059cbb33836040518363ffffffff1660e01b81526004016107f9929190611434565b6020604051808303816000875af1158015610818573d6000803e3d6000fd5b505050506040513d601f19601f8201168201806040525081019061083c9190611489565b61084557600080fd5b3373ffffffffffffffffffffffffffffffffffffffff167f896e034966eaaf1adc54acc0f257056febbd300c9e47182cf761982cf1f5e4308260405161088b9190611194565b60405180910390a250565b6000600354905090565b6000600d60008373ffffffffffffffffffffffffffffffffffffffff1673ffffffffffffffffffffffffffffffffffffffff168152602001908152602001600020549050919050565b6000610986600660009054906101000a900473ffffffffffffffffffffffffffffffffffffffff1673ffffffffffffffffffffffffffffffffffffffff166318160ddd6040518163ffffffff1660e01b8152600401602060405180830381865afa15801561095b573d6000803e3d6000fd5b505050506040513d601f19601f8201168201806040525081019061097f9190611407565b6012611029565b905090565b6000610a33600660009054906101000a900473ffffffffffffffffffffffffffffffffffffffff1673ffffffffffffffffffffffffffffffffffffffff166370a08231336040518263ffffffff1660e01b81526004016109eb9190611289565b602060405180830381865afa158015610a08573d6000803e3d6000fd5b505050506040513d601f19601f82011682018060405250810190610a2c9190611407565b6012611029565b905090565b60008054906101000a900473ffffffffffffffffffffffffffffffffffffffff1681565b600960009054906101000a900460ff1681565b6000600760009054906101000a900473ffffffffffffffffffffffffffffffffffffffff1673ffffffffffffffffffffffffffffffffffffffff1663dd62ed3e83600760009054906101000a900473ffffffffffffffffffffffffffffffffffffffff166040518363ffffffff1660e01b8152600401610af092919061158e565b602060405180830381865afa158015610b0d573d6000803e3d6000fd5b505050506040513d601f19601f82011682018060405250810190610b319190611407565b9050919050565b600960009054906101000a900460ff1615610b88576040517f08c379a0000000000000000000000000000000000000000000000000000000008152600401610b7f90611603565b60405180910390fd5b80610b94600854610332565b600001511015610bd9576040517f08c379a0000000000000000000000000000000000000000000000000000000008152600401610bd090611695565b60405180910390fd5b6000610be6600854610332565b6020015182610bf591906116e4565b905080600760009054906101000a900473ffffffffffffffffffffffffffffffffffffffff1673ffffffffffffffffffffffffffffffffffffffff1663dd62ed3e33306040518363ffffffff1660e01b8152600401610c5592919061158e565b602060405180830381865afa158015610c72573d6000803e3d6000fd5b505050506040513d601f19601f82011682018060405250810190610c969190611407565b1015610cd7576040517f08c379a0000000000000000000000000000000000000000000000000000000008152600401610cce90611772565b60405180910390fd5b600760009054906101000a900473ffffffffffffffffffffffffffffffffffffffff1673ffffffffffffffffffffffffffffffffffffffff166323b872dd3330846040518463ffffffff1660e01b8152600401610d3693929190611792565b6020604051808303816000875af1158015610d55573d6000803e3d6000fd5b505050506040513d601f19601f82011682018060405250810190610d799190611489565b610db8576040517f08c379a0000000000000000000000000000000000000000000000000000000008152600401610daf90611815565b60405180910390fd5b600660009054906101000a900473ffffffffffffffffffffffffffffffffffffffff1673ffffffffffffffffffffffffffffffffffffffff1663a9059cbb33846040518363ffffffff1660e01b8152600401610e15929190611434565b6020604051808303816000875af1158015610e34573d6000803e3d6000fd5b505050506040513d601f19601f82011682018060405250810190610e589190611489565b610e97576040517f08c379a0000000000000000000000000000000000000000000000000000000008152600401610e8e90611881565b60405180910390fd5b8160026000828254610ea991906118a1565b925050819055508160036000828254610ec291906118a1565b9250508190555081600c60085481548110610ee057610edf6112da565b5b90600052602060002090600302016000016000828254610f0091906118d5565b9250508190555081600d60003373ffffffffffffffffffffffffffffffffffffffff1673ffffffffffffffffffffffffffffffffffffffff1681526020019081526020016000206000828254610f5691906118a1565b925050819055506000600c60085481548110610f7557610f746112da565b5b90600052602060002090600302016000015403610fd75760086000815480929190610f9f90611909565b91905055506000600281905550600c8054905060085403610fd6576001600960006101000a81548160ff0219169083151502179055505b5b3373ffffffffffffffffffffffffffffffffffffffff167f8f28852646c20cc973d3a8218f7eefed58c25c909f78f0265af4818c3d4dc2718360405161101d9190611194565b60405180910390a25050565b600081600a6110389190611a84565b836110439190611afe565b905092915050565b60405180606001604052806000815260200160008152602001600081525090565b6000819050919050565b61107f8161106c565b82525050565b600060808201905061109a6000830187611076565b6110a76020830186611076565b6110b46040830185611076565b6110c16060830184611076565b95945050505050565b600080fd5b6110d88161106c565b81146110e357600080fd5b50565b6000813590506110f5816110cf565b92915050565b600060208284031215611111576111106110ca565b5b600061111f848285016110e6565b91505092915050565b6111318161106c565b82525050565b60608201600082015161114d6000850182611128565b5060208201516111606020850182611128565b5060408201516111736040850182611128565b50505050565b600060608201905061118e6000830184611137565b92915050565b60006020820190506111a96000830184611076565b92915050565b600073ffffffffffffffffffffffffffffffffffffffff82169050919050565b60006111da826111af565b9050919050565b6111ea816111cf565b81146111f557600080fd5b50565b600081359050611207816111e1565b92915050565b60008060408385031215611224576112236110ca565b5b6000611232858286016111f8565b9250506020611243858286016111f8565b9150509250929050565b600060208284031215611263576112626110ca565b5b6000611271848285016111f8565b91505092915050565b611283816111cf565b82525050565b600060208201905061129e600083018461127a565b92915050565b60008115159050919050565b6112b9816112a4565b82525050565b60006020820190506112d460008301846112b0565b92915050565b7f4e487b7100000000000000000000000000000000000000000000000000000000600052603260045260246000fd5b600082825260208201905092915050565b7f4f6e6c79206f776e657220616c6c6f7765640000000000000000000000000000600082015250565b6000611350601283611309565b915061135b8261131a565b602082019050919050565b6000602082019050818103600083015261137f81611343565b9050919050565b7f53616c652068617320616c726561647920656e64656400000000000000000000600082015250565b60006113bc601683611309565b91506113c782611386565b602082019050919050565b600060208201905081810360008301526113eb816113af565b9050919050565b600081519050611401816110cf565b92915050565b60006020828403121561141d5761141c6110ca565b5b600061142b848285016113f2565b91505092915050565b6000604082019050611449600083018561127a565b6114566020830184611076565b9392505050565b611466816112a4565b811461147157600080fd5b50565b6000815190506114838161145d565b92915050565b60006020828403121561149f5761149e6110ca565b5b60006114ad84828501611474565b91505092915050565b7f53616c6520686173206e6f7420656e6465642079657400000000000000000000600082015250565b60006114ec601683611309565b91506114f7826114b6565b602082019050919050565b6000602082019050818103600083015261151b816114df565b9050919050565b7f4e6f20746f6b656e7320746f20636c61696d0000000000000000000000000000600082015250565b6000611558601283611309565b915061156382611522565b602082019050919050565b600060208201905081810360008301526115878161154b565b9050919050565b60006040820190506115a3600083018561127a565b6115b0602083018461127a565b9392505050565b7f53616c652068617320656e646564000000000000000000000000000000000000600082015250565b60006115ed600e83611309565b91506115f8826115b7565b602082019050919050565b6000602082019050818103600083015261161c816115e0565b9050919050565b7f4e6f7420656e6f75676820746f6b656e7320617661696c61626c6520696e207460008201527f6869732070686173650000000000000000000000000000000000000000000000602082015250565b600061167f602983611309565b915061168a82611623565b604082019050919050565b600060208201905081810360008301526116ae81611672565b9050919050565b7f4e487b7100000000000000000000000000000000000000000000000000000000600052601160045260246000fd5b60006116ef8261106c565b91506116fa8361106c565b92508282026117088161106c565b9150828204841483151761171f5761171e6116b5565b5b5092915050565b7f4e6f7420656e6f756768205553445420617070726f7665640000000000000000600082015250565b600061175c601883611309565b915061176782611726565b602082019050919050565b6000602082019050818103600083015261178b8161174f565b9050919050565b60006060820190506117a7600083018661127a565b6117b4602083018561127a565b6117c16040830184611076565b949350505050565b7f55534454207472616e73666572206661696c6564000000000000000000000000600082015250565b60006117ff601483611309565b915061180a826117c9565b602082019050919050565b6000602082019050818103600083015261182e816117f2565b9050919050565b7f546f6b656e207472616e73666572206661696c65640000000000000000000000600082015250565b600061186b601583611309565b915061187682611835565b602082019050919050565b6000602082019050818103600083015261189a8161185e565b9050919050565b60006118ac8261106c565b91506118b78361106c565b92508282019050808211156118cf576118ce6116b5565b5b92915050565b60006118e08261106c565b91506118eb8361106c565b9250828203905081811115611903576119026116b5565b5b92915050565b60006119148261106c565b91507fffffffffffffffffffffffffffffffffffffffffffffffffffffffffffffffff8203611946576119456116b5565b5b600182019050919050565b60008160011c9050919050565b6000808291508390505b60018511156119a857808604811115611984576119836116b5565b5b60018516156119935780820291505b80810290506119a185611951565b9450611968565b94509492505050565b6000826119c15760019050611a7d565b816119cf5760009050611a7d565b81600181146119e557600281146119ef57611a1e565b6001915050611a7d565b60ff841115611a0157611a006116b5565b5b8360020a915084821115611a1857611a176116b5565b5b50611a7d565b5060208310610133831016604e8410600b8410161715611a535782820a905083811115611a4e57611a4d6116b5565b5b611a7d565b611a60848484600161195e565b92509050818404811115611a7757611a766116b5565b5b81810290505b9392505050565b6000611a8f8261106c565b9150611a9a8361106c565b9250611ac77fffffffffffffffffffffffffffffffffffffffffffffffffffffffffffffffff84846119b1565b905092915050565b7f4e487b7100000000000000000000000000000000000000000000000000000000600052601260045260246000fd5b6000611b098261106c565b9150611b148361106c565b925082611b2457611b23611acf565b5b82820490509291505056fea26469706673582212203c9ef307a10544a4d1d76cce1ef86c9ad47edf0032fdb15f42909a43f2fa37da64736f6c63430008130033",
  "immutableReferences": {},
  "source": "// SPDX-License-Identifier: MIT\r\npragma solidity ^0.8.19;\r\n\r\nimport \"@openzeppelin/contracts/token/ERC20/IERC20.sol\";\r\n\r\ncontract Prueba9 {\r\n    address public owner;\r\n    uint private buyPrice;\r\n    uint private sold;\r\n    uint private totalTokensSold;\r\n    uint private toSold;\r\n    address private noOne = address(0);\r\n    IERC20 private token;\r\n    IERC20 private paymentToken;\r\n    uint private currentPhaseIndex;\r\n    bool public saleEnded;\r\n\r\n    mapping(address => mapping(address => uint)) public spendingLimits; // Nuevo: lmites de gasto por usuario y token\r\n    mapping(address => uint) private userUSDTBalance;\r\n\r\n    struct Phase {\r\n        uint total;\r\n        uint price;\r\n        uint phase;\r\n    }\r\n\r\n    Phase[] private phases;\r\n    mapping(address => uint) private purchasedTokens;\r\n\r\n    event TokensPurchased(address indexed buyer, uint amount);\r\n    event TokensClaimed(address indexed claimer, uint amount);\r\n\r\n\r\n\r\n    constructor(address _token, address _paymentToken) {\r\n        owner = msg.sender;\r\n        token = IERC20(_token);\r\n        paymentToken = IERC20(_paymentToken);\r\n        currentPhaseIndex = 0;\r\n        sold = 0;\r\n        saleEnded = false;\r\n\r\n        uint basePrice = 2.38 * 10 ** 18;\r\n\r\n        for (uint i = 0; i < 3; i++) {\r\n            uint discountPercentage = (i == 0) ? 30 : (i == 1) ? 20 : 0;\r\n            uint discountedPrice = (basePrice * (100 - discountPercentage)) / 100;\r\n            phases.push(Phase(1000000, discountedPrice, i + 1));\r\n        }\r\n    }\r\n\r\n    function approvedUSDT(address user) public view returns (uint) {\r\n        return paymentToken.allowance(user, address(paymentToken));\r\n    }\r\n\r\n\r\n    function buy(uint tokens) public {\r\n        require(!saleEnded, \"Sale has ended\");\r\n        require(phase(currentPhaseIndex).total >= tokens, \"Not enough tokens available in this phase\");\r\n\r\n        uint usdtToUse = tokens * phase(currentPhaseIndex).price;\r\n        require(paymentToken.allowance(msg.sender, address(this)) >= usdtToUse, \"Not enough USDT approved\");\r\n\r\n        require(paymentToken.transferFrom(msg.sender, address(this), usdtToUse), \"USDT transfer failed\");\r\n\r\n        require(token.transfer(msg.sender, tokens), \"Token transfer failed\");\r\n\r\n        sold += tokens;\r\n        totalTokensSold += tokens;\r\n        phases[currentPhaseIndex].total -= tokens;\r\n        purchasedTokens[msg.sender] += tokens;\r\n\r\n        if (phases[currentPhaseIndex].total == 0) {\r\n            currentPhaseIndex++;\r\n            sold = 0;\r\n            if (currentPhaseIndex == phases.length) {\r\n                saleEnded = true;\r\n            }\r\n        }\r\n        emit TokensPurchased(msg.sender, tokens);\r\n    }\r\n\r\n\r\n\r\n    function claimTokens() public {\r\n        require(saleEnded, \"Sale has not ended yet\");\r\n        uint tokensToClaim = purchasedTokens[msg.sender];\r\n        require(tokensToClaim > 0, \"No tokens to claim\");\r\n\r\n        purchasedTokens[msg.sender] = 0;\r\n        require(token.transfer(msg.sender, tokensToClaim));\r\n\r\n        emit TokensClaimed(msg.sender, tokensToClaim);\r\n    }\r\n\r\n    function balanceOf(address account) public view returns (uint) {\r\n        return purchasedTokens[account];\r\n    }\r\n\r\n    function endSale() public onlyOwner {\r\n    require(!saleEnded, \"Sale has already ended\");\r\n\r\n    require(token.transfer(owner, token.balanceOf(address(this))));\r\n\r\n    payable(owner).transfer(address(this).balance);\r\n\r\n    saleEnded = true;\r\n}\r\n\r\n    function _unAmount(uint _amountDeci, uint decimals) private pure returns(uint){\r\n        return _amountDeci / (10**decimals);\r\n    }\r\n\r\n    function _tokens() public view returns (uint) {\r\n        return _unAmount(token.balanceOf(msg.sender), 18);\r\n    }\r\n\r\n\r\n\r\n    function tokensSold() public view returns (uint) {\r\n        return totalTokensSold;\r\n    }\r\n\r\n    function totalTokens() public view returns (uint) {\r\n        return _unAmount(token.totalSupply(), 18);\r\n    }\r\n\r\n    function currentPhase() public view returns (uint, uint, uint, uint) {\r\n        Phase memory current = phases[currentPhaseIndex];\r\n        uint totalTokensPhase = sold;\r\n        return (current.phase, current.total, current.price, totalTokensPhase);\r\n    }\r\n\r\n    function phase(uint phaseId) public view returns (Phase memory) {\r\n        return phases[phaseId];\r\n    }\r\n\r\n    function _tokenPrice() public view returns (uint) {\r\n        return buyPrice;\r\n    }\r\n\r\n    modifier onlyOwner() {\r\n        require(msg.sender == owner, \"Only owner allowed\");\r\n        _;\r\n    }\r\n}",
  "sourcePath": "C:\\Users\\User\\Desktop\\solidity\\contracts\\Prueba9.sol",
  "compiler": {
    "name": "solc",
    "version": "0.8.19+commit.7dd6d404.Emscripten.clang"
  },
  "schemaVersion": "3.4.16",
  "updatedAt": "2024-02-25T22:01:25.175Z",
  "networkType": "ethereum",
  "devdoc": {
    "kind": "dev",
    "methods": {},
    "version": 1
  },
  "userdoc": {
    "kind": "user",
    "methods": {},
    "version": 1
  }
}