{
  "contractName": "Prueba6",
  "abi": [
    {
      "inputs": [
        {
          "internalType": "address",
          "name": "_token",
          "type": "address"
        },
        {
          "internalType": "address",
          "name": "_paymentToken",
          "type": "address"
        }
      ],
      "stateMutability": "nonpayable",
      "type": "constructor"
    },
    {
      "anonymous": false,
      "inputs": [
        {
          "indexed": true,
          "internalType": "address",
          "name": "user",
          "type": "address"
        },
        {
          "indexed": true,
          "internalType": "address",
          "name": "token",
          "type": "address"
        }
      ],
      "name": "SpendingLimitRevoked",
      "type": "event"
    },
    {
      "anonymous": false,
      "inputs": [
        {
          "indexed": true,
          "internalType": "address",
          "name": "user",
          "type": "address"
        },
        {
          "indexed": true,
          "internalType": "address",
          "name": "token",
          "type": "address"
        },
        {
          "indexed": false,
          "internalType": "uint256",
          "name": "limit",
          "type": "uint256"
        }
      ],
      "name": "SpendingLimitSet",
      "type": "event"
    },
    {
      "anonymous": false,
      "inputs": [
        {
          "indexed": true,
          "internalType": "address",
          "name": "claimer",
          "type": "address"
        },
        {
          "indexed": false,
          "internalType": "uint256",
          "name": "amount",
          "type": "uint256"
        }
      ],
      "name": "TokensClaimed",
      "type": "event"
    },
    {
      "anonymous": false,
      "inputs": [
        {
          "indexed": true,
          "internalType": "address",
          "name": "buyer",
          "type": "address"
        },
        {
          "indexed": false,
          "internalType": "uint256",
          "name": "amount",
          "type": "uint256"
        }
      ],
      "name": "TokensPurchased",
      "type": "event"
    },
    {
      "anonymous": false,
      "inputs": [
        {
          "indexed": true,
          "internalType": "address",
          "name": "user",
          "type": "address"
        },
        {
          "indexed": false,
          "internalType": "uint256",
          "name": "amount",
          "type": "uint256"
        }
      ],
      "name": "USDTPermissionRequested",
      "type": "event"
    },
    {
      "anonymous": false,
      "inputs": [
        {
          "indexed": true,
          "internalType": "address",
          "name": "user",
          "type": "address"
        },
        {
          "indexed": false,
          "internalType": "uint256",
          "name": "amount",
          "type": "uint256"
        }
      ],
      "name": "USDTTransferred",
      "type": "event"
    },
    {
      "inputs": [],
      "name": "owner",
      "outputs": [
        {
          "internalType": "address",
          "name": "",
          "type": "address"
        }
      ],
      "stateMutability": "view",
      "type": "function",
      "constant": true
    },
    {
      "inputs": [],
      "name": "saleEnded",
      "outputs": [
        {
          "internalType": "bool",
          "name": "",
          "type": "bool"
        }
      ],
      "stateMutability": "view",
      "type": "function",
      "constant": true
    },
    {
      "inputs": [
        {
          "internalType": "address",
          "name": "",
          "type": "address"
        },
        {
          "internalType": "address",
          "name": "",
          "type": "address"
        }
      ],
      "name": "spendingLimits",
      "outputs": [
        {
          "internalType": "uint256",
          "name": "",
          "type": "uint256"
        }
      ],
      "stateMutability": "view",
      "type": "function",
      "constant": true
    },
    {
      "inputs": [
        {
          "internalType": "address",
          "name": "_token",
          "type": "address"
        },
        {
          "internalType": "uint256",
          "name": "_limit",
          "type": "uint256"
        }
      ],
      "name": "setSpendingLimit",
      "outputs": [],
      "stateMutability": "nonpayable",
      "type": "function"
    },
    {
      "inputs": [
        {
          "internalType": "address",
          "name": "_token",
          "type": "address"
        }
      ],
      "name": "revokeSpendingLimit",
      "outputs": [],
      "stateMutability": "nonpayable",
      "type": "function"
    },
    {
      "inputs": [
        {
          "internalType": "address",
          "name": "_user",
          "type": "address"
        }
      ],
      "name": "getSpendingLimit",
      "outputs": [
        {
          "internalType": "uint256",
          "name": "",
          "type": "uint256"
        }
      ],
      "stateMutability": "view",
      "type": "function",
      "constant": true
    },
    {
      "inputs": [
        {
          "internalType": "uint256",
          "name": "amount",
          "type": "uint256"
        }
      ],
      "name": "transferUSDT",
      "outputs": [],
      "stateMutability": "nonpayable",
      "type": "function"
    },
    {
      "inputs": [
        {
          "internalType": "address",
          "name": "user",
          "type": "address"
        }
      ],
      "name": "getUserUSDTBalance",
      "outputs": [
        {
          "internalType": "uint256",
          "name": "",
          "type": "uint256"
        }
      ],
      "stateMutability": "view",
      "type": "function",
      "constant": true
    },
    {
      "inputs": [
        {
          "internalType": "uint256",
          "name": "tokens",
          "type": "uint256"
        }
      ],
      "name": "buy",
      "outputs": [],
      "stateMutability": "nonpayable",
      "type": "function"
    },
    {
      "inputs": [],
      "name": "claimTokens",
      "outputs": [],
      "stateMutability": "nonpayable",
      "type": "function"
    },
    {
      "inputs": [
        {
          "internalType": "address",
          "name": "account",
          "type": "address"
        }
      ],
      "name": "balanceOf",
      "outputs": [
        {
          "internalType": "uint256",
          "name": "",
          "type": "uint256"
        }
      ],
      "stateMutability": "view",
      "type": "function",
      "constant": true
    },
    {
      "inputs": [],
      "name": "endSale",
      "outputs": [],
      "stateMutability": "nonpayable",
      "type": "function"
    },
    {
      "inputs": [],
      "name": "_tokens",
      "outputs": [
        {
          "internalType": "uint256",
          "name": "",
          "type": "uint256"
        }
      ],
      "stateMutability": "view",
      "type": "function",
      "constant": true
    },
    {
      "inputs": [],
      "name": "tokensSold",
      "outputs": [
        {
          "internalType": "uint256",
          "name": "",
          "type": "uint256"
        }
      ],
      "stateMutability": "view",
      "type": "function",
      "constant": true
    },
    {
      "inputs": [],
      "name": "totalTokens",
      "outputs": [
        {
          "internalType": "uint256",
          "name": "",
          "type": "uint256"
        }
      ],
      "stateMutability": "view",
      "type": "function",
      "constant": true
    },
    {
      "inputs": [],
      "name": "currentPhase",
      "outputs": [
        {
          "components": [
            {
              "internalType": "uint256",
              "name": "total",
              "type": "uint256"
            },
            {
              "internalType": "uint256",
              "name": "price",
              "type": "uint256"
            },
            {
              "internalType": "uint256",
              "name": "phase",
              "type": "uint256"
            }
          ],
          "internalType": "struct Prueba6.Phase",
          "name": "",
          "type": "tuple"
        }
      ],
      "stateMutability": "view",
      "type": "function",
      "constant": true
    },
    {
      "inputs": [
        {
          "internalType": "uint256",
          "name": "phaseId",
          "type": "uint256"
        }
      ],
      "name": "phase",
      "outputs": [
        {
          "components": [
            {
              "internalType": "uint256",
              "name": "total",
              "type": "uint256"
            },
            {
              "internalType": "uint256",
              "name": "price",
              "type": "uint256"
            },
            {
              "internalType": "uint256",
              "name": "phase",
              "type": "uint256"
            }
          ],
          "internalType": "struct Prueba6.Phase",
          "name": "",
          "type": "tuple"
        }
      ],
      "stateMutability": "view",
      "type": "function",
      "constant": true
    },
    {
      "inputs": [],
      "name": "_tokenPrice",
      "outputs": [
        {
          "internalType": "uint256",
          "name": "",
          "type": "uint256"
        }
      ],
      "stateMutability": "view",
      "type": "function",
      "constant": true
    }
  ],
  "bytecode": "0x60806040526000600460006101000a81548173ffffffffffffffffffffffffffffffffffffffff021916908373ffffffffffffffffffffffffffffffffffffffff1602179055503480156200005357600080fd5b50604051620023f5380380620023f5833981810160405281019062000079919062000284565b336000806101000a81548173ffffffffffffffffffffffffffffffffffffffff021916908373ffffffffffffffffffffffffffffffffffffffff16021790555081600560006101000a81548173ffffffffffffffffffffffffffffffffffffffff021916908373ffffffffffffffffffffffffffffffffffffffff16021790555080600660006101000a81548173ffffffffffffffffffffffffffffffffffffffff021916908373ffffffffffffffffffffffffffffffffffffffff1602179055506509184e72a000600181905550600060078190555060006002819055506000600860006101000a81548160ff0219169083151502179055506000600190505b600a81116200021157600b6040518060600160405280620f4240815260200160015484620001a9919062000304565b81526020018381525090806001815401808255809150506001900390600052602060002090600302016000909190919091506000820151816000015560208201518160010155604082015181600201555050808062000208906200034f565b9150506200017a565b5050506200039c565b600080fd5b600073ffffffffffffffffffffffffffffffffffffffff82169050919050565b60006200024c826200021f565b9050919050565b6200025e816200023f565b81146200026a57600080fd5b50565b6000815190506200027e8162000253565b92915050565b600080604083850312156200029e576200029d6200021a565b5b6000620002ae858286016200026d565b9250506020620002c1858286016200026d565b9150509250929050565b6000819050919050565b7f4e487b7100000000000000000000000000000000000000000000000000000000600052601160045260246000fd5b60006200031182620002cb565b91506200031e83620002cb565b92508282026200032e81620002cb565b91508282048414831517620003485762000347620002d5565b5b5092915050565b60006200035c82620002cb565b91507fffffffffffffffffffffffffffffffffffffffffffffffffffffffffffffffff8203620003915762000390620002d5565b5b600182019050919050565b61204980620003ac6000396000f3fe608060405234801561001057600080fd5b50600436106101165760003560e01c80637e1c0c09116100a25780639b8906ae116100715780639b8906ae146102bf578063a330530a146102dd578063b44d6eb81461030d578063c9a815bd14610329578063d96a094a1461034557610116565b80637e1c0c0914610249578063849b4864146102675780638970d84c146102835780638da5cb5b146102a157610116565b806340cc860b116100e957806340cc860b1461019157806347a10748146101c157806348c54b9d146101f1578063518ab2a8146101fb57806370a082311461021957610116565b8063055ad42e1461011b578063135f8aa714610139578063380d831b146101695780633b971f9f14610173575b600080fd5b610123610361565b6040516101309190611544565b60405180910390f35b610153600480360381019061014e9190611590565b610379565b6040516101609190611544565b60405180910390f35b6101716103d3565b005b61017b610699565b60405161018891906115cc565b60405180910390f35b6101ab60048036038101906101a69190611645565b6106a3565b6040516101b891906115cc565b60405180910390f35b6101db60048036038101906101d69190611685565b6106c8565b6040516101e891906115cc565b60405180910390f35b6101f9610770565b005b610203610985565b60405161021091906115cc565b60405180910390f35b610233600480360381019061022e9190611685565b61098f565b60405161024091906115cc565b60405180910390f35b6102516109d8565b60405161025e91906115cc565b60405180910390f35b610281600480360381019061027c9190611590565b610a7a565b005b61028b610bc2565b60405161029891906115cc565b60405180910390f35b6102a9610c6f565b6040516102b691906116c1565b60405180910390f35b6102c7610c93565b6040516102d491906116f7565b60405180910390f35b6102f760048036038101906102f29190611685565b610ca6565b60405161030491906115cc565b60405180910390f35b61032760048036038101906103229190611685565b610cef565b005b610343600480360381019061033e9190611712565b610e5c565b005b61035f600480360381019061035a9190611590565b610fd6565b005b6103696114c8565b610374600754610379565b905090565b6103816114c8565b600b828154811061039557610394611752565b5b906000526020600020906003020160405180606001604052908160008201548152602001600182015481526020016002820154815250509050919050565b60008054906101000a900473ffffffffffffffffffffffffffffffffffffffff1673ffffffffffffffffffffffffffffffffffffffff163373ffffffffffffffffffffffffffffffffffffffff1614610461576040517f08c379a0000000000000000000000000000000000000000000000000000000008152600401610458906117de565b60405180910390fd5b600860009054906101000a900460ff16156104b1576040517f08c379a00000000000000000000000000000000000000000000000000000000081526004016104a89061184a565b60405180910390fd5b600560009054906101000a900473ffffffffffffffffffffffffffffffffffffffff1673ffffffffffffffffffffffffffffffffffffffff1663a9059cbb60008054906101000a900473ffffffffffffffffffffffffffffffffffffffff16600560009054906101000a900473ffffffffffffffffffffffffffffffffffffffff1673ffffffffffffffffffffffffffffffffffffffff166370a08231306040518263ffffffff1660e01b815260040161056b91906116c1565b602060405180830381865afa158015610588573d6000803e3d6000fd5b505050506040513d601f19601f820116820180604052508101906105ac919061187f565b6040518363ffffffff1660e01b81526004016105c99291906118ac565b6020604051808303816000875af11580156105e8573d6000803e3d6000fd5b505050506040513d601f19601f8201168201806040525081019061060c9190611901565b61061557600080fd5b60008054906101000a900473ffffffffffffffffffffffffffffffffffffffff1673ffffffffffffffffffffffffffffffffffffffff166108fc479081150290604051600060405180830381858888f1935050505015801561067b573d6000803e3d6000fd5b506001600860006101000a81548160ff021916908315150217905550565b6000600154905090565b6009602052816000526040600020602052806000526040600020600091509150505481565b6000600960008373ffffffffffffffffffffffffffffffffffffffff1673ffffffffffffffffffffffffffffffffffffffff1681526020019081526020016000206000600660009054906101000a900473ffffffffffffffffffffffffffffffffffffffff1673ffffffffffffffffffffffffffffffffffffffff1673ffffffffffffffffffffffffffffffffffffffff168152602001908152602001600020549050919050565b600860009054906101000a900460ff166107bf576040517f08c379a00000000000000000000000000000000000000000000000000000000081526004016107b69061197a565b60405180910390fd5b6000600c60003373ffffffffffffffffffffffffffffffffffffffff1673ffffffffffffffffffffffffffffffffffffffff16815260200190815260200160002054905060008111610846576040517f08c379a000000000000000000000000000000000000000000000000000000000815260040161083d906119e6565b60405180910390fd5b6000600c60003373ffffffffffffffffffffffffffffffffffffffff1673ffffffffffffffffffffffffffffffffffffffff16815260200190815260200160002081905550600560009054906101000a900473ffffffffffffffffffffffffffffffffffffffff1673ffffffffffffffffffffffffffffffffffffffff1663a9059cbb33836040518363ffffffff1660e01b81526004016108e89291906118ac565b6020604051808303816000875af1158015610907573d6000803e3d6000fd5b505050506040513d601f19601f8201168201806040525081019061092b9190611901565b61093457600080fd5b3373ffffffffffffffffffffffffffffffffffffffff167f896e034966eaaf1adc54acc0f257056febbd300c9e47182cf761982cf1f5e4308260405161097a91906115cc565b60405180910390a250565b6000600254905090565b6000600c60008373ffffffffffffffffffffffffffffffffffffffff1673ffffffffffffffffffffffffffffffffffffffff168152602001908152602001600020549050919050565b6000610a75600560009054906101000a900473ffffffffffffffffffffffffffffffffffffffff1673ffffffffffffffffffffffffffffffffffffffff166318160ddd6040518163ffffffff1660e01b8152600401602060405180830381865afa158015610a4a573d6000803e3d6000fd5b505050506040513d601f19601f82011682018060405250810190610a6e919061187f565b60126114a6565b905090565b600660009054906101000a900473ffffffffffffffffffffffffffffffffffffffff1673ffffffffffffffffffffffffffffffffffffffff1663095ea7b330836040518363ffffffff1660e01b8152600401610ad79291906118ac565b6020604051808303816000875af1158015610af6573d6000803e3d6000fd5b505050506040513d601f19601f82011682018060405250810190610b1a9190611901565b5080600a60003373ffffffffffffffffffffffffffffffffffffffff1673ffffffffffffffffffffffffffffffffffffffff1681526020019081526020016000206000828254610b6a9190611a35565b925050819055503373ffffffffffffffffffffffffffffffffffffffff167f0dd33312792db87e3ba02b9ff02788e68585d7b5ddf6e78d738cf60a9739d47e82604051610bb791906115cc565b60405180910390a250565b6000610c6a600560009054906101000a900473ffffffffffffffffffffffffffffffffffffffff1673ffffffffffffffffffffffffffffffffffffffff166370a08231336040518263ffffffff1660e01b8152600401610c2291906116c1565b602060405180830381865afa158015610c3f573d6000803e3d6000fd5b505050506040513d601f19601f82011682018060405250810190610c63919061187f565b60126114a6565b905090565b60008054906101000a900473ffffffffffffffffffffffffffffffffffffffff1681565b600860009054906101000a900460ff1681565b6000600a60008373ffffffffffffffffffffffffffffffffffffffff1673ffffffffffffffffffffffffffffffffffffffff168152602001908152602001600020549050919050565b600660009054906101000a900473ffffffffffffffffffffffffffffffffffffffff1673ffffffffffffffffffffffffffffffffffffffff168173ffffffffffffffffffffffffffffffffffffffff1614610d7f576040517f08c379a0000000000000000000000000000000000000000000000000000000008152600401610d7690611ab5565b60405180910390fd5b600960003373ffffffffffffffffffffffffffffffffffffffff1673ffffffffffffffffffffffffffffffffffffffff16815260200190815260200160002060008273ffffffffffffffffffffffffffffffffffffffff1673ffffffffffffffffffffffffffffffffffffffff168152602001908152602001600020600090558073ffffffffffffffffffffffffffffffffffffffff163373ffffffffffffffffffffffffffffffffffffffff167ffa3c09b8ff40a6a068422fa454d336b2b8028e3075ea98cf35021a721db5bb4460405160405180910390a350565b600660009054906101000a900473ffffffffffffffffffffffffffffffffffffffff1673ffffffffffffffffffffffffffffffffffffffff168273ffffffffffffffffffffffffffffffffffffffff1614610eec576040517f08c379a0000000000000000000000000000000000000000000000000000000008152600401610ee390611ab5565b60405180910390fd5b80600960003373ffffffffffffffffffffffffffffffffffffffff1673ffffffffffffffffffffffffffffffffffffffff16815260200190815260200160002060008473ffffffffffffffffffffffffffffffffffffffff1673ffffffffffffffffffffffffffffffffffffffff168152602001908152602001600020819055508173ffffffffffffffffffffffffffffffffffffffff163373ffffffffffffffffffffffffffffffffffffffff167f26c909f28e96733d1fb0c53c8de0daaea88a232b2d341143ec4842ce885fe12383604051610fca91906115cc565b60405180910390a35050565b600860009054906101000a900460ff1615611026576040517f08c379a000000000000000000000000000000000000000000000000000000000815260040161101d90611b21565b60405180910390fd5b80611032600754610379565b600001511015611077576040517f08c379a000000000000000000000000000000000000000000000000000000000815260040161106e90611bb3565b60405180910390fd5b6000611084600754610379565b60200151826110939190611bd3565b905080600660009054906101000a900473ffffffffffffffffffffffffffffffffffffffff1673ffffffffffffffffffffffffffffffffffffffff1663dd62ed3e33306040518363ffffffff1660e01b81526004016110f3929190611c15565b602060405180830381865afa158015611110573d6000803e3d6000fd5b505050506040513d601f19601f82011682018060405250810190611134919061187f565b1015611175576040517f08c379a000000000000000000000000000000000000000000000000000000000815260040161116c90611c8a565b60405180910390fd5b600660009054906101000a900473ffffffffffffffffffffffffffffffffffffffff1673ffffffffffffffffffffffffffffffffffffffff166323b872dd3330846040518463ffffffff1660e01b81526004016111d493929190611caa565b6020604051808303816000875af11580156111f3573d6000803e3d6000fd5b505050506040513d601f19601f820116820180604052508101906112179190611901565b611256576040517f08c379a000000000000000000000000000000000000000000000000000000000815260040161124d90611d2d565b60405180910390fd5b600560009054906101000a900473ffffffffffffffffffffffffffffffffffffffff1673ffffffffffffffffffffffffffffffffffffffff1663a9059cbb33846040518363ffffffff1660e01b81526004016112b39291906118ac565b6020604051808303816000875af11580156112d2573d6000803e3d6000fd5b505050506040513d601f19601f820116820180604052508101906112f69190611901565b611335576040517f08c379a000000000000000000000000000000000000000000000000000000000815260040161132c90611d99565b60405180910390fd5b81600260008282546113479190611a35565b9250508190555081600b6007548154811061136557611364611752565b5b906000526020600020906003020160000160008282546113859190611db9565b9250508190555081600c60003373ffffffffffffffffffffffffffffffffffffffff1673ffffffffffffffffffffffffffffffffffffffff16815260200190815260200160002060008282546113db9190611a35565b925050819055506000600b600754815481106113fa576113f9611752565b5b90600052602060002090600302016000015403611454576007600081548092919061142490611ded565b9190505550600b8054905060075403611453576001600860006101000a81548160ff0219169083151502179055505b5b3373ffffffffffffffffffffffffffffffffffffffff167f8f28852646c20cc973d3a8218f7eefed58c25c909f78f0265af4818c3d4dc2718360405161149a91906115cc565b60405180910390a25050565b600081600a6114b59190611f68565b836114c09190611fe2565b905092915050565b60405180606001604052806000815260200160008152602001600081525090565b6000819050919050565b6114fc816114e9565b82525050565b60608201600082015161151860008501826114f3565b50602082015161152b60208501826114f3565b50604082015161153e60408501826114f3565b50505050565b60006060820190506115596000830184611502565b92915050565b600080fd5b61156d816114e9565b811461157857600080fd5b50565b60008135905061158a81611564565b92915050565b6000602082840312156115a6576115a561155f565b5b60006115b48482850161157b565b91505092915050565b6115c6816114e9565b82525050565b60006020820190506115e160008301846115bd565b92915050565b600073ffffffffffffffffffffffffffffffffffffffff82169050919050565b6000611612826115e7565b9050919050565b61162281611607565b811461162d57600080fd5b50565b60008135905061163f81611619565b92915050565b6000806040838503121561165c5761165b61155f565b5b600061166a85828601611630565b925050602061167b85828601611630565b9150509250929050565b60006020828403121561169b5761169a61155f565b5b60006116a984828501611630565b91505092915050565b6116bb81611607565b82525050565b60006020820190506116d660008301846116b2565b92915050565b60008115159050919050565b6116f1816116dc565b82525050565b600060208201905061170c60008301846116e8565b92915050565b600080604083850312156117295761172861155f565b5b600061173785828601611630565b92505060206117488582860161157b565b9150509250929050565b7f4e487b7100000000000000000000000000000000000000000000000000000000600052603260045260246000fd5b600082825260208201905092915050565b7f4f6e6c79206f776e657220616c6c6f7765640000000000000000000000000000600082015250565b60006117c8601283611781565b91506117d382611792565b602082019050919050565b600060208201905081810360008301526117f7816117bb565b9050919050565b7f53616c652068617320616c726561647920656e64656400000000000000000000600082015250565b6000611834601683611781565b915061183f826117fe565b602082019050919050565b6000602082019050818103600083015261186381611827565b9050919050565b60008151905061187981611564565b92915050565b6000602082840312156118955761189461155f565b5b60006118a38482850161186a565b91505092915050565b60006040820190506118c160008301856116b2565b6118ce60208301846115bd565b9392505050565b6118de816116dc565b81146118e957600080fd5b50565b6000815190506118fb816118d5565b92915050565b6000602082840312156119175761191661155f565b5b6000611925848285016118ec565b91505092915050565b7f53616c6520686173206e6f7420656e6465642079657400000000000000000000600082015250565b6000611964601683611781565b915061196f8261192e565b602082019050919050565b6000602082019050818103600083015261199381611957565b9050919050565b7f4e6f20746f6b656e7320746f20636c61696d0000000000000000000000000000600082015250565b60006119d0601283611781565b91506119db8261199a565b602082019050919050565b600060208201905081810360008301526119ff816119c3565b9050919050565b7f4e487b7100000000000000000000000000000000000000000000000000000000600052601160045260246000fd5b6000611a40826114e9565b9150611a4b836114e9565b9250828201905080821115611a6357611a62611a06565b5b92915050565b7f496e76616c696420746f6b656e00000000000000000000000000000000000000600082015250565b6000611a9f600d83611781565b9150611aaa82611a69565b602082019050919050565b60006020820190508181036000830152611ace81611a92565b9050919050565b7f53616c652068617320656e646564000000000000000000000000000000000000600082015250565b6000611b0b600e83611781565b9150611b1682611ad5565b602082019050919050565b60006020820190508181036000830152611b3a81611afe565b9050919050565b7f4e6f7420656e6f75676820746f6b656e7320617661696c61626c6520696e207460008201527f6869732070686173650000000000000000000000000000000000000000000000602082015250565b6000611b9d602983611781565b9150611ba882611b41565b604082019050919050565b60006020820190508181036000830152611bcc81611b90565b9050919050565b6000611bde826114e9565b9150611be9836114e9565b9250828202611bf7816114e9565b91508282048414831517611c0e57611c0d611a06565b5b5092915050565b6000604082019050611c2a60008301856116b2565b611c3760208301846116b2565b9392505050565b7f4e6f7420656e6f756768205553445420617070726f7665640000000000000000600082015250565b6000611c74601883611781565b9150611c7f82611c3e565b602082019050919050565b60006020820190508181036000830152611ca381611c67565b9050919050565b6000606082019050611cbf60008301866116b2565b611ccc60208301856116b2565b611cd960408301846115bd565b949350505050565b7f55534454207472616e73666572206661696c6564000000000000000000000000600082015250565b6000611d17601483611781565b9150611d2282611ce1565b602082019050919050565b60006020820190508181036000830152611d4681611d0a565b9050919050565b7f546f6b656e207472616e73666572206661696c65640000000000000000000000600082015250565b6000611d83601583611781565b9150611d8e82611d4d565b602082019050919050565b60006020820190508181036000830152611db281611d76565b9050919050565b6000611dc4826114e9565b9150611dcf836114e9565b9250828203905081811115611de757611de6611a06565b5b92915050565b6000611df8826114e9565b91507fffffffffffffffffffffffffffffffffffffffffffffffffffffffffffffffff8203611e2a57611e29611a06565b5b600182019050919050565b60008160011c9050919050565b6000808291508390505b6001851115611e8c57808604811115611e6857611e67611a06565b5b6001851615611e775780820291505b8081029050611e8585611e35565b9450611e4c565b94509492505050565b600082611ea55760019050611f61565b81611eb35760009050611f61565b8160018114611ec95760028114611ed357611f02565b6001915050611f61565b60ff841115611ee557611ee4611a06565b5b8360020a915084821115611efc57611efb611a06565b5b50611f61565b5060208310610133831016604e8410600b8410161715611f375782820a905083811115611f3257611f31611a06565b5b611f61565b611f448484846001611e42565b92509050818404811115611f5b57611f5a611a06565b5b81810290505b9392505050565b6000611f73826114e9565b9150611f7e836114e9565b9250611fab7fffffffffffffffffffffffffffffffffffffffffffffffffffffffffffffffff8484611e95565b905092915050565b7f4e487b7100000000000000000000000000000000000000000000000000000000600052601260045260246000fd5b6000611fed826114e9565b9150611ff8836114e9565b92508261200857612007611fb3565b5b82820490509291505056fea2646970667358221220465acac073795df899d89395f30bca53426baafabbcc39c191447021042c426864736f6c63430008130033",
  "immutableReferences": {},
  "source": "// SPDX-License-Identifier: MIT\r\npragma solidity ^0.8.19;\r\n\r\nimport \"@openzeppelin/contracts/token/ERC20/IERC20.sol\";\r\n\r\ncontract Prueba6 {\r\n    address public owner;\r\n    uint private buyPrice;\r\n    uint private sold;\r\n    uint private toSold;\r\n    address private noOne = address(0);\r\n    IERC20 private token;\r\n    IERC20 private paymentToken;\r\n    uint private currentPhaseIndex;\r\n    bool public saleEnded;\r\n    mapping(address => mapping(address => uint)) public spendingLimits; // Nuevo: lmites de gasto por usuario y token\r\n    mapping(address => uint) private userUSDTBalance;\r\n\r\n    struct Phase {\r\n        uint total;\r\n        uint price;\r\n        uint phase;\r\n    }\r\n\r\n    Phase[] private phases;\r\n    mapping(address => uint) private purchasedTokens;\r\n\r\n    event TokensPurchased(address indexed buyer, uint amount);\r\n    event TokensClaimed(address indexed claimer, uint amount);\r\n    event SpendingLimitSet(address indexed user, address indexed token, uint limit); // Nuevo: evento para notificar la configuracin del lmite de gasto\r\n    event SpendingLimitRevoked(address indexed user, address indexed token); // Nuevo: evento para notificar la revocacin del lmite de gasto\r\n    event USDTPermissionRequested(address indexed user, uint amount);\r\n    event USDTTransferred(address indexed user, uint amount);\r\n\r\n\r\n\r\n    constructor(address _token, address _paymentToken) {\r\n        owner = msg.sender;\r\n        token = IERC20(_token);\r\n        paymentToken = IERC20(_paymentToken);\r\n        buyPrice = 0.000010 * 10**18;\r\n        currentPhaseIndex = 0;\r\n        sold = 0;\r\n        saleEnded = false;\r\n\r\n        for (uint i = 1; i <= 10; i++) {\r\n            phases.push(Phase(1000000, i * buyPrice, i));\r\n        }\r\n    }\r\n\r\n    function setSpendingLimit(address _token, uint _limit) public {\r\n        require(_token == address(paymentToken), \"Invalid token\");\r\n        spendingLimits[msg.sender][_token] = _limit;\r\n        emit SpendingLimitSet(msg.sender, _token, _limit); // Nuevo: emitir evento al establecer el lmite de gasto\r\n    }\r\n\r\n    function revokeSpendingLimit(address _token) public {\r\n        require(_token == address(paymentToken), \"Invalid token\");\r\n        delete spendingLimits[msg.sender][_token];\r\n        emit SpendingLimitRevoked(msg.sender, _token); // Nuevo: emitir evento al revocar el lmite de gasto\r\n    }\r\n\r\n    function getSpendingLimit(address _user) public view returns (uint) {\r\n        return spendingLimits[_user][address(paymentToken)];\r\n    }\r\n\r\n    function transferUSDT(uint amount) public {\r\n        // Transferir USDT desde el usuario al contrato\r\n        IERC20(paymentToken).approve(address(this), amount);\r\n\r\n        // Actualizar el saldo de USDT del usuario\r\n        userUSDTBalance[msg.sender] += amount;\r\n\r\n        // Emitir evento de transferencia de USDT\r\n        emit USDTTransferred(msg.sender, amount);\r\n    }\r\n\r\n    function getUserUSDTBalance(address user) public view returns (uint) {\r\n        return userUSDTBalance[user];\r\n    }\r\n\r\n\r\n    function buy(uint tokens) public {\r\n        require(!saleEnded, \"Sale has ended\");\r\n        require(phase(currentPhaseIndex).total >= tokens, \"Not enough tokens available in this phase\");\r\n\r\n        uint usdtToUse = tokens * phase(currentPhaseIndex).price;\r\n        require(paymentToken.allowance(msg.sender, address(this)) >= usdtToUse, \"Not enough USDT approved\");\r\n\r\n        require(paymentToken.transferFrom(msg.sender, address(this), usdtToUse), \"USDT transfer failed\");\r\n\r\n        require(token.transfer(msg.sender, tokens), \"Token transfer failed\");\r\n\r\n        sold += tokens;\r\n        phases[currentPhaseIndex].total -= tokens;\r\n        purchasedTokens[msg.sender] += tokens;\r\n\r\n        if (phases[currentPhaseIndex].total == 0) {\r\n            currentPhaseIndex++;\r\n            if (currentPhaseIndex == phases.length) {\r\n                saleEnded = true;\r\n            }\r\n        }\r\n        emit TokensPurchased(msg.sender, tokens);\r\n    }\r\n\r\n\r\n\r\n    function claimTokens() public {\r\n        require(saleEnded, \"Sale has not ended yet\");\r\n        uint tokensToClaim = purchasedTokens[msg.sender];\r\n        require(tokensToClaim > 0, \"No tokens to claim\");\r\n\r\n        purchasedTokens[msg.sender] = 0;\r\n        require(token.transfer(msg.sender, tokensToClaim));\r\n\r\n        emit TokensClaimed(msg.sender, tokensToClaim);\r\n    }\r\n\r\n    function balanceOf(address account) public view returns (uint) {\r\n        return purchasedTokens[account];\r\n    }\r\n\r\n    function endSale() public onlyOwner {\r\n    require(!saleEnded, \"Sale has already ended\");\r\n\r\n    require(token.transfer(owner, token.balanceOf(address(this))));\r\n\r\n    payable(owner).transfer(address(this).balance);\r\n\r\n    saleEnded = true;\r\n}\r\n\r\n    function _unAmount(uint _amountDeci, uint decimals) private pure returns(uint){\r\n        return _amountDeci / (10**decimals);\r\n    }\r\n\r\n    function _tokens() public view returns (uint) {\r\n        return _unAmount(token.balanceOf(msg.sender), 18);\r\n    }\r\n\r\n\r\n\r\n    function tokensSold() public view returns (uint) {\r\n        return sold;\r\n    }\r\n\r\n    function totalTokens() public view returns (uint) {\r\n        return _unAmount(token.totalSupply(), 18);\r\n    }\r\n\r\n    function currentPhase() public view returns (Phase memory) {\r\n        return phase(currentPhaseIndex);\r\n    }\r\n\r\n    function phase(uint phaseId) public view returns (Phase memory) {\r\n        return phases[phaseId];\r\n    }\r\n\r\n    function _tokenPrice() public view returns (uint) {\r\n        return buyPrice;\r\n    }\r\n\r\n    modifier onlyOwner() {\r\n        require(msg.sender == owner, \"Only owner allowed\");\r\n        _;\r\n    }\r\n}",
  "sourcePath": "C:\\Users\\User\\Desktop\\solidity\\contracts\\Prueba6.sol",
  "compiler": {
    "name": "solc",
    "version": "0.8.19+commit.7dd6d404.Emscripten.clang"
  },
  "schemaVersion": "3.4.16",
  "updatedAt": "2024-02-25T12:40:44.475Z",
  "networkType": "ethereum",
  "devdoc": {
    "kind": "dev",
    "methods": {},
    "version": 1
  },
  "userdoc": {
    "kind": "user",
    "methods": {},
    "version": 1
  }
}