{
  "contractName": "SalesOficialUnityPrueba5",
  "abi": [
    {
      "inputs": [
        {
          "internalType": "address",
          "name": "_token",
          "type": "address"
        },
        {
          "internalType": "address",
          "name": "_paymentToken",
          "type": "address"
        }
      ],
      "stateMutability": "nonpayable",
      "type": "constructor"
    },
    {
      "anonymous": false,
      "inputs": [
        {
          "indexed": true,
          "internalType": "address",
          "name": "claimer",
          "type": "address"
        },
        {
          "indexed": false,
          "internalType": "uint256",
          "name": "amount",
          "type": "uint256"
        }
      ],
      "name": "TokensClaimed",
      "type": "event"
    },
    {
      "anonymous": false,
      "inputs": [
        {
          "indexed": true,
          "internalType": "address",
          "name": "buyer",
          "type": "address"
        },
        {
          "indexed": false,
          "internalType": "uint256",
          "name": "amount",
          "type": "uint256"
        }
      ],
      "name": "TokensPurchased",
      "type": "event"
    },
    {
      "anonymous": false,
      "inputs": [
        {
          "indexed": true,
          "internalType": "address",
          "name": "claimer",
          "type": "address"
        },
        {
          "indexed": false,
          "internalType": "uint256",
          "name": "amount",
          "type": "uint256"
        }
      ],
      "name": "USDTClaimed",
      "type": "event"
    },
    {
      "inputs": [],
      "name": "owner",
      "outputs": [
        {
          "internalType": "address",
          "name": "",
          "type": "address"
        }
      ],
      "stateMutability": "view",
      "type": "function",
      "constant": true
    },
    {
      "inputs": [],
      "name": "saleEnded",
      "outputs": [
        {
          "internalType": "bool",
          "name": "",
          "type": "bool"
        }
      ],
      "stateMutability": "view",
      "type": "function",
      "constant": true
    },
    {
      "inputs": [
        {
          "internalType": "uint256",
          "name": "tokens",
          "type": "uint256"
        }
      ],
      "name": "buy",
      "outputs": [],
      "stateMutability": "nonpayable",
      "type": "function"
    },
    {
      "inputs": [],
      "name": "checkTimePhase",
      "outputs": [
        {
          "internalType": "uint256",
          "name": "",
          "type": "uint256"
        }
      ],
      "stateMutability": "view",
      "type": "function",
      "constant": true
    },
    {
      "inputs": [],
      "name": "switchPhase",
      "outputs": [],
      "stateMutability": "nonpayable",
      "type": "function"
    },
    {
      "inputs": [],
      "name": "claimUSDT",
      "outputs": [],
      "stateMutability": "nonpayable",
      "type": "function"
    },
    {
      "inputs": [],
      "name": "claimTokens",
      "outputs": [],
      "stateMutability": "nonpayable",
      "type": "function"
    },
    {
      "inputs": [
        {
          "internalType": "address",
          "name": "account",
          "type": "address"
        }
      ],
      "name": "balanceOf",
      "outputs": [
        {
          "internalType": "uint256",
          "name": "",
          "type": "uint256"
        }
      ],
      "stateMutability": "view",
      "type": "function",
      "constant": true
    },
    {
      "inputs": [],
      "name": "endSale",
      "outputs": [],
      "stateMutability": "nonpayable",
      "type": "function"
    },
    {
      "inputs": [],
      "name": "_tokens",
      "outputs": [
        {
          "internalType": "uint256",
          "name": "",
          "type": "uint256"
        }
      ],
      "stateMutability": "view",
      "type": "function",
      "constant": true
    },
    {
      "inputs": [],
      "name": "tokensSold",
      "outputs": [
        {
          "internalType": "uint256",
          "name": "",
          "type": "uint256"
        }
      ],
      "stateMutability": "view",
      "type": "function",
      "constant": true
    },
    {
      "inputs": [],
      "name": "totalTokens",
      "outputs": [
        {
          "internalType": "uint256",
          "name": "",
          "type": "uint256"
        }
      ],
      "stateMutability": "view",
      "type": "function",
      "constant": true
    },
    {
      "inputs": [],
      "name": "currentPhase",
      "outputs": [
        {
          "components": [
            {
              "internalType": "uint256",
              "name": "total",
              "type": "uint256"
            },
            {
              "internalType": "uint256",
              "name": "price",
              "type": "uint256"
            },
            {
              "internalType": "uint256",
              "name": "phase",
              "type": "uint256"
            }
          ],
          "internalType": "struct SalesOficialUnityPrueba5.Phase",
          "name": "",
          "type": "tuple"
        },
        {
          "internalType": "uint256",
          "name": "",
          "type": "uint256"
        }
      ],
      "stateMutability": "view",
      "type": "function",
      "constant": true
    },
    {
      "inputs": [
        {
          "internalType": "uint256",
          "name": "phaseId",
          "type": "uint256"
        }
      ],
      "name": "phase",
      "outputs": [
        {
          "components": [
            {
              "internalType": "uint256",
              "name": "total",
              "type": "uint256"
            },
            {
              "internalType": "uint256",
              "name": "price",
              "type": "uint256"
            },
            {
              "internalType": "uint256",
              "name": "phase",
              "type": "uint256"
            }
          ],
          "internalType": "struct SalesOficialUnityPrueba5.Phase",
          "name": "",
          "type": "tuple"
        }
      ],
      "stateMutability": "view",
      "type": "function",
      "constant": true
    },
    {
      "inputs": [],
      "name": "_tokenPrice",
      "outputs": [
        {
          "internalType": "uint256",
          "name": "",
          "type": "uint256"
        }
      ],
      "stateMutability": "view",
      "type": "function",
      "constant": true
    }
  ],
  "bytecode": "0x608060405262200b2060095562602160600b553480156200001f57600080fd5b50604051620023b7380380620023b78339818101604052810190620000459190620002b2565b336000806101000a81548173ffffffffffffffffffffffffffffffffffffffff021916908373ffffffffffffffffffffffffffffffffffffffff16021790555081600460006101000a81548173ffffffffffffffffffffffffffffffffffffffff021916908373ffffffffffffffffffffffffffffffffffffffff16021790555080600560006101000a81548173ffffffffffffffffffffffffffffffffffffffff021916908373ffffffffffffffffffffffffffffffffffffffff160217905550600060068190555060006002819055506000600760006101000a81548160ff0219169083151502179055506721077563e56e00006001819055504260088190555060005b60038110156200023f5760008082146200017957600182146200017057600062000173565b600a5b6200017c565b60145b60ff1690506000606482606462000194919062000332565b600154620001a391906200036d565b620001af9190620003e7565b9050600c60405180606001604052806009548152602001838152602001600186620001db91906200041f565b815250908060018154018082558091505060019003906000526020600020906003020160009091909190915060008201518160000155602082015181600101556040820151816002015550505050808062000236906200045a565b9150506200014b565b505050620004a7565b600080fd5b600073ffffffffffffffffffffffffffffffffffffffff82169050919050565b60006200027a826200024d565b9050919050565b6200028c816200026d565b81146200029857600080fd5b50565b600081519050620002ac8162000281565b92915050565b60008060408385031215620002cc57620002cb62000248565b5b6000620002dc858286016200029b565b9250506020620002ef858286016200029b565b9150509250929050565b6000819050919050565b7f4e487b7100000000000000000000000000000000000000000000000000000000600052601160045260246000fd5b60006200033f82620002f9565b91506200034c83620002f9565b925082820390508181111562000367576200036662000303565b5b92915050565b60006200037a82620002f9565b91506200038783620002f9565b92508282026200039781620002f9565b91508282048414831517620003b157620003b062000303565b5b5092915050565b7f4e487b7100000000000000000000000000000000000000000000000000000000600052601260045260246000fd5b6000620003f482620002f9565b91506200040183620002f9565b925082620004145762000413620003b8565b5b828204905092915050565b60006200042c82620002f9565b91506200043983620002f9565b925082820190508082111562000454576200045362000303565b5b92915050565b60006200046782620002f9565b91507fffffffffffffffffffffffffffffffffffffffffffffffffffffffffffffffff82036200049c576200049b62000303565b5b600182019050919050565b611f0080620004b76000396000f3fe608060405234801561001057600080fd5b50600436106100f55760003560e01c80637564ac38116100975780638da5cb5b116100665780638da5cb5b1461022d5780639b8906ae1461024b578063ab0eb62d14610269578063d96a094a14610273576100f5565b80637564ac38146101c95780637e1c0c09146101d357806382cf291d146101f15780638970d84c1461020f576100f5565b80633b971f9f116100d35780633b971f9f1461015357806348c54b9d14610171578063518ab2a81461017b57806370a0823114610199576100f5565b8063055ad42e146100fa578063135f8aa714610119578063380d831b14610149575b600080fd5b61010261028f565b6040516101109291906113f5565b60405180910390f35b610133600480360381019061012e919061144f565b61036c565b604051610140919061147c565b60405180910390f35b6101516103c6565b005b61015b610692565b6040516101689190611497565b60405180910390f35b61017961069c565b005b6101836108fa565b6040516101909190611497565b60405180910390f35b6101b360048036038101906101ae9190611510565b610904565b6040516101c09190611497565b60405180910390f35b6101d161094d565b005b6101db610c2e565b6040516101e89190611497565b60405180910390f35b6101f9610cd1565b6040516102069190611497565b60405180910390f35b610217610d04565b6040516102249190611497565b60405180910390f35b610235610db1565b604051610242919061154c565b60405180910390f35b610253610dd5565b6040516102609190611582565b60405180910390f35b610271610de8565b005b61028d6004803603810190610288919061144f565b610f5a565b005b61029761136a565b6000600c80549050600654101561030457600c600654815481106102be576102bd61159d565b5b9060005260206000209060030201600254816040518060600160405290816000820154815260200160018201548152602001600282015481525050915091509150610368565b600c600160065461031591906115fb565b815481106103265761032561159d565b5b90600052602060002090600302016002548160405180606001604052908160008201548152602001600182015481526020016002820154815250509150915091505b9091565b61037461136a565b600c82815481106103885761038761159d565b5b906000526020600020906003020160405180606001604052908160008201548152602001600182015481526020016002820154815250509050919050565b60008054906101000a900473ffffffffffffffffffffffffffffffffffffffff1673ffffffffffffffffffffffffffffffffffffffff163373ffffffffffffffffffffffffffffffffffffffff1614610454576040517f08c379a000000000000000000000000000000000000000000000000000000000815260040161044b9061168c565b60405180910390fd5b600760009054906101000a900460ff16156104a4576040517f08c379a000000000000000000000000000000000000000000000000000000000815260040161049b906116f8565b60405180910390fd5b6000600354600b546104b691906115fb565b9050600081116104fb576040517f08c379a00000000000000000000000000000000000000000000000000000000081526004016104f290611764565b60405180910390fd5b600460009054906101000a900473ffffffffffffffffffffffffffffffffffffffff1673ffffffffffffffffffffffffffffffffffffffff1663a9059cbb60008054906101000a900473ffffffffffffffffffffffffffffffffffffffff16670de0b6b3a76400008461056e9190611784565b6040518363ffffffff1660e01b815260040161058b9291906117c6565b6020604051808303816000875af11580156105aa573d6000803e3d6000fd5b505050506040513d601f19601f820116820180604052508101906105ce919061181b565b61060d576040517f08c379a000000000000000000000000000000000000000000000000000000000815260040161060490611894565b60405180910390fd5b60008054906101000a900473ffffffffffffffffffffffffffffffffffffffff1673ffffffffffffffffffffffffffffffffffffffff166108fc479081150290604051600060405180830381858888f19350505050158015610673573d6000803e3d6000fd5b506001600760006101000a81548160ff02191690831515021790555050565b6000600154905090565b600760009054906101000a900460ff166106eb576040517f08c379a00000000000000000000000000000000000000000000000000000000081526004016106e290611900565b60405180910390fd5b6000600d60003373ffffffffffffffffffffffffffffffffffffffff1673ffffffffffffffffffffffffffffffffffffffff16815260200190815260200160002054905060008111610772576040517f08c379a00000000000000000000000000000000000000000000000000000000081526004016107699061196c565b60405180910390fd5b600460009054906101000a900473ffffffffffffffffffffffffffffffffffffffff1673ffffffffffffffffffffffffffffffffffffffff1663a9059cbb33670de0b6b3a7640000846107c59190611784565b6040518363ffffffff1660e01b81526004016107e29291906117c6565b6020604051808303816000875af1158015610801573d6000803e3d6000fd5b505050506040513d601f19601f82011682018060405250810190610825919061181b565b610864576040517f08c379a000000000000000000000000000000000000000000000000000000000815260040161085b90611894565b60405180910390fd5b6000600d60003373ffffffffffffffffffffffffffffffffffffffff1673ffffffffffffffffffffffffffffffffffffffff168152602001908152602001600020819055503373ffffffffffffffffffffffffffffffffffffffff167f896e034966eaaf1adc54acc0f257056febbd300c9e47182cf761982cf1f5e430826040516108ef9190611497565b60405180910390a250565b6000600354905090565b6000600d60008373ffffffffffffffffffffffffffffffffffffffff1673ffffffffffffffffffffffffffffffffffffffff168152602001908152602001600020549050919050565b60008054906101000a900473ffffffffffffffffffffffffffffffffffffffff1673ffffffffffffffffffffffffffffffffffffffff163373ffffffffffffffffffffffffffffffffffffffff16146109db576040517f08c379a00000000000000000000000000000000000000000000000000000000081526004016109d29061168c565b60405180910390fd5b6000600560009054906101000a900473ffffffffffffffffffffffffffffffffffffffff1673ffffffffffffffffffffffffffffffffffffffff166370a08231306040518263ffffffff1660e01b8152600401610a38919061154c565b602060405180830381865afa158015610a55573d6000803e3d6000fd5b505050506040513d601f19601f82011682018060405250810190610a7991906119a1565b905060008111610abe576040517f08c379a0000000000000000000000000000000000000000000000000000000008152600401610ab590611a1a565b60405180910390fd5b600560009054906101000a900473ffffffffffffffffffffffffffffffffffffffff1673ffffffffffffffffffffffffffffffffffffffff1663a9059cbb60008054906101000a900473ffffffffffffffffffffffffffffffffffffffff16836040518363ffffffff1660e01b8152600401610b3b9291906117c6565b6020604051808303816000875af1158015610b5a573d6000803e3d6000fd5b505050506040513d601f19601f82011682018060405250810190610b7e919061181b565b610bbd576040517f08c379a0000000000000000000000000000000000000000000000000000000008152600401610bb490611a86565b60405180910390fd5b60008054906101000a900473ffffffffffffffffffffffffffffffffffffffff1673ffffffffffffffffffffffffffffffffffffffff167fd8586e2908b066734aa99c1f0ca84f5c35634029ecc070d55927f19b10445a4782604051610c239190611497565b60405180910390a250565b6000600460009054906101000a900473ffffffffffffffffffffffffffffffffffffffff1673ffffffffffffffffffffffffffffffffffffffff166370a08231306040518263ffffffff1660e01b8152600401610c8b919061154c565b602060405180830381865afa158015610ca8573d6000803e3d6000fd5b505050506040513d601f19601f82011682018060405250810190610ccc91906119a1565b905090565b6000806102589050600042905060008183600854610cef9190611aa6565b610cf991906115fb565b905080935050505090565b6000610dac600460009054906101000a900473ffffffffffffffffffffffffffffffffffffffff1673ffffffffffffffffffffffffffffffffffffffff166370a08231336040518263ffffffff1660e01b8152600401610d64919061154c565b602060405180830381865afa158015610d81573d6000803e3d6000fd5b505050506040513d601f19601f82011682018060405250810190610da591906119a1565b6012611348565b905090565b60008054906101000a900473ffffffffffffffffffffffffffffffffffffffff1681565b600760009054906101000a900460ff1681565b60008054906101000a900473ffffffffffffffffffffffffffffffffffffffff1673ffffffffffffffffffffffffffffffffffffffff163373ffffffffffffffffffffffffffffffffffffffff1614610e76576040517f08c379a0000000000000000000000000000000000000000000000000000000008152600401610e6d9061168c565b60405180910390fd5b600061025890506000429050600060085482610e9291906115fb565b90506000600254600c60065481548110610eaf57610eae61159d565b5b906000526020600020906003020160000154610ecb91906115fb565b9050838210610f5457600060028190555060066000815480929190610eef90611ada565b9190505550826008819055506000600654118015610f0f57506003600654105b15610f535780600c60065481548110610f2b57610f2a61159d565b5b90600052602060002090600302016000016000828254610f4b9190611aa6565b925050819055505b5b50505050565b600760009054906101000a900460ff1615610faa576040517f08c379a0000000000000000000000000000000000000000000000000000000008152600401610fa190611b6e565b60405180910390fd5b80600254610fb960065461036c565b60000151610fc791906115fb565b1015611008576040517f08c379a0000000000000000000000000000000000000000000000000000000008152600401610fff90611c00565b60405180910390fd5b600061101560065461036c565b60200151826110249190611784565b905080600560009054906101000a900473ffffffffffffffffffffffffffffffffffffffff1673ffffffffffffffffffffffffffffffffffffffff1663dd62ed3e33306040518363ffffffff1660e01b8152600401611084929190611c20565b602060405180830381865afa1580156110a1573d6000803e3d6000fd5b505050506040513d601f19601f820116820180604052508101906110c591906119a1565b1015611106576040517f08c379a00000000000000000000000000000000000000000000000000000000081526004016110fd90611c95565b60405180910390fd5b600560009054906101000a900473ffffffffffffffffffffffffffffffffffffffff1673ffffffffffffffffffffffffffffffffffffffff166323b872dd3330846040518463ffffffff1660e01b815260040161116593929190611cb5565b6020604051808303816000875af1158015611184573d6000803e3d6000fd5b505050506040513d601f19601f820116820180604052508101906111a8919061181b565b6111e7576040517f08c379a00000000000000000000000000000000000000000000000000000000081526004016111de90611a86565b60405180910390fd5b81600260008282546111f99190611aa6565b9250508190555081600360008282546112129190611aa6565b9250508190555081600d60003373ffffffffffffffffffffffffffffffffffffffff1673ffffffffffffffffffffffffffffffffffffffff16815260200190815260200160002060008282546112689190611aa6565b92505081905550600254600c600654815481106112885761128761159d565b5b906000526020600020906003020160000154036112f657600660008154809291906112b290611ada565b919050555042600881905550600c80549050600654036112ec576001600760006101000a81548160ff0219169083151502179055506112f5565b60006002819055505b5b3373ffffffffffffffffffffffffffffffffffffffff167f8f28852646c20cc973d3a8218f7eefed58c25c909f78f0265af4818c3d4dc2718360405161133c9190611497565b60405180910390a25050565b600081600a6113579190611e1f565b836113629190611e99565b905092915050565b60405180606001604052806000815260200160008152602001600081525090565b6000819050919050565b61139e8161138b565b82525050565b6060820160008201516113ba6000850182611395565b5060208201516113cd6020850182611395565b5060408201516113e06040850182611395565b50505050565b6113ef8161138b565b82525050565b600060808201905061140a60008301856113a4565b61141760608301846113e6565b9392505050565b600080fd5b61142c8161138b565b811461143757600080fd5b50565b60008135905061144981611423565b92915050565b6000602082840312156114655761146461141e565b5b60006114738482850161143a565b91505092915050565b600060608201905061149160008301846113a4565b92915050565b60006020820190506114ac60008301846113e6565b92915050565b600073ffffffffffffffffffffffffffffffffffffffff82169050919050565b60006114dd826114b2565b9050919050565b6114ed816114d2565b81146114f857600080fd5b50565b60008135905061150a816114e4565b92915050565b6000602082840312156115265761152561141e565b5b6000611534848285016114fb565b91505092915050565b611546816114d2565b82525050565b6000602082019050611561600083018461153d565b92915050565b60008115159050919050565b61157c81611567565b82525050565b60006020820190506115976000830184611573565b92915050565b7f4e487b7100000000000000000000000000000000000000000000000000000000600052603260045260246000fd5b7f4e487b7100000000000000000000000000000000000000000000000000000000600052601160045260246000fd5b60006116068261138b565b91506116118361138b565b9250828203905081811115611629576116286115cc565b5b92915050565b600082825260208201905092915050565b7f4f6e6c79206f776e657220616c6c6f7765640000000000000000000000000000600082015250565b600061167660128361162f565b915061168182611640565b602082019050919050565b600060208201905081810360008301526116a581611669565b9050919050565b7f53616c652068617320616c726561647920656e64656400000000000000000000600082015250565b60006116e260168361162f565b91506116ed826116ac565b602082019050919050565b60006020820190508181036000830152611711816116d5565b9050919050565b7f4e6f2072656d61696e696e6720746f6b656e7320746f207472616e7366657200600082015250565b600061174e601f8361162f565b915061175982611718565b602082019050919050565b6000602082019050818103600083015261177d81611741565b9050919050565b600061178f8261138b565b915061179a8361138b565b92508282026117a88161138b565b915082820484148315176117bf576117be6115cc565b5b5092915050565b60006040820190506117db600083018561153d565b6117e860208301846113e6565b9392505050565b6117f881611567565b811461180357600080fd5b50565b600081519050611815816117ef565b92915050565b6000602082840312156118315761183061141e565b5b600061183f84828501611806565b91505092915050565b7f546f6b656e207472616e73666572206661696c65640000000000000000000000600082015250565b600061187e60158361162f565b915061188982611848565b602082019050919050565b600060208201905081810360008301526118ad81611871565b9050919050565b7f53616c6520686173206e6f7420656e6465642079657400000000000000000000600082015250565b60006118ea60168361162f565b91506118f5826118b4565b602082019050919050565b60006020820190508181036000830152611919816118dd565b9050919050565b7f4e6f20746f6b656e7320746f20636c61696d0000000000000000000000000000600082015250565b600061195660128361162f565b915061196182611920565b602082019050919050565b6000602082019050818103600083015261198581611949565b9050919050565b60008151905061199b81611423565b92915050565b6000602082840312156119b7576119b661141e565b5b60006119c58482850161198c565b91505092915050565b7f4e6f205553445420746f20636c61696d00000000000000000000000000000000600082015250565b6000611a0460108361162f565b9150611a0f826119ce565b602082019050919050565b60006020820190508181036000830152611a33816119f7565b9050919050565b7f55534454207472616e73666572206661696c6564000000000000000000000000600082015250565b6000611a7060148361162f565b9150611a7b82611a3a565b602082019050919050565b60006020820190508181036000830152611a9f81611a63565b9050919050565b6000611ab18261138b565b9150611abc8361138b565b9250828201905080821115611ad457611ad36115cc565b5b92915050565b6000611ae58261138b565b91507fffffffffffffffffffffffffffffffffffffffffffffffffffffffffffffffff8203611b1757611b166115cc565b5b600182019050919050565b7f53616c652068617320656e646564000000000000000000000000000000000000600082015250565b6000611b58600e8361162f565b9150611b6382611b22565b602082019050919050565b60006020820190508181036000830152611b8781611b4b565b9050919050565b7f4e6f7420656e6f75676820746f6b656e7320617661696c61626c6520696e207460008201527f6869732070686173650000000000000000000000000000000000000000000000602082015250565b6000611bea60298361162f565b9150611bf582611b8e565b604082019050919050565b60006020820190508181036000830152611c1981611bdd565b9050919050565b6000604082019050611c35600083018561153d565b611c42602083018461153d565b9392505050565b7f4e6f7420656e6f756768205553445420617070726f7665640000000000000000600082015250565b6000611c7f60188361162f565b9150611c8a82611c49565b602082019050919050565b60006020820190508181036000830152611cae81611c72565b9050919050565b6000606082019050611cca600083018661153d565b611cd7602083018561153d565b611ce460408301846113e6565b949350505050565b60008160011c9050919050565b6000808291508390505b6001851115611d4357808604811115611d1f57611d1e6115cc565b5b6001851615611d2e5780820291505b8081029050611d3c85611cec565b9450611d03565b94509492505050565b600082611d5c5760019050611e18565b81611d6a5760009050611e18565b8160018114611d805760028114611d8a57611db9565b6001915050611e18565b60ff841115611d9c57611d9b6115cc565b5b8360020a915084821115611db357611db26115cc565b5b50611e18565b5060208310610133831016604e8410600b8410161715611dee5782820a905083811115611de957611de86115cc565b5b611e18565b611dfb8484846001611cf9565b92509050818404811115611e1257611e116115cc565b5b81810290505b9392505050565b6000611e2a8261138b565b9150611e358361138b565b9250611e627fffffffffffffffffffffffffffffffffffffffffffffffffffffffffffffffff8484611d4c565b905092915050565b7f4e487b7100000000000000000000000000000000000000000000000000000000600052601260045260246000fd5b6000611ea48261138b565b9150611eaf8361138b565b925082611ebf57611ebe611e6a565b5b82820490509291505056fea264697066735822122088d7e90a09a7a2f9cbf6beba17832bdd794cca2a6a586b64b9d2e6b94cc46df564736f6c63430008130033",
  "immutableReferences": {},
  "source": "// SPDX-License-Identifier: MIT\r\npragma solidity ^0.8.19;\r\n\r\nimport \"@openzeppelin/contracts/token/ERC20/IERC20.sol\";\r\n\r\ncontract SalesOficialUnityPrueba5 {\r\n    address public owner;\r\n    uint private buyPrice;\r\n    uint private sold;\r\n    uint private totalTokensSold;\r\n    IERC20 private token;\r\n    IERC20 private paymentToken;\r\n    uint private currentPhaseIndex;\r\n    bool public saleEnded;\r\n    uint private phaseStartTime; \r\n    uint private phaseTarget = 2.1 * 10 ** 6; \r\n    uint private unsoldTokens;\r\n    uint private totalTokenscontract = 6.3 * 10 ** 6;\r\n\r\n    struct Phase {\r\n        uint total;\r\n        uint price;\r\n        uint phase;\r\n    }\r\n\r\n    Phase[] private phases;\r\n    mapping(address => uint) private purchasedTokens;\r\n\r\n    event TokensPurchased(address indexed buyer, uint amount);\r\n    event TokensClaimed(address indexed claimer, uint amount);\r\n    event USDTClaimed(address indexed claimer, uint amount);\r\n\r\n\r\n\r\n    constructor(address _token, address _paymentToken) {\r\n        owner = msg.sender;\r\n        token = IERC20(_token);\r\n        paymentToken = IERC20(_paymentToken);\r\n        currentPhaseIndex = 0;\r\n        sold = 0;\r\n        saleEnded = false;\r\n\r\n        buyPrice = 2.38 * 10 ** 18; // ajustar segun decimales del token USDT\r\n        phaseStartTime = block.timestamp;\r\n\r\n        for (uint i = 0; i < 3; i++) {\r\n            uint discountPercentage = (i == 0) ? 20 : (i == 1) ? 10 : 0;\r\n            uint discountedPrice = (buyPrice * (100 - discountPercentage)) / 100;\r\n            phases.push(Phase(phaseTarget, discountedPrice, i + 1));\r\n        }\r\n    }\r\n\r\n\r\n    function buy(uint tokens) public {\r\n        require(!saleEnded, \"Sale has ended\");\r\n        require(phase(currentPhaseIndex).total-sold >= tokens, \"Not enough tokens available in this phase\");\r\n\r\n        uint usdtToUse = tokens * phase(currentPhaseIndex).price;\r\n        require(paymentToken.allowance(msg.sender, address(this)) >= usdtToUse, \"Not enough USDT approved\");\r\n\r\n        require(paymentToken.transferFrom(msg.sender, address(this), usdtToUse), \"USDT transfer failed\");\r\n\r\n        sold += tokens;\r\n        totalTokensSold += tokens;\r\n        purchasedTokens[msg.sender] += tokens;\r\n\r\n        if (phases[currentPhaseIndex].total == sold) {\r\n            currentPhaseIndex++;\r\n            phaseStartTime = block.timestamp;\r\n            if (currentPhaseIndex == phases.length) {\r\n                saleEnded = true;\r\n            }\r\n            else sold = 0;\r\n        }\r\n        emit TokensPurchased(msg.sender, tokens);\r\n    }\r\n\r\n    function checkTimePhase() public view returns (uint) {\r\n        uint regressive = 600;\r\n        uint currentTime = block.timestamp;\r\n    \r\n        uint timeElapsed = phaseStartTime + regressive - currentTime; \r\n    \r\n        return timeElapsed; \r\n    }\r\n\r\n    function switchPhase() public onlyOwner() {\r\n        uint regressive = 600; \r\n        uint currentTime = block.timestamp;\r\n        uint timeElapsed = currentTime - phaseStartTime;\r\n        uint remainingTokens = phases[currentPhaseIndex].total - sold;\r\n\r\n        if (timeElapsed >= regressive) {\r\n            sold = 0;\r\n            currentPhaseIndex++; \r\n            phaseStartTime = currentTime; \r\n\r\n        \r\n            if (currentPhaseIndex > 0 && currentPhaseIndex < 3) {\r\n                phases[currentPhaseIndex].total += remainingTokens;\r\n            }\r\n        }\r\n    }\r\n\r\n    function claimUSDT() public onlyOwner {\r\n        uint amount = paymentToken.balanceOf(address(this)); \r\n        require(amount > 0, \"No USDT to claim\"); \r\n        require(paymentToken.transfer(owner, amount), \"USDT transfer failed\"); \r\n        emit USDTClaimed(owner, amount); \r\n    }\r\n\r\n\r\n\r\n\r\n    function claimTokens() public {\r\n        require(saleEnded, \"Sale has not ended yet\");\r\n        uint tokensToClaim = purchasedTokens[msg.sender];\r\n        require(tokensToClaim > 0, \"No tokens to claim\");\r\n\r\n        require(token.transfer(msg.sender, tokensToClaim * 10 ** 18), \"Token transfer failed\"); // ajustar segun decimales del token UNITY\r\n        purchasedTokens[msg.sender] = 0;\r\n\r\n        emit TokensClaimed(msg.sender, tokensToClaim);\r\n    }\r\n\r\n    function balanceOf(address account) public view returns (uint) {\r\n        return purchasedTokens[account];\r\n    }\r\n\r\n    function endSale() public onlyOwner {\r\n        require(!saleEnded, \"Sale has already ended\");\r\n\r\n        uint remainingTokens = totalTokenscontract - totalTokensSold;\r\n\r\n        require(remainingTokens > 0, \"No remaining tokens to transfer\");\r\n\r\n        require(token.transfer(owner, remainingTokens * 10 ** 18), \"Token transfer failed\");\r\n\r\n        payable(owner).transfer(address(this).balance);\r\n\r\n        saleEnded = true;\r\n    }\r\n\r\n\r\n\r\n    function _unAmount(uint _amountDeci, uint decimals) private pure returns(uint){\r\n        return _amountDeci / (10**decimals);\r\n    }\r\n\r\n    function _tokens() public view returns (uint) {\r\n        return _unAmount(token.balanceOf(msg.sender), 18);\r\n    }\r\n\r\n\r\n\r\n    function tokensSold() public view returns (uint) {\r\n        return totalTokensSold;\r\n    }\r\n\r\n    function totalTokens() public view returns (uint) {\r\n        return token.balanceOf(address(this));\r\n    }\r\n\r\n    function currentPhase() public view returns (Phase memory, uint) {\r\n        if (currentPhaseIndex < phases.length) {\r\n            return (phases[currentPhaseIndex], sold);\r\n        }else {\r\n            return (phases[currentPhaseIndex - 1], sold);    \r\n        }\r\n    }\r\n\r\n    function phase(uint phaseId) public view returns (Phase memory) {\r\n        return phases[phaseId];\r\n    }\r\n\r\n    function _tokenPrice() public view returns (uint) {\r\n        return buyPrice;\r\n    }\r\n\r\n    modifier onlyOwner() {\r\n        require(msg.sender == owner, \"Only owner allowed\");\r\n        _;\r\n    }\r\n}",
  "sourcePath": "C:\\Users\\User\\Desktop\\solidity\\contracts\\SalesOficialUnityPrueba5.sol",
  "compiler": {
    "name": "solc",
    "version": "0.8.19+commit.7dd6d404.Emscripten.clang"
  },
  "schemaVersion": "3.4.16",
  "updatedAt": "2024-03-13T13:37:10.113Z",
  "networkType": "ethereum",
  "devdoc": {
    "kind": "dev",
    "methods": {},
    "version": 1
  },
  "userdoc": {
    "kind": "user",
    "methods": {},
    "version": 1
  }
}