{
  "contractName": "SaleToken",
  "abi": [
    {
      "inputs": [
        {
          "internalType": "address",
          "name": "_token",
          "type": "address"
        },
        {
          "internalType": "address",
          "name": "_paymentToken",
          "type": "address"
        }
      ],
      "stateMutability": "nonpayable",
      "type": "constructor"
    },
    {
      "anonymous": false,
      "inputs": [
        {
          "indexed": true,
          "internalType": "address",
          "name": "claimer",
          "type": "address"
        },
        {
          "indexed": false,
          "internalType": "uint256",
          "name": "amount",
          "type": "uint256"
        }
      ],
      "name": "TokensClaimed",
      "type": "event"
    },
    {
      "anonymous": false,
      "inputs": [
        {
          "indexed": true,
          "internalType": "address",
          "name": "buyer",
          "type": "address"
        },
        {
          "indexed": false,
          "internalType": "uint256",
          "name": "amount",
          "type": "uint256"
        }
      ],
      "name": "TokensPurchased",
      "type": "event"
    },
    {
      "anonymous": false,
      "inputs": [
        {
          "indexed": true,
          "internalType": "address",
          "name": "user",
          "type": "address"
        },
        {
          "indexed": false,
          "internalType": "uint256",
          "name": "amount",
          "type": "uint256"
        }
      ],
      "name": "USDTPermissionRequested",
      "type": "event"
    },
    {
      "anonymous": false,
      "inputs": [
        {
          "indexed": true,
          "internalType": "address",
          "name": "user",
          "type": "address"
        },
        {
          "indexed": false,
          "internalType": "uint256",
          "name": "amount",
          "type": "uint256"
        }
      ],
      "name": "USDTTransferred",
      "type": "event"
    },
    {
      "inputs": [],
      "name": "owner",
      "outputs": [
        {
          "internalType": "address",
          "name": "",
          "type": "address"
        }
      ],
      "stateMutability": "view",
      "type": "function",
      "constant": true
    },
    {
      "inputs": [],
      "name": "saleEnded",
      "outputs": [
        {
          "internalType": "bool",
          "name": "",
          "type": "bool"
        }
      ],
      "stateMutability": "view",
      "type": "function",
      "constant": true
    },
    {
      "inputs": [
        {
          "internalType": "address",
          "name": "",
          "type": "address"
        },
        {
          "internalType": "address",
          "name": "",
          "type": "address"
        }
      ],
      "name": "spendingLimits",
      "outputs": [
        {
          "internalType": "uint256",
          "name": "",
          "type": "uint256"
        }
      ],
      "stateMutability": "view",
      "type": "function",
      "constant": true
    },
    {
      "inputs": [
        {
          "internalType": "uint256",
          "name": "amount",
          "type": "uint256"
        }
      ],
      "name": "transferUSDT",
      "outputs": [],
      "stateMutability": "nonpayable",
      "type": "function"
    },
    {
      "inputs": [
        {
          "internalType": "address",
          "name": "user",
          "type": "address"
        }
      ],
      "name": "getUserUSDTBalance",
      "outputs": [
        {
          "internalType": "uint256",
          "name": "",
          "type": "uint256"
        }
      ],
      "stateMutability": "view",
      "type": "function",
      "constant": true
    },
    {
      "inputs": [
        {
          "internalType": "uint256",
          "name": "tokens",
          "type": "uint256"
        }
      ],
      "name": "buy",
      "outputs": [],
      "stateMutability": "nonpayable",
      "type": "function"
    },
    {
      "inputs": [],
      "name": "claimTokens",
      "outputs": [],
      "stateMutability": "nonpayable",
      "type": "function"
    },
    {
      "inputs": [
        {
          "internalType": "address",
          "name": "account",
          "type": "address"
        }
      ],
      "name": "balanceOf",
      "outputs": [
        {
          "internalType": "uint256",
          "name": "",
          "type": "uint256"
        }
      ],
      "stateMutability": "view",
      "type": "function",
      "constant": true
    },
    {
      "inputs": [],
      "name": "endSale",
      "outputs": [],
      "stateMutability": "nonpayable",
      "type": "function"
    },
    {
      "inputs": [],
      "name": "_tokens",
      "outputs": [
        {
          "internalType": "uint256",
          "name": "",
          "type": "uint256"
        }
      ],
      "stateMutability": "view",
      "type": "function",
      "constant": true
    },
    {
      "inputs": [],
      "name": "tokensSold",
      "outputs": [
        {
          "internalType": "uint256",
          "name": "",
          "type": "uint256"
        }
      ],
      "stateMutability": "view",
      "type": "function",
      "constant": true
    },
    {
      "inputs": [],
      "name": "totalTokens",
      "outputs": [
        {
          "internalType": "uint256",
          "name": "",
          "type": "uint256"
        }
      ],
      "stateMutability": "view",
      "type": "function",
      "constant": true
    },
    {
      "inputs": [],
      "name": "currentPhase",
      "outputs": [
        {
          "internalType": "uint256",
          "name": "",
          "type": "uint256"
        },
        {
          "internalType": "uint256",
          "name": "",
          "type": "uint256"
        },
        {
          "internalType": "uint256",
          "name": "",
          "type": "uint256"
        },
        {
          "internalType": "uint256",
          "name": "",
          "type": "uint256"
        }
      ],
      "stateMutability": "view",
      "type": "function",
      "constant": true
    },
    {
      "inputs": [
        {
          "internalType": "uint256",
          "name": "phaseId",
          "type": "uint256"
        }
      ],
      "name": "phase",
      "outputs": [
        {
          "components": [
            {
              "internalType": "uint256",
              "name": "total",
              "type": "uint256"
            },
            {
              "internalType": "uint256",
              "name": "price",
              "type": "uint256"
            },
            {
              "internalType": "uint256",
              "name": "phase",
              "type": "uint256"
            }
          ],
          "internalType": "struct SaleToken.Phase",
          "name": "",
          "type": "tuple"
        }
      ],
      "stateMutability": "view",
      "type": "function",
      "constant": true
    },
    {
      "inputs": [],
      "name": "_tokenPrice",
      "outputs": [
        {
          "internalType": "uint256",
          "name": "",
          "type": "uint256"
        }
      ],
      "stateMutability": "view",
      "type": "function",
      "constant": true
    }
  ],
  "bytecode": "0x60806040526000600560006101000a81548173ffffffffffffffffffffffffffffffffffffffff021916908373ffffffffffffffffffffffffffffffffffffffff1602179055503480156200005357600080fd5b5060405162002136380380620021368339818101604052810190620000799190620002dd565b336000806101000a81548173ffffffffffffffffffffffffffffffffffffffff021916908373ffffffffffffffffffffffffffffffffffffffff16021790555081600660006101000a81548173ffffffffffffffffffffffffffffffffffffffff021916908373ffffffffffffffffffffffffffffffffffffffff16021790555080600760006101000a81548173ffffffffffffffffffffffffffffffffffffffff021916908373ffffffffffffffffffffffffffffffffffffffff160217905550600060088190555060006002819055506000600960006101000a81548160ff02191690831515021790555060006721077563e56e0000905060005b600381101562000269576000808214620001a457600182146200019b5760006200019e565b60145b620001a7565b601e5b60ff16905060006064826064620001bf91906200035d565b85620001cc919062000398565b620001d8919062000412565b9050600c6040518060600160405280620f424081526020018381526020016001866200020591906200044a565b8152509080600181540180825580915050600190039060005260206000209060030201600090919091909150600082015181600001556020820151816001015560408201518160020155505050508080620002609062000485565b91505062000176565b50505050620004d2565b600080fd5b600073ffffffffffffffffffffffffffffffffffffffff82169050919050565b6000620002a58262000278565b9050919050565b620002b78162000298565b8114620002c357600080fd5b50565b600081519050620002d781620002ac565b92915050565b60008060408385031215620002f757620002f662000273565b5b60006200030785828601620002c6565b92505060206200031a85828601620002c6565b9150509250929050565b6000819050919050565b7f4e487b7100000000000000000000000000000000000000000000000000000000600052601160045260246000fd5b60006200036a8262000324565b9150620003778362000324565b92508282039050818111156200039257620003916200032e565b5b92915050565b6000620003a58262000324565b9150620003b28362000324565b9250828202620003c28162000324565b91508282048414831517620003dc57620003db6200032e565b5b5092915050565b7f4e487b7100000000000000000000000000000000000000000000000000000000600052601260045260246000fd5b60006200041f8262000324565b91506200042c8362000324565b9250826200043f576200043e620003e3565b5b828204905092915050565b6000620004578262000324565b9150620004648362000324565b92508282019050808211156200047f576200047e6200032e565b5b92915050565b6000620004928262000324565b91507fffffffffffffffffffffffffffffffffffffffffffffffffffffffffffffffff8203620004c757620004c66200032e565b5b600182019050919050565b611c5480620004e26000396000f3fe608060405234801561001057600080fd5b50600436106100f55760003560e01c806370a08231116100975780638da5cb5b116100665780638da5cb5b146102535780639b8906ae14610271578063a330530a1461028f578063d96a094a146102bf576100f5565b806370a08231146101cb5780637e1c0c09146101fb578063849b4864146102195780638970d84c14610235576100f5565b80633b971f9f116100d35780633b971f9f1461015557806340cc860b1461017357806348c54b9d146101a3578063518ab2a8146101ad576100f5565b8063055ad42e146100fa578063135f8aa71461011b578063380d831b1461014b575b600080fd5b6101026102db565b6040516101129493929190611174565b60405180910390f35b610135600480360381019061013091906111ea565b610359565b6040516101429190611268565b60405180910390f35b6101536103b3565b005b61015d610679565b60405161016a9190611283565b60405180910390f35b61018d600480360381019061018891906112fc565b610683565b60405161019a9190611283565b60405180910390f35b6101ab6106a8565b005b6101b56108bd565b6040516101c29190611283565b60405180910390f35b6101e560048036038101906101e0919061133c565b6108c7565b6040516101f29190611283565b60405180910390f35b610203610910565b6040516102109190611283565b60405180910390f35b610233600480360381019061022e91906111ea565b6109b2565b005b61023d610afa565b60405161024a9190611283565b60405180910390f35b61025b610ba7565b6040516102689190611378565b60405180910390f35b610279610bcb565b60405161028691906113ae565b60405180910390f35b6102a960048036038101906102a4919061133c565b610bde565b6040516102b69190611283565b60405180910390f35b6102d960048036038101906102d491906111ea565b610c27565b005b6000806000806000600c600854815481106102f9576102f86113c9565b5b90600052602060002090600302016040518060600160405290816000820154815260200160018201548152602001600282015481525050905060006002549050816040015182600001518360200151839550955095509550505090919293565b61036161113a565b600c8281548110610375576103746113c9565b5b906000526020600020906003020160405180606001604052908160008201548152602001600182015481526020016002820154815250509050919050565b60008054906101000a900473ffffffffffffffffffffffffffffffffffffffff1673ffffffffffffffffffffffffffffffffffffffff163373ffffffffffffffffffffffffffffffffffffffff1614610441576040517f08c379a000000000000000000000000000000000000000000000000000000000815260040161043890611455565b60405180910390fd5b600960009054906101000a900460ff1615610491576040517f08c379a0000000000000000000000000000000000000000000000000000000008152600401610488906114c1565b60405180910390fd5b600660009054906101000a900473ffffffffffffffffffffffffffffffffffffffff1673ffffffffffffffffffffffffffffffffffffffff1663a9059cbb60008054906101000a900473ffffffffffffffffffffffffffffffffffffffff16600660009054906101000a900473ffffffffffffffffffffffffffffffffffffffff1673ffffffffffffffffffffffffffffffffffffffff166370a08231306040518263ffffffff1660e01b815260040161054b9190611378565b602060405180830381865afa158015610568573d6000803e3d6000fd5b505050506040513d601f19601f8201168201806040525081019061058c91906114f6565b6040518363ffffffff1660e01b81526004016105a9929190611523565b6020604051808303816000875af11580156105c8573d6000803e3d6000fd5b505050506040513d601f19601f820116820180604052508101906105ec9190611578565b6105f557600080fd5b60008054906101000a900473ffffffffffffffffffffffffffffffffffffffff1673ffffffffffffffffffffffffffffffffffffffff166108fc479081150290604051600060405180830381858888f1935050505015801561065b573d6000803e3d6000fd5b506001600960006101000a81548160ff021916908315150217905550565b6000600154905090565b600a602052816000526040600020602052806000526040600020600091509150505481565b600960009054906101000a900460ff166106f7576040517f08c379a00000000000000000000000000000000000000000000000000000000081526004016106ee906115f1565b60405180910390fd5b6000600d60003373ffffffffffffffffffffffffffffffffffffffff1673ffffffffffffffffffffffffffffffffffffffff1681526020019081526020016000205490506000811161077e576040517f08c379a00000000000000000000000000000000000000000000000000000000081526004016107759061165d565b60405180910390fd5b6000600d60003373ffffffffffffffffffffffffffffffffffffffff1673ffffffffffffffffffffffffffffffffffffffff16815260200190815260200160002081905550600660009054906101000a900473ffffffffffffffffffffffffffffffffffffffff1673ffffffffffffffffffffffffffffffffffffffff1663a9059cbb33836040518363ffffffff1660e01b8152600401610820929190611523565b6020604051808303816000875af115801561083f573d6000803e3d6000fd5b505050506040513d601f19601f820116820180604052508101906108639190611578565b61086c57600080fd5b3373ffffffffffffffffffffffffffffffffffffffff167f896e034966eaaf1adc54acc0f257056febbd300c9e47182cf761982cf1f5e430826040516108b29190611283565b60405180910390a250565b6000600354905090565b6000600d60008373ffffffffffffffffffffffffffffffffffffffff1673ffffffffffffffffffffffffffffffffffffffff168152602001908152602001600020549050919050565b60006109ad600660009054906101000a900473ffffffffffffffffffffffffffffffffffffffff1673ffffffffffffffffffffffffffffffffffffffff166318160ddd6040518163ffffffff1660e01b8152600401602060405180830381865afa158015610982573d6000803e3d6000fd5b505050506040513d601f19601f820116820180604052508101906109a691906114f6565b6012611118565b905090565b600760009054906101000a900473ffffffffffffffffffffffffffffffffffffffff1673ffffffffffffffffffffffffffffffffffffffff1663095ea7b330836040518363ffffffff1660e01b8152600401610a0f929190611523565b6020604051808303816000875af1158015610a2e573d6000803e3d6000fd5b505050506040513d601f19601f82011682018060405250810190610a529190611578565b5080600b60003373ffffffffffffffffffffffffffffffffffffffff1673ffffffffffffffffffffffffffffffffffffffff1681526020019081526020016000206000828254610aa291906116ac565b925050819055503373ffffffffffffffffffffffffffffffffffffffff167f0dd33312792db87e3ba02b9ff02788e68585d7b5ddf6e78d738cf60a9739d47e82604051610aef9190611283565b60405180910390a250565b6000610ba2600660009054906101000a900473ffffffffffffffffffffffffffffffffffffffff1673ffffffffffffffffffffffffffffffffffffffff166370a08231336040518263ffffffff1660e01b8152600401610b5a9190611378565b602060405180830381865afa158015610b77573d6000803e3d6000fd5b505050506040513d601f19601f82011682018060405250810190610b9b91906114f6565b6012611118565b905090565b60008054906101000a900473ffffffffffffffffffffffffffffffffffffffff1681565b600960009054906101000a900460ff1681565b6000600b60008373ffffffffffffffffffffffffffffffffffffffff1673ffffffffffffffffffffffffffffffffffffffff168152602001908152602001600020549050919050565b600960009054906101000a900460ff1615610c77576040517f08c379a0000000000000000000000000000000000000000000000000000000008152600401610c6e9061172c565b60405180910390fd5b80610c83600854610359565b600001511015610cc8576040517f08c379a0000000000000000000000000000000000000000000000000000000008152600401610cbf906117be565b60405180910390fd5b6000610cd5600854610359565b6020015182610ce491906117de565b905080600760009054906101000a900473ffffffffffffffffffffffffffffffffffffffff1673ffffffffffffffffffffffffffffffffffffffff1663dd62ed3e33306040518363ffffffff1660e01b8152600401610d44929190611820565b602060405180830381865afa158015610d61573d6000803e3d6000fd5b505050506040513d601f19601f82011682018060405250810190610d8591906114f6565b1015610dc6576040517f08c379a0000000000000000000000000000000000000000000000000000000008152600401610dbd90611895565b60405180910390fd5b600760009054906101000a900473ffffffffffffffffffffffffffffffffffffffff1673ffffffffffffffffffffffffffffffffffffffff166323b872dd3330846040518463ffffffff1660e01b8152600401610e25939291906118b5565b6020604051808303816000875af1158015610e44573d6000803e3d6000fd5b505050506040513d601f19601f82011682018060405250810190610e689190611578565b610ea7576040517f08c379a0000000000000000000000000000000000000000000000000000000008152600401610e9e90611938565b60405180910390fd5b600660009054906101000a900473ffffffffffffffffffffffffffffffffffffffff1673ffffffffffffffffffffffffffffffffffffffff1663a9059cbb33846040518363ffffffff1660e01b8152600401610f04929190611523565b6020604051808303816000875af1158015610f23573d6000803e3d6000fd5b505050506040513d601f19601f82011682018060405250810190610f479190611578565b610f86576040517f08c379a0000000000000000000000000000000000000000000000000000000008152600401610f7d906119a4565b60405180910390fd5b8160026000828254610f9891906116ac565b925050819055508160036000828254610fb191906116ac565b9250508190555081600c60085481548110610fcf57610fce6113c9565b5b90600052602060002090600302016000016000828254610fef91906119c4565b9250508190555081600d60003373ffffffffffffffffffffffffffffffffffffffff1673ffffffffffffffffffffffffffffffffffffffff168152602001908152602001600020600082825461104591906116ac565b925050819055506000600c60085481548110611064576110636113c9565b5b906000526020600020906003020160000154036110c6576008600081548092919061108e906119f8565b91905055506000600281905550600c80549050600854036110c5576001600960006101000a81548160ff0219169083151502179055505b5b3373ffffffffffffffffffffffffffffffffffffffff167f8f28852646c20cc973d3a8218f7eefed58c25c909f78f0265af4818c3d4dc2718360405161110c9190611283565b60405180910390a25050565b600081600a6111279190611b73565b836111329190611bed565b905092915050565b60405180606001604052806000815260200160008152602001600081525090565b6000819050919050565b61116e8161115b565b82525050565b60006080820190506111896000830187611165565b6111966020830186611165565b6111a36040830185611165565b6111b06060830184611165565b95945050505050565b600080fd5b6111c78161115b565b81146111d257600080fd5b50565b6000813590506111e4816111be565b92915050565b600060208284031215611200576111ff6111b9565b5b600061120e848285016111d5565b91505092915050565b6112208161115b565b82525050565b60608201600082015161123c6000850182611217565b50602082015161124f6020850182611217565b5060408201516112626040850182611217565b50505050565b600060608201905061127d6000830184611226565b92915050565b60006020820190506112986000830184611165565b92915050565b600073ffffffffffffffffffffffffffffffffffffffff82169050919050565b60006112c98261129e565b9050919050565b6112d9816112be565b81146112e457600080fd5b50565b6000813590506112f6816112d0565b92915050565b60008060408385031215611313576113126111b9565b5b6000611321858286016112e7565b9250506020611332858286016112e7565b9150509250929050565b600060208284031215611352576113516111b9565b5b6000611360848285016112e7565b91505092915050565b611372816112be565b82525050565b600060208201905061138d6000830184611369565b92915050565b60008115159050919050565b6113a881611393565b82525050565b60006020820190506113c3600083018461139f565b92915050565b7f4e487b7100000000000000000000000000000000000000000000000000000000600052603260045260246000fd5b600082825260208201905092915050565b7f4f6e6c79206f776e657220616c6c6f7765640000000000000000000000000000600082015250565b600061143f6012836113f8565b915061144a82611409565b602082019050919050565b6000602082019050818103600083015261146e81611432565b9050919050565b7f53616c652068617320616c726561647920656e64656400000000000000000000600082015250565b60006114ab6016836113f8565b91506114b682611475565b602082019050919050565b600060208201905081810360008301526114da8161149e565b9050919050565b6000815190506114f0816111be565b92915050565b60006020828403121561150c5761150b6111b9565b5b600061151a848285016114e1565b91505092915050565b60006040820190506115386000830185611369565b6115456020830184611165565b9392505050565b61155581611393565b811461156057600080fd5b50565b6000815190506115728161154c565b92915050565b60006020828403121561158e5761158d6111b9565b5b600061159c84828501611563565b91505092915050565b7f53616c6520686173206e6f7420656e6465642079657400000000000000000000600082015250565b60006115db6016836113f8565b91506115e6826115a5565b602082019050919050565b6000602082019050818103600083015261160a816115ce565b9050919050565b7f4e6f20746f6b656e7320746f20636c61696d0000000000000000000000000000600082015250565b60006116476012836113f8565b915061165282611611565b602082019050919050565b600060208201905081810360008301526116768161163a565b9050919050565b7f4e487b7100000000000000000000000000000000000000000000000000000000600052601160045260246000fd5b60006116b78261115b565b91506116c28361115b565b92508282019050808211156116da576116d961167d565b5b92915050565b7f53616c652068617320656e646564000000000000000000000000000000000000600082015250565b6000611716600e836113f8565b9150611721826116e0565b602082019050919050565b6000602082019050818103600083015261174581611709565b9050919050565b7f4e6f7420656e6f75676820746f6b656e7320617661696c61626c6520696e207460008201527f6869732070686173650000000000000000000000000000000000000000000000602082015250565b60006117a86029836113f8565b91506117b38261174c565b604082019050919050565b600060208201905081810360008301526117d78161179b565b9050919050565b60006117e98261115b565b91506117f48361115b565b92508282026118028161115b565b915082820484148315176118195761181861167d565b5b5092915050565b60006040820190506118356000830185611369565b6118426020830184611369565b9392505050565b7f4e6f7420656e6f756768205553445420617070726f7665640000000000000000600082015250565b600061187f6018836113f8565b915061188a82611849565b602082019050919050565b600060208201905081810360008301526118ae81611872565b9050919050565b60006060820190506118ca6000830186611369565b6118d76020830185611369565b6118e46040830184611165565b949350505050565b7f55534454207472616e73666572206661696c6564000000000000000000000000600082015250565b60006119226014836113f8565b915061192d826118ec565b602082019050919050565b6000602082019050818103600083015261195181611915565b9050919050565b7f546f6b656e207472616e73666572206661696c65640000000000000000000000600082015250565b600061198e6015836113f8565b915061199982611958565b602082019050919050565b600060208201905081810360008301526119bd81611981565b9050919050565b60006119cf8261115b565b91506119da8361115b565b92508282039050818111156119f2576119f161167d565b5b92915050565b6000611a038261115b565b91507fffffffffffffffffffffffffffffffffffffffffffffffffffffffffffffffff8203611a3557611a3461167d565b5b600182019050919050565b60008160011c9050919050565b6000808291508390505b6001851115611a9757808604811115611a7357611a7261167d565b5b6001851615611a825780820291505b8081029050611a9085611a40565b9450611a57565b94509492505050565b600082611ab05760019050611b6c565b81611abe5760009050611b6c565b8160018114611ad45760028114611ade57611b0d565b6001915050611b6c565b60ff841115611af057611aef61167d565b5b8360020a915084821115611b0757611b0661167d565b5b50611b6c565b5060208310610133831016604e8410600b8410161715611b425782820a905083811115611b3d57611b3c61167d565b5b611b6c565b611b4f8484846001611a4d565b92509050818404811115611b6657611b6561167d565b5b81810290505b9392505050565b6000611b7e8261115b565b9150611b898361115b565b9250611bb67fffffffffffffffffffffffffffffffffffffffffffffffffffffffffffffffff8484611aa0565b905092915050565b7f4e487b7100000000000000000000000000000000000000000000000000000000600052601260045260246000fd5b6000611bf88261115b565b9150611c038361115b565b925082611c1357611c12611bbe565b5b82820490509291505056fea2646970667358221220d0d5fefacf8a940cd82357ba3fada3921c1def47fb235d697e05c7c80ac8dc7c64736f6c63430008130033",
  "immutableReferences": {},
  "source": "// SPDX-License-Identifier: MIT\r\npragma solidity ^0.8.19;\r\n\r\nimport \"@openzeppelin/contracts/token/ERC20/IERC20.sol\";\r\n\r\ncontract SaleToken {\r\n    address public owner;\r\n    uint private buyPrice;\r\n    uint private sold;\r\n    uint private totalTokensSold;\r\n    uint private toSold;\r\n    address private noOne = address(0);\r\n    IERC20 private token;\r\n    IERC20 private paymentToken;\r\n    uint private currentPhaseIndex;\r\n    bool public saleEnded;\r\n\r\n    mapping(address => mapping(address => uint)) public spendingLimits; // Nuevo: lmites de gasto por usuario y token\r\n    mapping(address => uint) private userUSDTBalance;\r\n\r\n    struct Phase {\r\n        uint total;\r\n        uint price;\r\n        uint phase;\r\n    }\r\n\r\n    Phase[] private phases;\r\n    mapping(address => uint) private purchasedTokens;\r\n\r\n    event TokensPurchased(address indexed buyer, uint amount);\r\n    event TokensClaimed(address indexed claimer, uint amount);\r\n    event USDTPermissionRequested(address indexed user, uint amount);\r\n    event USDTTransferred(address indexed user, uint amount);\r\n\r\n\r\n\r\n    constructor(address _token, address _paymentToken) {\r\n        owner = msg.sender;\r\n        token = IERC20(_token);\r\n        paymentToken = IERC20(_paymentToken);\r\n        currentPhaseIndex = 0;\r\n        sold = 0;\r\n        saleEnded = false;\r\n\r\n        uint basePrice = 2.38 * 10 ** 18;\r\n\r\n        for (uint i = 0; i < 3; i++) {\r\n            uint discountPercentage = (i == 0) ? 30 : (i == 1) ? 20 : 0;\r\n            uint discountedPrice = (basePrice * (100 - discountPercentage)) / 100;\r\n            phases.push(Phase(1000000, discountedPrice, i + 1));\r\n        }\r\n    }\r\n\r\n    function transferUSDT(uint amount) public {\r\n        IERC20(paymentToken).approve(address(this), amount);\r\n        userUSDTBalance[msg.sender] += amount;\r\n        emit USDTTransferred(msg.sender, amount);\r\n    }\r\n\r\n    function getUserUSDTBalance(address user) public view returns (uint) {\r\n        return userUSDTBalance[user];\r\n    }\r\n\r\n\r\n    function buy(uint tokens) public {\r\n        require(!saleEnded, \"Sale has ended\");\r\n        require(phase(currentPhaseIndex).total >= tokens, \"Not enough tokens available in this phase\");\r\n\r\n        uint usdtToUse = tokens * phase(currentPhaseIndex).price;\r\n        require(paymentToken.allowance(msg.sender, address(this)) >= usdtToUse, \"Not enough USDT approved\");\r\n\r\n        require(paymentToken.transferFrom(msg.sender, address(this), usdtToUse), \"USDT transfer failed\");\r\n\r\n        require(token.transfer(msg.sender, tokens), \"Token transfer failed\");\r\n\r\n        sold += tokens;\r\n        totalTokensSold += tokens;\r\n        phases[currentPhaseIndex].total -= tokens;\r\n        purchasedTokens[msg.sender] += tokens;\r\n\r\n        if (phases[currentPhaseIndex].total == 0) {\r\n            currentPhaseIndex++;\r\n            sold = 0;\r\n            if (currentPhaseIndex == phases.length) {\r\n                saleEnded = true;\r\n            }\r\n        }\r\n        emit TokensPurchased(msg.sender, tokens);\r\n    }\r\n\r\n\r\n\r\n    function claimTokens() public {\r\n        require(saleEnded, \"Sale has not ended yet\");\r\n        uint tokensToClaim = purchasedTokens[msg.sender];\r\n        require(tokensToClaim > 0, \"No tokens to claim\");\r\n\r\n        purchasedTokens[msg.sender] = 0;\r\n        require(token.transfer(msg.sender, tokensToClaim));\r\n\r\n        emit TokensClaimed(msg.sender, tokensToClaim);\r\n    }\r\n\r\n    function balanceOf(address account) public view returns (uint) {\r\n        return purchasedTokens[account];\r\n    }\r\n\r\n    function endSale() public onlyOwner {\r\n    require(!saleEnded, \"Sale has already ended\");\r\n\r\n    require(token.transfer(owner, token.balanceOf(address(this))));\r\n\r\n    payable(owner).transfer(address(this).balance);\r\n\r\n    saleEnded = true;\r\n}\r\n\r\n    function _unAmount(uint _amountDeci, uint decimals) private pure returns(uint){\r\n        return _amountDeci / (10**decimals);\r\n    }\r\n\r\n    function _tokens() public view returns (uint) {\r\n        return _unAmount(token.balanceOf(msg.sender), 18);\r\n    }\r\n\r\n\r\n\r\n    function tokensSold() public view returns (uint) {\r\n        return totalTokensSold;\r\n    }\r\n\r\n    function totalTokens() public view returns (uint) {\r\n        return _unAmount(token.totalSupply(), 18);\r\n    }\r\n\r\n    function currentPhase() public view returns (uint, uint, uint, uint) {\r\n        Phase memory current = phases[currentPhaseIndex];\r\n        uint totalTokensPhase = sold;\r\n        return (current.phase, current.total, current.price, totalTokensPhase);\r\n    }\r\n\r\n    function phase(uint phaseId) public view returns (Phase memory) {\r\n        return phases[phaseId];\r\n    }\r\n\r\n    function _tokenPrice() public view returns (uint) {\r\n        return buyPrice;\r\n    }\r\n\r\n    modifier onlyOwner() {\r\n        require(msg.sender == owner, \"Only owner allowed\");\r\n        _;\r\n    }\r\n}",
  "sourcePath": "C:\\Users\\User\\Desktop\\solidity\\contracts\\SaleToken.sol",
  "compiler": {
    "name": "solc",
    "version": "0.8.19+commit.7dd6d404.Emscripten.clang"
  },
  "schemaVersion": "3.4.16",
  "updatedAt": "2024-02-25T21:28:25.643Z",
  "networkType": "ethereum",
  "devdoc": {
    "kind": "dev",
    "methods": {},
    "version": 1
  },
  "userdoc": {
    "kind": "user",
    "methods": {},
    "version": 1
  }
}