{
  "contractName": "SalesOficialUnityPrueba2",
  "abi": [
    {
      "inputs": [
        {
          "internalType": "address",
          "name": "_token",
          "type": "address"
        },
        {
          "internalType": "address",
          "name": "_paymentToken",
          "type": "address"
        }
      ],
      "stateMutability": "nonpayable",
      "type": "constructor"
    },
    {
      "anonymous": false,
      "inputs": [
        {
          "indexed": true,
          "internalType": "address",
          "name": "claimer",
          "type": "address"
        },
        {
          "indexed": false,
          "internalType": "uint256",
          "name": "amount",
          "type": "uint256"
        }
      ],
      "name": "TokensClaimed",
      "type": "event"
    },
    {
      "anonymous": false,
      "inputs": [
        {
          "indexed": true,
          "internalType": "address",
          "name": "buyer",
          "type": "address"
        },
        {
          "indexed": false,
          "internalType": "uint256",
          "name": "amount",
          "type": "uint256"
        }
      ],
      "name": "TokensPurchased",
      "type": "event"
    },
    {
      "anonymous": false,
      "inputs": [
        {
          "indexed": true,
          "internalType": "address",
          "name": "claimer",
          "type": "address"
        },
        {
          "indexed": false,
          "internalType": "uint256",
          "name": "amount",
          "type": "uint256"
        }
      ],
      "name": "USDTClaimed",
      "type": "event"
    },
    {
      "inputs": [],
      "name": "owner",
      "outputs": [
        {
          "internalType": "address",
          "name": "",
          "type": "address"
        }
      ],
      "stateMutability": "view",
      "type": "function"
    },
    {
      "inputs": [],
      "name": "saleEnded",
      "outputs": [
        {
          "internalType": "bool",
          "name": "",
          "type": "bool"
        }
      ],
      "stateMutability": "view",
      "type": "function"
    },
    {
      "inputs": [
        {
          "internalType": "uint256",
          "name": "tokens",
          "type": "uint256"
        }
      ],
      "name": "buy",
      "outputs": [],
      "stateMutability": "nonpayable",
      "type": "function"
    },
    {
      "inputs": [],
      "name": "checkTimePhase",
      "outputs": [
        {
          "internalType": "uint256",
          "name": "",
          "type": "uint256"
        }
      ],
      "stateMutability": "view",
      "type": "function"
    },
    {
      "inputs": [],
      "name": "switchPhase",
      "outputs": [],
      "stateMutability": "nonpayable",
      "type": "function"
    },
    {
      "inputs": [],
      "name": "claimUSDT",
      "outputs": [],
      "stateMutability": "nonpayable",
      "type": "function"
    },
    {
      "inputs": [],
      "name": "claimTokens",
      "outputs": [],
      "stateMutability": "nonpayable",
      "type": "function"
    },
    {
      "inputs": [
        {
          "internalType": "address",
          "name": "account",
          "type": "address"
        }
      ],
      "name": "balanceOf",
      "outputs": [
        {
          "internalType": "uint256",
          "name": "",
          "type": "uint256"
        }
      ],
      "stateMutability": "view",
      "type": "function"
    },
    {
      "inputs": [],
      "name": "endSale",
      "outputs": [],
      "stateMutability": "nonpayable",
      "type": "function"
    },
    {
      "inputs": [],
      "name": "_tokens",
      "outputs": [
        {
          "internalType": "uint256",
          "name": "",
          "type": "uint256"
        }
      ],
      "stateMutability": "view",
      "type": "function"
    },
    {
      "inputs": [],
      "name": "tokensSold",
      "outputs": [
        {
          "internalType": "uint256",
          "name": "",
          "type": "uint256"
        }
      ],
      "stateMutability": "view",
      "type": "function"
    },
    {
      "inputs": [],
      "name": "totalTokens",
      "outputs": [
        {
          "internalType": "uint256",
          "name": "",
          "type": "uint256"
        }
      ],
      "stateMutability": "view",
      "type": "function"
    },
    {
      "inputs": [],
      "name": "currentPhase",
      "outputs": [
        {
          "components": [
            {
              "internalType": "uint256",
              "name": "total",
              "type": "uint256"
            },
            {
              "internalType": "uint256",
              "name": "price",
              "type": "uint256"
            },
            {
              "internalType": "uint256",
              "name": "phase",
              "type": "uint256"
            }
          ],
          "internalType": "struct SalesOficialUnityPrueba2.Phase",
          "name": "",
          "type": "tuple"
        },
        {
          "internalType": "uint256",
          "name": "",
          "type": "uint256"
        }
      ],
      "stateMutability": "view",
      "type": "function"
    },
    {
      "inputs": [
        {
          "internalType": "uint256",
          "name": "phaseId",
          "type": "uint256"
        }
      ],
      "name": "phase",
      "outputs": [
        {
          "components": [
            {
              "internalType": "uint256",
              "name": "total",
              "type": "uint256"
            },
            {
              "internalType": "uint256",
              "name": "price",
              "type": "uint256"
            },
            {
              "internalType": "uint256",
              "name": "phase",
              "type": "uint256"
            }
          ],
          "internalType": "struct SalesOficialUnityPrueba2.Phase",
          "name": "",
          "type": "tuple"
        }
      ],
      "stateMutability": "view",
      "type": "function"
    },
    {
      "inputs": [],
      "name": "_tokenPrice",
      "outputs": [
        {
          "internalType": "uint256",
          "name": "",
          "type": "uint256"
        }
      ],
      "stateMutability": "view",
      "type": "function"
    }
  ],
  "bytecode": "0x608060405262200b206009553480156200001857600080fd5b50604051620023bb380380620023bb83398181016040528101906200003e9190620002ab565b336000806101000a81548173ffffffffffffffffffffffffffffffffffffffff021916908373ffffffffffffffffffffffffffffffffffffffff16021790555081600460006101000a81548173ffffffffffffffffffffffffffffffffffffffff021916908373ffffffffffffffffffffffffffffffffffffffff16021790555080600560006101000a81548173ffffffffffffffffffffffffffffffffffffffff021916908373ffffffffffffffffffffffffffffffffffffffff160217905550600060068190555060006002819055506000600760006101000a81548160ff0219169083151502179055506721077563e56e00006001819055504260088190555060005b600381101562000238576000808214620001725760018214620001695760006200016c565b600a5b62000175565b60145b60ff169050600060648260646200018d91906200032b565b6001546200019c919062000366565b620001a89190620003e0565b9050600c60405180606001604052806009548152602001838152602001600186620001d4919062000418565b81525090806001815401808255809150506001900390600052602060002090600302016000909190919091506000820151816000015560208201518160010155604082015181600201555050505080806200022f9062000453565b91505062000144565b505050620004a0565b600080fd5b600073ffffffffffffffffffffffffffffffffffffffff82169050919050565b6000620002738262000246565b9050919050565b620002858162000266565b81146200029157600080fd5b50565b600081519050620002a5816200027a565b92915050565b60008060408385031215620002c557620002c462000241565b5b6000620002d58582860162000294565b9250506020620002e88582860162000294565b9150509250929050565b6000819050919050565b7f4e487b7100000000000000000000000000000000000000000000000000000000600052601160045260246000fd5b60006200033882620002f2565b91506200034583620002f2565b925082820390508181111562000360576200035f620002fc565b5b92915050565b60006200037382620002f2565b91506200038083620002f2565b92508282026200039081620002f2565b91508282048414831517620003aa57620003a9620002fc565b5b5092915050565b7f4e487b7100000000000000000000000000000000000000000000000000000000600052601260045260246000fd5b6000620003ed82620002f2565b9150620003fa83620002f2565b9250826200040d576200040c620003b1565b5b828204905092915050565b60006200042582620002f2565b91506200043283620002f2565b92508282019050808211156200044d576200044c620002fc565b5b92915050565b60006200046082620002f2565b91507fffffffffffffffffffffffffffffffffffffffffffffffffffffffffffffffff8203620004955762000494620002fc565b5b600182019050919050565b611f0b80620004b06000396000f3fe608060405234801561001057600080fd5b50600436106100f55760003560e01c80637564ac38116100975780638da5cb5b116100665780638da5cb5b1461022d5780639b8906ae1461024b578063ab0eb62d14610269578063d96a094a14610273576100f5565b80637564ac38146101c95780637e1c0c09146101d357806382cf291d146101f15780638970d84c1461020f576100f5565b80633b971f9f116100d35780633b971f9f1461015357806348c54b9d14610171578063518ab2a81461017b57806370a0823114610199576100f5565b8063055ad42e146100fa578063135f8aa714610119578063380d831b14610149575b600080fd5b61010261028f565b604051610110929190611400565b60405180910390f35b610133600480360381019061012e919061145a565b61036c565b6040516101409190611487565b60405180910390f35b6101516103c6565b005b61015b61069d565b60405161016891906114a2565b60405180910390f35b6101796106a7565b005b610183610905565b60405161019091906114a2565b60405180910390f35b6101b360048036038101906101ae919061151b565b61090f565b6040516101c091906114a2565b60405180910390f35b6101d1610958565b005b6101db610c39565b6040516101e891906114a2565b60405180910390f35b6101f9610cdc565b60405161020691906114a2565b60405180910390f35b610217610d0f565b60405161022491906114a2565b60405180910390f35b610235610dbc565b6040516102429190611557565b60405180910390f35b610253610de0565b604051610260919061158d565b60405180910390f35b610271610df3565b005b61028d6004803603810190610288919061145a565b610f65565b005b610297611375565b6000600c80549050600654101561030457600c600654815481106102be576102bd6115a8565b5b9060005260206000209060030201600254816040518060600160405290816000820154815260200160018201548152602001600282015481525050915091509150610368565b600c60016006546103159190611606565b81548110610326576103256115a8565b5b90600052602060002090600302016002548160405180606001604052908160008201548152602001600182015481526020016002820154815250509150915091505b9091565b610374611375565b600c8281548110610388576103876115a8565b5b906000526020600020906003020160405180606001604052908160008201548152602001600182015481526020016002820154815250509050919050565b60008054906101000a900473ffffffffffffffffffffffffffffffffffffffff1673ffffffffffffffffffffffffffffffffffffffff163373ffffffffffffffffffffffffffffffffffffffff1614610454576040517f08c379a000000000000000000000000000000000000000000000000000000000815260040161044b90611697565b60405180910390fd5b600760009054906101000a900460ff16156104a4576040517f08c379a000000000000000000000000000000000000000000000000000000000815260040161049b90611703565b60405180910390fd5b60006104ae610c39565b90506000816003546104c09190611606565b905060008111610505576040517f08c379a00000000000000000000000000000000000000000000000000000000081526004016104fc9061176f565b60405180910390fd5b600460009054906101000a900473ffffffffffffffffffffffffffffffffffffffff1673ffffffffffffffffffffffffffffffffffffffff1663a9059cbb60008054906101000a900473ffffffffffffffffffffffffffffffffffffffff16670de0b6b3a764000084610578919061178f565b6040518363ffffffff1660e01b81526004016105959291906117d1565b6020604051808303816000875af11580156105b4573d6000803e3d6000fd5b505050506040513d601f19601f820116820180604052508101906105d89190611826565b610617576040517f08c379a000000000000000000000000000000000000000000000000000000000815260040161060e9061189f565b60405180910390fd5b60008054906101000a900473ffffffffffffffffffffffffffffffffffffffff1673ffffffffffffffffffffffffffffffffffffffff166108fc479081150290604051600060405180830381858888f1935050505015801561067d573d6000803e3d6000fd5b506001600760006101000a81548160ff0219169083151502179055505050565b6000600154905090565b600760009054906101000a900460ff166106f6576040517f08c379a00000000000000000000000000000000000000000000000000000000081526004016106ed9061190b565b60405180910390fd5b6000600d60003373ffffffffffffffffffffffffffffffffffffffff1673ffffffffffffffffffffffffffffffffffffffff1681526020019081526020016000205490506000811161077d576040517f08c379a000000000000000000000000000000000000000000000000000000000815260040161077490611977565b60405180910390fd5b600460009054906101000a900473ffffffffffffffffffffffffffffffffffffffff1673ffffffffffffffffffffffffffffffffffffffff1663a9059cbb33670de0b6b3a7640000846107d0919061178f565b6040518363ffffffff1660e01b81526004016107ed9291906117d1565b6020604051808303816000875af115801561080c573d6000803e3d6000fd5b505050506040513d601f19601f820116820180604052508101906108309190611826565b61086f576040517f08c379a00000000000000000000000000000000000000000000000000000000081526004016108669061189f565b60405180910390fd5b6000600d60003373ffffffffffffffffffffffffffffffffffffffff1673ffffffffffffffffffffffffffffffffffffffff168152602001908152602001600020819055503373ffffffffffffffffffffffffffffffffffffffff167f896e034966eaaf1adc54acc0f257056febbd300c9e47182cf761982cf1f5e430826040516108fa91906114a2565b60405180910390a250565b6000600354905090565b6000600d60008373ffffffffffffffffffffffffffffffffffffffff1673ffffffffffffffffffffffffffffffffffffffff168152602001908152602001600020549050919050565b60008054906101000a900473ffffffffffffffffffffffffffffffffffffffff1673ffffffffffffffffffffffffffffffffffffffff163373ffffffffffffffffffffffffffffffffffffffff16146109e6576040517f08c379a00000000000000000000000000000000000000000000000000000000081526004016109dd90611697565b60405180910390fd5b6000600560009054906101000a900473ffffffffffffffffffffffffffffffffffffffff1673ffffffffffffffffffffffffffffffffffffffff166370a08231306040518263ffffffff1660e01b8152600401610a439190611557565b602060405180830381865afa158015610a60573d6000803e3d6000fd5b505050506040513d601f19601f82011682018060405250810190610a8491906119ac565b905060008111610ac9576040517f08c379a0000000000000000000000000000000000000000000000000000000008152600401610ac090611a25565b60405180910390fd5b600560009054906101000a900473ffffffffffffffffffffffffffffffffffffffff1673ffffffffffffffffffffffffffffffffffffffff1663a9059cbb60008054906101000a900473ffffffffffffffffffffffffffffffffffffffff16836040518363ffffffff1660e01b8152600401610b469291906117d1565b6020604051808303816000875af1158015610b65573d6000803e3d6000fd5b505050506040513d601f19601f82011682018060405250810190610b899190611826565b610bc8576040517f08c379a0000000000000000000000000000000000000000000000000000000008152600401610bbf90611a91565b60405180910390fd5b60008054906101000a900473ffffffffffffffffffffffffffffffffffffffff1673ffffffffffffffffffffffffffffffffffffffff167fd8586e2908b066734aa99c1f0ca84f5c35634029ecc070d55927f19b10445a4782604051610c2e91906114a2565b60405180910390a250565b6000600460009054906101000a900473ffffffffffffffffffffffffffffffffffffffff1673ffffffffffffffffffffffffffffffffffffffff166370a08231306040518263ffffffff1660e01b8152600401610c969190611557565b602060405180830381865afa158015610cb3573d6000803e3d6000fd5b505050506040513d601f19601f82011682018060405250810190610cd791906119ac565b905090565b6000806102589050600042905060008183600854610cfa9190611ab1565b610d049190611606565b905080935050505090565b6000610db7600460009054906101000a900473ffffffffffffffffffffffffffffffffffffffff1673ffffffffffffffffffffffffffffffffffffffff166370a08231336040518263ffffffff1660e01b8152600401610d6f9190611557565b602060405180830381865afa158015610d8c573d6000803e3d6000fd5b505050506040513d601f19601f82011682018060405250810190610db091906119ac565b6012611353565b905090565b60008054906101000a900473ffffffffffffffffffffffffffffffffffffffff1681565b600760009054906101000a900460ff1681565b60008054906101000a900473ffffffffffffffffffffffffffffffffffffffff1673ffffffffffffffffffffffffffffffffffffffff163373ffffffffffffffffffffffffffffffffffffffff1614610e81576040517f08c379a0000000000000000000000000000000000000000000000000000000008152600401610e7890611697565b60405180910390fd5b600061025890506000429050600060085482610e9d9190611606565b90506000600254600c60065481548110610eba57610eb96115a8565b5b906000526020600020906003020160000154610ed69190611606565b9050838210610f5f57600060028190555060066000815480929190610efa90611ae5565b9190505550826008819055506000600654118015610f1a57506003600654105b15610f5e5780600c60065481548110610f3657610f356115a8565b5b90600052602060002090600302016000016000828254610f569190611ab1565b925050819055505b5b50505050565b600760009054906101000a900460ff1615610fb5576040517f08c379a0000000000000000000000000000000000000000000000000000000008152600401610fac90611b79565b60405180910390fd5b80600254610fc460065461036c565b60000151610fd29190611606565b1015611013576040517f08c379a000000000000000000000000000000000000000000000000000000000815260040161100a90611c0b565b60405180910390fd5b600061102060065461036c565b602001518261102f919061178f565b905080600560009054906101000a900473ffffffffffffffffffffffffffffffffffffffff1673ffffffffffffffffffffffffffffffffffffffff1663dd62ed3e33306040518363ffffffff1660e01b815260040161108f929190611c2b565b602060405180830381865afa1580156110ac573d6000803e3d6000fd5b505050506040513d601f19601f820116820180604052508101906110d091906119ac565b1015611111576040517f08c379a000000000000000000000000000000000000000000000000000000000815260040161110890611ca0565b60405180910390fd5b600560009054906101000a900473ffffffffffffffffffffffffffffffffffffffff1673ffffffffffffffffffffffffffffffffffffffff166323b872dd3330846040518463ffffffff1660e01b815260040161117093929190611cc0565b6020604051808303816000875af115801561118f573d6000803e3d6000fd5b505050506040513d601f19601f820116820180604052508101906111b39190611826565b6111f2576040517f08c379a00000000000000000000000000000000000000000000000000000000081526004016111e990611a91565b60405180910390fd5b81600260008282546112049190611ab1565b92505081905550816003600082825461121d9190611ab1565b9250508190555081600d60003373ffffffffffffffffffffffffffffffffffffffff1673ffffffffffffffffffffffffffffffffffffffff16815260200190815260200160002060008282546112739190611ab1565b92505081905550600254600c60065481548110611293576112926115a8565b5b9060005260206000209060030201600001540361130157600660008154809291906112bd90611ae5565b919050555042600881905550600c80549050600654036112f7576001600760006101000a81548160ff021916908315150217905550611300565b60006002819055505b5b3373ffffffffffffffffffffffffffffffffffffffff167f8f28852646c20cc973d3a8218f7eefed58c25c909f78f0265af4818c3d4dc2718360405161134791906114a2565b60405180910390a25050565b600081600a6113629190611e2a565b8361136d9190611ea4565b905092915050565b60405180606001604052806000815260200160008152602001600081525090565b6000819050919050565b6113a981611396565b82525050565b6060820160008201516113c560008501826113a0565b5060208201516113d860208501826113a0565b5060408201516113eb60408501826113a0565b50505050565b6113fa81611396565b82525050565b600060808201905061141560008301856113af565b61142260608301846113f1565b9392505050565b600080fd5b61143781611396565b811461144257600080fd5b50565b6000813590506114548161142e565b92915050565b6000602082840312156114705761146f611429565b5b600061147e84828501611445565b91505092915050565b600060608201905061149c60008301846113af565b92915050565b60006020820190506114b760008301846113f1565b92915050565b600073ffffffffffffffffffffffffffffffffffffffff82169050919050565b60006114e8826114bd565b9050919050565b6114f8816114dd565b811461150357600080fd5b50565b600081359050611515816114ef565b92915050565b60006020828403121561153157611530611429565b5b600061153f84828501611506565b91505092915050565b611551816114dd565b82525050565b600060208201905061156c6000830184611548565b92915050565b60008115159050919050565b61158781611572565b82525050565b60006020820190506115a2600083018461157e565b92915050565b7f4e487b7100000000000000000000000000000000000000000000000000000000600052603260045260246000fd5b7f4e487b7100000000000000000000000000000000000000000000000000000000600052601160045260246000fd5b600061161182611396565b915061161c83611396565b9250828203905081811115611634576116336115d7565b5b92915050565b600082825260208201905092915050565b7f4f6e6c79206f776e657220616c6c6f7765640000000000000000000000000000600082015250565b600061168160128361163a565b915061168c8261164b565b602082019050919050565b600060208201905081810360008301526116b081611674565b9050919050565b7f53616c652068617320616c726561647920656e64656400000000000000000000600082015250565b60006116ed60168361163a565b91506116f8826116b7565b602082019050919050565b6000602082019050818103600083015261171c816116e0565b9050919050565b7f4e6f2072656d61696e696e6720746f6b656e7320746f207472616e7366657200600082015250565b6000611759601f8361163a565b915061176482611723565b602082019050919050565b600060208201905081810360008301526117888161174c565b9050919050565b600061179a82611396565b91506117a583611396565b92508282026117b381611396565b915082820484148315176117ca576117c96115d7565b5b5092915050565b60006040820190506117e66000830185611548565b6117f360208301846113f1565b9392505050565b61180381611572565b811461180e57600080fd5b50565b600081519050611820816117fa565b92915050565b60006020828403121561183c5761183b611429565b5b600061184a84828501611811565b91505092915050565b7f546f6b656e207472616e73666572206661696c65640000000000000000000000600082015250565b600061188960158361163a565b915061189482611853565b602082019050919050565b600060208201905081810360008301526118b88161187c565b9050919050565b7f53616c6520686173206e6f7420656e6465642079657400000000000000000000600082015250565b60006118f560168361163a565b9150611900826118bf565b602082019050919050565b60006020820190508181036000830152611924816118e8565b9050919050565b7f4e6f20746f6b656e7320746f20636c61696d0000000000000000000000000000600082015250565b600061196160128361163a565b915061196c8261192b565b602082019050919050565b6000602082019050818103600083015261199081611954565b9050919050565b6000815190506119a68161142e565b92915050565b6000602082840312156119c2576119c1611429565b5b60006119d084828501611997565b91505092915050565b7f4e6f205553445420746f20636c61696d00000000000000000000000000000000600082015250565b6000611a0f60108361163a565b9150611a1a826119d9565b602082019050919050565b60006020820190508181036000830152611a3e81611a02565b9050919050565b7f55534454207472616e73666572206661696c6564000000000000000000000000600082015250565b6000611a7b60148361163a565b9150611a8682611a45565b602082019050919050565b60006020820190508181036000830152611aaa81611a6e565b9050919050565b6000611abc82611396565b9150611ac783611396565b9250828201905080821115611adf57611ade6115d7565b5b92915050565b6000611af082611396565b91507fffffffffffffffffffffffffffffffffffffffffffffffffffffffffffffffff8203611b2257611b216115d7565b5b600182019050919050565b7f53616c652068617320656e646564000000000000000000000000000000000000600082015250565b6000611b63600e8361163a565b9150611b6e82611b2d565b602082019050919050565b60006020820190508181036000830152611b9281611b56565b9050919050565b7f4e6f7420656e6f75676820746f6b656e7320617661696c61626c6520696e207460008201527f6869732070686173650000000000000000000000000000000000000000000000602082015250565b6000611bf560298361163a565b9150611c0082611b99565b604082019050919050565b60006020820190508181036000830152611c2481611be8565b9050919050565b6000604082019050611c406000830185611548565b611c4d6020830184611548565b9392505050565b7f4e6f7420656e6f756768205553445420617070726f7665640000000000000000600082015250565b6000611c8a60188361163a565b9150611c9582611c54565b602082019050919050565b60006020820190508181036000830152611cb981611c7d565b9050919050565b6000606082019050611cd56000830186611548565b611ce26020830185611548565b611cef60408301846113f1565b949350505050565b60008160011c9050919050565b6000808291508390505b6001851115611d4e57808604811115611d2a57611d296115d7565b5b6001851615611d395780820291505b8081029050611d4785611cf7565b9450611d0e565b94509492505050565b600082611d675760019050611e23565b81611d755760009050611e23565b8160018114611d8b5760028114611d9557611dc4565b6001915050611e23565b60ff841115611da757611da66115d7565b5b8360020a915084821115611dbe57611dbd6115d7565b5b50611e23565b5060208310610133831016604e8410600b8410161715611df95782820a905083811115611df457611df36115d7565b5b611e23565b611e068484846001611d04565b92509050818404811115611e1d57611e1c6115d7565b5b81810290505b9392505050565b6000611e3582611396565b9150611e4083611396565b9250611e6d7fffffffffffffffffffffffffffffffffffffffffffffffffffffffffffffffff8484611d57565b905092915050565b7f4e487b7100000000000000000000000000000000000000000000000000000000600052601260045260246000fd5b6000611eaf82611396565b9150611eba83611396565b925082611eca57611ec9611e75565b5b82820490509291505056fea2646970667358221220c8fca5e21d135971f4a6c0962b4321223175adf98fb1bd27f7e6caad39b4b99a64736f6c63430008130033",
  "immutableReferences": {},
  "source": "// SPDX-License-Identifier: MIT\r\npragma solidity ^0.8.19;\r\n\r\nimport \"@openzeppelin/contracts/token/ERC20/IERC20.sol\";\r\n\r\ncontract SalesOficialUnityPrueba2 {\r\n    address public owner;\r\n    uint private buyPrice;\r\n    uint private sold;\r\n    uint private totalTokensSold;\r\n    IERC20 private token;\r\n    IERC20 private paymentToken;\r\n    uint private currentPhaseIndex;\r\n    bool public saleEnded;\r\n    uint private phaseStartTime; \r\n    uint private phaseTarget = 2.1 * 10 ** 6; \r\n    uint private unsoldTokens;\r\n    uint private totalTokenscontract;\r\n\r\n    struct Phase {\r\n        uint total;\r\n        uint price;\r\n        uint phase;\r\n    }\r\n\r\n    Phase[] private phases;\r\n    mapping(address => uint) private purchasedTokens;\r\n\r\n    event TokensPurchased(address indexed buyer, uint amount);\r\n    event TokensClaimed(address indexed claimer, uint amount);\r\n    event USDTClaimed(address indexed claimer, uint amount);\r\n\r\n\r\n\r\n    constructor(address _token, address _paymentToken) {\r\n        owner = msg.sender;\r\n        token = IERC20(_token);\r\n        paymentToken = IERC20(_paymentToken);\r\n        currentPhaseIndex = 0;\r\n        sold = 0;\r\n        saleEnded = false;\r\n\r\n        buyPrice = 2.38 * 10 ** 18; // ajustar segun decimales del token USDT\r\n        phaseStartTime = block.timestamp;\r\n\r\n        for (uint i = 0; i < 3; i++) {\r\n            uint discountPercentage = (i == 0) ? 20 : (i == 1) ? 10 : 0;\r\n            uint discountedPrice = (buyPrice * (100 - discountPercentage)) / 100;\r\n            phases.push(Phase(phaseTarget, discountedPrice, i + 1));\r\n        }\r\n    }\r\n\r\n\r\n    function buy(uint tokens) public {\r\n        require(!saleEnded, \"Sale has ended\");\r\n        require(phase(currentPhaseIndex).total-sold >= tokens, \"Not enough tokens available in this phase\");\r\n\r\n        uint usdtToUse = tokens * phase(currentPhaseIndex).price;\r\n        require(paymentToken.allowance(msg.sender, address(this)) >= usdtToUse, \"Not enough USDT approved\");\r\n\r\n        require(paymentToken.transferFrom(msg.sender, address(this), usdtToUse), \"USDT transfer failed\");\r\n\r\n        sold += tokens;\r\n        totalTokensSold += tokens;\r\n        purchasedTokens[msg.sender] += tokens;\r\n\r\n        if (phases[currentPhaseIndex].total == sold) {\r\n            currentPhaseIndex++;\r\n            phaseStartTime = block.timestamp;\r\n            if (currentPhaseIndex == phases.length) {\r\n                saleEnded = true;\r\n            }\r\n            else sold = 0;\r\n        }\r\n        emit TokensPurchased(msg.sender, tokens);\r\n    }\r\n\r\n    function checkTimePhase() public view returns (uint) {\r\n        uint regressive = 600;\r\n        uint currentTime = block.timestamp;\r\n    \r\n        uint timeElapsed = phaseStartTime + regressive - currentTime; \r\n    \r\n        return timeElapsed; \r\n    }\r\n\r\n    function switchPhase() public onlyOwner() {\r\n        uint regressive = 600; \r\n        uint currentTime = block.timestamp;\r\n        uint timeElapsed = currentTime - phaseStartTime;\r\n        uint remainingTokens = phases[currentPhaseIndex].total - sold;\r\n\r\n        if (timeElapsed >= regressive) {\r\n            sold = 0;\r\n            currentPhaseIndex++; \r\n            phaseStartTime = currentTime; \r\n\r\n        \r\n            if (currentPhaseIndex > 0 && currentPhaseIndex < 3) {\r\n                phases[currentPhaseIndex].total += remainingTokens;\r\n            }\r\n        }\r\n    }\r\n\r\n    function claimUSDT() public onlyOwner {\r\n        uint amount = paymentToken.balanceOf(address(this)); \r\n        require(amount > 0, \"No USDT to claim\"); \r\n        require(paymentToken.transfer(owner, amount), \"USDT transfer failed\"); \r\n        emit USDTClaimed(owner, amount); \r\n    }\r\n\r\n\r\n\r\n\r\n    function claimTokens() public {\r\n        require(saleEnded, \"Sale has not ended yet\");\r\n        uint tokensToClaim = purchasedTokens[msg.sender];\r\n        require(tokensToClaim > 0, \"No tokens to claim\");\r\n\r\n        require(token.transfer(msg.sender, tokensToClaim * 10 ** 18), \"Token transfer failed\"); // ajustar segun decimales del token UNITY\r\n        purchasedTokens[msg.sender] = 0;\r\n\r\n        emit TokensClaimed(msg.sender, tokensToClaim);\r\n    }\r\n\r\n    function balanceOf(address account) public view returns (uint) {\r\n        return purchasedTokens[account];\r\n    }\r\n\r\n    function endSale() public onlyOwner {\r\n        require(!saleEnded, \"Sale has already ended\");\r\n        uint tokenSale = totalTokens();\r\n\r\n        uint remainingTokens = totalTokensSold - tokenSale ;\r\n\r\n        require(remainingTokens > 0, \"No remaining tokens to transfer\");\r\n\r\n        require(token.transfer(owner, remainingTokens * 10 ** 18), \"Token transfer failed\");\r\n\r\n        payable(owner).transfer(address(this).balance);\r\n\r\n        saleEnded = true;\r\n    }\r\n\r\n\r\n\r\n    function _unAmount(uint _amountDeci, uint decimals) private pure returns(uint){\r\n        return _amountDeci / (10**decimals);\r\n    }\r\n\r\n    function _tokens() public view returns (uint) {\r\n        return _unAmount(token.balanceOf(msg.sender), 18);\r\n    }\r\n\r\n\r\n\r\n    function tokensSold() public view returns (uint) {\r\n        return totalTokensSold;\r\n    }\r\n\r\n    function totalTokens() public view returns (uint) {\r\n        return token.balanceOf(address(this));\r\n    }\r\n\r\n    function currentPhase() public view returns (Phase memory, uint) {\r\n        if (currentPhaseIndex < phases.length) {\r\n            return (phases[currentPhaseIndex], sold);\r\n        }else {\r\n            return (phases[currentPhaseIndex - 1], sold);    \r\n        }\r\n    }\r\n\r\n    function phase(uint phaseId) public view returns (Phase memory) {\r\n        return phases[phaseId];\r\n    }\r\n\r\n    function _tokenPrice() public view returns (uint) {\r\n        return buyPrice;\r\n    }\r\n\r\n    modifier onlyOwner() {\r\n        require(msg.sender == owner, \"Only owner allowed\");\r\n        _;\r\n    }\r\n}",
  "sourcePath": "C:\\Users\\User\\Desktop\\solidity\\contracts\\SalesOficialUnityPrueba2.sol",
  "compiler": {
    "name": "solc",
    "version": "0.8.19+commit.7dd6d404.Emscripten.clang"
  },
  "schemaVersion": "3.4.16",
  "updatedAt": "2024-03-13T13:01:36.612Z",
  "devdoc": {
    "kind": "dev",
    "methods": {},
    "version": 1
  },
  "userdoc": {
    "kind": "user",
    "methods": {},
    "version": 1
  }
}