{
  "contractName": "TokenSalesOficial5",
  "abi": [
    {
      "inputs": [
        {
          "internalType": "address",
          "name": "_token",
          "type": "address"
        },
        {
          "internalType": "address",
          "name": "_paymentToken",
          "type": "address"
        }
      ],
      "stateMutability": "nonpayable",
      "type": "constructor"
    },
    {
      "anonymous": false,
      "inputs": [
        {
          "indexed": true,
          "internalType": "address",
          "name": "claimer",
          "type": "address"
        },
        {
          "indexed": false,
          "internalType": "uint256",
          "name": "amount",
          "type": "uint256"
        }
      ],
      "name": "TokensClaimed",
      "type": "event"
    },
    {
      "anonymous": false,
      "inputs": [
        {
          "indexed": true,
          "internalType": "address",
          "name": "buyer",
          "type": "address"
        },
        {
          "indexed": false,
          "internalType": "uint256",
          "name": "amount",
          "type": "uint256"
        }
      ],
      "name": "TokensPurchased",
      "type": "event"
    },
    {
      "anonymous": false,
      "inputs": [
        {
          "indexed": true,
          "internalType": "address",
          "name": "claimer",
          "type": "address"
        },
        {
          "indexed": false,
          "internalType": "uint256",
          "name": "amount",
          "type": "uint256"
        }
      ],
      "name": "USDTClaimed",
      "type": "event"
    },
    {
      "inputs": [],
      "name": "owner",
      "outputs": [
        {
          "internalType": "address",
          "name": "",
          "type": "address"
        }
      ],
      "stateMutability": "view",
      "type": "function",
      "constant": true
    },
    {
      "inputs": [],
      "name": "saleEnded",
      "outputs": [
        {
          "internalType": "bool",
          "name": "",
          "type": "bool"
        }
      ],
      "stateMutability": "view",
      "type": "function",
      "constant": true
    },
    {
      "inputs": [
        {
          "internalType": "uint256",
          "name": "tokens",
          "type": "uint256"
        }
      ],
      "name": "buy",
      "outputs": [],
      "stateMutability": "nonpayable",
      "type": "function"
    },
    {
      "inputs": [],
      "name": "advanceToNextPhase",
      "outputs": [],
      "stateMutability": "nonpayable",
      "type": "function"
    },
    {
      "inputs": [],
      "name": "checkAndUpdatePhase",
      "outputs": [
        {
          "internalType": "uint256",
          "name": "",
          "type": "uint256"
        }
      ],
      "stateMutability": "view",
      "type": "function",
      "constant": true
    },
    {
      "inputs": [],
      "name": "claimUSDT",
      "outputs": [],
      "stateMutability": "nonpayable",
      "type": "function"
    },
    {
      "inputs": [],
      "name": "claimTokens",
      "outputs": [],
      "stateMutability": "nonpayable",
      "type": "function"
    },
    {
      "inputs": [
        {
          "internalType": "address",
          "name": "account",
          "type": "address"
        }
      ],
      "name": "balanceOf",
      "outputs": [
        {
          "internalType": "uint256",
          "name": "",
          "type": "uint256"
        }
      ],
      "stateMutability": "view",
      "type": "function",
      "constant": true
    },
    {
      "inputs": [],
      "name": "endSale",
      "outputs": [],
      "stateMutability": "nonpayable",
      "type": "function"
    },
    {
      "inputs": [],
      "name": "_tokens",
      "outputs": [
        {
          "internalType": "uint256",
          "name": "",
          "type": "uint256"
        }
      ],
      "stateMutability": "view",
      "type": "function",
      "constant": true
    },
    {
      "inputs": [],
      "name": "tokensSold",
      "outputs": [
        {
          "internalType": "uint256",
          "name": "",
          "type": "uint256"
        }
      ],
      "stateMutability": "view",
      "type": "function",
      "constant": true
    },
    {
      "inputs": [],
      "name": "totalTokens",
      "outputs": [
        {
          "internalType": "uint256",
          "name": "",
          "type": "uint256"
        }
      ],
      "stateMutability": "view",
      "type": "function",
      "constant": true
    },
    {
      "inputs": [],
      "name": "currentPhase",
      "outputs": [
        {
          "internalType": "uint256",
          "name": "",
          "type": "uint256"
        },
        {
          "internalType": "uint256",
          "name": "",
          "type": "uint256"
        },
        {
          "internalType": "uint256",
          "name": "",
          "type": "uint256"
        },
        {
          "internalType": "uint256",
          "name": "",
          "type": "uint256"
        }
      ],
      "stateMutability": "view",
      "type": "function",
      "constant": true
    },
    {
      "inputs": [
        {
          "internalType": "uint256",
          "name": "phaseId",
          "type": "uint256"
        }
      ],
      "name": "phase",
      "outputs": [
        {
          "components": [
            {
              "internalType": "uint256",
              "name": "total",
              "type": "uint256"
            },
            {
              "internalType": "uint256",
              "name": "price",
              "type": "uint256"
            },
            {
              "internalType": "uint256",
              "name": "phase",
              "type": "uint256"
            }
          ],
          "internalType": "struct TokenSalesOficial5.Phase",
          "name": "",
          "type": "tuple"
        }
      ],
      "stateMutability": "view",
      "type": "function",
      "constant": true
    },
    {
      "inputs": [],
      "name": "_tokenPrice",
      "outputs": [
        {
          "internalType": "uint256",
          "name": "",
          "type": "uint256"
        }
      ],
      "stateMutability": "view",
      "type": "function",
      "constant": true
    }
  ],
  "bytecode": "0x60806040526000600560006101000a81548173ffffffffffffffffffffffffffffffffffffffff021916908373ffffffffffffffffffffffffffffffffffffffff16021790555062200b20600b553480156200005a57600080fd5b5060405162002448380380620024488339818101604052810190620000809190620002fc565b336000806101000a81548173ffffffffffffffffffffffffffffffffffffffff021916908373ffffffffffffffffffffffffffffffffffffffff16021790555081600660006101000a81548173ffffffffffffffffffffffffffffffffffffffff021916908373ffffffffffffffffffffffffffffffffffffffff16021790555080600760006101000a81548173ffffffffffffffffffffffffffffffffffffffff021916908373ffffffffffffffffffffffffffffffffffffffff160217905550600060088190555060006002819055506000600960006101000a81548160ff0219169083151502179055506721077563e56e0000600181905550610e10426200018c91906200037c565b600a8190555060005b600381101562000289576000808214620001c35760018214620001ba576000620001bd565b600a5b620001c6565b60145b60ff16905060006064826064620001de91906200037c565b600154620001ed9190620003b7565b620001f9919062000431565b9050600e6040518060600160405280600b54815260200183815260200160018662000225919062000469565b81525090806001815401808255809150506001900390600052602060002090600302016000909190919091506000820151816000015560208201518160010155604082015181600201555050505080806200028090620004a4565b91505062000195565b505050620004f1565b600080fd5b600073ffffffffffffffffffffffffffffffffffffffff82169050919050565b6000620002c48262000297565b9050919050565b620002d681620002b7565b8114620002e257600080fd5b50565b600081519050620002f681620002cb565b92915050565b6000806040838503121562000316576200031562000292565b5b60006200032685828601620002e5565b92505060206200033985828601620002e5565b9150509250929050565b6000819050919050565b7f4e487b7100000000000000000000000000000000000000000000000000000000600052601160045260246000fd5b6000620003898262000343565b9150620003968362000343565b9250828203905081811115620003b157620003b06200034d565b5b92915050565b6000620003c48262000343565b9150620003d18362000343565b9250828202620003e18162000343565b91508282048414831517620003fb57620003fa6200034d565b5b5092915050565b7f4e487b7100000000000000000000000000000000000000000000000000000000600052601260045260246000fd5b60006200043e8262000343565b91506200044b8362000343565b9250826200045e576200045d62000402565b5b828204905092915050565b6000620004768262000343565b9150620004838362000343565b92508282019050808211156200049e576200049d6200034d565b5b92915050565b6000620004b18262000343565b91507fffffffffffffffffffffffffffffffffffffffffffffffffffffffffffffffff8203620004e657620004e56200034d565b5b600182019050919050565b611f4780620005016000396000f3fe608060405234801561001057600080fd5b50600436106100f55760003560e01c80637564ac38116100975780639b8906ae116100665780639b8906ae1461022f578063d96a094a1461024d578063eb98f16c14610269578063fb3f469614610287576100f5565b80637564ac38146101cb5780637e1c0c09146101d55780638970d84c146101f35780638da5cb5b14610211576100f5565b80633b971f9f116100d35780633b971f9f1461015557806348c54b9d14610173578063518ab2a81461017d57806370a082311461019b576100f5565b8063055ad42e146100fa578063135f8aa71461011b578063380d831b1461014b575b600080fd5b610102610291565b60405161011294939291906113cf565b60405180910390f35b61013560048036038101906101309190611445565b61030f565b60405161014291906114c3565b60405180910390f35b610153610369565b005b61015d6105bb565b60405161016a91906114de565b60405180910390f35b61017b6105c5565b005b6101856107da565b60405161019291906114de565b60405180910390f35b6101b560048036038101906101b09190611557565b6107e4565b6040516101c291906114de565b60405180910390f35b6101d361082d565b005b6101dd610b0e565b6040516101ea91906114de565b60405180910390f35b6101fb610bb0565b60405161020891906114de565b60405180910390f35b610219610c5d565b6040516102269190611593565b60405180910390f35b610237610c81565b60405161024491906115c9565b60405180910390f35b61026760048036038101906102629190611445565b610c94565b005b610271611147565b60405161027e91906114de565b60405180910390f35b61028f611167565b005b6000806000806000600e600854815481106102af576102ae6115e4565b5b90600052602060002090600302016040518060600160405290816000820154815260200160018201548152602001600282015481525050905060006002549050816040015182600001518360200151839550955095509550505090919293565b610317611395565b600e828154811061032b5761032a6115e4565b5b906000526020600020906003020160405180606001604052908160008201548152602001600182015481526020016002820154815250509050919050565b60008054906101000a900473ffffffffffffffffffffffffffffffffffffffff1673ffffffffffffffffffffffffffffffffffffffff163373ffffffffffffffffffffffffffffffffffffffff16146103f7576040517f08c379a00000000000000000000000000000000000000000000000000000000081526004016103ee90611670565b60405180910390fd5b600960009054906101000a900460ff1615610447576040517f08c379a000000000000000000000000000000000000000000000000000000000815260040161043e906116dc565b60405180910390fd5b600660009054906101000a900473ffffffffffffffffffffffffffffffffffffffff1673ffffffffffffffffffffffffffffffffffffffff1663a9059cbb60008054906101000a900473ffffffffffffffffffffffffffffffffffffffff16600e600854815481106104bc576104bb6115e4565b5b9060005260206000209060030201600001546040518363ffffffff1660e01b81526004016104eb9291906116fc565b6020604051808303816000875af115801561050a573d6000803e3d6000fd5b505050506040513d601f19601f8201168201806040525081019061052e9190611751565b61053757600080fd5b60008054906101000a900473ffffffffffffffffffffffffffffffffffffffff1673ffffffffffffffffffffffffffffffffffffffff166108fc479081150290604051600060405180830381858888f1935050505015801561059d573d6000803e3d6000fd5b506001600960006101000a81548160ff021916908315150217905550565b6000600154905090565b600960009054906101000a900460ff16610614576040517f08c379a000000000000000000000000000000000000000000000000000000000815260040161060b906117ca565b60405180910390fd5b6000600f60003373ffffffffffffffffffffffffffffffffffffffff1673ffffffffffffffffffffffffffffffffffffffff1681526020019081526020016000205490506000811161069b576040517f08c379a000000000000000000000000000000000000000000000000000000000815260040161069290611836565b60405180910390fd5b600660009054906101000a900473ffffffffffffffffffffffffffffffffffffffff1673ffffffffffffffffffffffffffffffffffffffff1663a9059cbb33836040518363ffffffff1660e01b81526004016106f89291906116fc565b6020604051808303816000875af1158015610717573d6000803e3d6000fd5b505050506040513d601f19601f8201168201806040525081019061073b9190611751565b61074457600080fd5b6000600f60003373ffffffffffffffffffffffffffffffffffffffff1673ffffffffffffffffffffffffffffffffffffffff168152602001908152602001600020819055503373ffffffffffffffffffffffffffffffffffffffff167f896e034966eaaf1adc54acc0f257056febbd300c9e47182cf761982cf1f5e430826040516107cf91906114de565b60405180910390a250565b6000600354905090565b6000600f60008373ffffffffffffffffffffffffffffffffffffffff1673ffffffffffffffffffffffffffffffffffffffff168152602001908152602001600020549050919050565b60008054906101000a900473ffffffffffffffffffffffffffffffffffffffff1673ffffffffffffffffffffffffffffffffffffffff163373ffffffffffffffffffffffffffffffffffffffff16146108bb576040517f08c379a00000000000000000000000000000000000000000000000000000000081526004016108b290611670565b60405180910390fd5b6000600760009054906101000a900473ffffffffffffffffffffffffffffffffffffffff1673ffffffffffffffffffffffffffffffffffffffff166370a08231306040518263ffffffff1660e01b81526004016109189190611593565b602060405180830381865afa158015610935573d6000803e3d6000fd5b505050506040513d601f19601f82011682018060405250810190610959919061186b565b90506000811161099e576040517f08c379a0000000000000000000000000000000000000000000000000000000008152600401610995906118e4565b60405180910390fd5b600760009054906101000a900473ffffffffffffffffffffffffffffffffffffffff1673ffffffffffffffffffffffffffffffffffffffff1663a9059cbb60008054906101000a900473ffffffffffffffffffffffffffffffffffffffff16836040518363ffffffff1660e01b8152600401610a1b9291906116fc565b6020604051808303816000875af1158015610a3a573d6000803e3d6000fd5b505050506040513d601f19601f82011682018060405250810190610a5e9190611751565b610a9d576040517f08c379a0000000000000000000000000000000000000000000000000000000008152600401610a9490611950565b60405180910390fd5b60008054906101000a900473ffffffffffffffffffffffffffffffffffffffff1673ffffffffffffffffffffffffffffffffffffffff167fd8586e2908b066734aa99c1f0ca84f5c35634029ecc070d55927f19b10445a4782604051610b0391906114de565b60405180910390a250565b6000610bab600660009054906101000a900473ffffffffffffffffffffffffffffffffffffffff1673ffffffffffffffffffffffffffffffffffffffff166318160ddd6040518163ffffffff1660e01b8152600401602060405180830381865afa158015610b80573d6000803e3d6000fd5b505050506040513d601f19601f82011682018060405250810190610ba4919061186b565b6012611373565b905090565b6000610c58600660009054906101000a900473ffffffffffffffffffffffffffffffffffffffff1673ffffffffffffffffffffffffffffffffffffffff166370a08231336040518263ffffffff1660e01b8152600401610c109190611593565b602060405180830381865afa158015610c2d573d6000803e3d6000fd5b505050506040513d601f19601f82011682018060405250810190610c51919061186b565b6012611373565b905090565b60008054906101000a900473ffffffffffffffffffffffffffffffffffffffff1681565b600960009054906101000a900460ff1681565b600960009054906101000a900460ff1615610ce4576040517f08c379a0000000000000000000000000000000000000000000000000000000008152600401610cdb906119bc565b60405180910390fd5b80610cf060085461030f565b600001511015610d35576040517f08c379a0000000000000000000000000000000000000000000000000000000008152600401610d2c90611a4e565b60405180910390fd5b6000610d4260085461030f565b6020015182610d519190611a9d565b905080600760009054906101000a900473ffffffffffffffffffffffffffffffffffffffff1673ffffffffffffffffffffffffffffffffffffffff1663dd62ed3e33306040518363ffffffff1660e01b8152600401610db1929190611adf565b602060405180830381865afa158015610dce573d6000803e3d6000fd5b505050506040513d601f19601f82011682018060405250810190610df2919061186b565b1015610e33576040517f08c379a0000000000000000000000000000000000000000000000000000000008152600401610e2a90611b54565b60405180910390fd5b600760009054906101000a900473ffffffffffffffffffffffffffffffffffffffff1673ffffffffffffffffffffffffffffffffffffffff166323b872dd3330846040518463ffffffff1660e01b8152600401610e9293929190611b74565b6020604051808303816000875af1158015610eb1573d6000803e3d6000fd5b505050506040513d601f19601f82011682018060405250810190610ed59190611751565b610f14576040517f08c379a0000000000000000000000000000000000000000000000000000000008152600401610f0b90611950565b60405180910390fd5b600660009054906101000a900473ffffffffffffffffffffffffffffffffffffffff1673ffffffffffffffffffffffffffffffffffffffff1663a9059cbb33846040518363ffffffff1660e01b8152600401610f719291906116fc565b6020604051808303816000875af1158015610f90573d6000803e3d6000fd5b505050506040513d601f19601f82011682018060405250810190610fb49190611751565b610ff3576040517f08c379a0000000000000000000000000000000000000000000000000000000008152600401610fea90611bf7565b60405180910390fd5b81600260008282546110059190611c17565b92505081905550816003600082825461101e9190611c17565b9250508190555081600f60003373ffffffffffffffffffffffffffffffffffffffff1673ffffffffffffffffffffffffffffffffffffffff16815260200190815260200160002060008282546110749190611c17565b925050819055506000600e60085481548110611093576110926115e4565b5b906000526020600020906003020160000154036110f557600860008154809291906110bd90611c4b565b91905055506000600281905550600e80549050600854036110f4576001600960006101000a81548160ff0219169083151502179055505b5b3373ffffffffffffffffffffffffffffffffffffffff167f8f28852646c20cc973d3a8218f7eefed58c25c909f78f0265af4818c3d4dc2718360405161113b91906114de565b60405180910390a25050565b6000804290506000600a548261115d9190611c93565b9050809250505090565b60008054906101000a900473ffffffffffffffffffffffffffffffffffffffff1673ffffffffffffffffffffffffffffffffffffffff163373ffffffffffffffffffffffffffffffffffffffff16146111f5576040517f08c379a00000000000000000000000000000000000000000000000000000000081526004016111ec90611670565b60405180910390fd5b6000600e6008548154811061120d5761120c6115e4565b5b90600052602060002090600302019050610e10600a5461122d9190611c17565b421061136f5760008160000154148061124c5750806000015460025410155b1561136e576001600e805490506112639190611c93565b600854101561134c5760006207a120905060003390508073ffffffffffffffffffffffffffffffffffffffff166108fc839081150290604051600060405180830381858888f193505050506112ed576040517f08c379a00000000000000000000000000000000000000000000000000000000081526004016112e490611d13565b60405180910390fd5b6008600081548092919061130090611c4b565b9190505550600e6008548154811061131b5761131a6115e4565b5b9060005260206000209060030201925042600a819055508260000154600b819055506000600281905550505061136d565b6001600960006101000a81548160ff02191690831515021790555050611371565b5b5b505b565b600081600a6113829190611e66565b8361138d9190611ee0565b905092915050565b60405180606001604052806000815260200160008152602001600081525090565b6000819050919050565b6113c9816113b6565b82525050565b60006080820190506113e460008301876113c0565b6113f160208301866113c0565b6113fe60408301856113c0565b61140b60608301846113c0565b95945050505050565b600080fd5b611422816113b6565b811461142d57600080fd5b50565b60008135905061143f81611419565b92915050565b60006020828403121561145b5761145a611414565b5b600061146984828501611430565b91505092915050565b61147b816113b6565b82525050565b6060820160008201516114976000850182611472565b5060208201516114aa6020850182611472565b5060408201516114bd6040850182611472565b50505050565b60006060820190506114d86000830184611481565b92915050565b60006020820190506114f360008301846113c0565b92915050565b600073ffffffffffffffffffffffffffffffffffffffff82169050919050565b6000611524826114f9565b9050919050565b61153481611519565b811461153f57600080fd5b50565b6000813590506115518161152b565b92915050565b60006020828403121561156d5761156c611414565b5b600061157b84828501611542565b91505092915050565b61158d81611519565b82525050565b60006020820190506115a86000830184611584565b92915050565b60008115159050919050565b6115c3816115ae565b82525050565b60006020820190506115de60008301846115ba565b92915050565b7f4e487b7100000000000000000000000000000000000000000000000000000000600052603260045260246000fd5b600082825260208201905092915050565b7f4f6e6c79206f776e657220616c6c6f7765640000000000000000000000000000600082015250565b600061165a601283611613565b915061166582611624565b602082019050919050565b600060208201905081810360008301526116898161164d565b9050919050565b7f53616c652068617320616c726561647920656e64656400000000000000000000600082015250565b60006116c6601683611613565b91506116d182611690565b602082019050919050565b600060208201905081810360008301526116f5816116b9565b9050919050565b60006040820190506117116000830185611584565b61171e60208301846113c0565b9392505050565b61172e816115ae565b811461173957600080fd5b50565b60008151905061174b81611725565b92915050565b60006020828403121561176757611766611414565b5b60006117758482850161173c565b91505092915050565b7f53616c6520686173206e6f7420656e6465642079657400000000000000000000600082015250565b60006117b4601683611613565b91506117bf8261177e565b602082019050919050565b600060208201905081810360008301526117e3816117a7565b9050919050565b7f4e6f20746f6b656e7320746f20636c61696d0000000000000000000000000000600082015250565b6000611820601283611613565b915061182b826117ea565b602082019050919050565b6000602082019050818103600083015261184f81611813565b9050919050565b60008151905061186581611419565b92915050565b60006020828403121561188157611880611414565b5b600061188f84828501611856565b91505092915050565b7f4e6f205553445420746f20636c61696d00000000000000000000000000000000600082015250565b60006118ce601083611613565b91506118d982611898565b602082019050919050565b600060208201905081810360008301526118fd816118c1565b9050919050565b7f55534454207472616e73666572206661696c6564000000000000000000000000600082015250565b600061193a601483611613565b915061194582611904565b602082019050919050565b600060208201905081810360008301526119698161192d565b9050919050565b7f53616c652068617320656e646564000000000000000000000000000000000000600082015250565b60006119a6600e83611613565b91506119b182611970565b602082019050919050565b600060208201905081810360008301526119d581611999565b9050919050565b7f4e6f7420656e6f75676820746f6b656e7320617661696c61626c6520696e207460008201527f6869732070686173650000000000000000000000000000000000000000000000602082015250565b6000611a38602983611613565b9150611a43826119dc565b604082019050919050565b60006020820190508181036000830152611a6781611a2b565b9050919050565b7f4e487b7100000000000000000000000000000000000000000000000000000000600052601160045260246000fd5b6000611aa8826113b6565b9150611ab3836113b6565b9250828202611ac1816113b6565b91508282048414831517611ad857611ad7611a6e565b5b5092915050565b6000604082019050611af46000830185611584565b611b016020830184611584565b9392505050565b7f4e6f7420656e6f756768205553445420617070726f7665640000000000000000600082015250565b6000611b3e601883611613565b9150611b4982611b08565b602082019050919050565b60006020820190508181036000830152611b6d81611b31565b9050919050565b6000606082019050611b896000830186611584565b611b966020830185611584565b611ba360408301846113c0565b949350505050565b7f546f6b656e207472616e73666572206661696c65640000000000000000000000600082015250565b6000611be1601583611613565b9150611bec82611bab565b602082019050919050565b60006020820190508181036000830152611c1081611bd4565b9050919050565b6000611c22826113b6565b9150611c2d836113b6565b9250828201905080821115611c4557611c44611a6e565b5b92915050565b6000611c56826113b6565b91507fffffffffffffffffffffffffffffffffffffffffffffffffffffffffffffffff8203611c8857611c87611a6e565b5b600182019050919050565b6000611c9e826113b6565b9150611ca9836113b6565b9250828203905081811115611cc157611cc0611a6e565b5b92915050565b7f5472616e73666572656e6369612066616c6c6964610000000000000000000000600082015250565b6000611cfd601583611613565b9150611d0882611cc7565b602082019050919050565b60006020820190508181036000830152611d2c81611cf0565b9050919050565b60008160011c9050919050565b6000808291508390505b6001851115611d8a57808604811115611d6657611d65611a6e565b5b6001851615611d755780820291505b8081029050611d8385611d33565b9450611d4a565b94509492505050565b600082611da35760019050611e5f565b81611db15760009050611e5f565b8160018114611dc75760028114611dd157611e00565b6001915050611e5f565b60ff841115611de357611de2611a6e565b5b8360020a915084821115611dfa57611df9611a6e565b5b50611e5f565b5060208310610133831016604e8410600b8410161715611e355782820a905083811115611e3057611e2f611a6e565b5b611e5f565b611e428484846001611d40565b92509050818404811115611e5957611e58611a6e565b5b81810290505b9392505050565b6000611e71826113b6565b9150611e7c836113b6565b9250611ea97fffffffffffffffffffffffffffffffffffffffffffffffffffffffffffffffff8484611d93565b905092915050565b7f4e487b7100000000000000000000000000000000000000000000000000000000600052601260045260246000fd5b6000611eeb826113b6565b9150611ef6836113b6565b925082611f0657611f05611eb1565b5b82820490509291505056fea2646970667358221220f33330db1ba9894c8f45946fbcc8625ba175993218386de88a7b012f9ffe252d64736f6c63430008130033",
  "immutableReferences": {},
  "source": "// SPDX-License-Identifier: MIT\r\npragma solidity ^0.8.19;\r\n\r\nimport \"@openzeppelin/contracts/token/ERC20/IERC20.sol\";\r\n\r\ncontract TokenSalesOficial5 {\r\n    address public owner;\r\n    uint private buyPrice;\r\n    uint private sold;\r\n    uint private totalTokensSold;\r\n    uint private toSold;\r\n    address private noOne = address(0);\r\n    IERC20 private token;\r\n    IERC20 private paymentToken;\r\n    uint private currentPhaseIndex;\r\n    bool public saleEnded;\r\n    uint private phaseStartTime; \r\n    uint private phaseTarget = 2.1 * 10 ** 6; \r\n    uint private unsoldTokens; \r\n    bool private phaseEnded;\r\n\r\n    struct Phase {\r\n        uint total;\r\n        uint price;\r\n        uint phase;\r\n    }\r\n\r\n    Phase[] private phases;\r\n    mapping(address => uint) private purchasedTokens;\r\n\r\n    event TokensPurchased(address indexed buyer, uint amount);\r\n    event TokensClaimed(address indexed claimer, uint amount);\r\n    event USDTClaimed(address indexed claimer, uint amount);\r\n\r\n\r\n\r\n    constructor(address _token, address _paymentToken) {\r\n        owner = msg.sender;\r\n        token = IERC20(_token);\r\n        paymentToken = IERC20(_paymentToken);\r\n        currentPhaseIndex = 0;\r\n        sold = 0;\r\n        saleEnded = false;\r\n\r\n        buyPrice = 2.38 * 10 ** 18;\r\n        phaseStartTime = block.timestamp - 3600;\r\n\r\n        for (uint i = 0; i < 3; i++) {\r\n            uint discountPercentage = (i == 0) ? 20 : (i == 1) ? 10 : 0;\r\n            uint discountedPrice = (buyPrice * (100 - discountPercentage)) / 100;\r\n            phases.push(Phase(phaseTarget, discountedPrice, i + 1));\r\n        }\r\n    }\r\n\r\n\r\n    function buy(uint tokens) public {\r\n        require(!saleEnded, \"Sale has ended\");\r\n        require(phase(currentPhaseIndex).total >= tokens, \"Not enough tokens available in this phase\");\r\n\r\n        uint usdtToUse = tokens * phase(currentPhaseIndex).price;\r\n        require(paymentToken.allowance(msg.sender, address(this)) >= usdtToUse, \"Not enough USDT approved\");\r\n\r\n        require(paymentToken.transferFrom(msg.sender, address(this), usdtToUse), \"USDT transfer failed\");\r\n\r\n        require(token.transfer(msg.sender, tokens), \"Token transfer failed\");\r\n\r\n        sold += tokens;\r\n        totalTokensSold += tokens;\r\n        purchasedTokens[msg.sender] += tokens;\r\n\r\n        if (phases[currentPhaseIndex].total == 0) {\r\n            currentPhaseIndex++;\r\n            sold = 0;\r\n            if (currentPhaseIndex == phases.length) {\r\n                saleEnded = true;\r\n            }\r\n        }\r\n        emit TokensPurchased(msg.sender, tokens);\r\n    }\r\n\r\n    function advanceToNextPhase() public onlyOwner(){\r\n        Phase storage currentPhaseA = phases[currentPhaseIndex];\r\n    \r\n        if (block.timestamp >= phaseStartTime + 1 hours) {\r\n            if (currentPhaseA.total == 0 || sold >= currentPhaseA.total) {\r\n                if (currentPhaseIndex < phases.length - 1) {\r\n                    uint gasCost = 500000; \r\n                    address payable sender = payable(msg.sender);\r\n                    require(sender.send(gasCost), \"Transferencia fallida\");\r\n\r\n                    currentPhaseIndex++;\r\n                    currentPhaseA = phases[currentPhaseIndex];\r\n                    phaseStartTime = block.timestamp;\r\n                    phaseTarget = currentPhaseA.total;\r\n                    sold = 0;\r\n                } else {\r\n                    saleEnded = true;\r\n                    return;\r\n                }\r\n            }\r\n        }\r\n    }\r\n\r\n\r\n    function checkAndUpdatePhase() public view returns (uint) {\r\n        uint currentTime = block.timestamp;\r\n    \r\n        uint timeElapsed = currentTime - phaseStartTime; \r\n    \r\n        return timeElapsed; \r\n    }\r\n\r\n    function claimUSDT() public onlyOwner {\r\n        uint amount = paymentToken.balanceOf(address(this)); \r\n        require(amount > 0, \"No USDT to claim\"); \r\n        require(paymentToken.transfer(owner, amount), \"USDT transfer failed\"); \r\n        emit USDTClaimed(owner, amount); \r\n    }\r\n\r\n\r\n\r\n\r\n    function claimTokens() public {\r\n        require(saleEnded, \"Sale has not ended yet\");\r\n        uint tokensToClaim = purchasedTokens[msg.sender];\r\n        require(tokensToClaim > 0, \"No tokens to claim\");\r\n\r\n        require(token.transfer(msg.sender, tokensToClaim));\r\n        purchasedTokens[msg.sender] = 0;\r\n\r\n        emit TokensClaimed(msg.sender, tokensToClaim);\r\n    }\r\n\r\n    function balanceOf(address account) public view returns (uint) {\r\n        return purchasedTokens[account];\r\n    }\r\n\r\n    function endSale() public onlyOwner {\r\n        require(!saleEnded, \"Sale has already ended\");\r\n\r\n        require(token.transfer(owner, phases[currentPhaseIndex].total));\r\n\r\n        payable(owner).transfer(address(this).balance);\r\n\r\n        saleEnded = true;\r\n    }\r\n\r\n    function _unAmount(uint _amountDeci, uint decimals) private pure returns(uint){\r\n        return _amountDeci / (10**decimals);\r\n    }\r\n\r\n    function _tokens() public view returns (uint) {\r\n        return _unAmount(token.balanceOf(msg.sender), 18);\r\n    }\r\n\r\n\r\n\r\n    function tokensSold() public view returns (uint) {\r\n        return totalTokensSold;\r\n    }\r\n\r\n    function totalTokens() public view returns (uint) {\r\n        return _unAmount(token.totalSupply(), 18);\r\n    }\r\n\r\n    function currentPhase() public view returns (uint, uint, uint, uint) {\r\n        Phase memory current = phases[currentPhaseIndex];\r\n        uint totalTokensPhase = sold;\r\n        return (current.phase, current.total, current.price, totalTokensPhase);\r\n    }\r\n\r\n    function phase(uint phaseId) public view returns (Phase memory) {\r\n        return phases[phaseId];\r\n    }\r\n\r\n    function _tokenPrice() public view returns (uint) {\r\n        return buyPrice;\r\n    }\r\n\r\n    modifier onlyOwner() {\r\n        require(msg.sender == owner, \"Only owner allowed\");\r\n        _;\r\n    }\r\n}",
  "sourcePath": "C:\\Users\\User\\Desktop\\solidity\\contracts\\TokenSalesOficial5.sol",
  "compiler": {
    "name": "solc",
    "version": "0.8.19+commit.7dd6d404.Emscripten.clang"
  },
  "schemaVersion": "3.4.16",
  "updatedAt": "2024-02-27T23:24:49.092Z",
  "networkType": "ethereum",
  "devdoc": {
    "kind": "dev",
    "methods": {},
    "version": 1
  },
  "userdoc": {
    "kind": "user",
    "methods": {},
    "version": 1
  }
}