{
  "contractName": "TokenSalesOficial18",
  "abi": [
    {
      "inputs": [
        {
          "internalType": "address",
          "name": "_token",
          "type": "address"
        },
        {
          "internalType": "address",
          "name": "_paymentToken",
          "type": "address"
        }
      ],
      "stateMutability": "nonpayable",
      "type": "constructor"
    },
    {
      "anonymous": false,
      "inputs": [
        {
          "indexed": true,
          "internalType": "address",
          "name": "claimer",
          "type": "address"
        },
        {
          "indexed": false,
          "internalType": "uint256",
          "name": "amount",
          "type": "uint256"
        }
      ],
      "name": "TokensClaimed",
      "type": "event"
    },
    {
      "anonymous": false,
      "inputs": [
        {
          "indexed": true,
          "internalType": "address",
          "name": "buyer",
          "type": "address"
        },
        {
          "indexed": false,
          "internalType": "uint256",
          "name": "amount",
          "type": "uint256"
        }
      ],
      "name": "TokensPurchased",
      "type": "event"
    },
    {
      "anonymous": false,
      "inputs": [
        {
          "indexed": true,
          "internalType": "address",
          "name": "claimer",
          "type": "address"
        },
        {
          "indexed": false,
          "internalType": "uint256",
          "name": "amount",
          "type": "uint256"
        }
      ],
      "name": "USDTClaimed",
      "type": "event"
    },
    {
      "inputs": [],
      "name": "owner",
      "outputs": [
        {
          "internalType": "address",
          "name": "",
          "type": "address"
        }
      ],
      "stateMutability": "view",
      "type": "function",
      "constant": true
    },
    {
      "inputs": [],
      "name": "saleEnded",
      "outputs": [
        {
          "internalType": "bool",
          "name": "",
          "type": "bool"
        }
      ],
      "stateMutability": "view",
      "type": "function",
      "constant": true
    },
    {
      "inputs": [
        {
          "internalType": "uint256",
          "name": "tokens",
          "type": "uint256"
        }
      ],
      "name": "buy",
      "outputs": [],
      "stateMutability": "nonpayable",
      "type": "function"
    },
    {
      "inputs": [],
      "name": "checkAndUpdatePhase",
      "outputs": [
        {
          "internalType": "uint256",
          "name": "",
          "type": "uint256"
        }
      ],
      "stateMutability": "view",
      "type": "function",
      "constant": true
    },
    {
      "inputs": [],
      "name": "claimUSDT",
      "outputs": [],
      "stateMutability": "nonpayable",
      "type": "function"
    },
    {
      "inputs": [],
      "name": "claimTokens",
      "outputs": [],
      "stateMutability": "nonpayable",
      "type": "function"
    },
    {
      "inputs": [
        {
          "internalType": "address",
          "name": "account",
          "type": "address"
        }
      ],
      "name": "balanceOf",
      "outputs": [
        {
          "internalType": "uint256",
          "name": "",
          "type": "uint256"
        }
      ],
      "stateMutability": "view",
      "type": "function",
      "constant": true
    },
    {
      "inputs": [],
      "name": "endSale",
      "outputs": [],
      "stateMutability": "nonpayable",
      "type": "function"
    },
    {
      "inputs": [],
      "name": "_tokens",
      "outputs": [
        {
          "internalType": "uint256",
          "name": "",
          "type": "uint256"
        }
      ],
      "stateMutability": "view",
      "type": "function",
      "constant": true
    },
    {
      "inputs": [],
      "name": "tokensSold",
      "outputs": [
        {
          "internalType": "uint256",
          "name": "",
          "type": "uint256"
        }
      ],
      "stateMutability": "view",
      "type": "function",
      "constant": true
    },
    {
      "inputs": [],
      "name": "totalTokens",
      "outputs": [
        {
          "internalType": "uint256",
          "name": "",
          "type": "uint256"
        }
      ],
      "stateMutability": "view",
      "type": "function",
      "constant": true
    },
    {
      "inputs": [],
      "name": "currentPhase",
      "outputs": [
        {
          "components": [
            {
              "internalType": "uint256",
              "name": "total",
              "type": "uint256"
            },
            {
              "internalType": "uint256",
              "name": "price",
              "type": "uint256"
            },
            {
              "internalType": "uint256",
              "name": "phase",
              "type": "uint256"
            }
          ],
          "internalType": "struct TokenSalesOficial18.Phase",
          "name": "",
          "type": "tuple"
        },
        {
          "internalType": "uint256",
          "name": "",
          "type": "uint256"
        }
      ],
      "stateMutability": "view",
      "type": "function",
      "constant": true
    },
    {
      "inputs": [
        {
          "internalType": "uint256",
          "name": "phaseId",
          "type": "uint256"
        }
      ],
      "name": "phase",
      "outputs": [
        {
          "components": [
            {
              "internalType": "uint256",
              "name": "total",
              "type": "uint256"
            },
            {
              "internalType": "uint256",
              "name": "price",
              "type": "uint256"
            },
            {
              "internalType": "uint256",
              "name": "phase",
              "type": "uint256"
            }
          ],
          "internalType": "struct TokenSalesOficial18.Phase",
          "name": "",
          "type": "tuple"
        }
      ],
      "stateMutability": "view",
      "type": "function",
      "constant": true
    },
    {
      "inputs": [],
      "name": "_tokenPrice",
      "outputs": [
        {
          "internalType": "uint256",
          "name": "",
          "type": "uint256"
        }
      ],
      "stateMutability": "view",
      "type": "function",
      "constant": true
    }
  ],
  "bytecode": "0x608060405262200b206009553480156200001857600080fd5b506040516200227a3803806200227a83398181016040528101906200003e9190620002ab565b336000806101000a81548173ffffffffffffffffffffffffffffffffffffffff021916908373ffffffffffffffffffffffffffffffffffffffff16021790555081600460006101000a81548173ffffffffffffffffffffffffffffffffffffffff021916908373ffffffffffffffffffffffffffffffffffffffff16021790555080600560006101000a81548173ffffffffffffffffffffffffffffffffffffffff021916908373ffffffffffffffffffffffffffffffffffffffff160217905550600060068190555060006002819055506000600760006101000a81548160ff0219169083151502179055506721077563e56e00006001819055504260088190555060005b600381101562000238576000808214620001725760018214620001695760006200016c565b600a5b62000175565b60145b60ff169050600060648260646200018d91906200032b565b6001546200019c919062000366565b620001a89190620003e0565b9050600b60405180606001604052806009548152602001838152602001600186620001d4919062000418565b81525090806001815401808255809150506001900390600052602060002090600302016000909190919091506000820151816000015560208201518160010155604082015181600201555050505080806200022f9062000453565b91505062000144565b505050620004a0565b600080fd5b600073ffffffffffffffffffffffffffffffffffffffff82169050919050565b6000620002738262000246565b9050919050565b620002858162000266565b81146200029157600080fd5b50565b600081519050620002a5816200027a565b92915050565b60008060408385031215620002c557620002c462000241565b5b6000620002d58582860162000294565b9250506020620002e88582860162000294565b9150509250929050565b6000819050919050565b7f4e487b7100000000000000000000000000000000000000000000000000000000600052601160045260246000fd5b60006200033882620002f2565b91506200034583620002f2565b925082820390508181111562000360576200035f620002fc565b5b92915050565b60006200037382620002f2565b91506200038083620002f2565b92508282026200039081620002f2565b91508282048414831517620003aa57620003a9620002fc565b5b5092915050565b7f4e487b7100000000000000000000000000000000000000000000000000000000600052601260045260246000fd5b6000620003ed82620002f2565b9150620003fa83620002f2565b9250826200040d576200040c620003b1565b5b828204905092915050565b60006200042582620002f2565b91506200043283620002f2565b92508282019050808211156200044d576200044c620002fc565b5b92915050565b60006200046082620002f2565b91507fffffffffffffffffffffffffffffffffffffffffffffffffffffffffffffffff8203620004955762000494620002fc565b5b600182019050919050565b611dca80620004b06000396000f3fe608060405234801561001057600080fd5b50600436106100ea5760003560e01c80637564ac381161008c5780638da5cb5b116100665780638da5cb5b146102045780639b8906ae14610222578063d96a094a14610240578063eb98f16c1461025c576100ea565b80637564ac38146101be5780637e1c0c09146101c85780638970d84c146101e6576100ea565b80633b971f9f116100c85780633b971f9f1461014857806348c54b9d14610166578063518ab2a81461017057806370a082311461018e576100ea565b8063055ad42e146100ef578063135f8aa71461010e578063380d831b1461013e575b600080fd5b6100f761027a565b6040516101059291906112bf565b60405180910390f35b61012860048036038101906101239190611319565b610357565b6040516101359190611346565b60405180910390f35b6101466103b1565b005b6101506106d6565b60405161015d9190611361565b60405180910390f35b61016e6106e0565b005b61017861093e565b6040516101859190611361565b60405180910390f35b6101a860048036038101906101a391906113da565b610948565b6040516101b59190611361565b60405180910390f35b6101c6610991565b005b6101d0610c72565b6040516101dd9190611361565b60405180910390f35b6101ee610d14565b6040516101fb9190611361565b60405180910390f35b61020c610dc1565b6040516102199190611416565b60405180910390f35b61022a610de5565b604051610237919061144c565b60405180910390f35b61025a60048036038101906102559190611319565b610df8565b005b6102646111df565b6040516102719190611361565b60405180910390f35b610282611234565b6000600b8054905060065410156102ef57600b600654815481106102a9576102a8611467565b5b9060005260206000209060030201600254816040518060600160405290816000820154815260200160018201548152602001600282015481525050915091509150610353565b600b600160065461030091906114c5565b8154811061031157610310611467565b5b90600052602060002090600302016002548160405180606001604052908160008201548152602001600182015481526020016002820154815250509150915091505b9091565b61035f611234565b600b828154811061037357610372611467565b5b906000526020600020906003020160405180606001604052908160008201548152602001600182015481526020016002820154815250509050919050565b60008054906101000a900473ffffffffffffffffffffffffffffffffffffffff1673ffffffffffffffffffffffffffffffffffffffff163373ffffffffffffffffffffffffffffffffffffffff161461043f576040517f08c379a000000000000000000000000000000000000000000000000000000000815260040161043690611556565b60405180910390fd5b600760009054906101000a900460ff161561048f576040517f08c379a0000000000000000000000000000000000000000000000000000000008152600401610486906115c2565b60405180910390fd5b60008060065490505b600b805490508110156104eb57600b81815481106104b9576104b8611467565b5b906000526020600020906003020160000154826104d691906115e2565b915080806104e390611616565b915050610498565b50600354816104fa91906114c5565b90506000811161053f576040517f08c379a0000000000000000000000000000000000000000000000000000000008152600401610536906116aa565b60405180910390fd5b600460009054906101000a900473ffffffffffffffffffffffffffffffffffffffff1673ffffffffffffffffffffffffffffffffffffffff1663a9059cbb60008054906101000a900473ffffffffffffffffffffffffffffffffffffffff16670de0b6b3a7640000846105b291906116ca565b6040518363ffffffff1660e01b81526004016105cf92919061170c565b6020604051808303816000875af11580156105ee573d6000803e3d6000fd5b505050506040513d601f19601f820116820180604052508101906106129190611761565b610651576040517f08c379a0000000000000000000000000000000000000000000000000000000008152600401610648906117da565b60405180910390fd5b60008054906101000a900473ffffffffffffffffffffffffffffffffffffffff1673ffffffffffffffffffffffffffffffffffffffff166108fc479081150290604051600060405180830381858888f193505050501580156106b7573d6000803e3d6000fd5b506001600760006101000a81548160ff02191690831515021790555050565b6000600154905090565b600760009054906101000a900460ff1661072f576040517f08c379a000000000000000000000000000000000000000000000000000000000815260040161072690611846565b60405180910390fd5b6000600c60003373ffffffffffffffffffffffffffffffffffffffff1673ffffffffffffffffffffffffffffffffffffffff168152602001908152602001600020549050600081116107b6576040517f08c379a00000000000000000000000000000000000000000000000000000000081526004016107ad906118b2565b60405180910390fd5b600460009054906101000a900473ffffffffffffffffffffffffffffffffffffffff1673ffffffffffffffffffffffffffffffffffffffff1663a9059cbb33670de0b6b3a76400008461080991906116ca565b6040518363ffffffff1660e01b815260040161082692919061170c565b6020604051808303816000875af1158015610845573d6000803e3d6000fd5b505050506040513d601f19601f820116820180604052508101906108699190611761565b6108a8576040517f08c379a000000000000000000000000000000000000000000000000000000000815260040161089f906117da565b60405180910390fd5b6000600c60003373ffffffffffffffffffffffffffffffffffffffff1673ffffffffffffffffffffffffffffffffffffffff168152602001908152602001600020819055503373ffffffffffffffffffffffffffffffffffffffff167f896e034966eaaf1adc54acc0f257056febbd300c9e47182cf761982cf1f5e430826040516109339190611361565b60405180910390a250565b6000600354905090565b6000600c60008373ffffffffffffffffffffffffffffffffffffffff1673ffffffffffffffffffffffffffffffffffffffff168152602001908152602001600020549050919050565b60008054906101000a900473ffffffffffffffffffffffffffffffffffffffff1673ffffffffffffffffffffffffffffffffffffffff163373ffffffffffffffffffffffffffffffffffffffff1614610a1f576040517f08c379a0000000000000000000000000000000000000000000000000000000008152600401610a1690611556565b60405180910390fd5b6000600560009054906101000a900473ffffffffffffffffffffffffffffffffffffffff1673ffffffffffffffffffffffffffffffffffffffff166370a08231306040518263ffffffff1660e01b8152600401610a7c9190611416565b602060405180830381865afa158015610a99573d6000803e3d6000fd5b505050506040513d601f19601f82011682018060405250810190610abd91906118e7565b905060008111610b02576040517f08c379a0000000000000000000000000000000000000000000000000000000008152600401610af990611960565b60405180910390fd5b600560009054906101000a900473ffffffffffffffffffffffffffffffffffffffff1673ffffffffffffffffffffffffffffffffffffffff1663a9059cbb60008054906101000a900473ffffffffffffffffffffffffffffffffffffffff16836040518363ffffffff1660e01b8152600401610b7f92919061170c565b6020604051808303816000875af1158015610b9e573d6000803e3d6000fd5b505050506040513d601f19601f82011682018060405250810190610bc29190611761565b610c01576040517f08c379a0000000000000000000000000000000000000000000000000000000008152600401610bf8906119cc565b60405180910390fd5b60008054906101000a900473ffffffffffffffffffffffffffffffffffffffff1673ffffffffffffffffffffffffffffffffffffffff167fd8586e2908b066734aa99c1f0ca84f5c35634029ecc070d55927f19b10445a4782604051610c679190611361565b60405180910390a250565b6000610d0f600460009054906101000a900473ffffffffffffffffffffffffffffffffffffffff1673ffffffffffffffffffffffffffffffffffffffff166318160ddd6040518163ffffffff1660e01b8152600401602060405180830381865afa158015610ce4573d6000803e3d6000fd5b505050506040513d601f19601f82011682018060405250810190610d0891906118e7565b6012611212565b905090565b6000610dbc600460009054906101000a900473ffffffffffffffffffffffffffffffffffffffff1673ffffffffffffffffffffffffffffffffffffffff166370a08231336040518263ffffffff1660e01b8152600401610d749190611416565b602060405180830381865afa158015610d91573d6000803e3d6000fd5b505050506040513d601f19601f82011682018060405250810190610db591906118e7565b6012611212565b905090565b60008054906101000a900473ffffffffffffffffffffffffffffffffffffffff1681565b600760009054906101000a900460ff1681565b600760009054906101000a900460ff1615610e48576040517f08c379a0000000000000000000000000000000000000000000000000000000008152600401610e3f90611a38565b60405180910390fd5b80600254610e57600654610357565b60000151610e6591906114c5565b1015610ea6576040517f08c379a0000000000000000000000000000000000000000000000000000000008152600401610e9d90611aca565b60405180910390fd5b6000610eb3600654610357565b6020015182610ec291906116ca565b905080600560009054906101000a900473ffffffffffffffffffffffffffffffffffffffff1673ffffffffffffffffffffffffffffffffffffffff1663dd62ed3e33306040518363ffffffff1660e01b8152600401610f22929190611aea565b602060405180830381865afa158015610f3f573d6000803e3d6000fd5b505050506040513d601f19601f82011682018060405250810190610f6391906118e7565b1015610fa4576040517f08c379a0000000000000000000000000000000000000000000000000000000008152600401610f9b90611b5f565b60405180910390fd5b600560009054906101000a900473ffffffffffffffffffffffffffffffffffffffff1673ffffffffffffffffffffffffffffffffffffffff166323b872dd3330846040518463ffffffff1660e01b815260040161100393929190611b7f565b6020604051808303816000875af1158015611022573d6000803e3d6000fd5b505050506040513d601f19601f820116820180604052508101906110469190611761565b611085576040517f08c379a000000000000000000000000000000000000000000000000000000000815260040161107c906119cc565b60405180910390fd5b816002600082825461109791906115e2565b9250508190555081600360008282546110b091906115e2565b9250508190555081600c60003373ffffffffffffffffffffffffffffffffffffffff1673ffffffffffffffffffffffffffffffffffffffff168152602001908152602001600020600082825461110691906115e2565b92505081905550600254600b6006548154811061112657611125611467565b5b9060005260206000209060030201600001540361118d576006600081548092919061115090611616565b9190505550600b8054905060065403611183576001600760006101000a81548160ff02191690831515021790555061118c565b60006002819055505b5b3373ffffffffffffffffffffffffffffffffffffffff167f8f28852646c20cc973d3a8218f7eefed58c25c909f78f0265af4818c3d4dc271836040516111d39190611361565b60405180910390a25050565b600080610e1090506000429050600081836008546111fd91906115e2565b61120791906114c5565b905080935050505090565b600081600a6112219190611ce9565b8361122c9190611d63565b905092915050565b60405180606001604052806000815260200160008152602001600081525090565b6000819050919050565b61126881611255565b82525050565b606082016000820151611284600085018261125f565b506020820151611297602085018261125f565b5060408201516112aa604085018261125f565b50505050565b6112b981611255565b82525050565b60006080820190506112d4600083018561126e565b6112e160608301846112b0565b9392505050565b600080fd5b6112f681611255565b811461130157600080fd5b50565b600081359050611313816112ed565b92915050565b60006020828403121561132f5761132e6112e8565b5b600061133d84828501611304565b91505092915050565b600060608201905061135b600083018461126e565b92915050565b600060208201905061137660008301846112b0565b92915050565b600073ffffffffffffffffffffffffffffffffffffffff82169050919050565b60006113a78261137c565b9050919050565b6113b78161139c565b81146113c257600080fd5b50565b6000813590506113d4816113ae565b92915050565b6000602082840312156113f0576113ef6112e8565b5b60006113fe848285016113c5565b91505092915050565b6114108161139c565b82525050565b600060208201905061142b6000830184611407565b92915050565b60008115159050919050565b61144681611431565b82525050565b6000602082019050611461600083018461143d565b92915050565b7f4e487b7100000000000000000000000000000000000000000000000000000000600052603260045260246000fd5b7f4e487b7100000000000000000000000000000000000000000000000000000000600052601160045260246000fd5b60006114d082611255565b91506114db83611255565b92508282039050818111156114f3576114f2611496565b5b92915050565b600082825260208201905092915050565b7f4f6e6c79206f776e657220616c6c6f7765640000000000000000000000000000600082015250565b60006115406012836114f9565b915061154b8261150a565b602082019050919050565b6000602082019050818103600083015261156f81611533565b9050919050565b7f53616c652068617320616c726561647920656e64656400000000000000000000600082015250565b60006115ac6016836114f9565b91506115b782611576565b602082019050919050565b600060208201905081810360008301526115db8161159f565b9050919050565b60006115ed82611255565b91506115f883611255565b92508282019050808211156116105761160f611496565b5b92915050565b600061162182611255565b91507fffffffffffffffffffffffffffffffffffffffffffffffffffffffffffffffff820361165357611652611496565b5b600182019050919050565b7f4e6f2072656d61696e696e6720746f6b656e7320746f207472616e7366657200600082015250565b6000611694601f836114f9565b915061169f8261165e565b602082019050919050565b600060208201905081810360008301526116c381611687565b9050919050565b60006116d582611255565b91506116e083611255565b92508282026116ee81611255565b9150828204841483151761170557611704611496565b5b5092915050565b60006040820190506117216000830185611407565b61172e60208301846112b0565b9392505050565b61173e81611431565b811461174957600080fd5b50565b60008151905061175b81611735565b92915050565b600060208284031215611777576117766112e8565b5b60006117858482850161174c565b91505092915050565b7f546f6b656e207472616e73666572206661696c65640000000000000000000000600082015250565b60006117c46015836114f9565b91506117cf8261178e565b602082019050919050565b600060208201905081810360008301526117f3816117b7565b9050919050565b7f53616c6520686173206e6f7420656e6465642079657400000000000000000000600082015250565b60006118306016836114f9565b915061183b826117fa565b602082019050919050565b6000602082019050818103600083015261185f81611823565b9050919050565b7f4e6f20746f6b656e7320746f20636c61696d0000000000000000000000000000600082015250565b600061189c6012836114f9565b91506118a782611866565b602082019050919050565b600060208201905081810360008301526118cb8161188f565b9050919050565b6000815190506118e1816112ed565b92915050565b6000602082840312156118fd576118fc6112e8565b5b600061190b848285016118d2565b91505092915050565b7f4e6f205553445420746f20636c61696d00000000000000000000000000000000600082015250565b600061194a6010836114f9565b915061195582611914565b602082019050919050565b600060208201905081810360008301526119798161193d565b9050919050565b7f55534454207472616e73666572206661696c6564000000000000000000000000600082015250565b60006119b66014836114f9565b91506119c182611980565b602082019050919050565b600060208201905081810360008301526119e5816119a9565b9050919050565b7f53616c652068617320656e646564000000000000000000000000000000000000600082015250565b6000611a22600e836114f9565b9150611a2d826119ec565b602082019050919050565b60006020820190508181036000830152611a5181611a15565b9050919050565b7f4e6f7420656e6f75676820746f6b656e7320617661696c61626c6520696e207460008201527f6869732070686173650000000000000000000000000000000000000000000000602082015250565b6000611ab46029836114f9565b9150611abf82611a58565b604082019050919050565b60006020820190508181036000830152611ae381611aa7565b9050919050565b6000604082019050611aff6000830185611407565b611b0c6020830184611407565b9392505050565b7f4e6f7420656e6f756768205553445420617070726f7665640000000000000000600082015250565b6000611b496018836114f9565b9150611b5482611b13565b602082019050919050565b60006020820190508181036000830152611b7881611b3c565b9050919050565b6000606082019050611b946000830186611407565b611ba16020830185611407565b611bae60408301846112b0565b949350505050565b60008160011c9050919050565b6000808291508390505b6001851115611c0d57808604811115611be957611be8611496565b5b6001851615611bf85780820291505b8081029050611c0685611bb6565b9450611bcd565b94509492505050565b600082611c265760019050611ce2565b81611c345760009050611ce2565b8160018114611c4a5760028114611c5457611c83565b6001915050611ce2565b60ff841115611c6657611c65611496565b5b8360020a915084821115611c7d57611c7c611496565b5b50611ce2565b5060208310610133831016604e8410600b8410161715611cb85782820a905083811115611cb357611cb2611496565b5b611ce2565b611cc58484846001611bc3565b92509050818404811115611cdc57611cdb611496565b5b81810290505b9392505050565b6000611cf482611255565b9150611cff83611255565b9250611d2c7fffffffffffffffffffffffffffffffffffffffffffffffffffffffffffffffff8484611c16565b905092915050565b7f4e487b7100000000000000000000000000000000000000000000000000000000600052601260045260246000fd5b6000611d6e82611255565b9150611d7983611255565b925082611d8957611d88611d34565b5b82820490509291505056fea2646970667358221220c5594079e99139fcc98af8fbe78d4d074d979f8a59bf90172702a20149ed8d2264736f6c63430008130033",
  "immutableReferences": {},
  "source": "// SPDX-License-Identifier: MIT\r\npragma solidity ^0.8.19;\r\n\r\nimport \"@openzeppelin/contracts/token/ERC20/IERC20.sol\";\r\n\r\ncontract TokenSalesOficial18 {\r\n    address public owner;\r\n    uint private buyPrice;\r\n    uint private sold;\r\n    uint private totalTokensSold;\r\n    IERC20 private token;\r\n    IERC20 private paymentToken;\r\n    uint private currentPhaseIndex;\r\n    bool public saleEnded;\r\n    uint private phaseStartTime; \r\n    uint private phaseTarget = 2.1 * 10 ** 6; \r\n    uint private unsoldTokens;\r\n\r\n    struct Phase {\r\n        uint total;\r\n        uint price;\r\n        uint phase;\r\n    }\r\n\r\n    Phase[] private phases;\r\n    mapping(address => uint) private purchasedTokens;\r\n\r\n    event TokensPurchased(address indexed buyer, uint amount);\r\n    event TokensClaimed(address indexed claimer, uint amount);\r\n    event USDTClaimed(address indexed claimer, uint amount);\r\n\r\n\r\n\r\n    constructor(address _token, address _paymentToken) {\r\n        owner = msg.sender;\r\n        token = IERC20(_token);\r\n        paymentToken = IERC20(_paymentToken);\r\n        currentPhaseIndex = 0;\r\n        sold = 0;\r\n        saleEnded = false;\r\n\r\n        buyPrice = 2.38 * 10 ** 18;\r\n        phaseStartTime = block.timestamp;\r\n\r\n        for (uint i = 0; i < 3; i++) {\r\n            uint discountPercentage = (i == 0) ? 20 : (i == 1) ? 10 : 0;\r\n            uint discountedPrice = (buyPrice * (100 - discountPercentage)) / 100;\r\n            phases.push(Phase(phaseTarget, discountedPrice, i + 1));\r\n        }\r\n    }\r\n\r\n\r\n    function buy(uint tokens) public {\r\n        require(!saleEnded, \"Sale has ended\");\r\n        require(phase(currentPhaseIndex).total-sold >= tokens, \"Not enough tokens available in this phase\");\r\n\r\n        uint usdtToUse = tokens * phase(currentPhaseIndex).price;\r\n        require(paymentToken.allowance(msg.sender, address(this)) >= usdtToUse, \"Not enough USDT approved\");\r\n\r\n        require(paymentToken.transferFrom(msg.sender, address(this), usdtToUse), \"USDT transfer failed\");\r\n\r\n        sold += tokens;\r\n        totalTokensSold += tokens;\r\n        purchasedTokens[msg.sender] += tokens;\r\n\r\n        if (phases[currentPhaseIndex].total == sold) {\r\n            currentPhaseIndex++;\r\n            if (currentPhaseIndex == phases.length) {\r\n                saleEnded = true;\r\n            }\r\n            else sold = 0;\r\n        }\r\n        emit TokensPurchased(msg.sender, tokens);\r\n    }\r\n\r\n    function checkAndUpdatePhase() public view returns (uint) {\r\n        uint regressive = 3600;\r\n        uint currentTime = block.timestamp;\r\n    \r\n        uint timeElapsed = phaseStartTime + regressive - currentTime; \r\n    \r\n        return timeElapsed; \r\n    }\r\n\r\n    function claimUSDT() public onlyOwner {\r\n        uint amount = paymentToken.balanceOf(address(this)); \r\n        require(amount > 0, \"No USDT to claim\"); \r\n        require(paymentToken.transfer(owner, amount), \"USDT transfer failed\"); \r\n        emit USDTClaimed(owner, amount); \r\n    }\r\n\r\n\r\n\r\n\r\n    function claimTokens() public {\r\n        require(saleEnded, \"Sale has not ended yet\");\r\n        uint tokensToClaim = purchasedTokens[msg.sender];\r\n        require(tokensToClaim > 0, \"No tokens to claim\");\r\n\r\n        require(token.transfer(msg.sender, tokensToClaim * 10 ** 18), \"Token transfer failed\");\r\n        purchasedTokens[msg.sender] = 0;\r\n\r\n        emit TokensClaimed(msg.sender, tokensToClaim);\r\n    }\r\n\r\n    function balanceOf(address account) public view returns (uint) {\r\n        return purchasedTokens[account];\r\n    }\r\n\r\n    function endSale() public onlyOwner {\r\n        require(!saleEnded, \"Sale has already ended\");\r\n\r\n        uint remainingTokens = 0;\r\n        for (uint i = currentPhaseIndex; i < phases.length; i++) {\r\n            remainingTokens += phases[i].total;\r\n        }\r\n        remainingTokens -= totalTokensSold; // Restamos los tokens vendidos\r\n\r\n        require(remainingTokens > 0, \"No remaining tokens to transfer\");\r\n\r\n        require(token.transfer(owner, remainingTokens * 10 ** 18), \"Token transfer failed\");\r\n\r\n        payable(owner).transfer(address(this).balance);\r\n\r\n        saleEnded = true;\r\n    }\r\n\r\n\r\n\r\n    function _unAmount(uint _amountDeci, uint decimals) private pure returns(uint){\r\n        return _amountDeci / (10**decimals);\r\n    }\r\n\r\n    function _tokens() public view returns (uint) {\r\n        return _unAmount(token.balanceOf(msg.sender), 18);\r\n    }\r\n\r\n\r\n\r\n    function tokensSold() public view returns (uint) {\r\n        return totalTokensSold;\r\n    }\r\n\r\n    function totalTokens() public view returns (uint) {\r\n        return _unAmount(token.totalSupply(), 18);\r\n    }\r\n\r\n    function currentPhase() public view returns (Phase memory, uint) {\r\n        if (currentPhaseIndex < phases.length) {\r\n            return (phases[currentPhaseIndex], sold);\r\n        }else {\r\n            return (phases[currentPhaseIndex - 1], sold);    \r\n        }\r\n    }\r\n\r\n    function phase(uint phaseId) public view returns (Phase memory) {\r\n        return phases[phaseId];\r\n    }\r\n\r\n    function _tokenPrice() public view returns (uint) {\r\n        return buyPrice;\r\n    }\r\n\r\n    modifier onlyOwner() {\r\n        require(msg.sender == owner, \"Only owner allowed\");\r\n        _;\r\n    }\r\n}",
  "sourcePath": "C:\\Users\\User\\Desktop\\solidity\\contracts\\TokenSalesOficial18.sol",
  "compiler": {
    "name": "solc",
    "version": "0.8.19+commit.7dd6d404.Emscripten.clang"
  },
  "schemaVersion": "3.4.16",
  "updatedAt": "2024-03-04T23:15:30.212Z",
  "networkType": "ethereum",
  "devdoc": {
    "kind": "dev",
    "methods": {},
    "version": 1
  },
  "userdoc": {
    "kind": "user",
    "methods": {},
    "version": 1
  }
}