{
  "contractName": "TokenSalesOficial2",
  "abi": [
    {
      "inputs": [
        {
          "internalType": "address",
          "name": "_token",
          "type": "address"
        },
        {
          "internalType": "address",
          "name": "_paymentToken",
          "type": "address"
        }
      ],
      "stateMutability": "nonpayable",
      "type": "constructor"
    },
    {
      "anonymous": false,
      "inputs": [
        {
          "indexed": true,
          "internalType": "address",
          "name": "claimer",
          "type": "address"
        },
        {
          "indexed": false,
          "internalType": "uint256",
          "name": "amount",
          "type": "uint256"
        }
      ],
      "name": "TokensClaimed",
      "type": "event"
    },
    {
      "anonymous": false,
      "inputs": [
        {
          "indexed": true,
          "internalType": "address",
          "name": "buyer",
          "type": "address"
        },
        {
          "indexed": false,
          "internalType": "uint256",
          "name": "amount",
          "type": "uint256"
        }
      ],
      "name": "TokensPurchased",
      "type": "event"
    },
    {
      "anonymous": false,
      "inputs": [
        {
          "indexed": true,
          "internalType": "address",
          "name": "claimer",
          "type": "address"
        },
        {
          "indexed": false,
          "internalType": "uint256",
          "name": "amount",
          "type": "uint256"
        }
      ],
      "name": "USDTClaimed",
      "type": "event"
    },
    {
      "inputs": [],
      "name": "owner",
      "outputs": [
        {
          "internalType": "address",
          "name": "",
          "type": "address"
        }
      ],
      "stateMutability": "view",
      "type": "function",
      "constant": true
    },
    {
      "inputs": [],
      "name": "saleEnded",
      "outputs": [
        {
          "internalType": "bool",
          "name": "",
          "type": "bool"
        }
      ],
      "stateMutability": "view",
      "type": "function",
      "constant": true
    },
    {
      "inputs": [
        {
          "internalType": "address",
          "name": "",
          "type": "address"
        },
        {
          "internalType": "address",
          "name": "",
          "type": "address"
        }
      ],
      "name": "spendingLimits",
      "outputs": [
        {
          "internalType": "uint256",
          "name": "",
          "type": "uint256"
        }
      ],
      "stateMutability": "view",
      "type": "function",
      "constant": true
    },
    {
      "inputs": [
        {
          "internalType": "uint256",
          "name": "tokens",
          "type": "uint256"
        }
      ],
      "name": "buy",
      "outputs": [],
      "stateMutability": "nonpayable",
      "type": "function"
    },
    {
      "inputs": [],
      "name": "claimUSDT",
      "outputs": [],
      "stateMutability": "nonpayable",
      "type": "function"
    },
    {
      "inputs": [],
      "name": "claimTokens",
      "outputs": [],
      "stateMutability": "nonpayable",
      "type": "function"
    },
    {
      "inputs": [
        {
          "internalType": "address",
          "name": "account",
          "type": "address"
        }
      ],
      "name": "balanceOf",
      "outputs": [
        {
          "internalType": "uint256",
          "name": "",
          "type": "uint256"
        }
      ],
      "stateMutability": "view",
      "type": "function",
      "constant": true
    },
    {
      "inputs": [],
      "name": "endSale",
      "outputs": [],
      "stateMutability": "nonpayable",
      "type": "function"
    },
    {
      "inputs": [],
      "name": "_tokens",
      "outputs": [
        {
          "internalType": "uint256",
          "name": "",
          "type": "uint256"
        }
      ],
      "stateMutability": "view",
      "type": "function",
      "constant": true
    },
    {
      "inputs": [],
      "name": "tokensSold",
      "outputs": [
        {
          "internalType": "uint256",
          "name": "",
          "type": "uint256"
        }
      ],
      "stateMutability": "view",
      "type": "function",
      "constant": true
    },
    {
      "inputs": [],
      "name": "totalTokens",
      "outputs": [
        {
          "internalType": "uint256",
          "name": "",
          "type": "uint256"
        }
      ],
      "stateMutability": "view",
      "type": "function",
      "constant": true
    },
    {
      "inputs": [],
      "name": "currentPhase",
      "outputs": [
        {
          "internalType": "uint256",
          "name": "",
          "type": "uint256"
        },
        {
          "internalType": "uint256",
          "name": "",
          "type": "uint256"
        },
        {
          "internalType": "uint256",
          "name": "",
          "type": "uint256"
        },
        {
          "internalType": "uint256",
          "name": "",
          "type": "uint256"
        }
      ],
      "stateMutability": "view",
      "type": "function",
      "constant": true
    },
    {
      "inputs": [
        {
          "internalType": "uint256",
          "name": "phaseId",
          "type": "uint256"
        }
      ],
      "name": "phase",
      "outputs": [
        {
          "components": [
            {
              "internalType": "uint256",
              "name": "total",
              "type": "uint256"
            },
            {
              "internalType": "uint256",
              "name": "price",
              "type": "uint256"
            },
            {
              "internalType": "uint256",
              "name": "phase",
              "type": "uint256"
            }
          ],
          "internalType": "struct TokenSalesOficial2.Phase",
          "name": "",
          "type": "tuple"
        }
      ],
      "stateMutability": "view",
      "type": "function",
      "constant": true
    },
    {
      "inputs": [],
      "name": "_tokenPrice",
      "outputs": [
        {
          "internalType": "uint256",
          "name": "",
          "type": "uint256"
        }
      ],
      "stateMutability": "view",
      "type": "function",
      "constant": true
    }
  ],
  "bytecode": "0x60806040526000600560006101000a81548173ffffffffffffffffffffffffffffffffffffffff021916908373ffffffffffffffffffffffffffffffffffffffff1602179055503480156200005357600080fd5b50604051620021c2380380620021c28339818101604052810190620000799190620002e0565b336000806101000a81548173ffffffffffffffffffffffffffffffffffffffff021916908373ffffffffffffffffffffffffffffffffffffffff16021790555081600660006101000a81548173ffffffffffffffffffffffffffffffffffffffff021916908373ffffffffffffffffffffffffffffffffffffffff16021790555080600760006101000a81548173ffffffffffffffffffffffffffffffffffffffff021916908373ffffffffffffffffffffffffffffffffffffffff160217905550600060088190555060006002819055506000600960006101000a81548160ff0219169083151502179055506721077563e56e000060018190555060005b60038110156200026d576000808214620001a657600182146200019d576000620001a0565b60145b620001a9565b601e5b60ff16905060006064826064620001c1919062000360565b600154620001d091906200039b565b620001dc919062000415565b9050600c6040518060600160405280620f424081526020018381526020016001866200020991906200044d565b8152509080600181540180825580915050600190039060005260206000209060030201600090919091909150600082015181600001556020820151816001015560408201518160020155505050508080620002649062000488565b91505062000178565b505050620004d5565b600080fd5b600073ffffffffffffffffffffffffffffffffffffffff82169050919050565b6000620002a8826200027b565b9050919050565b620002ba816200029b565b8114620002c657600080fd5b50565b600081519050620002da81620002af565b92915050565b60008060408385031215620002fa57620002f962000276565b5b60006200030a85828601620002c9565b92505060206200031d85828601620002c9565b9150509250929050565b6000819050919050565b7f4e487b7100000000000000000000000000000000000000000000000000000000600052601160045260246000fd5b60006200036d8262000327565b91506200037a8362000327565b925082820390508181111562000395576200039462000331565b5b92915050565b6000620003a88262000327565b9150620003b58362000327565b9250828202620003c58162000327565b91508282048414831517620003df57620003de62000331565b5b5092915050565b7f4e487b7100000000000000000000000000000000000000000000000000000000600052601260045260246000fd5b6000620004228262000327565b91506200042f8362000327565b925082620004425762000441620003e6565b5b828204905092915050565b60006200045a8262000327565b9150620004678362000327565b925082820190508082111562000482576200048162000331565b5b92915050565b6000620004958262000327565b91507fffffffffffffffffffffffffffffffffffffffffffffffffffffffffffffffff8203620004ca57620004c962000331565b5b600182019050919050565b611cdd80620004e56000396000f3fe608060405234801561001057600080fd5b50600436106100ea5760003560e01c806370a082311161008c5780638970d84c116100665780638970d84c146102185780638da5cb5b146102365780639b8906ae14610254578063d96a094a14610272576100ea565b806370a08231146101c05780637564ac38146101f05780637e1c0c09146101fa576100ea565b80633b971f9f116100c85780633b971f9f1461014a57806340cc860b1461016857806348c54b9d14610198578063518ab2a8146101a2576100ea565b8063055ad42e146100ef578063135f8aa714610110578063380d831b14610140575b600080fd5b6100f761028e565b60405161010794939291906111c5565b60405180910390f35b61012a6004803603810190610125919061123b565b61030c565b60405161013791906112b9565b60405180910390f35b610148610366565b005b6101526105b8565b60405161015f91906112d4565b60405180910390f35b610182600480360381019061017d919061134d565b6105c2565b60405161018f91906112d4565b60405180910390f35b6101a06105e7565b005b6101aa6107fc565b6040516101b791906112d4565b60405180910390f35b6101da60048036038101906101d5919061138d565b610806565b6040516101e791906112d4565b60405180910390f35b6101f861084f565b005b610202610b30565b60405161020f91906112d4565b60405180910390f35b610220610bd2565b60405161022d91906112d4565b60405180910390f35b61023e610c7f565b60405161024b91906113c9565b60405180910390f35b61025c610ca3565b60405161026991906113ff565b60405180910390f35b61028c6004803603810190610287919061123b565b610cb6565b005b6000806000806000600c600854815481106102ac576102ab61141a565b5b90600052602060002090600302016040518060600160405290816000820154815260200160018201548152602001600282015481525050905060006002549050816040015182600001518360200151839550955095509550505090919293565b61031461118b565b600c82815481106103285761032761141a565b5b906000526020600020906003020160405180606001604052908160008201548152602001600182015481526020016002820154815250509050919050565b60008054906101000a900473ffffffffffffffffffffffffffffffffffffffff1673ffffffffffffffffffffffffffffffffffffffff163373ffffffffffffffffffffffffffffffffffffffff16146103f4576040517f08c379a00000000000000000000000000000000000000000000000000000000081526004016103eb906114a6565b60405180910390fd5b600960009054906101000a900460ff1615610444576040517f08c379a000000000000000000000000000000000000000000000000000000000815260040161043b90611512565b60405180910390fd5b600660009054906101000a900473ffffffffffffffffffffffffffffffffffffffff1673ffffffffffffffffffffffffffffffffffffffff1663a9059cbb60008054906101000a900473ffffffffffffffffffffffffffffffffffffffff16600c600854815481106104b9576104b861141a565b5b9060005260206000209060030201600001546040518363ffffffff1660e01b81526004016104e8929190611532565b6020604051808303816000875af1158015610507573d6000803e3d6000fd5b505050506040513d601f19601f8201168201806040525081019061052b9190611587565b61053457600080fd5b60008054906101000a900473ffffffffffffffffffffffffffffffffffffffff1673ffffffffffffffffffffffffffffffffffffffff166108fc479081150290604051600060405180830381858888f1935050505015801561059a573d6000803e3d6000fd5b506001600960006101000a81548160ff021916908315150217905550565b6000600154905090565b600a602052816000526040600020602052806000526040600020600091509150505481565b600960009054906101000a900460ff16610636576040517f08c379a000000000000000000000000000000000000000000000000000000000815260040161062d90611600565b60405180910390fd5b6000600d60003373ffffffffffffffffffffffffffffffffffffffff1673ffffffffffffffffffffffffffffffffffffffff168152602001908152602001600020549050600081116106bd576040517f08c379a00000000000000000000000000000000000000000000000000000000081526004016106b49061166c565b60405180910390fd5b6000600d60003373ffffffffffffffffffffffffffffffffffffffff1673ffffffffffffffffffffffffffffffffffffffff16815260200190815260200160002081905550600660009054906101000a900473ffffffffffffffffffffffffffffffffffffffff1673ffffffffffffffffffffffffffffffffffffffff1663a9059cbb33836040518363ffffffff1660e01b815260040161075f929190611532565b6020604051808303816000875af115801561077e573d6000803e3d6000fd5b505050506040513d601f19601f820116820180604052508101906107a29190611587565b6107ab57600080fd5b3373ffffffffffffffffffffffffffffffffffffffff167f896e034966eaaf1adc54acc0f257056febbd300c9e47182cf761982cf1f5e430826040516107f191906112d4565b60405180910390a250565b6000600354905090565b6000600d60008373ffffffffffffffffffffffffffffffffffffffff1673ffffffffffffffffffffffffffffffffffffffff168152602001908152602001600020549050919050565b60008054906101000a900473ffffffffffffffffffffffffffffffffffffffff1673ffffffffffffffffffffffffffffffffffffffff163373ffffffffffffffffffffffffffffffffffffffff16146108dd576040517f08c379a00000000000000000000000000000000000000000000000000000000081526004016108d4906114a6565b60405180910390fd5b6000600760009054906101000a900473ffffffffffffffffffffffffffffffffffffffff1673ffffffffffffffffffffffffffffffffffffffff166370a08231306040518263ffffffff1660e01b815260040161093a91906113c9565b602060405180830381865afa158015610957573d6000803e3d6000fd5b505050506040513d601f19601f8201168201806040525081019061097b91906116a1565b9050600081116109c0576040517f08c379a00000000000000000000000000000000000000000000000000000000081526004016109b79061171a565b60405180910390fd5b600760009054906101000a900473ffffffffffffffffffffffffffffffffffffffff1673ffffffffffffffffffffffffffffffffffffffff1663a9059cbb60008054906101000a900473ffffffffffffffffffffffffffffffffffffffff16836040518363ffffffff1660e01b8152600401610a3d929190611532565b6020604051808303816000875af1158015610a5c573d6000803e3d6000fd5b505050506040513d601f19601f82011682018060405250810190610a809190611587565b610abf576040517f08c379a0000000000000000000000000000000000000000000000000000000008152600401610ab690611786565b60405180910390fd5b60008054906101000a900473ffffffffffffffffffffffffffffffffffffffff1673ffffffffffffffffffffffffffffffffffffffff167fd8586e2908b066734aa99c1f0ca84f5c35634029ecc070d55927f19b10445a4782604051610b2591906112d4565b60405180910390a250565b6000610bcd600660009054906101000a900473ffffffffffffffffffffffffffffffffffffffff1673ffffffffffffffffffffffffffffffffffffffff166318160ddd6040518163ffffffff1660e01b8152600401602060405180830381865afa158015610ba2573d6000803e3d6000fd5b505050506040513d601f19601f82011682018060405250810190610bc691906116a1565b6012611169565b905090565b6000610c7a600660009054906101000a900473ffffffffffffffffffffffffffffffffffffffff1673ffffffffffffffffffffffffffffffffffffffff166370a08231336040518263ffffffff1660e01b8152600401610c3291906113c9565b602060405180830381865afa158015610c4f573d6000803e3d6000fd5b505050506040513d601f19601f82011682018060405250810190610c7391906116a1565b6012611169565b905090565b60008054906101000a900473ffffffffffffffffffffffffffffffffffffffff1681565b600960009054906101000a900460ff1681565b600960009054906101000a900460ff1615610d06576040517f08c379a0000000000000000000000000000000000000000000000000000000008152600401610cfd906117f2565b60405180910390fd5b80610d1260085461030c565b600001511015610d57576040517f08c379a0000000000000000000000000000000000000000000000000000000008152600401610d4e90611884565b60405180910390fd5b6000610d6460085461030c565b6020015182610d7391906118d3565b905080600760009054906101000a900473ffffffffffffffffffffffffffffffffffffffff1673ffffffffffffffffffffffffffffffffffffffff1663dd62ed3e33306040518363ffffffff1660e01b8152600401610dd3929190611915565b602060405180830381865afa158015610df0573d6000803e3d6000fd5b505050506040513d601f19601f82011682018060405250810190610e1491906116a1565b1015610e55576040517f08c379a0000000000000000000000000000000000000000000000000000000008152600401610e4c9061198a565b60405180910390fd5b600760009054906101000a900473ffffffffffffffffffffffffffffffffffffffff1673ffffffffffffffffffffffffffffffffffffffff166323b872dd3330846040518463ffffffff1660e01b8152600401610eb4939291906119aa565b6020604051808303816000875af1158015610ed3573d6000803e3d6000fd5b505050506040513d601f19601f82011682018060405250810190610ef79190611587565b610f36576040517f08c379a0000000000000000000000000000000000000000000000000000000008152600401610f2d90611786565b60405180910390fd5b600660009054906101000a900473ffffffffffffffffffffffffffffffffffffffff1673ffffffffffffffffffffffffffffffffffffffff1663a9059cbb33846040518363ffffffff1660e01b8152600401610f93929190611532565b6020604051808303816000875af1158015610fb2573d6000803e3d6000fd5b505050506040513d601f19601f82011682018060405250810190610fd69190611587565b611015576040517f08c379a000000000000000000000000000000000000000000000000000000000815260040161100c90611a2d565b60405180910390fd5b81600260008282546110279190611a4d565b9250508190555081600360008282546110409190611a4d565b9250508190555081600d60003373ffffffffffffffffffffffffffffffffffffffff1673ffffffffffffffffffffffffffffffffffffffff16815260200190815260200160002060008282546110969190611a4d565b925050819055506000600c600854815481106110b5576110b461141a565b5b9060005260206000209060030201600001540361111757600860008154809291906110df90611a81565b91905055506000600281905550600c8054905060085403611116576001600960006101000a81548160ff0219169083151502179055505b5b3373ffffffffffffffffffffffffffffffffffffffff167f8f28852646c20cc973d3a8218f7eefed58c25c909f78f0265af4818c3d4dc2718360405161115d91906112d4565b60405180910390a25050565b600081600a6111789190611bfc565b836111839190611c76565b905092915050565b60405180606001604052806000815260200160008152602001600081525090565b6000819050919050565b6111bf816111ac565b82525050565b60006080820190506111da60008301876111b6565b6111e760208301866111b6565b6111f460408301856111b6565b61120160608301846111b6565b95945050505050565b600080fd5b611218816111ac565b811461122357600080fd5b50565b6000813590506112358161120f565b92915050565b6000602082840312156112515761125061120a565b5b600061125f84828501611226565b91505092915050565b611271816111ac565b82525050565b60608201600082015161128d6000850182611268565b5060208201516112a06020850182611268565b5060408201516112b36040850182611268565b50505050565b60006060820190506112ce6000830184611277565b92915050565b60006020820190506112e960008301846111b6565b92915050565b600073ffffffffffffffffffffffffffffffffffffffff82169050919050565b600061131a826112ef565b9050919050565b61132a8161130f565b811461133557600080fd5b50565b60008135905061134781611321565b92915050565b600080604083850312156113645761136361120a565b5b600061137285828601611338565b925050602061138385828601611338565b9150509250929050565b6000602082840312156113a3576113a261120a565b5b60006113b184828501611338565b91505092915050565b6113c38161130f565b82525050565b60006020820190506113de60008301846113ba565b92915050565b60008115159050919050565b6113f9816113e4565b82525050565b600060208201905061141460008301846113f0565b92915050565b7f4e487b7100000000000000000000000000000000000000000000000000000000600052603260045260246000fd5b600082825260208201905092915050565b7f4f6e6c79206f776e657220616c6c6f7765640000000000000000000000000000600082015250565b6000611490601283611449565b915061149b8261145a565b602082019050919050565b600060208201905081810360008301526114bf81611483565b9050919050565b7f53616c652068617320616c726561647920656e64656400000000000000000000600082015250565b60006114fc601683611449565b9150611507826114c6565b602082019050919050565b6000602082019050818103600083015261152b816114ef565b9050919050565b600060408201905061154760008301856113ba565b61155460208301846111b6565b9392505050565b611564816113e4565b811461156f57600080fd5b50565b6000815190506115818161155b565b92915050565b60006020828403121561159d5761159c61120a565b5b60006115ab84828501611572565b91505092915050565b7f53616c6520686173206e6f7420656e6465642079657400000000000000000000600082015250565b60006115ea601683611449565b91506115f5826115b4565b602082019050919050565b60006020820190508181036000830152611619816115dd565b9050919050565b7f4e6f20746f6b656e7320746f20636c61696d0000000000000000000000000000600082015250565b6000611656601283611449565b915061166182611620565b602082019050919050565b6000602082019050818103600083015261168581611649565b9050919050565b60008151905061169b8161120f565b92915050565b6000602082840312156116b7576116b661120a565b5b60006116c58482850161168c565b91505092915050565b7f4e6f205553445420746f20636c61696d00000000000000000000000000000000600082015250565b6000611704601083611449565b915061170f826116ce565b602082019050919050565b60006020820190508181036000830152611733816116f7565b9050919050565b7f55534454207472616e73666572206661696c6564000000000000000000000000600082015250565b6000611770601483611449565b915061177b8261173a565b602082019050919050565b6000602082019050818103600083015261179f81611763565b9050919050565b7f53616c652068617320656e646564000000000000000000000000000000000000600082015250565b60006117dc600e83611449565b91506117e7826117a6565b602082019050919050565b6000602082019050818103600083015261180b816117cf565b9050919050565b7f4e6f7420656e6f75676820746f6b656e7320617661696c61626c6520696e207460008201527f6869732070686173650000000000000000000000000000000000000000000000602082015250565b600061186e602983611449565b915061187982611812565b604082019050919050565b6000602082019050818103600083015261189d81611861565b9050919050565b7f4e487b7100000000000000000000000000000000000000000000000000000000600052601160045260246000fd5b60006118de826111ac565b91506118e9836111ac565b92508282026118f7816111ac565b9150828204841483151761190e5761190d6118a4565b5b5092915050565b600060408201905061192a60008301856113ba565b61193760208301846113ba565b9392505050565b7f4e6f7420656e6f756768205553445420617070726f7665640000000000000000600082015250565b6000611974601883611449565b915061197f8261193e565b602082019050919050565b600060208201905081810360008301526119a381611967565b9050919050565b60006060820190506119bf60008301866113ba565b6119cc60208301856113ba565b6119d960408301846111b6565b949350505050565b7f546f6b656e207472616e73666572206661696c65640000000000000000000000600082015250565b6000611a17601583611449565b9150611a22826119e1565b602082019050919050565b60006020820190508181036000830152611a4681611a0a565b9050919050565b6000611a58826111ac565b9150611a63836111ac565b9250828201905080821115611a7b57611a7a6118a4565b5b92915050565b6000611a8c826111ac565b91507fffffffffffffffffffffffffffffffffffffffffffffffffffffffffffffffff8203611abe57611abd6118a4565b5b600182019050919050565b60008160011c9050919050565b6000808291508390505b6001851115611b2057808604811115611afc57611afb6118a4565b5b6001851615611b0b5780820291505b8081029050611b1985611ac9565b9450611ae0565b94509492505050565b600082611b395760019050611bf5565b81611b475760009050611bf5565b8160018114611b5d5760028114611b6757611b96565b6001915050611bf5565b60ff841115611b7957611b786118a4565b5b8360020a915084821115611b9057611b8f6118a4565b5b50611bf5565b5060208310610133831016604e8410600b8410161715611bcb5782820a905083811115611bc657611bc56118a4565b5b611bf5565b611bd88484846001611ad6565b92509050818404811115611bef57611bee6118a4565b5b81810290505b9392505050565b6000611c07826111ac565b9150611c12836111ac565b9250611c3f7fffffffffffffffffffffffffffffffffffffffffffffffffffffffffffffffff8484611b29565b905092915050565b7f4e487b7100000000000000000000000000000000000000000000000000000000600052601260045260246000fd5b6000611c81826111ac565b9150611c8c836111ac565b925082611c9c57611c9b611c47565b5b82820490509291505056fea26469706673582212205c2933dbe4928c165e27fc69f978ca65cbdab32710dd839ed68785e557c2196e64736f6c63430008130033",
  "immutableReferences": {},
  "source": "// SPDX-License-Identifier: MIT\r\npragma solidity ^0.8.19;\r\n\r\nimport \"@openzeppelin/contracts/token/ERC20/IERC20.sol\";\r\n\r\ncontract TokenSalesOficial2 {\r\n    address public owner;\r\n    uint private buyPrice;\r\n    uint private sold;\r\n    uint private totalTokensSold;\r\n    uint private toSold;\r\n    address private noOne = address(0);\r\n    IERC20 private token;\r\n    IERC20 private paymentToken;\r\n    uint private currentPhaseIndex;\r\n    bool public saleEnded;\r\n\r\n    mapping(address => mapping(address => uint)) public spendingLimits; // Nuevo: lmites de gasto por usuario y token\r\n    mapping(address => uint) private userUSDTBalance;\r\n\r\n    struct Phase {\r\n        uint total;\r\n        uint price;\r\n        uint phase;\r\n    }\r\n\r\n    Phase[] private phases;\r\n    mapping(address => uint) private purchasedTokens;\r\n\r\n    event TokensPurchased(address indexed buyer, uint amount);\r\n    event TokensClaimed(address indexed claimer, uint amount);\r\n    event USDTClaimed(address indexed claimer, uint amount);\r\n\r\n\r\n\r\n    constructor(address _token, address _paymentToken) {\r\n        owner = msg.sender;\r\n        token = IERC20(_token);\r\n        paymentToken = IERC20(_paymentToken);\r\n        currentPhaseIndex = 0;\r\n        sold = 0;\r\n        saleEnded = false;\r\n\r\n        buyPrice = 2.38 * 10 ** 18;\r\n\r\n        for (uint i = 0; i < 3; i++) {\r\n            uint discountPercentage = (i == 0) ? 30 : (i == 1) ? 20 : 0;\r\n            uint discountedPrice = (buyPrice * (100 - discountPercentage)) / 100;\r\n            phases.push(Phase(1000000, discountedPrice, i + 1));\r\n        }\r\n    }\r\n\r\n\r\n    function buy(uint tokens) public {\r\n        require(!saleEnded, \"Sale has ended\");\r\n        require(phase(currentPhaseIndex).total >= tokens, \"Not enough tokens available in this phase\");\r\n\r\n        uint usdtToUse = tokens * phase(currentPhaseIndex).price;\r\n        require(paymentToken.allowance(msg.sender, address(this)) >= usdtToUse, \"Not enough USDT approved\");\r\n\r\n        require(paymentToken.transferFrom(msg.sender, address(this), usdtToUse), \"USDT transfer failed\");\r\n\r\n        require(token.transfer(msg.sender, tokens), \"Token transfer failed\");\r\n\r\n        sold += tokens;\r\n        totalTokensSold += tokens;\r\n        purchasedTokens[msg.sender] += tokens;\r\n\r\n        if (phases[currentPhaseIndex].total == 0) {\r\n            currentPhaseIndex++;\r\n            sold = 0;\r\n            if (currentPhaseIndex == phases.length) {\r\n                saleEnded = true;\r\n            }\r\n        }\r\n        emit TokensPurchased(msg.sender, tokens);\r\n    }\r\n\r\n    function claimUSDT() public onlyOwner {\r\n        uint amount = paymentToken.balanceOf(address(this)); \r\n        require(amount > 0, \"No USDT to claim\"); \r\n        require(paymentToken.transfer(owner, amount), \"USDT transfer failed\"); \r\n        emit USDTClaimed(owner, amount); \r\n    }\r\n\r\n\r\n\r\n\r\n    function claimTokens() public {\r\n        require(saleEnded, \"Sale has not ended yet\");\r\n        uint tokensToClaim = purchasedTokens[msg.sender];\r\n        require(tokensToClaim > 0, \"No tokens to claim\");\r\n\r\n        purchasedTokens[msg.sender] = 0;\r\n        require(token.transfer(msg.sender, tokensToClaim));\r\n\r\n        emit TokensClaimed(msg.sender, tokensToClaim);\r\n    }\r\n\r\n    function balanceOf(address account) public view returns (uint) {\r\n        return purchasedTokens[account];\r\n    }\r\n\r\n    function endSale() public onlyOwner {\r\n        require(!saleEnded, \"Sale has already ended\");\r\n\r\n        require(token.transfer(owner, phases[currentPhaseIndex].total));\r\n\r\n        payable(owner).transfer(address(this).balance);\r\n\r\n        saleEnded = true;\r\n    }\r\n\r\n    function _unAmount(uint _amountDeci, uint decimals) private pure returns(uint){\r\n        return _amountDeci / (10**decimals);\r\n    }\r\n\r\n    function _tokens() public view returns (uint) {\r\n        return _unAmount(token.balanceOf(msg.sender), 18);\r\n    }\r\n\r\n\r\n\r\n    function tokensSold() public view returns (uint) {\r\n        return totalTokensSold;\r\n    }\r\n\r\n    function totalTokens() public view returns (uint) {\r\n        return _unAmount(token.totalSupply(), 18);\r\n    }\r\n\r\n    function currentPhase() public view returns (uint, uint, uint, uint) {\r\n        Phase memory current = phases[currentPhaseIndex];\r\n        uint totalTokensPhase = sold;\r\n        return (current.phase, current.total, current.price, totalTokensPhase);\r\n    }\r\n\r\n    function phase(uint phaseId) public view returns (Phase memory) {\r\n        return phases[phaseId];\r\n    }\r\n\r\n    function _tokenPrice() public view returns (uint) {\r\n        return buyPrice;\r\n    }\r\n\r\n    modifier onlyOwner() {\r\n        require(msg.sender == owner, \"Only owner allowed\");\r\n        _;\r\n    }\r\n}",
  "sourcePath": "C:\\Users\\User\\Desktop\\solidity\\contracts\\TokenSalesOficial2.sol",
  "compiler": {
    "name": "solc",
    "version": "0.8.19+commit.7dd6d404.Emscripten.clang"
  },
  "schemaVersion": "3.4.16",
  "updatedAt": "2024-02-26T04:02:54.877Z",
  "networkType": "ethereum",
  "devdoc": {
    "kind": "dev",
    "methods": {},
    "version": 1
  },
  "userdoc": {
    "kind": "user",
    "methods": {},
    "version": 1
  }
}