{
  "contractName": "TokenSales",
  "abi": [
    {
      "inputs": [
        {
          "internalType": "address",
          "name": "_token",
          "type": "address"
        },
        {
          "internalType": "address",
          "name": "_paymentToken",
          "type": "address"
        }
      ],
      "stateMutability": "nonpayable",
      "type": "constructor"
    },
    {
      "anonymous": false,
      "inputs": [
        {
          "indexed": true,
          "internalType": "address",
          "name": "claimer",
          "type": "address"
        },
        {
          "indexed": false,
          "internalType": "uint256",
          "name": "amount",
          "type": "uint256"
        }
      ],
      "name": "TokensClaimed",
      "type": "event"
    },
    {
      "anonymous": false,
      "inputs": [
        {
          "indexed": true,
          "internalType": "address",
          "name": "buyer",
          "type": "address"
        },
        {
          "indexed": false,
          "internalType": "uint256",
          "name": "amount",
          "type": "uint256"
        }
      ],
      "name": "TokensPurchased",
      "type": "event"
    },
    {
      "inputs": [],
      "name": "owner",
      "outputs": [
        {
          "internalType": "address",
          "name": "",
          "type": "address"
        }
      ],
      "stateMutability": "view",
      "type": "function",
      "constant": true
    },
    {
      "inputs": [],
      "name": "saleEnded",
      "outputs": [
        {
          "internalType": "bool",
          "name": "",
          "type": "bool"
        }
      ],
      "stateMutability": "view",
      "type": "function",
      "constant": true
    },
    {
      "inputs": [
        {
          "internalType": "address",
          "name": "",
          "type": "address"
        },
        {
          "internalType": "address",
          "name": "",
          "type": "address"
        }
      ],
      "name": "spendingLimits",
      "outputs": [
        {
          "internalType": "uint256",
          "name": "",
          "type": "uint256"
        }
      ],
      "stateMutability": "view",
      "type": "function",
      "constant": true
    },
    {
      "inputs": [
        {
          "internalType": "uint256",
          "name": "tokens",
          "type": "uint256"
        }
      ],
      "name": "buy",
      "outputs": [],
      "stateMutability": "nonpayable",
      "type": "function"
    },
    {
      "inputs": [],
      "name": "claimTokens",
      "outputs": [],
      "stateMutability": "nonpayable",
      "type": "function"
    },
    {
      "inputs": [
        {
          "internalType": "address",
          "name": "account",
          "type": "address"
        }
      ],
      "name": "balanceOf",
      "outputs": [
        {
          "internalType": "uint256",
          "name": "",
          "type": "uint256"
        }
      ],
      "stateMutability": "view",
      "type": "function",
      "constant": true
    },
    {
      "inputs": [],
      "name": "endSale",
      "outputs": [],
      "stateMutability": "nonpayable",
      "type": "function"
    },
    {
      "inputs": [],
      "name": "_tokens",
      "outputs": [
        {
          "internalType": "uint256",
          "name": "",
          "type": "uint256"
        }
      ],
      "stateMutability": "view",
      "type": "function",
      "constant": true
    },
    {
      "inputs": [],
      "name": "tokensSold",
      "outputs": [
        {
          "internalType": "uint256",
          "name": "",
          "type": "uint256"
        }
      ],
      "stateMutability": "view",
      "type": "function",
      "constant": true
    },
    {
      "inputs": [],
      "name": "totalTokens",
      "outputs": [
        {
          "internalType": "uint256",
          "name": "",
          "type": "uint256"
        }
      ],
      "stateMutability": "view",
      "type": "function",
      "constant": true
    },
    {
      "inputs": [],
      "name": "currentPhase",
      "outputs": [
        {
          "internalType": "uint256",
          "name": "",
          "type": "uint256"
        },
        {
          "internalType": "uint256",
          "name": "",
          "type": "uint256"
        },
        {
          "internalType": "uint256",
          "name": "",
          "type": "uint256"
        },
        {
          "internalType": "uint256",
          "name": "",
          "type": "uint256"
        }
      ],
      "stateMutability": "view",
      "type": "function",
      "constant": true
    },
    {
      "inputs": [
        {
          "internalType": "uint256",
          "name": "phaseId",
          "type": "uint256"
        }
      ],
      "name": "phase",
      "outputs": [
        {
          "components": [
            {
              "internalType": "uint256",
              "name": "total",
              "type": "uint256"
            },
            {
              "internalType": "uint256",
              "name": "price",
              "type": "uint256"
            },
            {
              "internalType": "uint256",
              "name": "phase",
              "type": "uint256"
            }
          ],
          "internalType": "struct TokenSales.Phase",
          "name": "",
          "type": "tuple"
        }
      ],
      "stateMutability": "view",
      "type": "function",
      "constant": true
    },
    {
      "inputs": [],
      "name": "_tokenPrice",
      "outputs": [
        {
          "internalType": "uint256",
          "name": "",
          "type": "uint256"
        }
      ],
      "stateMutability": "view",
      "type": "function",
      "constant": true
    }
  ],
  "bytecode": "0x60806040526000600560006101000a81548173ffffffffffffffffffffffffffffffffffffffff021916908373ffffffffffffffffffffffffffffffffffffffff1602179055503480156200005357600080fd5b5060405162001f3338038062001f338339818101604052810190620000799190620002dd565b336000806101000a81548173ffffffffffffffffffffffffffffffffffffffff021916908373ffffffffffffffffffffffffffffffffffffffff16021790555081600660006101000a81548173ffffffffffffffffffffffffffffffffffffffff021916908373ffffffffffffffffffffffffffffffffffffffff16021790555080600760006101000a81548173ffffffffffffffffffffffffffffffffffffffff021916908373ffffffffffffffffffffffffffffffffffffffff160217905550600060088190555060006002819055506000600960006101000a81548160ff02191690831515021790555060006721077563e56e0000905060005b600381101562000269576000808214620001a457600182146200019b5760006200019e565b60145b620001a7565b601e5b60ff16905060006064826064620001bf91906200035d565b85620001cc919062000398565b620001d8919062000412565b9050600c6040518060600160405280620f424081526020018381526020016001866200020591906200044a565b8152509080600181540180825580915050600190039060005260206000209060030201600090919091909150600082015181600001556020820151816001015560408201518160020155505050508080620002609062000485565b91505062000176565b50505050620004d2565b600080fd5b600073ffffffffffffffffffffffffffffffffffffffff82169050919050565b6000620002a58262000278565b9050919050565b620002b78162000298565b8114620002c357600080fd5b50565b600081519050620002d781620002ac565b92915050565b60008060408385031215620002f757620002f662000273565b5b60006200030785828601620002c6565b92505060206200031a85828601620002c6565b9150509250929050565b6000819050919050565b7f4e487b7100000000000000000000000000000000000000000000000000000000600052601160045260246000fd5b60006200036a8262000324565b9150620003778362000324565b92508282039050818111156200039257620003916200032e565b5b92915050565b6000620003a58262000324565b9150620003b28362000324565b9250828202620003c28162000324565b91508282048414831517620003dc57620003db6200032e565b5b5092915050565b7f4e487b7100000000000000000000000000000000000000000000000000000000600052601260045260246000fd5b60006200041f8262000324565b91506200042c8362000324565b9250826200043f576200043e620003e3565b5b828204905092915050565b6000620004578262000324565b9150620004648362000324565b92508282019050808211156200047f576200047e6200032e565b5b92915050565b6000620004928262000324565b91507fffffffffffffffffffffffffffffffffffffffffffffffffffffffffffffffff8203620004c757620004c66200032e565b5b600182019050919050565b611a5180620004e26000396000f3fe608060405234801561001057600080fd5b50600436106100cf5760003560e01c8063518ab2a81161008c5780638970d84c116100665780638970d84c146101f35780638da5cb5b146102115780639b8906ae1461022f578063d96a094a1461024d576100cf565b8063518ab2a81461018757806370a08231146101a55780637e1c0c09146101d5576100cf565b8063055ad42e146100d4578063135f8aa7146100f5578063380d831b146101255780633b971f9f1461012f57806340cc860b1461014d57806348c54b9d1461017d575b600080fd5b6100dc610269565b6040516100ec9493929190610f71565b60405180910390f35b61010f600480360381019061010a9190610fe7565b6102e7565b60405161011c9190611065565b60405180910390f35b61012d610341565b005b610137610607565b6040516101449190611080565b60405180910390f35b610167600480360381019061016291906110f9565b610611565b6040516101749190611080565b60405180910390f35b610185610636565b005b61018f61084b565b60405161019c9190611080565b60405180910390f35b6101bf60048036038101906101ba9190611139565b610855565b6040516101cc9190611080565b60405180910390f35b6101dd61089e565b6040516101ea9190611080565b60405180910390f35b6101fb610940565b6040516102089190611080565b60405180910390f35b6102196109ed565b6040516102269190611175565b60405180910390f35b610237610a11565b60405161024491906111ab565b60405180910390f35b61026760048036038101906102629190610fe7565b610a24565b005b6000806000806000600c60085481548110610287576102866111c6565b5b90600052602060002090600302016040518060600160405290816000820154815260200160018201548152602001600282015481525050905060006002549050816040015182600001518360200151839550955095509550505090919293565b6102ef610f37565b600c8281548110610303576103026111c6565b5b906000526020600020906003020160405180606001604052908160008201548152602001600182015481526020016002820154815250509050919050565b60008054906101000a900473ffffffffffffffffffffffffffffffffffffffff1673ffffffffffffffffffffffffffffffffffffffff163373ffffffffffffffffffffffffffffffffffffffff16146103cf576040517f08c379a00000000000000000000000000000000000000000000000000000000081526004016103c690611252565b60405180910390fd5b600960009054906101000a900460ff161561041f576040517f08c379a0000000000000000000000000000000000000000000000000000000008152600401610416906112be565b60405180910390fd5b600660009054906101000a900473ffffffffffffffffffffffffffffffffffffffff1673ffffffffffffffffffffffffffffffffffffffff1663a9059cbb60008054906101000a900473ffffffffffffffffffffffffffffffffffffffff16600660009054906101000a900473ffffffffffffffffffffffffffffffffffffffff1673ffffffffffffffffffffffffffffffffffffffff166370a08231306040518263ffffffff1660e01b81526004016104d99190611175565b602060405180830381865afa1580156104f6573d6000803e3d6000fd5b505050506040513d601f19601f8201168201806040525081019061051a91906112f3565b6040518363ffffffff1660e01b8152600401610537929190611320565b6020604051808303816000875af1158015610556573d6000803e3d6000fd5b505050506040513d601f19601f8201168201806040525081019061057a9190611375565b61058357600080fd5b60008054906101000a900473ffffffffffffffffffffffffffffffffffffffff1673ffffffffffffffffffffffffffffffffffffffff166108fc479081150290604051600060405180830381858888f193505050501580156105e9573d6000803e3d6000fd5b506001600960006101000a81548160ff021916908315150217905550565b6000600154905090565b600a602052816000526040600020602052806000526040600020600091509150505481565b600960009054906101000a900460ff16610685576040517f08c379a000000000000000000000000000000000000000000000000000000000815260040161067c906113ee565b60405180910390fd5b6000600d60003373ffffffffffffffffffffffffffffffffffffffff1673ffffffffffffffffffffffffffffffffffffffff1681526020019081526020016000205490506000811161070c576040517f08c379a00000000000000000000000000000000000000000000000000000000081526004016107039061145a565b60405180910390fd5b6000600d60003373ffffffffffffffffffffffffffffffffffffffff1673ffffffffffffffffffffffffffffffffffffffff16815260200190815260200160002081905550600660009054906101000a900473ffffffffffffffffffffffffffffffffffffffff1673ffffffffffffffffffffffffffffffffffffffff1663a9059cbb33836040518363ffffffff1660e01b81526004016107ae929190611320565b6020604051808303816000875af11580156107cd573d6000803e3d6000fd5b505050506040513d601f19601f820116820180604052508101906107f19190611375565b6107fa57600080fd5b3373ffffffffffffffffffffffffffffffffffffffff167f896e034966eaaf1adc54acc0f257056febbd300c9e47182cf761982cf1f5e430826040516108409190611080565b60405180910390a250565b6000600354905090565b6000600d60008373ffffffffffffffffffffffffffffffffffffffff1673ffffffffffffffffffffffffffffffffffffffff168152602001908152602001600020549050919050565b600061093b600660009054906101000a900473ffffffffffffffffffffffffffffffffffffffff1673ffffffffffffffffffffffffffffffffffffffff166318160ddd6040518163ffffffff1660e01b8152600401602060405180830381865afa158015610910573d6000803e3d6000fd5b505050506040513d601f19601f8201168201806040525081019061093491906112f3565b6012610f15565b905090565b60006109e8600660009054906101000a900473ffffffffffffffffffffffffffffffffffffffff1673ffffffffffffffffffffffffffffffffffffffff166370a08231336040518263ffffffff1660e01b81526004016109a09190611175565b602060405180830381865afa1580156109bd573d6000803e3d6000fd5b505050506040513d601f19601f820116820180604052508101906109e191906112f3565b6012610f15565b905090565b60008054906101000a900473ffffffffffffffffffffffffffffffffffffffff1681565b600960009054906101000a900460ff1681565b600960009054906101000a900460ff1615610a74576040517f08c379a0000000000000000000000000000000000000000000000000000000008152600401610a6b906114c6565b60405180910390fd5b80610a806008546102e7565b600001511015610ac5576040517f08c379a0000000000000000000000000000000000000000000000000000000008152600401610abc90611558565b60405180910390fd5b6000610ad26008546102e7565b6020015182610ae191906115a7565b905080600760009054906101000a900473ffffffffffffffffffffffffffffffffffffffff1673ffffffffffffffffffffffffffffffffffffffff1663dd62ed3e33306040518363ffffffff1660e01b8152600401610b419291906115e9565b602060405180830381865afa158015610b5e573d6000803e3d6000fd5b505050506040513d601f19601f82011682018060405250810190610b8291906112f3565b1015610bc3576040517f08c379a0000000000000000000000000000000000000000000000000000000008152600401610bba9061165e565b60405180910390fd5b600760009054906101000a900473ffffffffffffffffffffffffffffffffffffffff1673ffffffffffffffffffffffffffffffffffffffff166323b872dd3330846040518463ffffffff1660e01b8152600401610c229392919061167e565b6020604051808303816000875af1158015610c41573d6000803e3d6000fd5b505050506040513d601f19601f82011682018060405250810190610c659190611375565b610ca4576040517f08c379a0000000000000000000000000000000000000000000000000000000008152600401610c9b90611701565b60405180910390fd5b600660009054906101000a900473ffffffffffffffffffffffffffffffffffffffff1673ffffffffffffffffffffffffffffffffffffffff1663a9059cbb33846040518363ffffffff1660e01b8152600401610d01929190611320565b6020604051808303816000875af1158015610d20573d6000803e3d6000fd5b505050506040513d601f19601f82011682018060405250810190610d449190611375565b610d83576040517f08c379a0000000000000000000000000000000000000000000000000000000008152600401610d7a9061176d565b60405180910390fd5b8160026000828254610d95919061178d565b925050819055508160036000828254610dae919061178d565b9250508190555081600c60085481548110610dcc57610dcb6111c6565b5b90600052602060002090600302016000016000828254610dec91906117c1565b9250508190555081600d60003373ffffffffffffffffffffffffffffffffffffffff1673ffffffffffffffffffffffffffffffffffffffff1681526020019081526020016000206000828254610e42919061178d565b925050819055506000600c60085481548110610e6157610e606111c6565b5b90600052602060002090600302016000015403610ec35760086000815480929190610e8b906117f5565b91905055506000600281905550600c8054905060085403610ec2576001600960006101000a81548160ff0219169083151502179055505b5b3373ffffffffffffffffffffffffffffffffffffffff167f8f28852646c20cc973d3a8218f7eefed58c25c909f78f0265af4818c3d4dc27183604051610f099190611080565b60405180910390a25050565b600081600a610f249190611970565b83610f2f91906119ea565b905092915050565b60405180606001604052806000815260200160008152602001600081525090565b6000819050919050565b610f6b81610f58565b82525050565b6000608082019050610f866000830187610f62565b610f936020830186610f62565b610fa06040830185610f62565b610fad6060830184610f62565b95945050505050565b600080fd5b610fc481610f58565b8114610fcf57600080fd5b50565b600081359050610fe181610fbb565b92915050565b600060208284031215610ffd57610ffc610fb6565b5b600061100b84828501610fd2565b91505092915050565b61101d81610f58565b82525050565b6060820160008201516110396000850182611014565b50602082015161104c6020850182611014565b50604082015161105f6040850182611014565b50505050565b600060608201905061107a6000830184611023565b92915050565b60006020820190506110956000830184610f62565b92915050565b600073ffffffffffffffffffffffffffffffffffffffff82169050919050565b60006110c68261109b565b9050919050565b6110d6816110bb565b81146110e157600080fd5b50565b6000813590506110f3816110cd565b92915050565b600080604083850312156111105761110f610fb6565b5b600061111e858286016110e4565b925050602061112f858286016110e4565b9150509250929050565b60006020828403121561114f5761114e610fb6565b5b600061115d848285016110e4565b91505092915050565b61116f816110bb565b82525050565b600060208201905061118a6000830184611166565b92915050565b60008115159050919050565b6111a581611190565b82525050565b60006020820190506111c0600083018461119c565b92915050565b7f4e487b7100000000000000000000000000000000000000000000000000000000600052603260045260246000fd5b600082825260208201905092915050565b7f4f6e6c79206f776e657220616c6c6f7765640000000000000000000000000000600082015250565b600061123c6012836111f5565b915061124782611206565b602082019050919050565b6000602082019050818103600083015261126b8161122f565b9050919050565b7f53616c652068617320616c726561647920656e64656400000000000000000000600082015250565b60006112a86016836111f5565b91506112b382611272565b602082019050919050565b600060208201905081810360008301526112d78161129b565b9050919050565b6000815190506112ed81610fbb565b92915050565b60006020828403121561130957611308610fb6565b5b6000611317848285016112de565b91505092915050565b60006040820190506113356000830185611166565b6113426020830184610f62565b9392505050565b61135281611190565b811461135d57600080fd5b50565b60008151905061136f81611349565b92915050565b60006020828403121561138b5761138a610fb6565b5b600061139984828501611360565b91505092915050565b7f53616c6520686173206e6f7420656e6465642079657400000000000000000000600082015250565b60006113d86016836111f5565b91506113e3826113a2565b602082019050919050565b60006020820190508181036000830152611407816113cb565b9050919050565b7f4e6f20746f6b656e7320746f20636c61696d0000000000000000000000000000600082015250565b60006114446012836111f5565b915061144f8261140e565b602082019050919050565b6000602082019050818103600083015261147381611437565b9050919050565b7f53616c652068617320656e646564000000000000000000000000000000000000600082015250565b60006114b0600e836111f5565b91506114bb8261147a565b602082019050919050565b600060208201905081810360008301526114df816114a3565b9050919050565b7f4e6f7420656e6f75676820746f6b656e7320617661696c61626c6520696e207460008201527f6869732070686173650000000000000000000000000000000000000000000000602082015250565b60006115426029836111f5565b915061154d826114e6565b604082019050919050565b6000602082019050818103600083015261157181611535565b9050919050565b7f4e487b7100000000000000000000000000000000000000000000000000000000600052601160045260246000fd5b60006115b282610f58565b91506115bd83610f58565b92508282026115cb81610f58565b915082820484148315176115e2576115e1611578565b5b5092915050565b60006040820190506115fe6000830185611166565b61160b6020830184611166565b9392505050565b7f4e6f7420656e6f756768205553445420617070726f7665640000000000000000600082015250565b60006116486018836111f5565b915061165382611612565b602082019050919050565b600060208201905081810360008301526116778161163b565b9050919050565b60006060820190506116936000830186611166565b6116a06020830185611166565b6116ad6040830184610f62565b949350505050565b7f55534454207472616e73666572206661696c6564000000000000000000000000600082015250565b60006116eb6014836111f5565b91506116f6826116b5565b602082019050919050565b6000602082019050818103600083015261171a816116de565b9050919050565b7f546f6b656e207472616e73666572206661696c65640000000000000000000000600082015250565b60006117576015836111f5565b915061176282611721565b602082019050919050565b600060208201905081810360008301526117868161174a565b9050919050565b600061179882610f58565b91506117a383610f58565b92508282019050808211156117bb576117ba611578565b5b92915050565b60006117cc82610f58565b91506117d783610f58565b92508282039050818111156117ef576117ee611578565b5b92915050565b600061180082610f58565b91507fffffffffffffffffffffffffffffffffffffffffffffffffffffffffffffffff820361183257611831611578565b5b600182019050919050565b60008160011c9050919050565b6000808291508390505b6001851115611894578086048111156118705761186f611578565b5b600185161561187f5780820291505b808102905061188d8561183d565b9450611854565b94509492505050565b6000826118ad5760019050611969565b816118bb5760009050611969565b81600181146118d157600281146118db5761190a565b6001915050611969565b60ff8411156118ed576118ec611578565b5b8360020a91508482111561190457611903611578565b5b50611969565b5060208310610133831016604e8410600b841016171561193f5782820a90508381111561193a57611939611578565b5b611969565b61194c848484600161184a565b9250905081840481111561196357611962611578565b5b81810290505b9392505050565b600061197b82610f58565b915061198683610f58565b92506119b37fffffffffffffffffffffffffffffffffffffffffffffffffffffffffffffffff848461189d565b905092915050565b7f4e487b7100000000000000000000000000000000000000000000000000000000600052601260045260246000fd5b60006119f582610f58565b9150611a0083610f58565b925082611a1057611a0f6119bb565b5b82820490509291505056fea26469706673582212200321a2349857e1fe35adc1c5686fb8dec93a8f837c4c5559f8dbc2ef52cb338464736f6c63430008130033",
  "immutableReferences": {},
  "source": "// SPDX-License-Identifier: MIT\r\npragma solidity ^0.8.19;\r\n\r\nimport \"@openzeppelin/contracts/token/ERC20/IERC20.sol\";\r\n\r\ncontract TokenSales {\r\n    address public owner;\r\n    uint private buyPrice;\r\n    uint private sold;\r\n    uint private totalTokensSold;\r\n    uint private toSold;\r\n    address private noOne = address(0);\r\n    IERC20 private token;\r\n    IERC20 private paymentToken;\r\n    uint private currentPhaseIndex;\r\n    bool public saleEnded;\r\n\r\n    mapping(address => mapping(address => uint)) public spendingLimits; // Nuevo: lmites de gasto por usuario y token\r\n    mapping(address => uint) private userUSDTBalance;\r\n\r\n    struct Phase {\r\n        uint total;\r\n        uint price;\r\n        uint phase;\r\n    }\r\n\r\n    Phase[] private phases;\r\n    mapping(address => uint) private purchasedTokens;\r\n\r\n    event TokensPurchased(address indexed buyer, uint amount);\r\n    event TokensClaimed(address indexed claimer, uint amount);\r\n\r\n\r\n\r\n    constructor(address _token, address _paymentToken) {\r\n        owner = msg.sender;\r\n        token = IERC20(_token);\r\n        paymentToken = IERC20(_paymentToken);\r\n        currentPhaseIndex = 0;\r\n        sold = 0;\r\n        saleEnded = false;\r\n\r\n        uint basePrice = 2.38 * 10 ** 18;\r\n\r\n        for (uint i = 0; i < 3; i++) {\r\n            uint discountPercentage = (i == 0) ? 30 : (i == 1) ? 20 : 0;\r\n            uint discountedPrice = (basePrice * (100 - discountPercentage)) / 100;\r\n            phases.push(Phase(1000000, discountedPrice, i + 1));\r\n        }\r\n    }\r\n\r\n\r\n    function buy(uint tokens) public {\r\n        require(!saleEnded, \"Sale has ended\");\r\n        require(phase(currentPhaseIndex).total >= tokens, \"Not enough tokens available in this phase\");\r\n\r\n        uint usdtToUse = tokens * phase(currentPhaseIndex).price;\r\n        require(paymentToken.allowance(msg.sender, address(this)) >= usdtToUse, \"Not enough USDT approved\");\r\n\r\n        require(paymentToken.transferFrom(msg.sender, address(this), usdtToUse), \"USDT transfer failed\");\r\n\r\n        require(token.transfer(msg.sender, tokens), \"Token transfer failed\");\r\n\r\n        sold += tokens;\r\n        totalTokensSold += tokens;\r\n        phases[currentPhaseIndex].total -= tokens;\r\n        purchasedTokens[msg.sender] += tokens;\r\n\r\n        if (phases[currentPhaseIndex].total == 0) {\r\n            currentPhaseIndex++;\r\n            sold = 0;\r\n            if (currentPhaseIndex == phases.length) {\r\n                saleEnded = true;\r\n            }\r\n        }\r\n        emit TokensPurchased(msg.sender, tokens);\r\n    }\r\n\r\n\r\n\r\n    function claimTokens() public {\r\n        require(saleEnded, \"Sale has not ended yet\");\r\n        uint tokensToClaim = purchasedTokens[msg.sender];\r\n        require(tokensToClaim > 0, \"No tokens to claim\");\r\n\r\n        purchasedTokens[msg.sender] = 0;\r\n        require(token.transfer(msg.sender, tokensToClaim));\r\n\r\n        emit TokensClaimed(msg.sender, tokensToClaim);\r\n    }\r\n\r\n    function balanceOf(address account) public view returns (uint) {\r\n        return purchasedTokens[account];\r\n    }\r\n\r\n    function endSale() public onlyOwner {\r\n    require(!saleEnded, \"Sale has already ended\");\r\n\r\n    require(token.transfer(owner, token.balanceOf(address(this))));\r\n\r\n    payable(owner).transfer(address(this).balance);\r\n\r\n    saleEnded = true;\r\n}\r\n\r\n    function _unAmount(uint _amountDeci, uint decimals) private pure returns(uint){\r\n        return _amountDeci / (10**decimals);\r\n    }\r\n\r\n    function _tokens() public view returns (uint) {\r\n        return _unAmount(token.balanceOf(msg.sender), 18);\r\n    }\r\n\r\n\r\n\r\n    function tokensSold() public view returns (uint) {\r\n        return totalTokensSold;\r\n    }\r\n\r\n    function totalTokens() public view returns (uint) {\r\n        return _unAmount(token.totalSupply(), 18);\r\n    }\r\n\r\n    function currentPhase() public view returns (uint, uint, uint, uint) {\r\n        Phase memory current = phases[currentPhaseIndex];\r\n        uint totalTokensPhase = sold;\r\n        return (current.phase, current.total, current.price, totalTokensPhase);\r\n    }\r\n\r\n    function phase(uint phaseId) public view returns (Phase memory) {\r\n        return phases[phaseId];\r\n    }\r\n\r\n    function _tokenPrice() public view returns (uint) {\r\n        return buyPrice;\r\n    }\r\n\r\n    modifier onlyOwner() {\r\n        require(msg.sender == owner, \"Only owner allowed\");\r\n        _;\r\n    }\r\n}",
  "sourcePath": "C:\\Users\\User\\Desktop\\solidity\\contracts\\TokenSales.sol",
  "compiler": {
    "name": "solc",
    "version": "0.8.19+commit.7dd6d404.Emscripten.clang"
  },
  "schemaVersion": "3.4.16",
  "updatedAt": "2024-02-25T22:15:43.125Z",
  "networkType": "ethereum",
  "devdoc": {
    "kind": "dev",
    "methods": {},
    "version": 1
  },
  "userdoc": {
    "kind": "user",
    "methods": {},
    "version": 1
  }
}