{
  "contractName": "UnitySale",
  "abi": [
    {
      "inputs": [
        {
          "internalType": "address",
          "name": "_token",
          "type": "address"
        },
        {
          "internalType": "address",
          "name": "_usdtToken",
          "type": "address"
        }
      ],
      "stateMutability": "nonpayable",
      "type": "constructor"
    },
    {
      "anonymous": false,
      "inputs": [
        {
          "indexed": true,
          "internalType": "address",
          "name": "claimer",
          "type": "address"
        },
        {
          "indexed": false,
          "internalType": "uint256",
          "name": "amount",
          "type": "uint256"
        }
      ],
      "name": "TokensClaimed",
      "type": "event"
    },
    {
      "anonymous": false,
      "inputs": [
        {
          "indexed": true,
          "internalType": "address",
          "name": "buyer",
          "type": "address"
        },
        {
          "indexed": false,
          "internalType": "uint256",
          "name": "amount",
          "type": "uint256"
        }
      ],
      "name": "TokensPurchased",
      "type": "event"
    },
    {
      "inputs": [],
      "name": "owner",
      "outputs": [
        {
          "internalType": "address",
          "name": "",
          "type": "address"
        }
      ],
      "stateMutability": "view",
      "type": "function"
    },
    {
      "inputs": [],
      "name": "saleEnded",
      "outputs": [
        {
          "internalType": "bool",
          "name": "",
          "type": "bool"
        }
      ],
      "stateMutability": "view",
      "type": "function"
    },
    {
      "inputs": [],
      "name": "usdtToken",
      "outputs": [
        {
          "internalType": "contract IERC20",
          "name": "",
          "type": "address"
        }
      ],
      "stateMutability": "view",
      "type": "function"
    },
    {
      "inputs": [
        {
          "internalType": "uint256",
          "name": "tokens",
          "type": "uint256"
        }
      ],
      "name": "buy",
      "outputs": [],
      "stateMutability": "nonpayable",
      "type": "function"
    },
    {
      "inputs": [],
      "name": "claimTokens",
      "outputs": [],
      "stateMutability": "nonpayable",
      "type": "function"
    },
    {
      "inputs": [
        {
          "internalType": "address",
          "name": "account",
          "type": "address"
        }
      ],
      "name": "balanceOf",
      "outputs": [
        {
          "internalType": "uint256",
          "name": "",
          "type": "uint256"
        }
      ],
      "stateMutability": "view",
      "type": "function"
    },
    {
      "inputs": [],
      "name": "endSale",
      "outputs": [],
      "stateMutability": "nonpayable",
      "type": "function"
    },
    {
      "inputs": [],
      "name": "_tokens",
      "outputs": [
        {
          "internalType": "uint256",
          "name": "",
          "type": "uint256"
        }
      ],
      "stateMutability": "view",
      "type": "function"
    },
    {
      "inputs": [],
      "name": "tokensSold",
      "outputs": [
        {
          "internalType": "uint256",
          "name": "",
          "type": "uint256"
        }
      ],
      "stateMutability": "view",
      "type": "function"
    },
    {
      "inputs": [],
      "name": "totalTokens",
      "outputs": [
        {
          "internalType": "uint256",
          "name": "",
          "type": "uint256"
        }
      ],
      "stateMutability": "view",
      "type": "function"
    },
    {
      "inputs": [],
      "name": "currentPhase",
      "outputs": [
        {
          "internalType": "uint256",
          "name": "price",
          "type": "uint256"
        },
        {
          "internalType": "uint256",
          "name": "currentPhaseNumber",
          "type": "uint256"
        },
        {
          "internalType": "uint256",
          "name": "tokensAvailable",
          "type": "uint256"
        },
        {
          "internalType": "uint256",
          "name": "tokensSoldPhase",
          "type": "uint256"
        }
      ],
      "stateMutability": "view",
      "type": "function"
    },
    {
      "inputs": [
        {
          "internalType": "uint256",
          "name": "phaseId",
          "type": "uint256"
        }
      ],
      "name": "phase",
      "outputs": [
        {
          "components": [
            {
              "internalType": "uint256",
              "name": "total",
              "type": "uint256"
            },
            {
              "internalType": "uint256",
              "name": "price",
              "type": "uint256"
            },
            {
              "internalType": "uint256",
              "name": "phase",
              "type": "uint256"
            }
          ],
          "internalType": "struct UnitySale.Phase",
          "name": "",
          "type": "tuple"
        }
      ],
      "stateMutability": "view",
      "type": "function"
    },
    {
      "inputs": [],
      "name": "_tokenPrice",
      "outputs": [
        {
          "internalType": "uint256",
          "name": "",
          "type": "uint256"
        }
      ],
      "stateMutability": "view",
      "type": "function"
    }
  ],
  "bytecode": "0x60806040526000600460006101000a81548173ffffffffffffffffffffffffffffffffffffffff021916908373ffffffffffffffffffffffffffffffffffffffff1602179055503480156200005357600080fd5b5060405162001f1138038062001f118339818101604052810190620000799190620002d8565b336000806101000a81548173ffffffffffffffffffffffffffffffffffffffff021916908373ffffffffffffffffffffffffffffffffffffffff16021790555081600560006101000a81548173ffffffffffffffffffffffffffffffffffffffff021916908373ffffffffffffffffffffffffffffffffffffffff16021790555080600660006101000a81548173ffffffffffffffffffffffffffffffffffffffff021916908373ffffffffffffffffffffffffffffffffffffffff160217905550600060078190555060006002819055506000600860006101000a81548160ff0219169083151502179055506000622450e0905060005b6003811015620002645760008082146200019f57600182146200019657600062000199565b60145b620001a2565b601e5b60ff16905060006064826064620001ba919062000358565b85620001c7919062000393565b620001d391906200040d565b905060096040518060600160405280620f4240815260200183815260200160018662000200919062000445565b81525090806001815401808255809150506001900390600052602060002090600302016000909190919091506000820151816000015560208201518160010155604082015181600201555050505080806200025b9062000480565b91505062000171565b50505050620004cd565b600080fd5b600073ffffffffffffffffffffffffffffffffffffffff82169050919050565b6000620002a08262000273565b9050919050565b620002b28162000293565b8114620002be57600080fd5b50565b600081519050620002d281620002a7565b92915050565b60008060408385031215620002f257620002f16200026e565b5b60006200030285828601620002c1565b92505060206200031585828601620002c1565b9150509250929050565b6000819050919050565b7f4e487b7100000000000000000000000000000000000000000000000000000000600052601160045260246000fd5b600062000365826200031f565b915062000372836200031f565b92508282039050818111156200038d576200038c62000329565b5b92915050565b6000620003a0826200031f565b9150620003ad836200031f565b9250828202620003bd816200031f565b91508282048414831517620003d757620003d662000329565b5b5092915050565b7f4e487b7100000000000000000000000000000000000000000000000000000000600052601260045260246000fd5b60006200041a826200031f565b915062000427836200031f565b9250826200043a5762000439620003de565b5b828204905092915050565b600062000452826200031f565b91506200045f836200031f565b92508282019050808211156200047a576200047962000329565b5b92915050565b60006200048d826200031f565b91507fffffffffffffffffffffffffffffffffffffffffffffffffffffffffffffffff8203620004c257620004c162000329565b5b600182019050919050565b611a3480620004dd6000396000f3fe608060405234801561001057600080fd5b50600436106100cf5760003560e01c806370a082311161008c5780638da5cb5b116100665780638da5cb5b146101e15780639b8906ae146101ff578063a98ad46c1461021d578063d96a094a1461023b576100cf565b806370a08231146101755780637e1c0c09146101a55780638970d84c146101c3576100cf565b8063055ad42e146100d4578063135f8aa7146100f5578063380d831b146101255780633b971f9f1461012f57806348c54b9d1461014d578063518ab2a814610157575b600080fd5b6100dc610257565b6040516100ec9493929190610f43565b60405180910390f35b61010f600480360381019061010a9190610fb9565b61028d565b60405161011c9190611037565b60405180910390f35b61012d6102e7565b005b6101376105ad565b6040516101449190611052565b60405180910390f35b6101556105b7565b005b61015f6107cc565b60405161016c9190611052565b60405180910390f35b61018f600480360381019061018a91906110cb565b6107d6565b60405161019c9190611052565b60405180910390f35b6101ad61081f565b6040516101ba9190611052565b60405180910390f35b6101cb6108c1565b6040516101d89190611052565b60405180910390f35b6101e961096e565b6040516101f69190611107565b60405180910390f35b610207610992565b604051610214919061113d565b60405180910390f35b6102256109a5565b60405161023291906111b7565b60405180910390f35b61025560048036038101906102509190610fb9565b6109cb565b005b600080600080600061026a60075461028d565b905080602001518160400151826000015160025494509450945094505090919293565b610295610f09565b600982815481106102a9576102a86111d2565b5b906000526020600020906003020160405180606001604052908160008201548152602001600182015481526020016002820154815250509050919050565b60008054906101000a900473ffffffffffffffffffffffffffffffffffffffff1673ffffffffffffffffffffffffffffffffffffffff163373ffffffffffffffffffffffffffffffffffffffff1614610375576040517f08c379a000000000000000000000000000000000000000000000000000000000815260040161036c9061125e565b60405180910390fd5b600860009054906101000a900460ff16156103c5576040517f08c379a00000000000000000000000000000000000000000000000000000000081526004016103bc906112ca565b60405180910390fd5b600560009054906101000a900473ffffffffffffffffffffffffffffffffffffffff1673ffffffffffffffffffffffffffffffffffffffff1663a9059cbb60008054906101000a900473ffffffffffffffffffffffffffffffffffffffff16600560009054906101000a900473ffffffffffffffffffffffffffffffffffffffff1673ffffffffffffffffffffffffffffffffffffffff166370a08231306040518263ffffffff1660e01b815260040161047f9190611107565b602060405180830381865afa15801561049c573d6000803e3d6000fd5b505050506040513d601f19601f820116820180604052508101906104c091906112ff565b6040518363ffffffff1660e01b81526004016104dd92919061132c565b6020604051808303816000875af11580156104fc573d6000803e3d6000fd5b505050506040513d601f19601f820116820180604052508101906105209190611381565b61052957600080fd5b60008054906101000a900473ffffffffffffffffffffffffffffffffffffffff1673ffffffffffffffffffffffffffffffffffffffff166108fc479081150290604051600060405180830381858888f1935050505015801561058f573d6000803e3d6000fd5b506001600860006101000a81548160ff021916908315150217905550565b6000600154905090565b600860009054906101000a900460ff16610606576040517f08c379a00000000000000000000000000000000000000000000000000000000081526004016105fd906113fa565b60405180910390fd5b6000600a60003373ffffffffffffffffffffffffffffffffffffffff1673ffffffffffffffffffffffffffffffffffffffff1681526020019081526020016000205490506000811161068d576040517f08c379a000000000000000000000000000000000000000000000000000000000815260040161068490611466565b60405180910390fd5b6000600a60003373ffffffffffffffffffffffffffffffffffffffff1673ffffffffffffffffffffffffffffffffffffffff16815260200190815260200160002081905550600560009054906101000a900473ffffffffffffffffffffffffffffffffffffffff1673ffffffffffffffffffffffffffffffffffffffff1663a9059cbb33836040518363ffffffff1660e01b815260040161072f92919061132c565b6020604051808303816000875af115801561074e573d6000803e3d6000fd5b505050506040513d601f19601f820116820180604052508101906107729190611381565b61077b57600080fd5b3373ffffffffffffffffffffffffffffffffffffffff167f896e034966eaaf1adc54acc0f257056febbd300c9e47182cf761982cf1f5e430826040516107c19190611052565b60405180910390a250565b6000600254905090565b6000600a60008373ffffffffffffffffffffffffffffffffffffffff1673ffffffffffffffffffffffffffffffffffffffff168152602001908152602001600020549050919050565b60006108bc600560009054906101000a900473ffffffffffffffffffffffffffffffffffffffff1673ffffffffffffffffffffffffffffffffffffffff166318160ddd6040518163ffffffff1660e01b8152600401602060405180830381865afa158015610891573d6000803e3d6000fd5b505050506040513d601f19601f820116820180604052508101906108b591906112ff565b6012610ee7565b905090565b6000610969600560009054906101000a900473ffffffffffffffffffffffffffffffffffffffff1673ffffffffffffffffffffffffffffffffffffffff166370a08231336040518263ffffffff1660e01b81526004016109219190611107565b602060405180830381865afa15801561093e573d6000803e3d6000fd5b505050506040513d601f19601f8201168201806040525081019061096291906112ff565b6012610ee7565b905090565b60008054906101000a900473ffffffffffffffffffffffffffffffffffffffff1681565b600860009054906101000a900460ff1681565b600660009054906101000a900473ffffffffffffffffffffffffffffffffffffffff1681565b600860009054906101000a900460ff1615610a1b576040517f08c379a0000000000000000000000000000000000000000000000000000000008152600401610a12906114d2565b60405180910390fd5b80610a2760075461028d565b600001511015610a6c576040517f08c379a0000000000000000000000000000000000000000000000000000000008152600401610a6390611564565b60405180910390fd5b6000610a7960075461028d565b6020015182610a8891906115b3565b905080600660009054906101000a900473ffffffffffffffffffffffffffffffffffffffff1673ffffffffffffffffffffffffffffffffffffffff166370a08231306040518263ffffffff1660e01b8152600401610ae69190611107565b602060405180830381865afa158015610b03573d6000803e3d6000fd5b505050506040513d601f19601f82011682018060405250810190610b2791906112ff565b1015610b68576040517f08c379a0000000000000000000000000000000000000000000000000000000008152600401610b5f90611641565b60405180910390fd5b600660009054906101000a900473ffffffffffffffffffffffffffffffffffffffff1673ffffffffffffffffffffffffffffffffffffffff166323b872dd3360008054906101000a900473ffffffffffffffffffffffffffffffffffffffff16846040518463ffffffff1660e01b8152600401610be793929190611661565b6020604051808303816000875af1158015610c06573d6000803e3d6000fd5b505050506040513d601f19601f82011682018060405250810190610c2a9190611381565b610c69576040517f08c379a0000000000000000000000000000000000000000000000000000000008152600401610c60906116e4565b60405180910390fd5b600560009054906101000a900473ffffffffffffffffffffffffffffffffffffffff1673ffffffffffffffffffffffffffffffffffffffff1663a9059cbb33846040518363ffffffff1660e01b8152600401610cc692919061132c565b6020604051808303816000875af1158015610ce5573d6000803e3d6000fd5b505050506040513d601f19601f82011682018060405250810190610d099190611381565b610d48576040517f08c379a0000000000000000000000000000000000000000000000000000000008152600401610d3f90611750565b60405180910390fd5b8160026000828254610d5a9190611770565b9250508190555081600960075481548110610d7857610d776111d2565b5b90600052602060002090600302016000016000828254610d9891906117a4565b9250508190555081600a60003373ffffffffffffffffffffffffffffffffffffffff1673ffffffffffffffffffffffffffffffffffffffff1681526020019081526020016000206000828254610dee9190611770565b925050819055506000600960075481548110610e0d57610e0c6111d2565b5b90600052602060002090600302016000015403610e955760076000815480929190610e37906117d8565b919050555060098054905060075403610e66576001600860006101000a81548160ff0219169083151502179055505b600960075481548110610e7c57610e7b6111d2565b5b9060005260206000209060030201600101546001819055505b3373ffffffffffffffffffffffffffffffffffffffff167f8f28852646c20cc973d3a8218f7eefed58c25c909f78f0265af4818c3d4dc27183604051610edb9190611052565b60405180910390a25050565b600081600a610ef69190611953565b83610f0191906119cd565b905092915050565b60405180606001604052806000815260200160008152602001600081525090565b6000819050919050565b610f3d81610f2a565b82525050565b6000608082019050610f586000830187610f34565b610f656020830186610f34565b610f726040830185610f34565b610f7f6060830184610f34565b95945050505050565b600080fd5b610f9681610f2a565b8114610fa157600080fd5b50565b600081359050610fb381610f8d565b92915050565b600060208284031215610fcf57610fce610f88565b5b6000610fdd84828501610fa4565b91505092915050565b610fef81610f2a565b82525050565b60608201600082015161100b6000850182610fe6565b50602082015161101e6020850182610fe6565b5060408201516110316040850182610fe6565b50505050565b600060608201905061104c6000830184610ff5565b92915050565b60006020820190506110676000830184610f34565b92915050565b600073ffffffffffffffffffffffffffffffffffffffff82169050919050565b60006110988261106d565b9050919050565b6110a88161108d565b81146110b357600080fd5b50565b6000813590506110c58161109f565b92915050565b6000602082840312156110e1576110e0610f88565b5b60006110ef848285016110b6565b91505092915050565b6111018161108d565b82525050565b600060208201905061111c60008301846110f8565b92915050565b60008115159050919050565b61113781611122565b82525050565b6000602082019050611152600083018461112e565b92915050565b6000819050919050565b600061117d6111786111738461106d565b611158565b61106d565b9050919050565b600061118f82611162565b9050919050565b60006111a182611184565b9050919050565b6111b181611196565b82525050565b60006020820190506111cc60008301846111a8565b92915050565b7f4e487b7100000000000000000000000000000000000000000000000000000000600052603260045260246000fd5b600082825260208201905092915050565b7f4f6e6c79206f776e657220616c6c6f7765640000000000000000000000000000600082015250565b6000611248601283611201565b915061125382611212565b602082019050919050565b600060208201905081810360008301526112778161123b565b9050919050565b7f53616c652068617320616c726561647920656e64656400000000000000000000600082015250565b60006112b4601683611201565b91506112bf8261127e565b602082019050919050565b600060208201905081810360008301526112e3816112a7565b9050919050565b6000815190506112f981610f8d565b92915050565b60006020828403121561131557611314610f88565b5b6000611323848285016112ea565b91505092915050565b600060408201905061134160008301856110f8565b61134e6020830184610f34565b9392505050565b61135e81611122565b811461136957600080fd5b50565b60008151905061137b81611355565b92915050565b60006020828403121561139757611396610f88565b5b60006113a58482850161136c565b91505092915050565b7f53616c6520686173206e6f7420656e6465642079657400000000000000000000600082015250565b60006113e4601683611201565b91506113ef826113ae565b602082019050919050565b60006020820190508181036000830152611413816113d7565b9050919050565b7f4e6f20746f6b656e7320746f20636c61696d0000000000000000000000000000600082015250565b6000611450601283611201565b915061145b8261141a565b602082019050919050565b6000602082019050818103600083015261147f81611443565b9050919050565b7f53616c652068617320656e646564000000000000000000000000000000000000600082015250565b60006114bc600e83611201565b91506114c782611486565b602082019050919050565b600060208201905081810360008301526114eb816114af565b9050919050565b7f4e6f7420656e6f75676820746f6b656e7320617661696c61626c6520696e207460008201527f6869732070686173650000000000000000000000000000000000000000000000602082015250565b600061154e602983611201565b9150611559826114f2565b604082019050919050565b6000602082019050818103600083015261157d81611541565b9050919050565b7f4e487b7100000000000000000000000000000000000000000000000000000000600052601160045260246000fd5b60006115be82610f2a565b91506115c983610f2a565b92508282026115d781610f2a565b915082820484148315176115ee576115ed611584565b5b5092915050565b7f4e6f7420656e6f756768205553445420696e20636f6e74726163740000000000600082015250565b600061162b601b83611201565b9150611636826115f5565b602082019050919050565b6000602082019050818103600083015261165a8161161e565b9050919050565b600060608201905061167660008301866110f8565b61168360208301856110f8565b6116906040830184610f34565b949350505050565b7f55534454207472616e73666572206661696c6564000000000000000000000000600082015250565b60006116ce601483611201565b91506116d982611698565b602082019050919050565b600060208201905081810360008301526116fd816116c1565b9050919050565b7f546f6b656e207472616e73666572206661696c65640000000000000000000000600082015250565b600061173a601583611201565b915061174582611704565b602082019050919050565b600060208201905081810360008301526117698161172d565b9050919050565b600061177b82610f2a565b915061178683610f2a565b925082820190508082111561179e5761179d611584565b5b92915050565b60006117af82610f2a565b91506117ba83610f2a565b92508282039050818111156117d2576117d1611584565b5b92915050565b60006117e382610f2a565b91507fffffffffffffffffffffffffffffffffffffffffffffffffffffffffffffffff820361181557611814611584565b5b600182019050919050565b60008160011c9050919050565b6000808291508390505b60018511156118775780860481111561185357611852611584565b5b60018516156118625780820291505b808102905061187085611820565b9450611837565b94509492505050565b600082611890576001905061194c565b8161189e576000905061194c565b81600181146118b457600281146118be576118ed565b600191505061194c565b60ff8411156118d0576118cf611584565b5b8360020a9150848211156118e7576118e6611584565b5b5061194c565b5060208310610133831016604e8410600b84101617156119225782820a90508381111561191d5761191c611584565b5b61194c565b61192f848484600161182d565b9250905081840481111561194657611945611584565b5b81810290505b9392505050565b600061195e82610f2a565b915061196983610f2a565b92506119967fffffffffffffffffffffffffffffffffffffffffffffffffffffffffffffffff8484611880565b905092915050565b7f4e487b7100000000000000000000000000000000000000000000000000000000600052601260045260246000fd5b60006119d882610f2a565b91506119e383610f2a565b9250826119f3576119f261199e565b5b82820490509291505056fea2646970667358221220bc6ce480e8dcdd190f0558d907e4c3fc2ea5e314cf3b1434a24e232f7875347664736f6c63430008130033",
  "immutableReferences": {},
  "source": "// SPDX-License-Identifier: MIT\r\npragma solidity ^0.8.19;\r\n\r\nimport \"@openzeppelin/contracts/token/ERC20/IERC20.sol\";\r\n\r\ncontract UnitySale {\r\n    address public owner;\r\n    uint private buyPrice;\r\n    uint private sold;\r\n    uint private toSold;\r\n    address private noOne = address(0);\r\n    IERC20 private token;\r\n    IERC20 public usdtToken;\r\n    uint private currentPhaseIndex;\r\n    bool public saleEnded;\r\n\r\n    struct Phase {\r\n        uint total;\r\n        uint price;\r\n        uint phase;\r\n    }\r\n\r\n    Phase[] private phases;\r\n    mapping(address => uint) private purchasedTokens;\r\n\r\n    event TokensPurchased(address indexed buyer, uint amount);\r\n    event TokensClaimed(address indexed claimer, uint amount);\r\n\r\n    constructor(address _token, address _usdtToken) {\r\n        owner = msg.sender;\r\n        token = IERC20(_token);\r\n        usdtToken = IERC20(_usdtToken);\r\n        currentPhaseIndex = 0;\r\n        sold = 0;\r\n        saleEnded = false;\r\n\r\n        uint basePrice = 2.38 * 10 ** 6;\r\n\r\n        for (uint i = 0; i < 3; i++) {\r\n            uint discountPercentage = (i == 0) ? 30 : (i == 1) ? 20 : 0;\r\n            uint discountedPrice = (basePrice * (100 - discountPercentage)) / 100;\r\n            phases.push(Phase(1000000, discountedPrice, i + 1));\r\n        }\r\n    }\r\n\r\n\r\n    function buy(uint tokens) public {\r\n        require(!saleEnded, \"Sale has ended\");\r\n        require(\r\n            phase(currentPhaseIndex).total >= tokens,\r\n            \"Not enough tokens available in this phase\"\r\n        );\r\n\r\n        uint cost = tokens * phase(currentPhaseIndex).price;\r\n\r\n        require(\r\n            usdtToken.balanceOf(address(this)) >= cost,\r\n            \"Not enough USDT in contract\"\r\n        );\r\n\r\n        require(\r\n            usdtToken.transferFrom(msg.sender, owner, cost),\r\n            \"USDT transfer failed\"\r\n        );\r\n\r\n        require(token.transfer(msg.sender, tokens), \"Token transfer failed\");\r\n\r\n        sold += tokens;\r\n        phases[currentPhaseIndex].total -= tokens;\r\n        purchasedTokens[msg.sender] += tokens;\r\n\r\n        if (phases[currentPhaseIndex].total == 0) {\r\n            currentPhaseIndex++;\r\n            if (currentPhaseIndex == phases.length) {\r\n                saleEnded = true;\r\n            }\r\n            buyPrice = phases[currentPhaseIndex].price;\r\n        }\r\n\r\n        emit TokensPurchased(msg.sender, tokens);\r\n    }\r\n\r\n    function claimTokens() public {\r\n        require(saleEnded, \"Sale has not ended yet\");\r\n        uint tokensToClaim = purchasedTokens[msg.sender];\r\n        require(tokensToClaim > 0, \"No tokens to claim\");\r\n\r\n        purchasedTokens[msg.sender] = 0;\r\n        require(token.transfer(msg.sender, tokensToClaim));\r\n\r\n        emit TokensClaimed(msg.sender, tokensToClaim);\r\n    }\r\n\r\n    function balanceOf(address account) public view returns (uint) {\r\n        return purchasedTokens[account];\r\n    }\r\n\r\n    function endSale() public onlyOwner {\r\n        require(!saleEnded, \"Sale has already ended\");\r\n\r\n        require(token.transfer(owner, token.balanceOf(address(this))));\r\n\r\n        payable(owner).transfer(address(this).balance);\r\n\r\n        saleEnded = true;\r\n    }\r\n\r\n    function _unAmount(\r\n        uint _amountDeci,\r\n        uint decimals\r\n    ) private pure returns (uint) {\r\n        return _amountDeci / (10 ** decimals);\r\n    }\r\n\r\n    function _tokens() public view returns (uint) {\r\n        return _unAmount(token.balanceOf(msg.sender), 18);\r\n    }\r\n\r\n    function tokensSold() public view returns (uint) {\r\n        return sold;\r\n    }\r\n\r\n    function totalTokens() public view returns (uint) {\r\n        return _unAmount(token.totalSupply(), 18);\r\n    }\r\n\r\n    function currentPhase()\r\n        public\r\n        view\r\n        returns (\r\n            uint price,\r\n            uint currentPhaseNumber,\r\n            uint tokensAvailable,\r\n            uint tokensSoldPhase\r\n        )\r\n    {\r\n        Phase memory currentPhaseData = phase(currentPhaseIndex);\r\n        return (\r\n            currentPhaseData.price,\r\n            currentPhaseData.phase,\r\n            currentPhaseData.total,\r\n            sold\r\n        );\r\n    }\r\n\r\n    function phase(uint phaseId) public view returns (Phase memory) {\r\n        return phases[phaseId];\r\n    }\r\n\r\n    function _tokenPrice() public view returns (uint) {\r\n        return buyPrice;\r\n    }\r\n\r\n    modifier onlyOwner() {\r\n        require(msg.sender == owner, \"Only owner allowed\");\r\n        _;\r\n    }\r\n}\r\n",
  "sourcePath": "C:\\Users\\User\\Desktop\\solidity\\contracts\\Unitysale.sol",
  "compiler": {
    "name": "solc",
    "version": "0.8.19+commit.7dd6d404.Emscripten.clang"
  },
  "schemaVersion": "3.4.16",
  "updatedAt": "2024-02-19T14:56:41.063Z",
  "devdoc": {
    "kind": "dev",
    "methods": {},
    "version": 1
  },
  "userdoc": {
    "kind": "user",
    "methods": {},
    "version": 1
  }
}